:10000000C0580020992900005DA100006D29000062
:100010006D2900006D2900006D290000000000001E
:100020000000000000000000000000000D220000A1
:100030006D29000000000000A92100006D290000CA
:10004000C9220000C9220000C9220000C922000004
:10005000C9220000C9220000C9220000C9220000F4
:10006000C9220000C9220000C9220000C9220000E4
:10007000C9220000C9220000C9220000C9220000D4
:10008000C9220000C9220000C9220000C9220000C4
:10009000C9220000C9220000C9220000C9220000B4
:1000A000C9220000C9220000C9220000C9220000A4
:1000B000C9220000C9220000C9220000C922000094
:1000C000C9220000C9220000C9220000C922000084
:1000D000C9220000C9220000C9220000C922000074
:1000E000C9220000C9220000C9220000C922000064
:1000F000C9220000C9220000C9220000C922000054
:1001000053B94AB9002908BF00281CBF4FF0FF317E
:100110004FF0FF3000F00CB8ADF1080C6DE904CEE3
:1001200000F008F8DDF804E0DDE9022304B07047D0
:10013000704700BF2DE9F04786468C460846089E6A
:10014000154674461946002B40F0C2808542B2FA2B
:1001500082F245D94AB1C2F1200300FA02FC2EFA1C
:1001600003F3954043EA0C0C94404FEA154EA8B2B5
:10017000BCFBFEF8230C0EFB18CC08FB00F943EA8D
:100180000C43994528D9EB1808F1FF3704D299455B
:1001900002D9A8F102072B44A3EB0903A4B2B3FBD5
:1001A000FEFC0EFB1C330CFB00F044EA0344A042AF
:1001B00014D92C190CF1FF3304D2A04202D9ACF1AE
:1001C00002032C44241A43EA07401EB1D440002302
:1001D00034607360BDE8F0874746DDE76346F1E7CA
:1001E00092BB431B01214FEA154EAFB2B3FBFEFC9D
:1001F000200C0EFB1C330CFB07F840EA0343984528
:1002000062D9EB180CF1FF3004D2984502D9ACF159
:1002100002002B44A3EB0803A4B2B3FBFEFC0EFBCD
:100220001C330CFB07F744EA0344A7424ED92C19B0
:100230000CF1FF3304D2A74202D9ACF102032C44E3
:10024000E41B43EA0040C0E7C2F1200320FA03F1B7
:10025000954090402EFA03F303434FEA154EAFB298
:10026000B1FBFEFC0EFB1C10190C0CFB07F841EA5D
:100270000041884504FA02F422D969180CF1FF30D4
:1002800004D2884502D9ACF102002944A1EB08014F
:100290009BB2B1FBFEFC0EFB1C110CFB07F743EA03
:1002A00001439F420ED9EB180CF1FF3104D29F425B
:1002B00002D9ACF102012B44DB1B41EA004192E779
:1002C0006046E3E76146F7E76046A3E76346B7E7C2
:1002D000834206D916B9002108467BE7C6E900E04B
:1002E000F9E7B3FA83F78FB9834201D3724508D88F
:1002F000BEEB020460EB030301209C461EB9002103
:1003000068E73846FAE7C6E9004CF8E7C7F1200C81
:10031000BB4022FA0CF41C432EFA0CF120FA0CF329
:10032000B84001434FEA14490EFA07F5B3FBF9F858
:100330001FFA84FE09FB18300B0C08FB0EFA43EA87
:1003400000439A4502FA07F240D9E31808F1FF305A
:1003500004D29A4502D9A8F102002344A3EB0A0370
:1003600089B2B3FBF9F809FB183308FB0EFE41EA2A
:1003700003418E452CD9611808F1FF3304D28E4514
:1003800002D9A8F10203214443EA0040A0FB0298ED
:10039000A1EB0E014145CE46434602D306D14D4561
:1003A00004D2B9EB020E68EB04030138002EA6D08C
:1003B000B5EB0E0261EB030101FA0CFC22FA07F324
:1003C0004CEA0303F940C6E9003198E74046C5E727
:1003D0004346D9E7034613F8012B002AFBD1181A2C
:1003E0000138704738B5054B9D68002403486B6899
:1003F000214601349847802CF8D138BD8CB40000D8
:1004000070B50A4D0A4E4FF4017303FB00550024EA
:1004100055F8043B012BB36821460CBF1B685B6891
:10042000304601349847802CF2D170BDB0000020D6
:100430008CB4000008B5044809F005FA034A1378A3
:1004400083F00103137008BD10BC0000504300206E
:10045000002810B50BDD0A4C0A48236801332360DD
:1004600009F0F1F92068BDE8104000F04FB905D05F
:10047000034C05482368013B2360F1E710BD00BF32
:10048000F02000201CBC000028BC00002DE9F04F2B
:1004900000248DB01422214607A8CDE90444069417
:1004A0000AF02DFF0DF10603099302230A937B4FF7
:1004B00038460AF086FC70B1BB6879491B6838463B
:1004C0009847021E0CDB77480AF07BFC80B976481F
:1004D00009F0B9F908E03968744809F0B4F903E0A3
:1004E0007348214609F0AFF900200DB0BDE8F08F48
:1004F000704D28460AF065FC044608B96E48E7E7E7
:100500002A69AE68136823F020031360052133685D
:100510006A4A28469847011E01DA6948DDE7052145
:10052000D6F818C04FF080634FF0A0722846E0471D
:10053000014608B16348D0E76349644B4B60202310
:100540008B60F36913B10122284698476048DFF8B1
:1005500054B109F078F90020FFF752FF0026354624
:100560005C4B93F800A0BAF1000F6ED010220892F5
:100570000A22ADF82C20BA684848526807A990476B
:10058000011E08DA544809F05EF9002140F6CD401A
:1005900008F092F8E4E7BDF806904FF6DB7291455B
:1005A000DED84E4A4FF4FA7808FB09F8904546DD4C
:1005B000002C48D00AF0B6FD4FF47A72A0FB02037B
:1005C00002FB0133C00B40EA43440322B5FBF2F3C4
:1005D00003EB4303EB1A0CA901EB8303A61B022DCB
:1005E00043F8206C13D9DDE904130B4406993C4809
:1005F0000B444EF66026B3FBF2F3B6FBF3F631463E
:1006000009F021F9374B30461E6000F07FF829468B
:10061000354809F018F935484FF47A724946B8FB65
:10062000F2F209F010F905F1010A554626464FF09D
:10063000000A2120002108F03FF8544690E747F2D5
:100640002F529045F5DDA246F3E7DBF80880154808
:10065000D8F80C303A219847014608B124483CE7C5
:100660002321D8F8103002AA58469847014608B10D
:10067000204832E7174B1B7863B90298FFF7E8FE72
:1006800002991D4809F0DFF8002140F6CD4008F03E
:1006900013F8D8E7FFF7A6FEF2E700BF3CB400006E
:1006A0007EB70000B4B400007CBC000036BC000083
:1006B0005ABC000000B4000096BC0000100001000D
:1006C000ACBC0000CEBC0000A03900203504000006
:1006D000F6BC00005043002016BD0000671E060057
:1006E0002BBD0000F020002035BD000042BD000001
:1006F00064BD000081BD00009ABD000001460248B3
:1007000083685B68184700BF8CB4000063282DE93C
:10071000F84FC8BF64380A23274D90FBF3F6DFF883
:100720009CA003FB16044FF4827303FB06564FF0A4
:1007300000084FEA480707F1080BB14659F8043B97
:10074000012B25D1DAF8083039461B685046984706
:1007500001375F45F2D108F10808B8F1400F06F102
:100760002006E6D14FF48273DFF8508003FB045477
:1007700010270026A7F10805A146BD420CD1083676
:10078000402E05F1100704F12004F3D1BDE8F88FE5
:100790003846FFF7B3FFDBE759F8043B012B07D1DD
:1007A000D8F8083029461B68404698470135E4E7E9
:1007B0002846FFF7A3FFF9E7F42000208CB40000DF
:1007C0002DE9F04F91B08407009302F004030293E7
:1007D000C2F3C20303F10103DDF8689003920546FA
:1007E0000E46059340F0BA81041D30B1072909D89F
:1007F0006FF01B0011B0BDE8F08F01F00706341D4B
:10080000C6F10806009B4FF00008591E4FF0040A7D
:100810004FF0FF330193CDF810804746C34653464F
:100820000DB1009A22600598002800F3E8809848EE
:10083000009A824203D397488242C0F0E080039A34
:10084000A4EB050E92074FEA9E0000F103810F2FE3
:1008500000F2B180002D00F0058107F140020DEBA0
:10086000020C019A0CF8200C0CF8102C04980130A2
:100870000490E7E07A285DD84B280ED8472859D84D
:1008800029282DD8252852D054D820287AD023388A
:10089000D0F1000B4BEB000B74E04C382E2849D8FC
:1008A000DFE800F070484848484848484848484809
:1008B0004B484848484848484859484B4B5959596B
:1008C000704B6D487048184B184848827F4B484819
:1008D0004B487F0000204FF0000B4FF0040A38E037
:1008E0002A38C0B2012202FA00F010EA0E0F49D1F4
:1008F00010F0625C2FD110EA020B43D06046013C3D
:100900005444B4FBFAF40AFB04F4002D61D0A3EBC9
:10091000050CA4446645FFF46BAF002868D1042B96
:1009200047D159F8043B2360043404232AE0019A98
:10093000013A01924FF0000B24E011F8010C6C28F1
:1009400034D111F8023C00206C2B8346C5D14FF006
:10095000080A5346D3E709F1070929F007090734C4
:10096000F9E802AB24F0070435B106982044B04200
:100970003FF63EAFC4E900AB08344FF0000B4FF038
:10098000080A534611F8010F002878D0BBF1000F78
:100990007FF470AF2528F5D1019B013301934FF00F
:1009A000010B4FF0040AECE7584694E70020834619
:1009B000A5E7082B02D06FF015001BE709F1070926
:1009C00029F00709F9E80223C4E9002308340823C1
:1009D000D8E768B9042B02D109F10409A4E7082B70
:1009E000E9D109F1070929F0070909F10809EDE73B
:1009F000059A013A059259F8042B009210E7039AE0
:100A0000900720D5A4EB050E4FEA9E004FF0010C95
:100A1000BEF5007FCFD20F2FCDD8F5B107F1400240
:100A20000DEB020EC0B2019A0EF8200C0EF8102C3D
:100A3000BCF1000F3FF41AAF60F07F000EF8200CFD
:100A400008F101080137C5F10802043406924FF697
:100A5000DA7E97E74FF0000CDAE7BCF1000F01D027
:100A60000136EFE7029802360028EBD10098CDE975
:100A70000631FFF7AFFCDDE906310644E2E7631B10
:100A8000B3F5806F97D23DB9A6F10804E018B1E63E
:100A900034B30000D0CD0000029A28609B082B7070
:100AA0009DF81030C2B1EB7085F80280B8F1000FEC
:100AB00005D008A80022C5F1010C97420ED1C5F15E
:100AC00001030DF120094FF0000A01930DF1300BE5
:100AD000574512D1601B8DE66B70E5E710F8013BBE
:100AE000190608D504EB0C0E764503F07F03FFF4DE
:100AF0007FAE04F8013B0132DFE7B8F1000F03D00D
:100B000099F90020002A17DB029BD3B11AF80B20B9
:100B100004F8012B0022019B981820448642FFF420
:100B200067AE99F8000004F8010B00990392204683
:100B30000AF0D7FB039A14440AF1010A09F10109EA
:100B4000C6E799F8002055F822300093029B45F83B
:100B500022300098FFF73EFC421CDCE76FF00D00EE
:100B600048E600BF2DE9F04F95B000AF90F802B015
:100B7000BB61BB6F7A62C3F3C00304463B618A4624
:100B800041B9457800780BEB80002044554517D8D3
:100B9000A0EB040AE3787B61BBF1000F02D0BB6FCE
:100BA000D80716D47B6953BB7B6A1BB1BA6951461F
:100BB00020469847554628465437BD46BDE8F08F35
:100BC000461C3046FFF706FC013030440AF1010AAA
:100BD000DCE723783B629B00FB603B6A6268FA615A
:100BE00004EB83097B6A002B40F0FE805546C84623
:100BF00009EB0B0A0026D04551D1D94413E0BB6F55
:100C00009907D1D523783B6299469B00FB606368C6
:100C1000FB617B6A04EB8909002B7AD15546BBF155
:100C2000000F4FD15E46BB6F13F0050F7B6909EBD8
:100C3000430ABB6F03F002030CBF4FF0020B4FF0EF
:100C4000010B7B62D145B6D019F8021B19F8013CA3
:100C500054F82380AA4B984502D3AA4B984538D321
:100C60003B69002B42D0F86908F0C6FD00283DD052
:100C7000E8468AB06A46A44B5361FB69C2E9063173
:100C80004FF400731384A14B42F8103FA048002397
:100C90004FF4125100F020FD023DC546D2E718F88E
:100CA000013B54F82300FFF795FBFB6F01303BB18C
:100CB000D7F880309E423EBFFB6F23F81600013606
:100CC000054498E7BB6F13F004061CBF7E6AD94445
:100CD000A9E73B6923B1F86908F08EFD0028C7D168
:100CE000BB6FDA0705D4A5EB0B05ABE77B6A002BDE
:100CF000A8D04046FFF76EFBFB6F43B1D7F88030BA
:100D00009E423FBFFA6F431C22F81630013605445D
:100D100098E7BBF1000F6DD0BB6F13F004066CD0E9
:100D2000D846002607F140005A4649460AF0D9FA4B
:100D30007B695B007B607B69D94409EB4303BB6043
:100D4000BB6F03F002033B60BB684B4557D1B96FE3
:100D50006378B86F890706EB030254BF4FEA580166
:100D60000021C507D2B200F19A8010F0040F14BF21
:100D700040460020FB616270A070E170BA69F968BA
:100D80007B6A20469847051EFFF615AF3B6A237025
:100D9000FB6963707B69E3704146BA697B6A84F8DA
:100DA00002B007F140009847B0F10008C0F2A480FB
:100DB000FB68BA69AAEB0B01C91A7B684846C91AD5
:100DC0007B6A98470028C0F29980A84408EB000588
:100DD0004FF0000B07F1300AB34562D30021BA6926
:100DE0007B6A08469847E6E65E464FF0000807F142
:100DF000300099E75E46D8469AE7B04698E719F87A
:100E0000021B3F4B19F8015C54F82500984202D3AD
:100E10003C4B98421DD33B6923B1F86908F0ECFCC8
:100E2000002891D13B68FBB908F1280307F128029B
:100E300008F1010003EB020C07F1500353FA80F0B4
:100E400008F102080CF8101C5FFA88F800F8105C32
:100E50007AE73B692BB1F86908F0CEFC00287FF4F3
:100E600073AFBB6FDB0709D506F1280307F1280232
:100E7000711C9E1806F8205CCEB265E7BB6F580760
:100E80007FF562AF08F1280307F1280208F101019C
:100E900003EB020808F8105C5FFA81F854E70020C1
:100EA00068E71BF80A3087F82F3054F82390FB6F5F
:100EB000FBB133F81B80BA697B6A012107F12F006F
:100EC000984700281ADB0544B8F1000F06D14846C0
:100ED000FFF780FA00F101081FFA88F8BA697B6A07
:100EE000414648469847002808DB05440BF1010BB2
:100EF00072E7D7F87C80DEE745465CE605465AE6B1
:100F000034B30000D0CD0000B2BD000004000001E9
:100F1000B0B60000014B1860704700BF202C0020C5
:100F200080B505460E461746984607F0DFFB034698
:100F30000AF0F6F9DFF81890044649F80030424606
:100F400030463946A84754F8090001F0A5FD00BF16
:100F5000080000002DE9F047058B0446280790465D
:100F600011D4022905F0070540F0CD80204608F095
:100F7000E0FC78B10138218B042811D8DFE800F0BB
:100F8000C3106D85950001290CBF45F0100545F093
:100F90002005258388F31188BFF36F8FBDE8F087A4
:100FA00001F0070AAA4500F0A6800027B9463E4690
:100FB000A368002B00F0BD8041F00801218388F375
:100FC0001188BFF36F8FA168002900F0BB800D6806
:100FD000002900F0B780D1F80480334652462046FD
:100FE000C047002D76D02B6829461D46F0E701F05A
:100FF00007035A1F012A1BD8002221F00701062BE4
:10100000276889B2C4E9002209D13B4603E0628B1C
:10101000013262831B68002BF9D141F00201218368
:10102000204608F086FC00287BD041F0200177E0C4
:10103000042B0AD121F0070189B22183204608F050
:1010400078FC10B141F020012183218B01F0070AC7
:10105000AA4550D00027B946AAE7236921F0070125
:1010600041F00601062DD3F8009021832DD1B9F16E
:10107000000F40D041F00801218388F31188BFF3AD
:101080006F8F3A492046C84729E021F007012369BC
:1010900041F0040189B2042DD3F804902183E6D0F5
:1010A00000273E464FF0040A82E721F0070123693A
:1010B00041F0050189B2052DD3F808902183D6D0DF
:1010C00000273E464FF0050A72E700273E464FF0E4
:1010D000060A6DE72B4687E7B9F1000FD1D14FF033
:1010E0002003EFF3118883F31288BFF36F8F238BF4
:1010F00023F008032383258BEA062ED525F0100361
:10110000238305F007056669218B002EBFF66FAFBC
:1011100000232768C4E9003321F0070141F00101F1
:101120002183218B01F0070AAA454FF000097FF4C3
:101130003FAF002F9BD041F00801218388F3118835
:10114000BFF36F8F002FC7D03D68394633465246F4
:10115000204608F01AFC2F46F4E7AB067FF51AAFDD
:1011600025F02003238305F00705FFE6B79900006B
:1011700008B504464FF02002EFF3118382F3128882
:10118000BFF36F8F04F0EEFC204601F02FFC034804
:1011900008F059FB00F006FFFCE700BF66BE000048
:1011A00004F028BD2DE9F047DFF8588004460746D3
:1011B0004FF0010914B93846BDE8F08794FAA4F558
:1011C000B5FA85F509FA05F32E0108EB05156FEA66
:1011D000030A24EA03042B7B002BEBD058F80630DB
:1011E0001B694BB94644042273682846196807EA0C
:1011F0000A0700F05DFADDE7284698470028D9D1B4
:10120000F0E700BF48B7000030B51049104889B07A
:10121000002209F089FF0F4D0F4900220023CDE97C
:10122000062300240E23CDE90334CDE901440B4B02
:1012300000944FF44072284606F0CEFD0849284637
:1012400009F01EFE204609B030BD00BF6512000047
:101250008837002000330020C047002055150000CB
:101260008FBE0000014806F0F5BE00BF702F0020C1
:101270002DE9F04780461F480F4608F0D0FE06468D
:10128000002830D000252846BDE8F087237B73B1C5
:101290002368DB680BB12046984723681B69D3B9E4
:1012A000636804221968204600F002FA01361034FF
:1012B0004C45EBD3B8F1000FE5D0002DE2D0284625
:1012C000FFF770FF0546002FF7D000214FF4A47000
:1012D00007F0F2F9F1E7204698470028E0D00AFA33
:1012E00006F31D43E2E7044CDFF8109005464FF08B
:1012F000010ADDE7BC39002048B7000068B70000EC
:10130000014B53F820007047A0B7000008B5034612
:1013100008462BB1044A136000F07EFC002008BD93
:101320006FF01500FBE700BF242C002010B5044C23
:10133000237813B9034806F08DFE0123237010BDF6
:1013400051430020702F002010B50446084808F0D3
:1013500066FE5CB1BFF35B8F064B53E8001F01399B
:1013600043E80012002AF8D1BFF35B8F10BD00BF25
:10137000B4390020B83900200020064BBFF35B8F42
:10138000014653E8000F43E80012002AF9D1BFF3E9
:101390005B8F7047B439002070B5FFF7EDFF084C44
:1013A000084E0546B44200D370BD63685B792BB12B
:1013B00023685B6813B12946204698471034F1E74B
:1013C00048B7000068B7000010B5044C0449204637
:1013D00008F0B6FC034B1C6010BD00BFC82E0020F7
:1013E0008CB70000AC390020084A094808B5002332
:1013F0001370084A1360084A4FF400411360FFF766
:1014000085FFBDE80840FFF7DFBF00BF5243002063
:101410001BA00000B4390020B8390020014600228A
:101420000148002308F0ADBCC82E0020014808F098
:1014300046BD00BFC82E0020024B0146186808F0C8
:1014400090BD00BFAC390020014808F0C6BD00BF08
:10145000C82E002070B5284B187800284BD0FFF715
:10146000E5FF054690B1BFF35B8F244B53E8001FA7
:10147000013943E80012002AF8D1BFF35B8F204CFA
:10148000204EB4422DD32846FFF7D6FF1E4B1F4CEB
:101490001B68002B19DD09F045FE4FF47A72A0FBA2
:1014A000020302FB0131C30BD4E9002043EA4143AC
:1014B0009B1A4FEAD13140F2E93261EB00019342CD
:1014C00071F1000101D3FFF767FFD4E9003213F592
:1014D0007A7342F10002C4E90032BDE87040FFF7C0
:1014E000B3BF63685B7923B1236829461B68204634
:1014F00098471034C5E770BD51430020B83900202B
:1015000048B7000068B70000B439002080370020D9
:1015100070B50D4D297861B90120FFF7A9FE0B4C7C
:101520000B4EB44206D3FFF795FF0028FBD10123F1
:101530002B7070BD63685B791BB1236820469B6884
:1015400098471034EDE700BF5243002048B7000031
:1015500068B7000000212DE9F0470846FFF788FE34
:10156000044658B340F267684FF0000909F0D8FE0E
:101570001B4B1C4A1B58136033B11B4B1B68092BB8
:1015800002DD1A4806F066FD194FDFF860A000255D
:1015900044B12046FFF706FE044618B94FF0FF3865
:1015A0004FF0FF39FFF756FF064628B9B5B9424656
:1015B0004B46504606F074FD3546E9E74FF0FF38DC
:1015C0004FF0FF39D2E72B689B691BB1002211460F
:1015D000284698471035BD42F5D3E8E7054DFAE7B0
:1015E00008000000B0390020B8390020702F00201A
:1015F00068B7000048B7000013B5184808F00FFDA1
:10160000174B1B787BB14FF02003EFF3118483F36A
:101610001288BFF36F8FFFF71DFF84F31188BFF3AC
:101620006F8F02B010BD0F4B1B68002BF9D050B963
:1016300000220023CDE900230B484FF40042002391
:1016400007F098FAEDE70928EBD1074809F078FD93
:10165000064802B0BDE8104006F0FCBCB8390020D6
:1016600052430020B039002088370020702F00201E
:1016700010B5064B1B68044698472146A0600448F5
:1016800008F0FDFBBDE81040FFF7B6BF242C00209A
:10169000C82E0020044A054B9B1AB1EBD30F34BF70
:1016A00052F831000020704770B6000048B70000C3
:1016B000084BC31A10B41B114468013323714368EB
:1016C0009A7143681960436801225A7110BCFFF790
:1016D0002DBE00BF48B700002DE9F04F8FB004AF1A
:1016E000C1F34A28B8600D4691467B600C0DB8F1F5
:1016F000000F63D0002607F114034FF0040B4FF0E6
:101700000A0AC7F80C80C7E907667E620193CDF824
:1017100008B0CDF800A007F11C03F968324648462E
:10172000FFF720FAB0F5006F03461CD36C468AB071
:10173000D9F8041004AB2648C3E9050140F2FF7153
:10174000D9611A464FF400711984224B42F8103FB8
:10175000214833464FF41251FFF7BEFFA5462C3700
:10176000BD46BDE8F08FC0F30A0804F11700184425
:1017700020F0070080083B60FFF750FE68F3532518
:10178000044690B13B68154AC7E9083600F11001DC
:1017900007F11403F961CDE900A3CDF808B0F968A9
:1017A00007F11C034846FFF7DDF968F353257B6812
:1017B000B9682A46204608F068FCD0E704F1170013
:1017C00020F007008008FFF729FE0446EDE700BF80
:1017D000A4BE000004000001F0B600005FA00000FD
:1017E0002DE9F04F87B0DDE91269DDE9105A0446B2
:1017F0000F4693469846A6B31021CDF80090334685
:1018000052460020CDF81490FEF7DAFF014605F1AC
:1018100017000844144B039104F007040BF0070B66
:10182000E40020F0070003EA412344EA8B14800817
:101830001C43FFF7F3FD44EA0554054640B13EB1B1
:101840000399CDF80090334652461030FEF7B8FFAA
:10185000434622463946284607B0BDE8F04F08F017
:1018600014BC3146D3E700BF00FE0F000EB403B531
:1018700003AB014653F8042B0448019301F020FA0E
:1018800002B05DF804EB03B0704700BFF1A00000A8
:10189000CA0605D48B064CBF02490349FFF7E6BFD1
:1018A000704700BFE4BE0000E3BE00002DE9F04F2A
:1018B00089B09B469DF84C300493DDE91493059361
:1018C000049B0692DDE9167604460D46002B00F0D7
:1018D000878006F00803079308F0BFFB06F0020AB2
:1018E000024600284BD086492046FFF7BFFF8046BE
:1018F000BAF1000F08D016F0440F42D181492A46B0
:101900002046FFF7B3FF804406F001035BB17E4B36
:10191000049A7E4953F822207D4B2046002A08BFB6
:101920001A46FFF7A3FF06F00803002B55D0794BAA
:10193000049A794953F822202046FFF797FF05467D
:10194000069B2BB175491A462046FFF78FFF0544C9
:10195000BBF1000F05D072495A462046FFF786FFBB
:1019600005444544B9F1000F49D1002F4FD1F30789
:1019700000F1C08031462046FFF78AFFB4E0804680
:10198000B6E7684B18680028BDD0674B4FF47A7EE5
:101990001B68B5FBF3F54FF46162B5FBF0F300FB98
:1019A0001355B3FBF2FA0EFB05F502FB1A323C218C
:1019B000B5FBF0FCB2FBF1F300FB1C5501FB13225D
:1019C0000EFB05F50092B5FBF0F55849CDE901C5D0
:1019D00052462046FFF74AFF95E706F00805AFE7B5
:1019E000BBF1010F06D1B9F1000F64D1002F7BD0FC
:1019F00000250CE0B9F1000FF8D04D485CE04D48EF
:101A00004D494B46224607F0C6FE002F68D0DFF84E
:101A10002C91DFF82CA1102F31462046B84628BF64
:101A20004FF01008FFF734FF4FF0000B5D4545DC29
:101A3000059B51461A782046FFF718FF4FF0010B1F
:101A40001BF0070F03D149462046FFF70FFFD8458B
:101A50003BD9059B514613F80B202046FFF706FFA4
:101A60000BF1010BBBF1100FEAD1364920464FF0C4
:101A7000000BFFF7FBFE5A46059B9A5CA2F1200182
:101A80005F2928BF2E2230492046FFF7EFFE0BF1D9
:101A9000010BBBF1100F1DD01BF0070F03D14946FE
:101AA0002046FFF7E3FED8455A46E5D8494620468A
:101AB000FFF7DCFEEBE71F48049DA1E749462046FF
:101AC000FFF7D4FE0BF1010BB0E720492046FFF7EA
:101AD000CDFEC5E7059BB7EB0807434405939AD1B4
:101AE000049B002B7FF443AF204609B0BDE8F04FC4
:101AF00008F0F1BA064A05492046FFF7B7FE39E774
:101B0000EBBE0000EFBE0000B0B70000FDC5000056
:101B1000E6BE0000C4B7000014BF00001ABF0000FA
:101B20001EBF0000C4390020C0390020F8BE0000EC
:101B300027A10000F1A00000C12C00002BBF000075
:101B400023BF00002DBF00002FBF000029BF0000F1
:101B50002DE9F0410F884B688E6886B005460C462B
:101B60009046C7F382175BB1144A9B1A43F3CF0127
:101B7000002920DB2078C0F3C200FFF78BFD03466D
:101B80002146608851F8102B0197C2F34A22002A9F
:101B900001EB0204C0F30B1008BF00210022CDE9C5
:101BA0000408CDE90214009231462846FFF77EFE74
:101BB00006B0BDE8F0810023E2E700BF70B6000088
:101BC00073B542F20F738B4228BF0B4605680F4A6C
:101BD00004460521684607F063FB63680C495B68AF
:101BE00006460B22284608F069FA636832466946C1
:101BF00028465B6808F062FA636806495B681B2246
:101C0000284608F05BFA02B070BD00BFFFCC0000B0
:101C10004EBF000032BF0000074A0021012390425E
:101C200006D8064A01B901231360054B18607047B6
:101C300040085B000121F2E740420F00C03900205C
:101C4000C4390020014B01221A7070475343002011
:101C5000014B002019607047DC390020024B03481B
:101C600001221A7008F037BA54430020F4B700007C
:101C70000148FFF7A5BF00BFF4B7000010B5064B41
:101C800018680C46FFF73CFB21460346BDE81040B0
:101C900002480F22184700BFDC390020F4B70000CB
:101CA00010B9074B18707047064B1B781BB141F2F7
:101CB000883009F081B8A420002106F0FDBC00BFE7
:101CC00053430020544300202DE9F843DFF874907B
:101CD0001D4F80460E46042499F8005095B905F032
:101CE0006BFE28463246414605F018FE054605F0D3
:101CF0006DFEE5B101233B7099F8003073B93046B1
:101D0000BDE8F88332464146002005F007FE05464F
:101D1000EFE72046FFF7C4FF651E2C46002005F0C4
:101D200041FE0028EBD03B78002BF2D1E7E73B786F
:101D3000002BE4D0013C2046FFF7B2FF3B78002B9C
:101D4000CAD1DCE75443002053430020014B00205C
:101D500019607047F4390020024B034801221A70C1
:101D600008F0B9B96643002020B800000148FFF729
:101D700027BF00BF20B8000010B5064B18680C46FE
:101D8000FFF7BEFA21460346BDE8104002480F2285
:101D9000184700BFF439002020B80000F8B5074FFD
:101DA0000D4604464618B44201D12846F8BD14F841
:101DB000011BBB6801485B689847F4E728B4000042
:101DC000014807F0C5B800BF30B8000038B5044678
:101DD00018B90F4B0F485B6898476168B1F5683FC9
:101DE00010D0B1F5680F0DD00B4DA9420AD011F4F7
:101DF0006861206807D00146084809F015F80023FB
:101E00002360656038BD142209F079FAF9E700BF54
:101E10004C2E0020A4BF00002C5F5CA9F83E0020DF
:101E200008B520B34368B3F5683F10D101220368B9
:101E3000BFF35B8F53E8001F002903D143E8002064
:101E40000028F7D1BFF35B8F0DD1002008BD094AF0
:101E500093420AD000684FF0FF324FF0FF3306F094
:101E600043F80028F1D00448F0E70448EEE76FF4A7
:101E7000E040EBE72C5F5CA9E98FFFFFEA8FFFFFF3
:101E800008B5D8B14368B3F5683F10D100220368A4
:101E9000BFF35B8F53E8001F012903D143E8002003
:101EA0000028F7D1BFF35B8F0BD1002008BD074A94
:101EB000934208D0006806F091F8F6E76FF4E0402E
:101EC000F4E70348F2E70348F0E700BF2C5F5CA9A2
:101ED000E98FFFFFEA8FFFFF10B5044618B91D4BCD
:101EE0001D485B6898476368B3F5683F2FD0B3F52A
:101EF000680F2CD0194A934219D1236803BB1848A4
:101F00004FF0FF324FF0FF33214605F0F7FE08B9DE
:101F100023681BB90F4B13485B689847206814224D
:101F2000002109F0ECF94FF46863636008E0B3F551
:101F3000683F0DD83A2B03D040F6BA629342DED107
:101F4000206808F0B8FF636843F03A03636010BD8F
:101F5000054AF3E74C2E0020A4BF00002C5F5CA9CB
:101F6000F83E0020CABF00003A00003A08B5064912
:101F700006484023142208F049FFBDE80840044900
:101F8000044807F057B800BFF8390020F83E002099
:101F900038B800004CB80000014910220A607047B0
:101FA00010ED00E072B6404080F31188BFF36F8FF0
:101FB000BFF34F8F30BF62B6BFF36F8F704700BF64
:101FC00072B6494081F31188BFF34F8F20BF80F371
:101FD000118862B6704700BF2DE9F047814600AF17
:101FE0000C4600294CD06E468AB0D1E90012A36895
:101FF0006D462748A8464FF0050AC5E90501C5E921
:10200000072348F810AF2348424600234FF42151DC
:10201000FFF762FBB546D4E903126369AD461E487B
:10202000C5F810A0C5E90501C5E907231948002333
:1020300042464FF42151FFF74FFBB54688B0E369A4
:102040006D46164AA8464FF0030AC5E9052348F82D
:1020500010AF1048002342464FF4C251FFF73CFB3B
:10206000B546A369AD460E4AC5F810A0C5E90523DB
:102070000848002342464FF4C251FFF72DFBB546F6
:102080002146484605F0A8FCBD46BDE8F08700BFE4
:10209000F7BF000010B7000026C0000055C00000C8
:1020A00064C0000040B2002807DB044A4109012354
:1020B00000F01F00834042F82130704700E100E04B
:1020C00040B200280CDB4309064900F01F00203312
:1020D0000122824041F82320BFF34F8FBFF36F8F5F
:1020E000704700BF00E100E0054B420900F01F000F
:1020F00053F82220012303FA00F01040704700BF7C
:1021000000E100E040B20028A8BF00F1604001F10A
:102110000101B8BF064B4FEA4111ACBF00F5614069
:1021200000F00F00C9B2B4BF195480F80013704713
:1021300014ED00E030BFFFF7FDBF00BF0B4A08B54C
:102140000B4B22F07F029A60BFF34F8FBFF36F8F6C
:10215000D3F8882022F47002C3F8882005F0FAFC36
:1021600006F03CFB00F00CFC05F046FD0000000012
:1021700000ED00E0094A0A4993680968D9670949EE
:1021800098674B6843F080534B60002383F31188BA
:10219000BFF36F8F9368D86F704700BF4041002036
:1021A00058BB000000ED00E015498A684FF0300090
:1021B0001044EFF3098C80E8F01F202080F3128890
:1021C000BFF36F8F0F4F4FF000664A698A603E6021
:1021D0004FF07404141920680B4C2060906F00239A
:1021E000936780F3118804B5104600F077FCBDE8D2
:1021F000044002F1300090E8F01F8CF3098870472A
:102200004041002004ED00E0143F00201EF0040FC8
:102210000CBFEFF30880EFF30980816911F8021C0D
:102220000229FFD001B507F091FF01BD42F8203C23
:10223000009B42F81C3C0A49019B42F8183C029B57
:1022400042F8143C21F001014FF0807342F8043C45
:1022500042F8081C0023203A02658367704700BFDC
:10226000210F0000094A0346906870B113F1160F60
:10227000406E05D0A0F140029A4205D8834203D2B5
:10228000814228BF00207047002070474041002055
:1022900008B514460A4A0B4B9060426F1A600D460F
:1022A00000F01CFC204685F30988002163B681F309
:1022B0001188BFF36F8F00220023FEF731FE00BFAD
:1022C00040410020143F002001B5EFF30580A0F14C
:1022D00010004FEAC0000449014409C99847BDE80D
:1022E0000140024908470000F0B400004D230000FF
:1022F000114B124A2DE9F041D518DFF84480013D19
:10230000B5FBF3F55D430F4B08EB0304013CB4FB55
:10231000F3F403FB04540E1B07460B49304608F048
:10232000E0FF701942460021083E08F0E8FF7E6792
:1023300004F10800BDE8F081010000000000000089
:10234000040000000400000068B70000044B996816
:102350005869884203D003494FF080520A607047A1
:102360004041002004ED00E02DE9F04186B0064632
:1023700000AF0D46474B7B6102244FF48251464823
:102380003C6107F1100207F0F0FE444B9B6AD90450
:102390006DD5434B4048C7E9044307F110024FF4A1
:1023A000825107F0E2FE17203C4B9B6A1A050BD5C1
:1023B0003C4B7B61022338483B6107F110024FF42C
:1023C000825107F0D2FE1820344CA36A9B0523D516
:1023D000E846354B7B6102232F483B6107F1100231
:1023E0004FF4825107F0C1FEA36BA26A100412D50C
:1023F00088B06A462D492848C2E90513032342F8EC
:10240000103F4FF4C25107F0B0FEC5461EB1A36A9B
:1024100023F40043A3621920204B9B6A59050BD576
:10242000234B7B6102231C483B6107F110024FF4F0
:10243000825107F09AFE1A20184B9A6AD20518D5D5
:102440001C4B7B61022314483B6107F110024FF4DF
:10245000825107F08AFE1B20104A936A43F47F439F
:102460009362183700232B70BD46BDE8F08116201B
:102470009AE79B6A9B04EFD50F4B7B6102230648CA
:102480003B6107F110024FF4825107F06EFE1C20F1
:10249000E2E700BF92C0000010B7000000ED00E0CE
:1024A000A8C00000B9C00000CCC00000E5C000001A
:1024B000FAC0000015C100002DC1000010B586B0A3
:1024C000364B3748059304AA02244FF482510494F2
:1024D00007F04BFE334B9B6A9A015DD5324B304877
:1024E00004AA4FF48251CDE9044307F03EFE1E20BA
:1024F0002C4B9B6ADB010AD52C4B2948059304AA77
:1025000002234FF48251049307F02FFE1F20254B26
:102510009B6A1C030AD5264B2148059304AA022373
:102520004FF48251049307F020FE21201D4B9B6A3B
:1025300059030AD51F4B1A48059304AA02234FF4E6
:102540008251049307F011FE2220164B9B6A9A03D6
:102550000AD5194B1248059304AA02234FF482515D
:10256000049307F002FE23200E4B9B6ADB030AD57F
:10257000124B0B48059304AA02234FF48251049393
:1025800007F0F3FD2420074A936A6FEA03436FEADA
:102590001343936206B010BD1D20A9E75CC1000083
:1025A00010B7000000ED00E074C1000087C100001A
:1025B000A1C10000BFC10000E4C10000FEC10000D5
:1025C0002DE9F04786B0814600AF8A469046514BD0
:1025D0007B61022450483C6107F110024FF48251A4
:1025E00007F0C3FD4D4B9B6ADE0645D54C4B4A4870
:1025F000C7E9044307F110024FF48251112407F098
:10260000B4FD464B9B6A1D070BD5464B7B610223ED
:1026100041483B6107F110024FF48251122407F048
:10262000A4FD3E4DAB6A980728D56C463E4B7B61B6
:1026300002233B614FF48251374807F1100207F043
:1026400094FD6E6BAB6A190660D588B06A46374B4D
:102650003148C2E90536032342F8103F4FF4C25116
:1026600007F083FDA546BAF1000F03D0AB6A23F053
:102670008003AB62132403E01024C2E76FF0150659
:10268000264B9B6ADA070BD5294B7B610223224834
:102690003B6107F110024FF48251142407F065FDED
:1026A0001E4B9B6A9B060BD5224B7B6102231A486B
:1026B0003B6107F110024FF48251152407F055FDDC
:1026C000164B9A6AD50602D49A6A90070AD55B68B7
:1026D000190507D549463046FFF7C4FD10B180F310
:1026E000098802240D4B9A6A920642BF5A6A22F464
:1026F00000525A629A6A42F0FF029A622046002310
:10270000183788F80030BD46BDE8F0876FF0150631
:10271000B0E700BF29C2000010B7000000ED00E0E4
:102720003FC20000B9C0000072C200008AC20000AF
:10273000A0C200002DC100002DE9F0437A4B8BB000
:10274000D3F8048000AF0446C8F30805002686F3DA
:102750001188BFF36F8F02F07F43B3F17F4F0ED12B
:1027600002F00C03082B19D1704BFB610223704857
:10277000BB6107F118024FF4825107F0F6FC002606
:1027800034460023FB71EB1E092B00F2AD80DFE81D
:1027900003F00AA0A39CABABABABABA610074CBF3E
:1027A0000C460126EDE7E946624BFB614FF002085B
:1027B00007F118025E48C7F818804FF4825107F0FD
:1027C000D4FC0023584DFB71EB6A9A070BD55A4B8A
:1027D000C7E90683564807F118024FF4825107F003
:1027E000C4FC002342E0EB6A002B01DA534BEFE715
:1027F000EB6A5B00F5D5524B4D48C7E9068307F1FC
:1028000018024FF4825107F0B0FC6B69A26943F4DF
:1028100080736B61BFF34F8FBFF36F8F6B6932F8BB
:10282000022C23F480736B61BFF34F8FBFF36F8F64
:102830004DF602739A4209D0AB6ADBB2002B37D057
:10284000FA1D01212046FFF7BBFE40E088B0236857
:102850006A463C493648C2E90513032342F8103F53
:102860004FF4C25107F081FC2368CD46FA79DAB9FA
:1028700007F1080504F1200C206861682A4603C2AC
:10288000083464451546F7D17A6A002E47D0C2F362
:10289000080121B96FEA52226FEA42227A6207F1F7
:1028A00008011846FFF798FB2C37BD46BDE8F083BA
:1028B000AB6A13F47F4F04D0F91D0120FFF754FDDC
:1028C00005E0AB6AB3F5803F8BD3FFF7F7FD034616
:1028D000CCE7FA1D0021B5E7F91D0020EEE71A4B01
:1028E000FB610223BB6175E7184A194B18F4F87FA6
:1028F000E8468AB018BF13466A4616490C48C2E932
:1029000005134FF400731384103D134BD5614FF43E
:10291000115142F8103F07F028FCC54661E722F448
:10292000FF7222F00102B9E700ED00E0EDC2000005
:1029300010B7000018C300002FC3000050C30000F0
:102940005EC300007DC3000099C30000D4C2000034
:10295000BFC20000BDC3000004000001024A536969
:1029600043F010035361704700ED00E0EFF308807F
:10297000EFF3098101B57246FFF7DEFE01BD00BF2E
:10298000044800232021C2180133302B82F80013A1
:10299000F9D1704700E100E0002080F31488BFF314
:1029A0006F8FFEF7FDFB00200D490860BFF34F8FCE
:1029B0000C4880F3088800F03DF8202080F311884F
:1029C00009484FF40461401880F30988EFF314803C
:1029D0000221084380F31488BFF36F8FFFF7AEFB2B
:1029E00094ED00E0C0580020004B0020BFF34F8F53
:1029F0000549064BCA6802F4E0621343CB60BFF39B
:102A00004F8F00BFFDE700BF00ED00E00400FA05B6
:102A10000749D1F890200023C2F3072218469342B9
:102A200000DB7047C1F89830C1F8A0000133F6E729
:102A300000ED00E008B572B6002383F31388FFF7BA
:102A4000E7FF144B4FF0FF32C3F88020C3F8842017
:102A5000C3F88820C3F88C20C3F89020C3F89420D2
:102A6000C3F89820C3F89C20C3F88021C3F88421C0
:102A7000C3F88821C3F88C21C3F89021C3F89421AE
:102A8000C3F89821C3F89C2162B6BFF34F8FBFF300
:102A90006F8F08BD00E100E0084B9B6883420BD1BB
:102AA000EFF3058343B1064B5A6842F080525A60F7
:102AB0005A6A22F400425A6205F01EBE40410020CC
:102AC00000ED00E0024B034A0348012100F092B8F8
:102AD00000000420000000205CB80000426E054B9E
:102AE000403A1A60044A4021C3E901121846012104
:102AF00000F08AB8183F002000000B152DE9F041C6
:102B0000DFF8B4E09C4600AF154600238B421ADA8A
:102B10004468002C4DD0BCF1000F1DD0661E34421D
:102B200015D06C4688B06A462449C2E905130323D0
:102B300042F8103F224800234FF4C251FEF7CCFD6B
:102B40006FF01505A5462846BD46BDE8F0811F2C4F
:102B5000E7D902681642E4D1202C026886685FFA41
:102B600085F814D9B4F1004F13D8013CB4FA84F4B9
:102B7000C4F11F046400B8F1070F46EA04060AD93D
:102B80006C4688B06A460F4BC2E90535CFE708248A
:102B9000F1E73E24EFE722F01F022A4342F0100241
:102BA00046F00106CEF89850CEF89C200135CEF8BC
:102BB000A06001330C30A9E700ED00E0D4C30000B1
:102BC00008B70000F7C30000044B0522C3F89420A7
:102BD000BFF34F8FBFF36F8F704700BF00ED00E072
:102BE000BFF35F8F024B0022C3F89420704700BFF1
:102BF00000ED00E010B5034C01232278FFF77EFFC3
:102C0000207010BD6743002008B5094A00231278E0
:102C1000FFF774FF10F1160F03D0064B00220728B0
:102C200000DD08BDC3F89800C3F8A0200130F6E726
:102C30006743002000ED00E014490868082810B53B
:102C400021D8FFF7CDFF124C49680022904201F1D4
:102C50000C0105D10F4B1870FFF7B6FF002010BD17
:102C6000C4F8982051F80C3C23F01F03134343F0A1
:102C70001003C4F89C3051F8043C43F00103C4F83D
:102C8000A0300132E2E74FF0FF30E8E768B800001B
:102C900000ED00E06743002008B5024B1B68984731
:102CA000002008BD243F0020034B044A186093789D
:102CB00043F0020393707047243F0020482C00200B
:102CC000F0B587B007460E4614460021102268462C
:102CD0001D4608F014FB02238DF802302A46054BEE
:102CE000019321466846CDE9047606F005FB07B05E
:102CF000F0BD00BF71A1000008B50649064821F0EB
:102D00000701C1F1005202F5802206F0D5FD002036
:102D100008BD00BF535D0020405D00200E4A012326
:102D2000C2F840354FF080424FF08051C2F87835FC
:102D3000D1F83001082808D1D1F83411052904D878
:102D40000648415C09B1C2F838364FF08043012291
:102D5000C3F880250020704700E001402CC400002B
:102D600020B1034B800143F001031847704700BFB7
:102D700070B70000054B0122C3F8002590F88E10B3
:102D800009B1DA6070471A605A60704700700040FD
:102D900070B5087900F01F04072C86B023D80B7893
:102DA0000B2B15D8DFE803F00707070714061414E8
:102DB0000E10141204234A78032A18D0042A28D0AB
:102DC000314B06E00523F6E70623F4E70723F2E795
:102DD0002E4B0593022304932D48002304AA4FF49D
:102DE0008251FEF779FC6FF0150006B070BD012529
:102DF0004A8844F20A06B2423FD00CD844F2030695
:102E0000B24216D044F20506B24234D0AAB3214BE6
:102E1000DFE70025ECE744F21406B2422FD044F27B
:102E20002806B2422DD044F20F06B242EFD103225F
:102E300000E00022C0F340101B0243EA005343EAC3
:102E4000053343EA0243220102F1804202F5E042E7
:102E50000020C2F81835230103F1804303F5E04355
:102E60008A79C3F81425C3F810050B4B4A7923441B
:102E700083F8A820B9E70122DCE70222DAE704227E
:102E8000D8E70522D6E700BF55C4000036C40000CD
:102E9000A8B6000079C40000000000202DE9F04130
:102EA00088B04668731EFE2B02AF05460CD9764BE0
:102EB0007B6102233B617548002307F110024FF448
:102EC0008251FEF709FC1BE00021714CDFF8C4C100
:102ED0000A4626FA01F313F001033CD01CF8013036
:102EE000A3B96C4688B002AA6B48C2E90501032168
:102EF00042F8101F65484FF4C251FEF7EDFBA5469E
:102F00006FF015001837BD46BDE8F08104EB0118DD
:102F100095F811E0D8F81805BEF1000E18BF4FF073
:102F2000010E20F0807040EA0E60C8F8180501F12B
:102F30005100000101322350D2B201310829C8D119
:102F40002B7CA3F10801062916D8DFE801F0201533
:102F500022150915130001F1510000012350ECE77F
:102F600002234B49012AC1F8F0356B7C13D9A3B178
:102F70004A4B9DE70323F4E76C4688B002AA484910
:102F8000C2E90513032342F8103F0023B2E70023F0
:102F9000E7E70123E5E7082B1BD8C1F8F4352968DA
:102FA0005300D9B9E96899421CD26C4688B002AA8C
:102FB0003C48D3610423C2E9050142F8103F33487D
:102FC00000234FF40151FEF787FB6FF00B00A5467D
:102FD00098E76C4688B002AA3349D1E7898901FB9A
:102FE0000333DFE72A4BA968C3F82C16AC46C3F8B5
:102FF0003026BCE80F002D4C04F17C060FC6DCF82F
:1030000000303360002626672B68A446B3B30FCB8D
:1030100004F1900585E80F00E567A4F8A06068B3A7
:10302000BFF35B8F5CE8003F4CE80062002AF9D1F7
:10303000BFF35B8F1E49D4F890001E4A4FF4004541
:103040008C463146E0FB05C100236046FDF758F889
:103050000022CDE90001002304F1080005F08AFDFB
:1030600094F8783073B914484FF0FF324FF0FF33C3
:1030700005F016F800B12067206F43E70B48FFF713
:1030800079FEEDE700203DE7A4C40000A8B60000EB
:1030900000700040A8000020C2C4000001C500006C
:1030A000DCC4000056C5000033C50000000000204D
:1030B0003F420F0040420F005800002070B50C4600
:1030C00016460C4D0C484FF0FF324FF0FF3304F022
:1030D000E7FF0123204685F878306E67FFF7DEFEB4
:1030E00095F87830044603B110B1034804F0B2FFFC
:1030F000204670BD000000204000002038B50C467E
:103100000C4D0D484FF0FF324FF0FF3304F0C8FF75
:103110000023204685F878306B67FFF7BFFE95F8EF
:103120007830044603B110B1034804F093FF204601
:1031300038BD00BF000000204000002010B50E4B3D
:103140000024C3F80441D3F80421C3F81041D3F894
:1031500010211222C3F804230720FEF7A3FF224602
:1031600001210720FEF7CEFF0448836C13B94030DD
:1031700004F070FF002010BD00700040000000202F
:1031800038B5344BD3F80421002A56D00022C3F8B6
:103190000421D3F80411304C01219960C3F80025B3
:1031A000E36F2546D3B3D4F89430B4F8A02033B1FC
:1031B00004F17C019847012814D0022828D0B4F8E3
:1031C000A030B4F89C209A4222D90133A4F8A03050
:1031D000204BD3F82C26D3F8341689B202EB4102E7
:1031E000C3F82C26D4F8903023B9BDE838401A48EB
:1031F000FFF7C0BDBFF35B8F55E8003F5A1E45E89F
:1032000000210029F8D1BFF35B8F012BEDDC38BD25
:10321000D4F8903013B1114807F092FF94F8783049
:103220004BB1606F10B1002105F0D4FC0C48BDE833
:10323000384004F00FBF0B48F9E7D3F8101100290C
:10324000E5D0C3F81021D3F8102101229A601A604A
:103250005A60DCE7007000400000002008000020F9
:103260004000002058000020084B70B5C31A0D46DE
:1032700007499B10044659430648402206F0B6FF12
:103280002B4601462046BDE8704018473C3F0020D1
:10329000B76DDBB6ECB3000073B50C4C0C4A4023A1
:1032A000041B00930D460B460A49A41061430646D1
:1032B000094806F0C7FF011E05DA30462B4602B06A
:1032C000BDE87040184702B070BD00BF3C3F002011
:1032D000AFA20000B76DDBB6ECB30000002270B502
:1032E000012104461046FEF70DFF0F4802F00CFEC8
:1032F0000E4B984215D107F0BFFA26690C493046AB
:1033000006F067FB00280BDB0125356424690849BA
:1033100004F11C0006F05DFB002801DBE5640020E1
:1033200070BD6FF00400FBE7693300000000AD0BD7
:1033300098B8000070B501460C2309484B43C418E7
:10334000D4E90E56403300221844A26306F03BFF36
:103350002DB132462B460348BDE87040184770BD7A
:103360003C3F0020ECB3000010B1012804D07047AE
:10337000034B1B6C5B0701D1FFF7DCBF704700BF3D
:103380003C3F002008B54FF02003EFF3118183F399
:103390001288BFF36F8F124A136843F00200106067
:1033A000DA0708D481F31188BFF36F8F0120BDE8DD
:1033B000084007F06EBA4FF08043D3F80C24D3F8DE
:1033C0000C34DB07EED5074806F0FDFE81F31188CB
:1033D000BFF36F8F0020BDE80840FFF7ABBF00BF11
:1033E0008C3F00207C3F00207FB500220123CDE9E7
:1033F000022304ABCDE90433094ACDF800D06B4673
:10340000CDF804D006F04CFF002805DB4FF48042D5
:103410000023684604F044FE07B05DF804FB00BFDB
:10342000CDA2000010B54FF02003EFF3118483F319
:103430001288BFF36F8F074A136823F00201DB077E
:10344000116002D4012007F060FA84F31188BFF301
:103450006F8F10BD8C3F0020024AC3B21C2003FBBB
:10346000002070473C3F00202DE9F0413849BFF370
:103470005B8F0746012251E8003F41E80020002809
:10348000F9D1BFF35B8F33B9324933484B60CB601E
:103490008A6006F0B1FA7B1E012B2BD8012F07D1D1
:1034A0004FF08043D3F81C3403F00303012B21D0E9
:1034B00007F0E0FC0546F8B9284B1B78E3B14FF064
:1034C00080430222C3F808230646DFF894804FF0B9
:1034D0008044D4F81824D4F81834D20316D503F055
:1034E0000303012B01D0012F10D15DB386F31188A6
:1034F000BFF36F8FBDE8F0814FF02003EFF311862B
:1035000083F31288BFF36F8F0125DEE7ADB130463C
:10351000FEF756FDD4F81835002BDAD1D4F8042183
:10352000002AD6D0C4F80431D4F804310123C4F8F9
:103530001835C8F88031A360CBE70021212005F0C1
:10354000BBF8E7E74FF080430222C3F80423D1E73A
:10355000383F0020283F0020583F002082470020AD
:1035600000E100E008B5074807F02BFC38B1064839
:10357000FFF79AFB0448FDF7CDFC002008BD6FF073
:103580001200FBE728B400008D3500000A2838B58A
:10359000074D044604D1AB680D215B682846984767
:1035A000AB6803485B68E1B29847204638BD00BF6E
:1035B00028B4000030B54068057B01F01F04B2F567
:1035C000001F85B044EA451405D1204602F078FF7B
:1035D000002005B030BD0025B2F5800FCDE90255C1
:1035E00014D1B3F1007F0CBF042305238DF80830FC
:1035F0000023194602AA204602F07EFD234B984282
:103600003DD10121204602F00DFFE1E7B3F1C06F8B
:1036100027D0B3F1007F14BF012302238DF80830B7
:10362000836823FA01F111F00101E1D1B2F1A07F29
:10363000DED104F01F03620903F5E07313D0012A01
:1036400020D1134A52F82330DB07D1D40DF10705FE
:103650002946204602F090FE0E4B984206D0039574
:10366000C6E70323DAE74FF0A042EBE7284602F073
:10367000D3FE064B9842F2D06FF00B00A9E76FF033
:103680001500A6E751F82330FFDE00BF0000AD0BA8
:10369000000300500400AD0B10B502F0ADFE04466F
:1036A00068B902F081FE084B98420AD107482146CA
:1036B00002F05CFE224605210620FEF723FD0020D5
:1036C00010BD6FF00400FBE70000AD0BD136000029
:1036D000420970B5034602D0012A17D070BD0D4EC5
:1036E000326951680029F9D003F01F0301250C68E5
:1036F0009D400029F2D08A682A4002D04B683046AB
:1037000098472CB1236821461C46F2E7024EE7E7B2
:103710002346F8E714B4000000B400002DE9FF418F
:1037200047683B7B01F01F0545EA43150E462846D6
:103730000DF10701144602F01FFE14F4403F8046CD
:103740000DD1284602F0E2FE3D4B984503D19DF88D
:10375000070002F05BFE002004B0BDE8F08100230A
:10376000194602AA2846CDE9023302F0C5FC344BC3
:10377000984214D1804503D19DF8070002F046FE1F
:10378000A3034ED540F206332340B3F5837F1AD00E
:103790000DD8062B18D005D8B3B1022B33D06FF05B
:1037A0001500D9E7B3F5807FF9D101230CE040F291
:1037B0000222934229D0B3F5407F28D0B3F5007F91
:1037C000EDD1022300E007238DF8083084F4803324
:1037D000C3F30043E0068DF8093054BFC4F340132F
:1037E000032321038DF80A3013D57A680123B340EF
:1037F000C2F80835002202A9284602F03DFD104B10
:103800009842A8D0CBE70423DEE70523DCE70323B7
:10381000DAE7620341BF01237A68B340C2F80C358E
:10382000E8E7E3064FF0000354BFC4F34014032459
:103830001A4602A928468DF8084002F05DFCDEE732
:103840000000AD0B08B543681B68D3F80805D3F832
:103850000C1503F0C5FF034B984214BF6FF00F0027
:10386000002008BD0000AD0BB0B5044682B00022B8
:1038700000AF01210320FEF745FC63689D693A1DF6
:103880000021284606F007FE002827DB7B682A680F
:103890001979186800F066FC00281FDB606823694E
:1038A000114A00F1080103F041FE104B984218D074
:1038B00023686C4688B06A460D49C2E905134FF487
:1038C000007393830B4B42F8103F0B4800234FF4D7
:1038D000E251FDF701FF6FF00F00A5460837BD4626
:1038E000B0BD0020FAE700BFFD3800000000AD0BBE
:1038F000E0C5000003000001D8B600000378012BEA
:1039000008D0022B08D04BB9054B0B6301F118000E
:1039100004F0A0BB034BF8E7034BF6E7034BF4E7D7
:103920000000AD0B0100AE0B0200AE0B0100AD0BB1
:1039300010B511F001034268046986B00FD1C1F3DC
:10394000420001280ED0022815D00D4A059202220D
:1039500004920C4804AA4FF48251FDF7BDFE6FF0AB
:10396000150006E013684FF0CC72C3F82425002040
:10397000616306B010BD13684FF0CD62F5E700BF7C
:1039800000C60000D8B600002DE9F04F8BB000AFA4
:1039900006460C469246BB60D0F80490D0F81080E2
:1039A0004FF0FF324FF0FF33404604F079FB08F14F
:1039B0001803FB600022002308F1180004F070FBDC
:1039C000484603F0F7FDDFF804B10025554501D363
:1039D000002453E0237A3B6013F0080172D11222D5
:1039E00007F11600796007F08AFC3B686068B968E7
:1039F000B86103F001022068797513F0020F79684D
:103A00003A75386216D10AF1FF33AB4202D9237DF1
:103A10005B0711D5002A55D1202207F11401484631
:103A200003F0F4FD584509D0294B984224D16FF09A
:103A30000F0423E00A46F0E74022EEE70023F8688F
:103A40004FF4804204F02CFB034610B36C4688B060
:103A50006A46204BC2E90535032342F8103F1E4851
:103A600000234FF4C251FDF737FE4846A54603F048
:103A7000B1FD3046FFF7E6FE6FF00404484603F060
:103A8000A9FD404604F0E6FA20462C37BD46BDE8C5
:103A9000F08FD8F83010594504F10C0410D06C4662
:103AA00088B06A460D48D561C2E90501042142F893
:103AB000101F09484FF40151FDF70EFEA546DBE744
:103AC000013583E76FF08504D8E700BF0000AD0B38
:103AD0000B00AD0B12C60000D8B600003CC60000BB
:103AE0007FB5084B0593022304930748002304AADB
:103AF0004FF48251FDF7F0FD6FF0150007B05DF84F
:103B000004FB00BF7BC60000E0B600007FB5074B9A
:103B100005930748022304AA4FF48251049306F048
:103B200042FC6FF0040007B05DF804FBB1C6000072
:103B3000C8B600002DE9F04F8FB0064600AF06F181
:103B4000C803FB604FF0FF324FF0FF3306F1C800AF
:103B500004F0A6FAF86804F0CBFA32685368D2F899
:103B6000108018689B884FF04002FA7507F1170221
:103B70003A6201227A62002287F82820062207F1A1
:103B800018043A630722FC6287F83420826807F140
:103B9000200195680222A8470546A0B16C4688B06E
:103BA0006A462C4BC2E90530032342F8103F2A48ED
:103BB0004FF4C45106F0F7FBA546002140F26760C0
:103BC00004F07AFDC6E708F12003BB604FF0FF3236
:103BD0004FF0FF3308F1200004F086F908F58B7AE6
:103BE0002946A946637825783AF802BF45EA0325B5
:103BF000AAF80050D8F83830002D18BF4FF001094E
:103C0000B3B185EA0B0B00222BFA02F3DB070CD5CC
:103C1000012393402B42D8E90D0C14BF012300234C
:103C2000C7E90021E047D7E9002101320D2AEBD195
:103C30000131032904F10204D4D1B86804F0CEF9AB
:103C400040F26760002104F037FDB9F1000F3FF446
:103C500076AF7FE7D3C60000C8B6000010B50146B6
:103C60001A44096940684C68944288B027D889682A
:103C7000914224D3FBB140F2DC539A421DD840F26A
:103C8000EE239A4294BF832285228DF807200DF1FE
:103C90000701012206F08EFB58B10A4B0A48079330
:103CA00006AA02234FF48251069306F07CFB6FF0C4
:103CB000040008B010BD8122E7E78722E5E76FF036
:103CC0001500F6E7FFC60000C8B60000B0B5034611
:103CD00082B07F2940681C6900AF154635D8CB08F3
:103CE0001C443B7101F0070101238B40227CDBB2B5
:103CF00025B313439A427B7125D00222391D06F069
:103D000059FBF0B1124A134B6C4688B0002D18BF16
:103D100013466A4610491148C2E905134FF400736F
:103D200093830F4B42F8103F4FF4E25106F03BFBF8
:103D30006FF00400A5460837BD46B0BD22EA030374
:103D4000D8E77B7923740020F5E76FF01500F2E7E0
:103D500087C2000026C700002AC70000C8B60000BE
:103D6000030000012DE9F04196B005694468286020
:103D700008AF206807F025F888B99B4B7B630223C6
:103D80009A483B6307F130024FF4825106F00BFB77
:103D90006FF0150630463837BD46BDE8F081102279
:103DA0000021A81807F0ABFA00224FF4FA63C5E926
:103DB00001234FF4C803EB6007F10C01212301221A
:103DC00020463B7306F0F6FA014688B16C4622465F
:103DD00088B0874BC4E90530032342F8103F83487D
:103DE0004FF4C25106F0DFFAA5466FF00406D1E7A2
:103DF000112207F10C0007F082FA112207F10C01E1
:103E0000204606F0D7FA30B16C46224688B0794B8E
:103E1000C2E90530E0E7EF23012207F10C0120465B
:103E20003B7306F0C7FA20B16C46224688B0724B4D
:103E3000EEE78123012207F10C0120463B7306F0D7
:103E4000B9FA064630B16C46224688B06B4BC4E9DD
:103E50000530C1E705F1200007F02DF801223146B9
:103E600005F1C80007F02EF8237A002B00F08A80B5
:103E7000E06806F0A6FF08B9614B7FE7638AE06857
:103E8000217C43F48032D0F810E0D0F8088013F0A1
:103E9000010F4FF0010CDEF800300CFA01FC14BFEA
:103EA0004CEA030323EA0C03CEF80030D8F80030C4
:103EB000984778B16C46224688B0524BC2E905302B
:103EC000032342F8103F49484FF4C25106F06BFA01
:103ED000A5465DE7237C4C4A4FF0010808FA03F33E
:103EE000C5E91023E0688368DB6905F13C013BB15B
:103EF0004246984738B16C46224688B0434BDDE7CE
:103F00006FF08500F7E7A12307F10C014246204638
:103F10003B7306F04FFA014658B13D4B7B630223D9
:103F200032483B6307F130024FF4825106F03BFA0E
:103F30005BE74022FA70FA1C2068A38887F82810F3
:103F4000C7E908283A1DFA6206223A63072287F871
:103F50003420826807F12001D2F808800222C0478D
:103F600008B12C4BDAE7E068217C83684FF0A0723F
:103F70009C694FF00073A04700B36C46224688B09E
:103F8000254B9BE7A023012207F10C0120463B7340
:103F900006F010FA08B1214BC0E705F1E004204912
:103FA0003246204607F0C0F841F69A120023CDE9C8
:103FB000002320460022002304F0DCFD0022002321
:103FC000CDE9062300236FF00D02CDE90323CDE9EF
:103FD00001330095134B4FF4C87205F5A07105F13C
:103FE000480003F0F9FED5E648C70000C8B6000057
:103FF00061C7000094C70000C1C70000ECC7000003
:1040000015C800002AC80000ADA300004FC800007A
:1040100073C8000096C80000B9C80000E4C80000DA
:10402000A1A30000353B00002DE9F0474668336846
:1040300000AF0546D3B96C4688B001686A463C4873
:10404000C2E905014FF4007191833A4942F8101F0B
:1040500039484FF4E251FDF73FFBA5466FF01204DB
:10406000336863BB2046BD46BDE8F0870024F7E710
:104070006D4688B06A46314BC2E90530032342F8E9
:10408000103F2D4800234FF4C251FDF725FBAD46EC
:10409000E8E76C4688B029686A462948C2E9050104
:1040A0004FF400719183234942F8101F22484FF4C6
:1040B000E251FDF711FBA5466FF01204D2E7002C88
:1040C000FAD1A0464FF00109746854F8380004EBA7
:1040D000C80A06F076FE03460028DAD054F8380005
:1040E0009AF80410BAF80630D0F810C0D0F808A03A
:1040F000DCF80040DA0754BF43F4B01383F4D01364
:1041000023F4801209FA01FEDB074CBF44EA0E04D7
:1041100024EA0E04CCF80040DAF800309847044650
:104120000028A5D1336808F101084345CCD899E7A8
:1041300014C9000003000001E8B600003FC90000F8
:104140005EC90000036803F01F025B09026004D02F
:10415000012B034818BF002070474FF0A040704764
:10416000000300502DE9F04FDFF8989185B0154617
:10417000824600EB81014FF00108514503D1002038
:1041800005B0BDE8F08FDAF8003003F07F04C3F328
:1041900043277F2C4FEA134308BF4FF0FF34222BF5
:1041A00000F2AD80DFE803F01222282B2E352BAB76
:1041B000ABABAB4650ABABABABABABABABAB535EB4
:1041C0006164676A6D709A9DA0A3A600C5F80C454E
:1041D000601C1BD003A80394FFF7B4FF039B08FAED
:1041E00003F3C0F808350126B34654E0C5F814457A
:1041F000601C0BD00026F7E7C5F80845E8E7C5F8CE
:104200001045F5E7621CC5F8084576D10AF1040AA5
:10421000B3E7631CC5F80C45F8D0012603A8039446
:10422000FFF790FF039B08FA03F3C0F80C354FF03B
:10423000010B30E0C5F80845002FD9D1631CE5D04B
:104240000026B346062726E0C5F80C45F4E7C5F876
:104250006045661CDAF80030D8D0C3F38033002BF9
:10426000DBD0B7E7C5F86445F3E7C5F86845F0E784
:10427000C5F86C45EDE7C5F82045B9E7C5F8244514
:10428000B6E7C5F81C45B3E7C5F82445621CBDD0A8
:1042900001264FF0000BDAF80030019303F40052CE
:1042A000002A03A81CBF01264FF0000B0394FFF760
:1042B00049FF039A019B00EB8200C3F3C114D0F8BD
:1042C00000273B0243EA840343EA0B0302EA0902A4
:1042D000134343EA4603C0F8003797E7C5F828457B
:1042E00076E7C5F83045D1E7C5F83445CEE7C5F8DF
:1042F0003845CBE7C5F83C45C8E700268EE76FF0A8
:1043000085003DE7F0F8FCFF036803F01F025B093E
:10431000026004D0012B034818BF002070474FF003
:10432000A04070470003005010B54FF02003EFF39A
:10433000118483F31288BFF36F8F0029036808DDAF
:10434000C1F5B60202F5B6629A4207DB0B44036080
:1043500004E0FBD0044A521A9A42F7DD84F3118834
:10436000BFF36F8F10BD00BF50FAA4FF30B52329F3
:104370000469406823D14FF02003EFF3118183F3E8
:104380001288BFF36F8F00252368256081F31188A1
:10439000BFF36F8F4FF4B4714B43016B93FBF1F19B
:1043A0001160046B04FB113313B95360002030BD5E
:1043B00004494B435360016B93FBF1F3F5E76FF056
:1043C0008500F4E740420F0090B585B000AF07F1DB
:1043D000100404E907001C46BB882069B3F5807F00
:1043E00016D0B3F5827F16D1B968FFF79DFF4FF065
:1043F0002003EFF3118283F31288BFF36F8FD0E9AC
:10440000013182F31188BFF36F8F0BB120469847BB
:104410001437BD4690BD6C4688B06A460649C2E96D
:104420000513032342F8103F044800234FF4C25100
:10443000FDF752F9A546EBE786C9000018B7000062
:1044400070B5446886B0636A05469847A66A6A46AE
:104450000021304606F01FF800281EDB009B326862
:1044600019791868FFF77EFE002816DB2B46254ACF
:1044700004F10801204602F081F9234B98420ED145
:10448000224B0593022304932148002304AA4FF4EE
:104490008251FDF721F96FF00F0006B070BD1D4B82
:1044A00098420DD01C4B0593022304931848002317
:1044B00004AA4FF48251FDF70FF96FF00D00ECE7FD
:1044C0006968CB6A5A1C18D068460093FFF71CFF36
:1044D000009A01239340C0F80C35CB6A00936846DC
:1044E000FFF712FF009B00EB83000C4BD0F8002776
:1044F000134043F00303C0F80037204602F05EF992
:104500000020CAE7C94300000500AD0B9DC90000AB
:1045100018B700000000AD0BB1C90000F0F8FCFFB7
:10452000014B01221A60704700C000400C2903694A
:104530000BD1DB6A064907484B4393FBF0F100FBC4
:10454000113311605360002070476FF08500704791
:1045500090D0030040420F00044B00690022C3F8D2
:104560000021D3F8003103F075BD00BF00C000404A
:104570007FB505692B6B63B33A2901D00C292BD188
:1045800005F118064FF0FF324FF0FF33304603F0CD
:10459000ABFC134B0193286B03230024694603945F
:1045A000029305F029FA4FF0FF324FF0FF3328460F
:1045B00003F076FD286B05F077FA0A4BD3F808254F
:1045C000EA6201225A60304603F008FD204604B03A
:1045D00070BD6FF00A00FAE76FF08500F7E700BFE3
:1045E0002145000000C0004010B504690020FEF71E
:1045F00033FF20634FF0FF320021204606F062FCBB
:1046000004F1180006F057FC002201210C20FDF7F0
:1046100079FD0C20FDF746FD024B0122C3F804236F
:10462000002010BD00C00040F0B54B79012B26D012
:10463000032B21D110258B79032B1DD1CE790EB1FF
:10464000012E19D10A7912B1022A15D10E220B6856
:104650004468B3F5164F276867D02DD8B3F5165FB9
:1046600066D016D8B3F5966F64D00AD8B3F5967FA6
:1046700063D0B3F5167F63D06FF0850054E000255A
:10468000D9E7B3F5166F5ED0B3F5965FF4D1384B2A
:104690003CE0B3F5E14F59D007D8B3F5615F57D08F
:1046A000B3F5964FE8D1334B30E047F61224A342DE
:1046B000E2D14FF4000329E0B3F5613F4AD013D8AB
:1046C000B3F5963F49D009D84DF6C024A34246D051
:1046D000B3F5614FD0D14FF46B0317E0B3F5E13F71
:1046E000CAD14FF0EB7311E0B3F5612F3AD008D87F
:1046F000214CA34239D0B3F5E12FBDD14FF0E8638F
:1047000004E01E4CA342B7D14FF080530469C7F8B0
:104710002435436835431B682A43C3F86C2503C915
:10472000231D83E803000020F0BD4FF41D03EDE7D7
:10473000134BEBE74FF49E23E8E74FF4A033E5E794
:104740004FF41C33E2E74FF41D23DFE70D4BDDE7A9
:104750000D4BDBE74FF06C73D8E70C4BD6E74FF40B
:104760006503D3E74FF07063D0E74FF08063CDE788
:1047700000B0130000A04E0090D0030040420F0094
:104780000050270000C0750000F03A0000903A0188
:104790002DE9F043002287B0804601210220FDF779
:1047A000B1FC0220FDF77EFCD8F80470D8F8106048
:1047B0003C680021C4F80015C6F80080D7F80C90BA
:1047C0006A46484605F067FE051E25DB009BD9F8C2
:1047D000002019791868FFF7C5FC051E1CDB311D88
:1047E0004046FFF721FF0546B0B97B68990723D5FE
:1047F00006F1180001F09EFF234B984210D0234B86
:1048000005930223049322482B4604AA4FF48251B5
:104810006FF00405FCF760FF284607B0BDE8F083A1
:10482000307E04F10C0204F5907106F01BF8337E23
:104830000120984001F000FB0823C4F800353B7AC2
:1048400053B9C4F81031D4F810317369C4F8343551
:104850000123C4F8383523607B689A075CBF4FF4A6
:104860008073C4F804337B68DB0644BF4FF48003D5
:10487000C4F804333369C4F844350023C4F8483518
:104880000123A360E360C7E70000AD0BFBC9000094
:1048900040B70000F8B5044607690D4606F0EAFA8D
:1048A000B0B92E4B1B789BB16426606805F061FEA1
:1048B00000BB012005F0D4FF013EF6D100212120EC
:1048C00003F0FAFEF0E786F31188BFF36F8FF5E788
:1048D0004FF02003EFF3118683F31288BFF36F8F3D
:1048E0006068314605F045FE90B986F31188BFF344
:1048F0006F8FEDE74FF02003EFF3118683F31288FB
:10490000BFF36F8F6068314605F033FE0028DAD0C0
:104910003B691D70626838691368C3F8440501205B
:10492000C3F848050020C3F82001D3F82051C3F88C
:1049300058015268D3F85801D20608D56268126847
:104940000820C2F800054FF48002C3F804230122B6
:104950009A6081F31188BFF36F8FF8BD8247002002
:104960002DE9F04387B045680669D5F8208000AF8F
:104970003A460021404605F08EFD041E1EDB3B68D2
:10498000D8F8002019791868FFF7ECFB041E15DB36
:10499000686A441C25D000F037FB10F1130F044661
:1049A00011D1364B7B61022335483B6107F1100280
:1049B0004FF4825105F03EFE6FF0120420461C3782
:1049C000BD46BDE8F083411D0BD12E4B7B61022318
:1049D0002B483B6107F110024FF4825105F02AFE8B
:1049E000ECE7EB699847B5684FF00108D6E9023269
:1049F00003EBC2039D4204D3304605F032FE00248F
:104A0000DCE7286806F0DDF9B0B92B686C468AB09F
:104A100019682B796A461C48D3614FF400731384DC
:104A20001A4BC2E9050142F8103F15484FF41151E5
:104A300005F000FEA546BFE728682979EB88D0F885
:104A400010C0D0F80890DCF80040DA0754BF43F4F7
:104A5000B01383F4D01323F4801208FA01FEDB07AD
:104A60004CBF44EA0E0424EA0E04CCF80040D9F806
:104A700000309847041EA1DB0835B7E738CA0000AC
:104A800028B7000063CA000080CA000004000001CB
:104A90007FB5054640682A69936D116EE3B9A9B1E7
:104AA000546D91661E460B46D26D0292CDE90046CA
:104AB000EAB1002918BF194603910022694602F0A5
:104AC0001FF80D4B984214D06FF00401286904B010
:104AD000BDE8704005F0EFBD546D11B18B4228BFA9
:104AE0000B46002C936614BF1E460026DCE71146D9
:104AF000E2E704B070BD00BF0000AD0B10B5037855
:104B000086B00C46002B5ED18A6E42B94B6E186996
:104B10006FF0730106B0BDE8104005F0CCBD8B6DA1
:104B20005BB19A421ED9294B05932948022304AA56
:104B30004FF48251049305F07DFD236EA26E5BB1AC
:104B40009A4227D9214B05932148022304AA4FF406
:104B50008251049305F06EFD606E06B0BDE8104012
:104B6000FFF796BF9B1A8B6573B94B6C08334B6488
:104B70008B6C013B8B6401F1580204F14400483115
:104B800005F045FD6065D8E74B6D002BD5D013448B
:104B90004B65D2E79B1A23667BB9E36C0833E36469
:104BA000236D013B236504F1600204F1500104F11F
:104BB0004C0005F02CFDE065CEE7E36D002BCBD07B
:104BC0001344E365C8E706B010BD00BFA4CA0000E7
:104BD00028B700002DE9F04F8BB000AFC7E90232D3
:104BE00043687B608B8804699A040646884636D4FD
:104BF0004FF0FF324FF0FF3304F1100003F050FA92
:104C0000C4F80480D6F81090D6F804A099F86D3056
:104C100023B1D9F80030984500F01781B8F804C0E6
:104C20001CF4006F22D0744B7B62022373483B62FA
:104C300007F120024FF482516FF0850505F0FAFC70
:104C400023689B8813F4005304D1636004F11000BF
:104C500003F000FA28462C37BD46BDE8F08FA36963
:104C6000002BC5D163689942C2D1CBE71CF0010F7C
:104C700015D06D4688B033686A4661495F48C2E91D
:104C800005134FF4007393835E4B42F8103F4FF4CB
:104C9000E25105F0CFFCAD466FF01505D0E71CF0F2
:104CA000080F0BD0584B7B62022354483B6207F13C
:104CB00020024FF4825105F0BDFCEDE7CCF3451323
:104CC000082B01D0514BEEE7D8F80050504B9D42D5
:104CD00001D8504BE7E70AF1080BBBE80F0007F1DA
:104CE000100EAEE80F00DBF80030CEF800304A4B73
:104CF0009D425DD9494B9D425DD9494B9D425DD94D
:104D0000484B9D425DD9484B9D425DD9474B9D42E2
:104D10002CBF4FF000454FF080451CF0020FBD61E5
:104D20000CF0040353D0002B14BF032302233B7762
:104D3000CCF300137B77DAF80030D3F808351CF099
:104D4000020F4FEA5312CCF3400103F01F0345D189
:104D5000002A40D0012A40F029813549012202FA77
:104D600003F3C1F80C3599F86D302BB1504601F0C2
:104D70008FFE002389F86D304B462E4A07F1100153
:104D8000504601F051FE2C4B984259D06D4688B0E8
:104D90006A462A4BC2E90530032342F8103F174800
:104DA0004FF4C25105F046FCAD466FF0040547E7ED
:104DB0004FF00075B1E74FF08065AEE74FF000654A
:104DC000ABE74FF08055A8E74FF00055A5E7003B53
:104DD00018BF0123ABE74FF0A041BFE74AB1012A5A
:104DE00040F0E7801249012202FA03F3C1F80835C6
:104DF000B9E74FF0A041F6E7C2CA000028B70000AB
:104E0000DCCA000003000001FECA00001DCB000048
:104E100047E801004CCB00008FD003001FA1070022
:104E20003F420F007F841E00FF083D0000127A0001
:104E300000030050FD4A00000000AD0B7DCB0000D8
:104E4000012389F86D30C9F80080012384F86C30A3
:104E50007B68586A431C0ED005F049FC74300AD1B7
:104E6000564B7B62022356483B6207F120024FF407
:104E7000845105F0DFFBFB68002B73D163640023D2
:104E8000A36404F1580204F1480104F1440005F060
:104E9000BEFBBB686065002B6CD1E3640023236517
:104EA00004F1600204F1500104F14C0005F0AFFB85
:104EB000E06520680023236448B183683BB1012189
:104EC000083005F0BAFB2368186905F075FF304615
:104ED000FFF7DEFD0022A06C1346834252D100236F
:104EE000256D1946A94254D19342A04638BF1346B6
:104EF0004FF4FA5202FB03F558F8283B4FF4004CEC
:104F00001B68B5FBF3F540F2E730C83500214FF4DC
:104F10007A720023E5FB0C01FBF7F2F802460B4620
:104F2000404603F0BDF800283AD0264B7B620223AE
:104F300023483B6207F120024FF4825105F07AFBCF
:104F400000257868A56601F0A3FD84F86D503069EE
:104F50006FF0730105F0AFFB404603F0C9F86FF046
:104F600073056DE6FB681B686364002B87D0FB68E4
:104F70005B6885E7BB681B68E364002B8ED0BB6869
:104F80005B688CE7616C01EBC301013349680A443B
:104F9000A3E7E06C00EBC100013140680344A1E7E6
:104FA000256C15F1740F7FF44BAEC9E7C1F80C15F1
:104FB000FFDE0023C3F80835FAE700BFA4CB0000EA
:104FC00028B70000CECB000000F01F0240090DD032
:104FD00001280ED10A4B03EB82030A4AD3F80007DB
:104FE000024042EA8102C3F8002770474FF0A04315
:104FF000F1E702F5E072002353F82230FFDE00BF34
:1050000000030050F0F8FCFF30B585B001238DF8A7
:105010000430054602230DF107008DF80830039097
:1050200001F0FAF90C4B984204460FD1002302AA72
:1050300001A9284601F060F8A0420AD09DF80700B7
:1050400001F0E4F96FF0040005B030BD6FF012001C
:10505000FAE70020F8E700BF0000AD0B2DE9F043B0
:1050600087B045680669D5F83C8000AF3A46002114
:10507000404605F010FA041E1EDB3B68D8F80020FD
:1050800019791868FFF76EF8041E15DB286C441CAC
:1050900025D0FFF7B9FF10F1130F044611D1364B9D
:1050A0007B61022335483B6107F110024FF48251C6
:1050B00005F05DFB6FF0120420461C37BD46BDE8CD
:1050C000F083411D0BD12E4B7B6102232B483B61AA
:1050D00007F110024FF4825105F049FBECE76B6BCE
:1050E0009847B5684FF00108D6E9023203EBC203D6
:1050F0009D4204D3304605F051FB0024DCE72868CC
:1051000005F05FFEB0B92B686C468AB019682B7940
:105110006A461C48D3614FF4007313841A4BC2E9EA
:10512000050142F8103F15484FF4115105F01FFBDF
:10513000A546BFE728682979EB88D0F810C0D0F8D9
:105140000890DCF80040DA0754BF43F4B01383F44E
:10515000D01323F4801208FA01FEDB074CBF44EAA7
:105160000E0424EA0E04CCF80040D9F80030984729
:10517000041EA1DB0835B7E738CA000030B70000CD
:1051800063CA000080CA000004000001F0B5046991
:105190004768A56D236E85B006463DB96BBB1946C1
:1051A000306905B0BDE8F04005F022BB616D03BB7E
:1051B00031BB3A8F636D0091AA4228BF2A46A2668E
:1051C0001BB1A36D002B18BF13460193E36D02932F
:1051D0001BB1236E002B18BF1346002269463846C8
:1051E000039301F053FF0E4B984217D06FF0040168
:1051F000D6E79D4228BF1D46DAE7616D1D46D8E718
:1052000001F06043B3F1005FD3D0082D28BF08251B
:10521000206F2A4606F065F8216FCAE705B0F0BD99
:105220000000AD0B10B5037886B00C46002B5ED1A4
:105230008A6E42B94B6E18696FF0730106B0BDE813
:10524000104005F0D5BA8B6D5BB19A421ED9294B3F
:1052500005932948022304AA4FF48251049305F0D0
:1052600086FA236EA26E5BB19A4227D9214B059331
:105270002148022304AA4FF48251049305F077FADF
:10528000606E06B0BDE81040FFF780BF9B1A8B65CB
:1052900073B94B6C08334B648B6C013B8B6401F12D
:1052A000580204F14400483105F04EFA6065D8E731
:1052B0004B6D002BD5D013444B65D2E79B1A236668
:1052C0007BB9E36C0833E364236D013B236504F190
:1052D000600204F1500104F14C0005F035FAE0657C
:1052E000CEE7E36D002BCBD01344E365C8E706B0EF
:1052F00010BD00BFA4CA000030B700002DE9F04F78
:105300008FB000AFC7E9023243687B608B880469C5
:105310009A048046894639D44FF0FF324FF0FF336C
:1053200004F1100002F0BCFEC4F80490D8F804B0F8
:10533000D8F810A0DBF808303B609AF86D3023B144
:10534000DAF80030994500F02E81B9F804E01EF437
:10535000006F22D0774B7B62022377483B6207F1D4
:1053600020024FF482516FF0850505F000FA2368A2
:105370009B8813F4005304D1636004F1100002F021
:1053800069FE28463C37BD46BDE8F08FA369002B77
:10539000C2D163689942BFD1C8E71EF0010F16D091
:1053A0006D4688B0D8F800306A4664496248C2E960
:1053B00005134FF400739383614B42F8103F4FF491
:1053C000E25105F0D4F9AD466FF01505CFE71EF0B8
:1053D000080F0BD05B4B7B62022357483B6207F1FF
:1053E00020024FF4825105F0C2F9EDE7CEF34513E8
:1053F000082B01D0544BEEE7D9F800C0534B9C4525
:1054000001D8534BE7E70BF10C060FCE07F110055F
:105410000FC50FCE0FC53B68634528BF63469C464A
:1054200096E803004B4B9C4585E8030017D24A4B96
:105430009C4514D2494B9C4511D2494B9C455BD8A5
:10544000484B9C455AD8484B9C4559D8474B9C459E
:1054500058D84749474B484A8C4588BF13461EF0E9
:10546000020F7B620EF004034ED0002B14BF032307
:10547000022387F82830CEF3001387F82930DBF8B1
:105480000030D3F808351EF0020F4FEA5312CEF366
:10549000400103F01F033ED1002A39D0012A40F019
:1054A00034813649012202FA03F3C1F80C359AF827
:1054B0006D302BB1584601F09BFD00238AF86D300A
:1054C00053462F4A07F11001584601F063FD2D4B5A
:1054D000984263D06D4688B06A462B4BC2E90530CE
:1054E000032342F8103F14484FF4C25105F03FF92E
:1054F000AD466FF004053AE7244BB0E7244BAEE726
:10550000244BACE7244BAAE7003B18BF0123B0E7CC
:105510004FF0A041C6E74AB1012A40F0F98017498F
:10552000012202FA03F3C1F80835C0E74FF0A041A9
:10553000F6E700BFC2CA000030B70000DCCA0000B6
:1055400003000001FECA00001DCB000047E8010077
:105550004CCB00000048E8010024F40000127A005F
:10556000FF083D007F841E003F420F001FA107007F
:105570008FD0030048E8010090D0030000030050E2
:10558000255200000000AD0B7DCB000000093D005E
:1055900080841E0040420F0020A1070001238AF8EA
:1055A0006D30CAF80090012384F86C307B68186C69
:1055B000431C0ED005F09BF874300AD1564B7B6229
:1055C000022356483B6207F120024FF4845105F054
:1055D000CEF8FB68002B74D163640023A36404F14C
:1055E000580204F1480104F1440005F0ADF8BB682D
:1055F0006065002B6DD1E3640023236504F1600234
:1056000004F1500104F14C0005F09EF8E0652068BB
:105610000023236448B183683BB10121083005F0C1
:10562000A9F82368186905F0C7FB4046FFF7AEFDEF
:105630000022A06C1346834253D10023256D1946E6
:10564000A94255D19342264638BF13464FF4FA5229
:1056500002FB03F556F8283B4FF4004C1B68B5FBE2
:10566000F3F540F2E730C83500214FF47A72002399
:10567000E5FB0C01FAF744FD02460B46304602F00A
:105680000FFD00283BD0264B7B62022323483B6260
:1056900007F120024FF4825105F069F8002578687F
:1056A000A56601F0A5FC84F86D50D8F810006FF0E5
:1056B000730105F09DF8304602F01AFD6FF0730596
:1056C00055E6FB681B686364002B86D0FB685B684B
:1056D00084E7BB681B68E364002B8DD0BB685B6804
:1056E0008BE7616C01EBC301013349680A44A2E70F
:1056F000E06C00EBC100013140680344A0E7256C79
:1057000015F1740F7FF433AEC8E7C1F80C15FFDE56
:105710000023C3F80835FAE7A4CB000030B7000037
:10572000CECB000070B5012383400E4ABFF35B8FE0
:10573000DC4352E8001F01EA040542E80056002E4F
:10574000F7D1BFF35B8F4FF4803282400648C0F838
:105750000823BFF35F8FBFF36F8F0B4214BF01208D
:10576000002070BDEC3F00200010014070B40E49D5
:10577000D1E90034D01AC31844F1000422F07F4666
:10578000C1E90034A6F50013B3F5400F09D2074B69
:105790001B681A0A1B069C19054B42F10005C3E958
:1057A000004570BC03F0F0B8D0370020F03F002077
:1057B000D837002011B3BFF35B8F0123104A834019
:1057C00052E800CF4CEA030C42E800C10029F7D1AF
:1057D000BFF35B8F0B4A4FF480338340C2F804332E
:1057E000094BBFF35B8F1B68BFF35B8FC340DB07C5
:1057F00042BF064B4FF40032C3F80021704700BF90
:10580000EC3F002000100140E83F002000E100E0F4
:105810000D4B1868010A0006BFF35F8F0B4BD3F8DE
:105820000435181841F10001B3F5801F0AD2084B66
:10583000D3E90023904271EB030303D210F180708F
:1058400041F10001704700BFF03F0020001001400F
:10585000D83700202DE9F04F85B016461F469DF839
:1058600040A00446FFF75EFF0190FFF7D1FFB04272
:1058700071EB070354D23E4B301A67EB010198429B
:1058800071F100014FD23B4B03EB0413D3E9022328
:105890009F4208BF96425ED037494FF4803804F1EA
:1058A000500508FA04F8AD00C1F848832046ADB2AF
:1058B00004F0BAFF26F07F4B05F1804504F5A8738C
:1058C00005F58835DC464FF003090293029A2CF067
:1058D0007F4341F82230C1F84483D1F80435274A88
:1058E0006FF00200C01A604420F07F40904232D92D
:1058F000286868B1D1F804350393A3EB0B0020F0BE
:105900007F40B0F5000F26D9204604F08DFF039BA1
:10591000BAF1000F07D109EB030C09F10109D5E732
:10592000BAF1000F09D06FF0150520460199FFF775
:1059300041FF284605B0BDE8F08F0123104ABFF3B0
:105940005B8FA34052E8000F184342E80001002992
:10595000F8D1BFF35B8F07490E98230101EB0412C6
:10596000C8500F9B5360C2E902670025DDE700BF06
:1059700001008000C037002000100140FDFF7F00C3
:10598000E83F00207FB51C4C1C4BC4F80833C4F81A
:1059900048331B4B00254FF0FF304FF0FF31C4F868
:1059A0000855C3E902014FF48033C4F80433154BA2
:1059B00002264FF400320121C4F804631120C3F819
:1059C00080212A46FCF79EFB1120FCF76BFB0E4A58
:1059D0000123A360236013600C4B0D4A0093CDE9B3
:1059E000015500232846FFF735FF3046FDF73CFD03
:1059F000284604B070BD00BF0010014003000F0036
:105A0000C037002000E100E0EC3F00206D570000AF
:105A1000FFFF7F002DE9F7432F4CD4F8043399079B
:105A20000BD5D4F8043143B12C4A0023C4F8043117
:105A3000D4F80431136801331360D4F80433DA0363
:105A40002AD5BFF35B8F264B53E8002F22F00101CC
:105A500043E800100028F7D1BFF35B8FD30702D4CF
:105A6000D4F84031C3B10025C4F84051D4F84031D6
:105A7000FFF7CEFE4FF02003EFF3118283F312887D
:105A8000BFF36F8F174BD3E90267B042B94106D21B
:105A900082F31188BFF36F8F03B0BDE8F0834FF03E
:105AA000FF384FF0FF39C3E90289D3E900101D60C8
:105AB0004FF48033C4F84833C4F84051D4F840312F
:105AC00082F31188BFF36F8F0029E5D00090324632
:105AD0003B4628468847DFE700100140F03F0020A2
