:1000000040580020FD340000B99F0000D1340000AA
:10001000D1340000D1340000D134000000000000D1
:10002000000000000000000000000000712D000032
:10003000D1340000000000000D2D0000D13400007C
:100040002D2E00002D2E00002D2E00002D2E000044
:100050002D2E00002D2E00002D2E00002D2E000034
:100060002D2E00002D2E00002D2E00002D2E000024
:100070002D2E00002D2E00002D2E00002D2E000014
:100080002D2E00002D2E00002D2E00002D2E000004
:100090002D2E00002D2E00002D2E00002D2E0000F4
:1000A0002D2E00002D2E00002D2E00002D2E0000E4
:1000B0002D2E00002D2E00002D2E00002D2E0000D4
:1000C0002D2E00002D2E00002D2E00002D2E0000C4
:1000D0002D2E00002D2E00002D2E00002D2E0000B4
:1000E0002D2E00002D2E00002D2E00002D2E0000A4
:1000F0002D2E00002D2E00002D2E00002D2E000094
:1001000081F0004102E000BF83F0004330B54FEAC8
:1001100041044FEA430594EA050F08BF90EA020F35
:100120001FBF54EA000C55EA020C7FEA645C7FEAC8
:10013000655C00F0E2804FEA5454D4EB5555B8BFEB
:100140006D420CDD2C4480EA020281EA030382EA5C
:10015000000083EA010180EA020281EA0303362DEE
:1001600088BF30BD11F0004F4FEA01314FF4801CC1
:100170004CEA113102D0404261EB410113F0004FD3
:100180004FEA03334CEA133302D0524263EB43038A
:1001900094EA050F00F0A780A4F10104D5F1200E28
:1001A0000DDB02FA0EFC22FA05F2801841F1000183
:1001B00003FA0EF2801843FA05F359410EE0A5F157
:1001C00020050EF1200E012A03FA0EFC28BF4CF088
:1001D000020C43FA05F3C01851EBE37101F000453E
:1001E00007D54FF0000EDCF1000C7EEB00006EEB4B
:1001F0000101B1F5801F1BD3B1F5001F0CD34908D5
:100200005FEA30004FEA3C0C04F101044FEA44522B
:1002100012F5800F80F09A80BCF1004F08BF5FEAB2
:10022000500C50F1000041EB045141EA050130BD92
:100230005FEA4C0C404141EB0101013C28BFB1F5A4
:10024000801FE9D291F0000F04BF01460020B1FAEF
:1002500081F308BF2033A3F10B03B3F120020CDAC2
:100260000C3208DD02F1140CC2F10C0201FA0CF0A0
:1002700021FA02F10CE002F11402D8BFC2F1200C05
:1002800001FA02F120FA0CFCDCBF41EA0C019040BB
:10029000E41AA2BF01EB0451294330BD6FEA040404
:1002A0001F3C1CDA0C340EDC04F11404C4F12002EF
:1002B00020FA04F001FA02F340EA030021FA04F301
:1002C00045EA030130BDC4F10C04C4F1200220FA58
:1002D00002F001FA04F340EA0300294630BD21FA96
:1002E00004F0294630BD94F0000F83F4801306BF5C
:1002F00081F480110134013D4EE77FEA645C18BF50
:100300007FEA655C29D094EA050F08BF90EA020FE6
:1003100005D054EA000C04BF1946104630BD91EADE
:10032000030F1EBF0021002030BD5FEA545C05D1E1
:100330004000494128BF41F0004130BD14F5800420
:100340003CBF01F5801130BD01F0004545F0FE4194
:1003500041F470014FF0000030BD7FEA645C1ABFC9
:10036000194610467FEA655C1CBF0B46024650EA00
:10037000013406BF52EA033591EA030F41F400212C
:1003800030BD00BF90F0000F04BF0021704730B5B2
:100390004FF4806404F132044FF000054FF0000187
:1003A00050E700BF90F0000F04BF0021704730B548
:1003B0004FF4806404F1320410F0004548BF40421D
:1003C0004FF000013EE700BF42004FEAE2014FEA72
:1003D00031014FEA02701FBF12F07F4393F07F4F4D
:1003E00081F06051704732F07F4208BF704793F050
:1003F0007F4F04BF41F40021704730B54FF4607463
:1004000001F0004521F000411CE700BF50EA010265
:1004100008BF704730B54FF000050AE050EA01020E
:1004200008BF704730B511F0004502D5404261EB7E
:1004300041014FF4806404F132045FEA915C3FF4BF
:10044000D8AE4FF003025FEADC0C18BF03325FEA5C
:10045000DC0C18BF033202EBDC02C2F1200300FA0D
:1004600003FC20FA02F001FA03FE40EA0E0021FA32
:1004700002F11444BDE600BF70B54FF0FF0C4CF420
:10048000E06C1CEA11541DBF1CEA135594EA0C0FD2
:1004900095EA0C0F00F0DEF82C4481EA030621EA0D
:1004A0004C5123EA4C5350EA013518BF52EA033548
:1004B00041F4801143F4801338D0A0FB02CE4FF0FA
:1004C0000005E1FB02E506F00042E0FB03E54FF02A
:1004D0000006E1FB03569CF0000F18BF4EF0010E22
:1004E000A4F1FF04B6F5007F64F5407404D25FEA1E
:1004F0004E0E6D4146EB060642EAC62141EA5551D1
:100500004FEAC52040EA5E504FEACE2EB4F1FD0C12
:1005100088BFBCF5E06F1ED8BEF1004F08BF5FEA90
:10052000500E50F1000041EB045170BD06F0004642
:1005300046EA010140EA020081EA0301B4EB5C04EF
:10054000C2BFD4EB0C0541EA045170BD41F48011E7
:100550004FF0000E013C00F3AB8014F1360FDEBF0C
:10056000002001F0004170BDC4F10004203C35DAE8
:100570000C341BDC04F11404C4F1200500FA05F36B
:1005800020FA04F001FA05F240EA020001F000420C
:1005900021F0004110EBD37021FA04F642EB060182
:1005A0005EEA430E08BF20EAD37070BDC4F10C04AC
:1005B000C4F1200500FA04F320FA05F001FA04F270
:1005C00040EA020001F0004110EBD37041F100015C
:1005D0005EEA430E08BF20EAD37070BDC4F1200567
:1005E00000FA05F24EEA020E20FA04F301FA05F2CF
:1005F00043EA020321FA04F001F0004121FA04F277
:1006000020EA020000EBD3705EEA430E08BF20EA46
:10061000D37070BD94F0000F0FD101F00046400080
:1006200041EB010111F4801F08BF013CF7D041EA02
:10063000060195F0000F18BF704703F00046520006
:1006400043EB030313F4801F08BF013DF7D043EAD7
:100650000603704794EA0C0F0CEA135518BF95EA8D
:100660000C0F0CD050EA410618BF52EA4306D1D114
:1006700081EA030101F000414FF0000070BD50EA33
:10068000410606BF1046194652EA430619D094EABD
:100690000C0F02D150EA013613D195EA0C0F05D1A7
:1006A00052EA03361CBF104619460AD181EA0301FB
:1006B00001F0004141F0FE4141F470014FF00000B3
:1006C00070BD41F0FE4141F4780170BD70B54FF04E
:1006D000FF0C4CF4E06C1CEA11541DBF1CEA1355CE
:1006E00094EA0C0F95EA0C0F00F0A7F8A4EB0504B0
:1006F00081EA030E52EA03354FEA013100F08880A7
:100700004FEA03334FF0805545EA131343EA12636F
:100710004FEA022245EA111545EA10654FEA002624
:100720000EF000419D4208BF964244F1FD0404F5DD
:10073000407402D25B084FEA3202B61A65EB030539
:100740005B084FEA32024FF480104FF4002CB6EBF6
:10075000020E75EB030E22BFB61A754640EA0C0076
:100760005B084FEA3202B6EB020E75EB030E22BFB6
:10077000B61A754640EA5C005B084FEA3202B6EBF7
:10078000020E75EB030E22BFB61A754640EA9C00B6
:100790005B084FEA3202B6EB020E75EB030E22BF86
:1007A000B61A754640EADC0055EA060E18D04FEA44
:1007B000051545EA16754FEA06164FEAC30343EAE4
:1007C00052734FEAC2025FEA1C1CC0D111F4801FB1
:1007D0000BD141EA00014FF000004FF0004CB6E7AA
:1007E00011F4801F04BF01430020B4F1FD0C88BF49
:1007F000BCF5E06F3FF6AFAEB5EB030C04BFB6EB54
:10080000020C5FEA500C50F1000041EB045170BD46
:100810000EF0004E4EEA113114EB5C04C2BFD4EB73
:100820000C0541EA045170BD41F480114FF0000EF7
:10083000013C90E645EA060E8DE60CEA135594EA73
:100840000C0F08BF95EA0C0F3FF43BAF94EA0C0F76
:100850000AD150EA01347FF434AF95EA0C0F7FF4EB
:1008600025AF104619462CE795EA0C0F06D152EA3F
:1008700003353FF4FDAE1046194622E750EA410623
:1008800018BF52EA43067FF4C5AE50EA41047FF434
:100890000DAF52EA43057FF4EBAE12E74FEA410297
:1008A00012F5001215D211D56FF47873B3EB6252C2
:1008B00012D94FEAC12343F0004343EA505311F0E9
:1008C000004F23FA02F018BF404270474FF000007B
:1008D000704750EA013005D111F0004008BF6FF0B9
:1008E000004070474FF00000704700BF53B94AB94D
:1008F000002908BF00281CBF4FF0FF314FF0FF3028
:1009000000F00CB8ADF1080C6DE904CE00F008F869
:10091000DDF804E0DDE9022304B07047704700BF52
:100920002DE9F04786468C460846089E15467446D3
:100930001946002B40F0C2808542B2FA82F245D9B6
:100940004AB1C2F1200300FA02FC2EFA03F39540EB
:1009500043EA0C0C94404FEA154EA8B2BCFBFEF8DB
:10096000230C0EFB18CC08FB00F943EA0C43994515
:1009700028D9EB1808F1FF3704D2994502D9A8F11C
:1009800002072B44A3EB0903A4B2B3FBFEFC0EFB4E
:100990001C330CFB00F044EA0344A04214D92C1988
:1009A0000CF1FF3304D2A04202D9ACF102032C4473
:1009B000241A43EA07401EB1D44000233460736018
:1009C000BDE8F0874746DDE76346F1E792BB431B8E
:1009D00001214FEA154EAFB2B3FBFEFC200C0EFB1B
:1009E0001C330CFB07F840EA0343984562D9EB1827
:1009F0000CF1FF3004D2984502D9ACF102002B442F
:100A0000A3EB0803A4B2B3FBFEFC0EFB1C330CFBF0
:100A100007F744EA0344A7424ED92C190CF1FF33DF
:100A200004D2A74202D9ACF102032C44E41B43EAEE
:100A30000040C0E7C2F1200320FA03F19540904046
:100A40002EFA03F303434FEA154EAFB2B1FBFEFC9F
:100A50000EFB1C10190C0CFB07F841EA00418845FD
:100A600004FA02F422D969180CF1FF3004D2884547
:100A700002D9ACF102002944A1EB08019BB2B1FB01
:100A8000FEFC0EFB1C110CFB07F743EA01439F42DF
:100A90000ED9EB180CF1FF3104D29F4202D9ACF110
:100AA00002012B44DB1B41EA004192E76046E3E789
:100AB0006146F7E76046A3E76346B7E7834206D996
:100AC00016B9002108467BE7C6E900E0F9E7B3FA6A
:100AD00083F78FB9834201D3724508D8BEEB020475
:100AE00060EB030301209C461EB9002168E73846ED
:100AF000FAE7C6E9004CF8E7C7F1200CBB4022FA40
:100B00000CF41C432EFA0CF120FA0CF3B84001430C
:100B10004FEA14490EFA07F5B3FBF9F81FFA84FE01
:100B200009FB18300B0C08FB0EFA43EA00439A4508
:100B300002FA07F240D9E31808F1FF3004D29A45CF
:100B400002D9A8F102002344A3EB0A0389B2B3FB44
:100B5000F9F809FB183308FB0EFE41EA03418E4504
:100B60002CD9611808F1FF3304D28E4502D9A8F1BF
:100B70000203214443EA0040A0FB0298A1EB0E01CE
:100B80004145CE46434602D306D14D4504D2B9EB8A
:100B9000020E68EB04030138002EA6D0B5EB0E025E
:100BA00061EB030101FA0CFC22FA07F34CEA0303A0
:100BB000F940C6E9003198E74046C5E74346D9E722
:100BC000034613F8012B002AFBD1181A013870478D
:100BD000002837B52CDD1C4C1C48236801332360EA
:100BE00008F05FFD206800F043FB2068FFF7DAFBA8
:100BF00002460B4612A1D1E90001FFF767FDFFF79E
:100C00004DFE4FF4004520EAE074002140F2E73049
:100C10004FF47A720023C4FB0501FFF767FE02461A
:100C20000B46CDE900010A4807F0E4FF03B030BDF0
:100C3000FCD0054C07482368013B2360D0E700BF88
:100C400000000000004CED4018210020A5B8000075
:100C5000C02E0020B1B800002DE9F04F89B000246B
:100C6000CDE9054407949A4D284609F0E0FE90B17D
:100C70009849DFF86482284608F0B8FCA042024692
:100C8000C8F800000CDB954809F0D1FE80B9944803
:100C900008F007FD08E02968924808F002FD03E02B
:100CA0009148214608F0FDFC002009B0BDE8F08F16
:100CB0008E4D284609F0BBFE044608B98C48E7E78C
:100CC0002A69AF68136823F02003136005213B688D
:100CD000884A2846984700280146C8F8000001DAEB
:100CE0008548DAE70521BE694FF080634FF0A072B6
:100CF0002846B0470146C8F8000008B17F48CCE755
:100D00007F49804B4B6020238B60FB6913B101222C
:100D1000284698477C4808F0C4FC002000F00AFAF6
:100D20007A4808F0BEFC00F013F928B1784808F0C2
:100D3000B8FC4FF0FF30B8E700F080FA054608B184
:100D40007448F4E7DFF894B10646734B93F800A0BB
:100D5000BAF1000F00F09180704A5D481021516097
:100D60000A21118200F05CFA00280146C8F8000050
:100D700008DA6B4808F095FC002140F6CD4007F0FA
:100D8000DBFCE2E7674AB2F800904FF6DB72914570
:100D9000DBD8654A4FF4FA7707FB09F7974267DD1E
:100DA000002C68D00AF02BF84FF47A72A0FB0203F3
:100DB00002FB0133C00B40EA43440322B6FBF2F3CB
:100DC00003EB4303F31A08A901EB8303651B022E0F
:100DD00043F80C5C34D9DDE905130B4407995348FB
:100DE0000B444EF66025B3FBF2F3B5FBF3F5294651
:100DF00008F057FC4E4B28461D6000F039FA284693
:100E0000FFF7D0FA02460B462FA1D1E90001FFF708
:100E10005DFCFFF743FD4FF4004C20EAE075002134
:100E200040F2E7304FF47A720023C5FB0C01FFF764
:100E30005DFD02460B46CDE900013E4807F0DAFEB3
:100E400031463D4808F02DFC3C484FF47A72494643
:100E5000B7FBF2F208F025FC06F1010A56462546DA
:100E60004FF0000A2120002107F066FC54466CE791
:100E7000334A9742F6DDA246F4E7DBF808701748DC
:100E8000FB683A219847014608B12E4805E723211F
:100E90003B6903AA58469847014608B12A48FCE630
:100EA0001D4B1B7863B90398FFF792FE03992748FF
:100EB00008F0F7FB002140F6CD4007F03DFCDAE7F3
:100EC00000F02AF9F2E700BF00000000004CED40FE
:100ED000C0B00000EEB300006439002024B100006F
:100EE00005B90000BFB80000E3B8000084B00000FE
:100EF0001FB900001000010035B9000057B900000B
:100F00006C390020691100007FB900009FB9000012
:100F1000BAB90000DEB90000F6420020F02000203F
:100F2000F6B90000F442002007A507000BBA000044
:100F300018210020C02E002015BA000022BA00009F
:100F40009F86010044BA000061BA00007ABA00002E
:100F500008B50A4809F06BFD28B9094808F0A1FB5B
:100F60004FF0FF3008BD054809F061FD08B905489C
:100F7000F4E7054808F095FB0020F3E784B0000093
:100F80000CB8000023B800003AB80000F7B52A4FAB
:100F90002A4EC5B208244FF40031384608F00DFB44
:100FA00008F020FBEB074CBF4FF480314FF40031C9
:100FB000304608F002FB013C08F014FB1E484FF4D9
:100FC000803108F0FAFA08F00DFB14F0FF044FEA44
:100FD0005505E0D118484FF4003108F0EEFA1748F3
:100FE0004FF4803108F0E9FA08F0FCFA12484FF4A7
:100FF000803108F0E2FA08F0F5FA114804698368D4
:1010000001A95B68984720B9236801985840C0F34C
:101010004030C0B220B909484FF4003108F0CDFA91
:1010200008F0E0FA04484FF4003108F0C6FA03B0C3
:10103000BDE8F04008F0D6BAE0B30000D8B3000035
:1010400084B0000008B504484FF4003108F0B5FA48
:10105000BDE8084008F0C6BAD8B3000010B50C4C83
:101060004FF40031204608F0A8FA08F0BBFA09480E
:101070004FF4803108F0A1FA08F0B4FA20464FF49A
:10108000803108F09AFABDE8104008F0ABBA00BF12
:10109000D8B30000E0B30000072810B5044605D916
:1010A000174808F0FEFA4FF0FF3010BD154B1A68D4
:1010B000904223D001461860134808F0F2FAFFF777
:1010C000C1FF4420FFF762FFFFF7C8FFFFF7BAFF39
:1010D0006FF03F00FFF75AFF0C4B1857FFF756FF12
:1010E000FFF7BCFFFFF7AEFF094B93F90000FFF7D6
:1010F0004DFFFFF7B3FF074808F0D3FA0020D4E70D
:1011000057B800006039002066B8000090B80000B1
:10111000602E002079B8000038B5054B9D6800248A
:1011200003486B68214601349847802CF8D138BDBC
:10113000FCB0000070B50A4D0A4E4FF4017303FB7A
:101140000055002455F8043B012BB36821460CBF21
:101150001B685B68304601349847802CF2D170BD23
:10116000B0000020FCB0000008B5044808F099FA6F
:10117000034A137883F00103137008BD99B8000087
:10118000F6420020014806F0D7BF00BF082100202A
:1011900010B5214B1868042818D1204C23685BB97E
:1011A0000120FFF779FF236801332360022B02DD62
:1011B0001A4B00221A6010BD012BF2D0022B01D174
:1011C0000620EEE7032BEED10720EAE7032812D131
:1011D000124C23683BB90220FFF75EFF23680133FE
:1011E0002360012BE3E7012B01D10520F4E7022B5B
:1011F000F4D10720F0E70228DDD1084C23683BB981
:101200000420FFF749FF236801332360002BCEE75A
:10121000012BF8D10720F4E70421002068390020D1
:10122000836801495B681847F020002001460248A6
:1012300083685B68184700BFFCB0000010B50A4C1B
:10124000204609F0F4FB30B90848216808F029FA73
:101250004FF0FF3010BD002420460134FFF7E6FFB9
:10126000802CF9D10020F5E7FCB0000092BA000014
:1012700063282DE9F84FC8BF64380A23274D90FB37
:10128000F3F6DFF89CA003FB16044FF4827303FB14
:1012900006564FF000084FEA480707F1080BB14621
:1012A00059F8043B012B25D1DAF8083039461B6880
:1012B0005046984701375F45F2D108F10808B8F168
:1012C000400F06F12006E6D14FF48273DFF850801C
:1012D00003FB045410270026A7F10805A146BD42D0
:1012E0000CD10836402E05F1100704F12004F3D18B
:1012F000BDE8F88F3846FFF799FFDBE759F8043B64
:10130000012B07D1D8F8083029461B68404698477A
:101310000135E4E72846FFF789FFF9E71C210020A3
:10132000FCB000002DE9F04F91B08407009302F06B
:1013300004030293C2F3C20303F10103DDF86890D2
:10134000039205460E46059340F0BA81041D30B164
:10135000072909D86FF01B0011B0BDE8F08F01F02C
:101360000706341DC6F10806009B4FF00008591E01
:101370004FF0040A4FF0FF330193CDF81080474639
:10138000C34653460DB1009A22600598002800F329
:10139000E8809848009A824203D397488242C0F07E
:1013A000E080039AA4EB050E92074FEA9E0000F13D
:1013B00003810F2F00F2B180002D00F0058107F1AD
:1013C00040020DEB020C019A0CF8200C0CF8102CCA
:1013D000049801300490E7E07A285DD84B280ED8B5
:1013E000472859D829282DD8252852D054D8202824
:1013F0007AD02338D0F1000B4BEB000B74E04C3863
:101400002E2849D8DFE800F0704848484848484846
:10141000484848484B484848484848484859484B35
:101420004B595959704B6D487048184B18484882B1
:101430007F4B48484B487F0000204FF0000B4FF097
:10144000040A38E02A38C0B2012202FA00F010EA99
:101450000E0F49D110F0625C2FD110EA020B43D07D
:101460006046013C5444B4FBFAF40AFB04F4002D3A
:1014700061D0A3EB050CA4446645FFF46BAF0028D4
:1014800068D1042B47D159F8043B2360043404236A
:101490002AE0019A013A01924FF0000B24E011F882
:1014A000010C6C2834D111F8023C00206C2B8346CF
:1014B000C5D14FF0080A5346D3E709F1070929F0CF
:1014C00007090734F9E802AB24F0070435B10698A0
:1014D0002044B0423FF63EAFC4E900AB08344FF0C1
:1014E000000B4FF0080A534611F8010F002878D07E
:1014F000BBF1000F7FF470AF2528F5D1019B0133BC
:1015000001934FF0010B4FF0040AECE7584694E7C3
:1015100000208346A5E7082B02D06FF015001BE7DB
:1015200009F1070929F00709F9E80223C4E90023B2
:1015300008340823D8E768B9042B02D109F104095B
:10154000A4E7082BE9D109F1070929F0070909F1F6
:101550000809EDE7059A013A059259F8042B009223
:1015600010E7039A900720D5A4EB050E4FEA9E00E2
:101570004FF0010CBEF5007FCFD20F2FCDD8F5B1C3
:1015800007F140020DEB020EC0B2019A0EF8200CDA
:101590000EF8102CBCF1000F3FF41AAF60F07F0082
:1015A0000EF8200C08F101080137C5F108020434D7
:1015B00006924FF6DA7E97E74FF0000CDAE7BCF1BF
:1015C000000F01D00136EFE7029802360028EBD178
:1015D0000098CDE90631FFF7F3FADDE9063106445C
:1015E000E2E7631BB3F5806F97D23DB9A6F108041B
:1015F000E018B1E6C0AF0000A4CA0000029A28605B
:101600009B082B709DF81030C2B1EB7085F80280FA
:10161000B8F1000F05D008A80022C5F1010C9742CF
:101620000ED1C5F101030DF120094FF0000A01931D
:101630000DF1300B574512D1601B8DE66B70E5E75D
:1016400010F8013B190608D504EB0C0E764503F0A3
:101650007F03FFF47FAE04F8013B0132DFE7B8F10E
:10166000000F03D099F90020002A17DB029BD3B1A9
:101670001AF80B2004F8012B0022019B9818204433
:101680008642FFF467AE99F8000004F8010B009958
:101690000392204609F06CFC039A14440AF1010AF3
:1016A00009F10109C6E799F8002055F822300093A6
:1016B000029B45F822300098FFF782FA421CDCE7D3
:1016C0006FF00D0048E600BF2DE9F04F95B000AF78
:1016D00090F802B0BB61BB6F7A62C3F3C0030446EB
:1016E0003B618A4641B9457800780BEB8000204485
:1016F000554517D8A0EB040AE3787B61BBF1000FD6
:1017000002D0BB6FD80716D47B6953BB7B6A1BB171
:10171000BA69514620469847554628465437BD4633
:10172000BDE8F08F461C3046FFF74AFA01303044DE
:101730000AF1010ADCE723783B629B00FB603B6A0D
:101740006268FA6104EB83097B6A002B40F0FE803B
:101750005546C84609EB0B0A0026D04551D1D9445D
:1017600013E0BB6F9907D1D523783B6299469B0064
:10177000FB606368FB617B6A04EB8909002B7AD10B
:101780005546BBF1000F4FD15E46BB6F13F0050FFE
:101790007B6909EB430ABB6F03F002030CBF4FF0F8
:1017A000020B4FF0010B7B62D145B6D019F8021B3A
:1017B00019F8013C54F82380AA4B984502D3AA4B50
:1017C000984538D33B69002B42D0F86907F042FFB7
:1017D00000283DD0E8468AB06A46A44B5361FB69B5
:1017E000C2E906314FF400731384A14B42F8103F55
:1017F000A04800234FF4125100F020FD023DC546E1
:10180000D2E718F8013B54F82300FFF7D9F9FB6F32
:1018100001303BB1D7F880309E423EBFFB6F23F8CA
:1018200016000136054498E7BB6F13F004061CBF91
:101830007E6AD944A9E73B6923B1F86907F00AFF3A
:101840000028C7D1BB6FDA0705D4A5EB0B05ABE7C2
:101850007B6A002BA8D04046FFF7B2F9FB6F43B17B
:10186000D7F880309E423FBFFA6F431C22F81630F3
:101870000136054498E7BBF1000F6DD0BB6F13F044
:1018800004066CD0D846002607F140005A46494667
:1018900009F06EFB7B695B007B607B69D94409EBD7
:1018A0004303BB60BB6F03F002033B60BB684B4567
:1018B00057D1B96F6378B86F890706EB030254BF3D
:1018C0004FEA58010021C507D2B200F19A8010F00A
:1018D000040F14BF40460020FB616270A070E170ED
:1018E000BA69F9687B6A20469847051EFFF615AF6E
:1018F0003B6A2370FB6963707B69E3704146BA6998
:101900007B6A84F802B007F140009847B0F1000804
:10191000C0F2A480FB68BA69AAEB0B01C91A7B6804
:101920004846C91A7B6A98470028C0F29980A844A3
:1019300008EB00054FF0000B07F1300AB34562D306
:101940000021BA697B6A08469847E6E65E464FF092
:10195000000807F1300099E75E46D8469AE7B0469E
:1019600098E719F8021B3F4B19F8015C54F8250061
:10197000984202D33C4B98421DD33B6923B1F8698E
:1019800007F068FE002891D13B68FBB908F12803F5
:1019900007F1280208F1010003EB020C07F15003E4
:1019A00053FA80F008F102080CF8101C5FFA88F86E
:1019B00000F8105C7AE73B692BB1F86907F04AFE42
:1019C00000287FF473AFBB6FDB0709D506F128034E
:1019D00007F12802711C9E1806F8205CCEB265E75C
:1019E000BB6F58077FF562AF08F1280307F12802A3
:1019F00008F1010103EB020808F8105C5FFA81F8B6
:101A000054E7002068E71BF80A3087F82F3054F8B5
:101A10002390FB6FFBB133F81B80BA697B6A01210D
:101A200007F12F00984700281ADB0544B8F1000F92
:101A300006D14846FFF7C4F800F101081FFA88F8FC
:101A4000BA697B6A414648469847002808DB054446
:101A50000BF1010B72E7D7F87C80DEE745465CE6C8
:101A600005465AE6C0AF0000A4CA0000AEBA0000A6
:101A70000400000118B30000014B1860704700BF5C
:101A8000482C002080B505460E461746984606F0BD
:101A90006DFE034609F08AFADFF81890044649F80B
:101AA0000030424630463946A84754F8090001F054
:101AB000A5FD00BF080000002DE9F047058B044696
:101AC0002807904611D4022905F0070540F0CD8083
:101AD000204607F05CFE78B10138218B042811D82C
:101AE000DFE800F0C3106D85950001290CBF45F0BB
:101AF000100545F02005258388F31188BFF36F8F0B
:101B0000BDE8F08701F0070AAA4500F0A68000278B
:101B1000B9463E46A368002B00F0BD8041F00801A5
:101B2000218388F31188BFF36F8FA168002900F02B
:101B3000BB800D68002900F0B780D1F804803346DF
:101B400052462046C047002D76D02B6829461D46B8
:101B5000F0E701F007035A1F012A1BD8002221F0E9
:101B60000701062B276889B2C4E9002209D13B4648
:101B700003E0628B013262831B68002BF9D141F0D4
:101B800002012183204607F002FE00287BD041F0AD
:101B9000200177E0042B0AD121F0070189B22183CB
:101BA000204607F0F4FD10B141F020012183218B84
:101BB00001F0070AAA4550D00027B946AAE72369D1
:101BC00021F0070141F00601062DD3F80090218392
:101BD0002DD1B9F1000F40D041F00801218388F3E5
:101BE0001188BFF36F8F3A492046C84729E021F09A
:101BF0000701236941F0040189B2042DD3F8049050
:101C00002183E6D000273E464FF0040A82E721F008
:101C10000701236941F0050189B2052DD3F8089029
:101C20002183D6D000273E464FF0050A72E70027F1
:101C30003E464FF0060A6DE72B4687E7B9F1000FE5
:101C4000D1D14FF02003EFF3118883F31288BFF353
:101C50006F8F238B23F008032383258BEA062ED571
:101C600025F01003238305F007056669218B002EFC
:101C7000BFF66FAF00232768C4E9003321F00701E6
:101C800041F001012183218B01F0070AAA454FF0A1
:101C900000097FF43FAF002F9BD041F00801218362
:101CA00088F31188BFF36F8F002FC7D03D68394686
:101CB00033465246204607F096FD2F46F4E7AB0622
:101CC0007FF51AAF25F02003238305F00705FFE613
:101CD0001398000008B504464FF02002EFF311837B
:101CE00082F31288BFF36F8F04F08AF9204601F067
:101CF0002FFC034807F0D5FC00F006FFFCE700BF0F
:101D000062BB000004F0C4B92DE9F047DFF8588049
:101D1000044607464FF0010914B93846BDE8F0877C
:101D200094FAA4F5B5FA85F509FA05F32E0108EB46
:101D300005156FEA030A24EA03042B7B002BEBD082
:101D400058F806301B694BB946440422736828468C
:101D5000196807EA0A0700F05DFADDE728469847A8
:101D60000028D9D1F0E700BFA8B3000030B5104972
:101D7000104889B0002209F044F80F4D0F490022A5
:101D80000023CDE9062300240E23CDE90334CDE959
:101D900001440B4B00944FF44072284605F028FF95
:101DA0000849284608F0A2FE204609B030BD00BF11
:101DB000C91D000048370020C032002040470020E5
:101DC000B92000008BBB0000014806F04FB800BFEF
:101DD0005C2F00202DE9F04780461F480F4608F091
:101DE0004CF80646002830D000252846BDE8F0878C
:101DF000237B73B12368DB680BB1204698472368C7
:101E00001B69D3B9636804221968204600F002FAFE
:101E1000013610344C45EBD3B8F1000FE5D0002D5E
:101E2000E2D02846FFF770FF0546002FF7D00021CB
:101E30004FF4A47006F080FCF1E720469847002894
:101E4000E0D00AFA06F31D43E2E7044CDFF81090F5
:101E500005464FF0010ADDE788390020A8B30000ED
:101E6000C8B30000014B53F82000704710B40000C5
:101E700008B5034608462BB1044A136000F07EFC07
:101E8000002008BD6FF01500FBE700BF4C2C0020C0
:101E900010B5044C237813B9034805F0E7FF01237C
:101EA000237010BDF74200205C2F002010B50446BF
:101EB000084807F0E2FF5CB1BFF35B8F064B53E8C5
:101EC000001F013943E80012002AF8D1BFF35B8FED
:101ED00010BD00BF80390020843900200020064B4F
:101EE000BFF35B8F014653E8000F43E80012002A5E
:101EF000F9D1BFF35B8F70478039002070B5FFF7D1
:101F0000EDFF084C084E0546B44200D370BD63682F
:101F10005B792BB123685B6813B12946204698474B
:101F20001034F1E7A8B30000C8B3000010B5044CAA
:101F30000449204607F032FE034B1C6010BD00BF71
:101F40007C2E0020FCB3000078390020084A0948A4
:101F500008B500231370084A1360084A4FF4004183
:101F60001360FFF785FFBDE80840FFF7DFBF00BF44
:101F7000F8420020779E000080390020843900203C
:101F8000014600220148002307F029BE7C2E0020D4
:101F9000014807F0C2BE00BF7C2E0020024B014664
:101FA000186807F00CBF00BF78390020014807F01F
:101FB00042BF00BF7C2E002070B5284B1878002847
:101FC0004BD0FFF7E5FF054690B1BFF35B8F244B85
:101FD00053E8001F013943E80012002AF8D1BFF38B
:101FE0005B8F204C204EB4422DD32846FFF7D6FFFE
:101FF0001E4B1F4C1B68002B19DD08F000FF4FF42F
:102000007A72A0FB020302FB0131C30BD4E900206A
:1020100043EA41439B1A4FEAD13140F2E93261EB86
:102020000001934271F1000101D3FFF767FFD4E98A
:10203000003213F57A7342F10002C4E90032BDE8C0
:102040007040FFF7B3BF63685B7923B1236829460B
:102050001B68204698471034C5E770BDF742002042
:1020600084390020A8B30000C8B3000080390020E4
:102070004037002070B50D4D297861B90120FFF778
:10208000A9FE0B4C0B4EB44206D3FFF795FF002878
:10209000FBD101232B7070BD63685B791BB1236892
:1020A00020469B6898471034EDE700BFF8420020B7
:1020B000A8B30000C8B3000000212DE9F04708468E
:1020C000FFF788FE044658B340F267684FF00009F6
:1020D00008F06CFF1B4B1C4A1B58136033B11B4BA1
:1020E0001B68092B02DD1A4805F0C0FE194FDFF806
:1020F00060A0002544B12046FFF706FE044618B94B
:102100004FF0FF384FF0FF39FFF756FF064628B96A
:10211000B5B942464B46504605F0CEFE3546E9E796
:102120004FF0FF384FF0FF39D2E72B689B691BB1A6
:1021300000221146284698471035BD42F5D3E8E7FE
:10214000054DFAE7080000007C39002084390020A2
:102150005C2F0020C8B30000A8B3000013B51848D6
:1021600007F08BFE174B1B787BB14FF02003EFF38A
:10217000118483F31288BFF36F8FFFF71DFF84F381
:102180001188BFF36F8F02B010BD0F4B1B68002B7F
:10219000F9D050B900220023CDE900230B484FF4B9
:1021A0000042002306F026FDEDE70928EBD10748A1
:1021B00008F033FE064802B0BDE8104005F056BEF8
:1021C00084390020F84200207C3900204837002064
:1021D0005C2F002010B5064B1B680446984721462B
:1021E000A060044807F079FDBDE81040FFF7B6BFD6
:1021F0004C2C00207C2E0020044A054B9B1AB1EB8E
:10220000D30F34BF52F8310000207047E0B2000015
:10221000A8B30000084BC31A10B41B114468013363
:10222000237143689A7143681960436801225A71A7
:1022300010BCFFF72DBE00BFA8B300002DE9F04F82
:102240008FB004AFC1F34A28B8600D4691467B6059
:102250000C0DB8F1000F63D0002607F114034FF006
:10226000040B4FF00A0AC7F80C80C7E907667E62C4
:102270000193CDF808B0CDF800A007F11C03F96870
:1022800032464846FFF720FAB0F5006F03461CD3EC
:102290006C468AB0D9F8041004AB2648C3E905019E
:1022A00040F2FF71D9611A464FF400711984224B34
:1022B00042F8103F214833464FF41251FFF7BEFF5A
:1022C000A5462C37BD46BDE8F08FC0F30A0804F1DF
:1022D0001700184420F0070080083B60FFF750FE0D
:1022E00068F35325044690B13B68154AC7E90836A0
:1022F00000F1100107F11403F961CDE900A3CDF855
:1023000008B0F96807F11C034846FFF7DDF968F3E8
:1023100053257B68B9682A46204607F0E4FDD0E7DC
:1023200004F1170020F007008008FFF729FE04469B
:10233000EDE700BFA0BB00000400000158B300009F
:10234000BB9E00002DE9F04F87B0DDE91269DDE9A1
:10235000105A04460F4693469846A6B31021CDF86E
:102360000090334652460020CDF81490FEF7DAFF75
:10237000014605F117000844144B039104F00704CB
:102380000BF0070BE40020F0070003EA412344EAC6
:102390008B1480081C43FFF7F3FD44EA05540546FF
:1023A00040B13EB10399CDF800903346524610300B
:1023B000FEF7B8FF434622463946284607B0BDE837
:1023C000F04F07F090BD3146D3E700BF00FE0F008D
:1023D0000EB403B503AB014653F8042B0448019334
:1023E00001F020FA02B05DF804EB03B0704700BFC3
:1023F0004D9F0000CA0605D48B064CBF0249034915
:10240000FFF7E6BF704700BFE0BB0000DFBB000086
:102410002DE9F04F89B09B469DF84C300493DDE9DF
:1024200014930593049B0692DDE9167604460D4647
:10243000002B00F0878006F00803079307F03BFDB0
:1024400006F0020A024600284BD086492046FFF7D4
:10245000BFFF8046BAF1000F08D016F0440F42D1FA
:1024600081492A462046FFF7B3FF804406F0010366
:102470005BB17E4B049A7E4953F822207D4B204667
:10248000002A08BF1A46FFF7A3FF06F00803002B37
:1024900055D0794B049A794953F822202046FFF70A
:1024A00097FF0546069B2BB175491A462046FFF754
:1024B0008FFF0544BBF1000F05D072495A462046F4
:1024C000FFF786FF05444544B9F1000F49D1002FBD
:1024D0004FD1F30700F1C08031462046FFF78AFF55
:1024E000B4E08046B6E7684B18680028BDD0674B5B
:1024F0004FF47A7E1B68B5FBF3F54FF46162B5FBD0
:10250000F0F300FB1355B3FBF2FA0EFB05F502FBEB
:102510001A323C21B5FBF0FCB2FBF1F300FB1C5579
:1025200001FB13220EFB05F50092B5FBF0F55849AF
:10253000CDE901C552462046FFF74AFF95E706F070
:102540000805AFE7BBF1010F06D1B9F1000F64D167
:10255000002F7BD000250CE0B9F1000FF8D04D48DA
:102560005CE04D484D494B46224607F042F8002FAB
:1025700068D0DFF82C91DFF82CA1102F31462046CF
:10258000B84628BF4FF01008FFF734FF4FF0000B9C
:102590005D4545DC059B51461A782046FFF718FF3C
:1025A0004FF0010B1BF0070F03D149462046FFF700
:1025B0000FFFD8453BD9059B514613F80B20204609
:1025C000FFF706FF0BF1010BBBF1100FEAD1364903
:1025D00020464FF0000BFFF7FBFE5A46059B9A5C26
:1025E000A2F120015F2928BF2E2230492046FFF7A3
:1025F000EFFE0BF1010BBBF1100F1DD01BF0070F0D
:1026000003D149462046FFF7E3FED8455A46E5D8B0
:1026100049462046FFF7DCFEEBE71F48049DA1E793
:1026200049462046FFF7D4FE0BF1010BB0E72049E5
:102630002046FFF7CDFEC5E7059BB7EB08074344EF
:1026400005939AD1049B002B7FF443AF204609B039
:10265000BDE8F04F07F06DBC064A05492046FFF77C
:10266000B7FE39E7E7BB0000EBBB000020B4000079
:10267000F9C20000E2BB000034B4000010BC00004E
:1026800016BC00001ABC0000903900208C390020D4
:10269000F4BB0000839F00004D9F00002538000020
:1026A00027BC00001FBC000029BC00002BBC0000A0
:1026B00025BC00002DE9F0410F884B688E6886B07C
:1026C00005460C469046C7F382175BB1144A9B1A25
:1026D00043F3CF01002920DB2078C0F3C200FFF7CD
:1026E0008BFD03462146608851F8102B0197C2F3F9
:1026F0004A22002A01EB0204C0F30B1008BF00219C
:102700000022CDE90408CDE90214009231462846A2
:10271000FFF77EFE06B0BDE8F0810023E2E700BFD0
:10272000E0B2000073B542F20F738B4228BF0B4634
:1027300005680F4A04460521684606F0C3FC636835
:102740000C495B6806460B22284607F0E5FB6368E8
:102750003246694628465B6807F0DEFB6368064937
:102760005B681B22284607F0D7FB02B070BD00BF94
:10277000D6C900004ABC00002EBC0000074A002158
:102780000123904206D8064A01B901231360054B84
:102790001860704740085B000121F2E740420F00DB
:1027A0008C39002090390020014B01221A707047AB
:1027B000F9420020014B002019607047A839002021
:1027C000024B034801221A7007F0B3BBFA42002003
:1027D00064B400000148FFF7A5BF00BF64B4000067
:1027E00010B5064B18680C46FFF73CFB2146034624
:1027F000BDE8104002480F22184700BFA83900204A
:1028000064B4000010B9074B18707047064B1B7872
:102810001BB141F2883008F005B9A420002105F071
:102820008BBF00BFF9420020FA4200202DE9F84397
:10283000DFF874901D4F80460E46042499F800502E
:1028400095B904F0C5FF28463246414604F072FFB0
:10285000054604F0C7FFE5B101233B7099F800304D
:1028600073B93046BDE8F88332464146002004F093
:1028700061FF0546EFE72046FFF7C4FF651E2C46C3
:10288000002004F09BFF0028EBD03B78002BF2D116
:10289000E7E73B78002BE4D0013C2046FFF7B2FF8E
:1028A0003B78002BCAD1DCE7FA420020F942002035
:1028B000014B002019607047C0390020024B0348CB
:1028C00001221A7007F035BB0C43002090B40000C1
:1028D0000148FFF727BF00BF90B4000010B5064BBA
:1028E00018680C46FFF7BEFA21460346BDE81040C3
:1028F00002480F22184700BFC039002090B40000E2
:10290000F8B5074F0D4604464618B44201D1284693
:10291000F8BD14F8011BBB6801485B689847F4E7F1
:10292000ACB00000014806F025BA00BFA0B400001A
:1029300038B5044618B90F4B0F485B689847616873
:10294000B1F5683F10D0B1F5680F0DD00B4DA9421D
:102950000AD011F46861206807D00146084808F0E1
:1029600099F800232360656038BD142208F00EFB3F
:10297000F9E700BF002E0020A0BC00002C5F5CA97E
:10298000C43E002008B520B34368B3F5683F10D1BA
:1029900001220368BFF35B8F53E8001F002903D1B6
:1029A00043E800200028F7D1BFF35B8F0DD1002052
:1029B00008BD094A93420AD000684FF0FF324FF039
:1029C000FF3305F09DF90028F1D00448F0E70448F2
:1029D000EEE76FF4E040EBE72C5F5CA9E98FFFFFC7
:1029E000EA8FFFFF08B5D8B14368B3F5683F10D14F
:1029F00000220368BFF35B8F53E8001F012903D156
:102A000043E800200028F7D1BFF35B8F0BD10020F3
:102A100008BD074A934208D0006805F0EBF9F6E7D5
:102A20006FF4E040F4E70348F2E70348F0E700BF43
:102A30002C5F5CA9E98FFFFFEA8FFFFF10B504460A
:102A400018B91D4B1D485B6898476368B3F5683F2C
:102A50002FD0B3F5680F2CD0194A934219D12368AF
:102A600003BB18484FF0FF324FF0FF33214605F00B
:102A700051F808B923681BB90F4B13485B68984796
:102A800020681422002108F081FA4FF46863636023
:102A900008E0B3F5683F0DD83A2B03D040F6BA6290
:102AA0009342DED1206808F03CF8636843F03A03B3
:102AB000636010BD054AF3E7002E0020A0BC0000B3
:102AC0002C5F5CA9C43E0020C6BC00003A00003A5E
:102AD00008B5064906484023142207F0CDFFBDE89B
:102AE00008400449044806F0B7B900BFC4390020C3
:102AF000C43E0020A8B40000BCB40000014910226C
:102B00000A60704710ED00E072B6404080F3118813
:102B1000BFF36F8FBFF34F8F30BF62B6BFF36F8FBE
:102B2000704700BF72B6494081F31188BFF34F8FE1
:102B300020BF80F3118862B6704700BF2DE9F047CF
:102B4000814600AF0C4600294CD06E468AB0D1E9D0
:102B50000012A3686D462748A8464FF0050AC5E94C
:102B60000501C5E9072348F810AF23484246002372
:102B70004FF42151FFF762FBB546D4E903126369B4
:102B8000AD461E48C5F810A0C5E90501C5E90723F3
:102B90001948002342464FF42151FFF74FFBB54639
:102BA00088B0E3696D46164AA8464FF0030AC5E9A6
:102BB000052348F810AF1048002342464FF4C25195
:102BC000FFF73CFBB546A369AD460E4AC5F810A019
:102BD000C5E905230848002342464FF4C251FFF7D8
:102BE0002DFBB5462146484604F002FEBD46BDE831
:102BF000F08700BFF3BC000078B3000022BD0000E6
:102C000051BD000060BD000040B2002807DB044A4F
:102C10004109012300F01F00834042F82130704732
:102C200000E100E040B200280CDB4309064900F057
:102C30001F0020330122824041F82320BFF34F8F31
:102C4000BFF36F8F704700BF00E100E0054B420902
:102C500000F01F0053F82220012303FA00F0104077
:102C6000704700BF00E100E040B20028A8BF00F1BB
:102C7000604001F10101B8BF064B4FEA4111ACBF02
:102C800000F5614000F00F00C9B2B4BF195480F8DC
:102C90000013704714ED00E030BFFFF7FDBF00BF29
:102CA0000B4A08B50B4B22F07F029A60BFF34F8F9F
:102CB000BFF36F8FD3F8882022F47002C3F8882006
:102CC00004F054FE05F0CAFD00F00CFC04F0A0FE78
:102CD0000000000000ED00E0094A0A499368096815
:102CE000D967094998674B6843F080534B600023CC
:102CF00083F31188BFF36F8F9368D86F704700BF5D
:102D0000E440002054B7000000ED00E015498A6857
:102D10004FF030001044EFF3098C80E8F01F2020C2
:102D200080F31288BFF36F8F0F4F4FF000664A6930
:102D30008A603E604FF07404141920680B4C2060C8
:102D4000906F0023936780F3118804B5104600F05C
:102D500077FCBDE8044002F1300090E8F01F8CF3EE
:102D600009887047E440002004ED00E0E03E0020C8
:102D70001EF0040F0CBFEFF30880EFF309808169A8
:102D800011F8021C0229FFD001B507F00DF901BDB1
:102D900042F8203C009B42F81C3C0A49019B42F847
:102DA000183C029B42F8143C21F001014FF0807363
:102DB00042F8043C42F8081C0023203A026583676D
:102DC000704700BF851A0000094A0346906870B139
:102DD00013F1160F406E05D0A0F140029A4205D8BB
:102DE000834203D2814228BF0020704700207047F1
:102DF000E440002008B514460A4A0B4B9060426F2D
:102E00001A600D4600F01CFC204685F3098800215D
:102E100063B681F31188BFF36F8F00220023FEF7A2
:102E200031FE00BFE4400020E03E002001B5EFF39A
:102E30000580A0F110004FEAC0000449014409C90F
:102E40009847BDE8014002490847000060B1000012
:102E5000B12E0000114B124A2DE9F041D518DFF8D0
:102E60004480013DB5FBF3F55D430F4B08EB0304D4
:102E7000013CB4FBF3F403FB04540E1B07460B495F
:102E8000304608F075F8701942460021083E08F0F7
:102E90007DF87E6704F10800BDE8F08101000000C4
:102EA000000000000400000004000000C8B300009F
:102EB000044B99685869884203D003494FF0805207
:102EC0000A607047E440002004ED00E02DE9F04185
:102ED00086B0064600AF0D46474B7B6102244FF497
:102EE000825146483C6107F1100207F06CF8444BF0
:102EF0009B6AD9046DD5434B4048C7E9044307F1A9
:102F000010024FF4825107F05EF817203C4B9B6A89
:102F10001A050BD53C4B7B61022338483B6107F116
:102F200010024FF4825107F04EF81820344CA36A77
:102F30009B0523D5E846354B7B6102232F483B6137
:102F400007F110024FF4825107F03DF8A36BA26A1B
:102F5000100412D588B06A462D492848C2E90513E5
:102F6000032342F8103F4FF4C25107F02CF8C54636
:102F70001EB1A36A23F40043A3621920204B9B6A6D
:102F800059050BD5234B7B6102231C483B6107F19C
:102F900010024FF4825107F016F81A20184B9A6A63
:102FA000D20518D51C4B7B61022314483B6107F105
:102FB00010024FF4825107F006F81B20104A936A62
:102FC00043F47F439362183700232B70BD46BDE85E
:102FD000F08116209AE79B6A9B04EFD50F4B7B612B
:102FE000022306483B6107F110024FF4825106F0BC
:102FF000EAFF1C20E2E700BF8EBD000078B30000AE
:1030000000ED00E0A4BD0000B5BD0000C8BD00009B
:10301000E1BD0000F6BD000011BE000029BE0000A9
:1030200010B586B0364B3748059304AA02244FF4F6
:103030008251049406F0C7FF334B9B6A9A015DD519
:10304000324B304804AA4FF48251CDE9044306F0D4
:10305000BAFF1E202C4B9B6ADB010AD52C4B29485A
:10306000059304AA02234FF48251049306F0ABFFA8
:103070001F20254B9B6A1C030AD5264B214805932C
:1030800004AA02234FF48251049306F09CFF2120EE
:103090001D4B9B6A59030AD51F4B1A48059304AA76
:1030A00002234FF48251049306F08DFF2220164B29
:1030B0009B6A9A030AD5194B1248059304AA022366
:1030C0004FF48251049306F07EFF23200E4B9B6A3F
:1030D000DB030AD5124B0B48059304AA02234FF4D5
:1030E0008251049306F06FFF2420074A936A6FEA27
:1030F00003436FEA1343936206B010BD1D20A9E796
:1031000058BE000078B3000000ED00E070BE000083
:1031100083BE00009DBE0000BBBE0000E0BE0000FC
:10312000FABE00002DE9F04786B0814600AF8A461E
:103130009046514B7B61022450483C6107F11002DC
:103140004FF4825106F03FFF4D4B9B6ADE0645D59A
:103150004C4B4A48C7E9044307F110024FF482512F
:10316000112406F030FF464B9B6A1D070BD5464BDA
:103170007B61022341483B6107F110024FF4825109
:10318000122406F020FF3E4DAB6A980728D56C4606
:103190003E4B7B6102233B614FF48251374807F17C
:1031A000100206F010FF6E6BAB6A190660D588B08E
:1031B0006A46374B3148C2E90536032342F8103FCF
:1031C0004FF4C25106F0FFFEA546BAF1000F03D03E
:1031D000AB6A23F08003AB62132403E01024C2E740
:1031E0006FF01506264B9B6ADA070BD5294B7B61DE
:1031F000022322483B6107F110024FF4825114244C
:1032000006F0E1FE1E4B9B6A9B060BD5224B7B61B1
:1032100002231A483B6107F110024FF48251152432
:1032200006F0D1FE164B9A6AD50602D49A6A900728
:103230000AD55B68190507D549463046FFF7C4FD36
:1032400010B180F3098802240D4B9A6A920642BF9E
:103250005A6A22F400525A629A6A42F0FF029A6253
:1032600020460023183788F80030BD46BDE8F087B7
:103270006FF01506B0E700BF25BF000078B300006F
:1032800000ED00E03BBF0000B5BD00006EBF0000D8
:1032900086BF00009CBF000029BE00002DE9F0435E
:1032A0007A4B8BB0D3F8048000AF0446C8F308050E
:1032B000002686F31188BFF36F8F02F07F43B3F1CE
:1032C0007F4F0ED102F00C03082B19D1704BFB611C
:1032D00002237048BB6107F118024FF4825106F0D7
:1032E00072FE002634460023FB71EB1E092B00F210
:1032F000AD80DFE803F00AA0A39CABABABABABA601
:1033000010074CBF0C460126EDE7E946624BFB6116
:103310004FF0020807F118025E48C7F818804FF412
:10332000825106F050FE0023584DFB71EB6A9A075C
:103330000BD55A4BC7E90683564807F118024FF4DC
:10334000825106F040FE002342E0EB6A002B01DAD6
:10335000534BEFE7EB6A5B00F5D5524B4D48C7E99D
:10336000068307F118024FF4825106F02CFE6B69B8
:10337000A26943F480736B61BFF34F8FBFF36F8F0C
:103380006B6932F8022C23F480736B61BFF34F8FAB
:10339000BFF36F8F4DF602739A4209D0AB6ADBB26E
:1033A000002B37D0FA1D01212046FFF7BBFE40E07D
:1033B00088B023686A463C493648C2E905130323AE
:1033C00042F8103F4FF4C25106F0FDFD2368CD4690
:1033D000FA79DAB907F1080504F1200C2068616870
:1033E0002A4603C2083464451546F7D17A6A002E8E
:1033F00047D0C2F3080121B96FEA52226FEA422294
:103400007A6207F108011846FFF798FB2C37BD4692
:10341000BDE8F083AB6A13F47F4F04D0F91D01209F
:10342000FFF754FD05E0AB6AB3F5803F8BD3FFF7A0
:10343000F7FD0346CCE7FA1D0021B5E7F91D002092
:10344000EEE71A4BFB610223BB6175E7184A194B83
:1034500018F4F87FE8468AB018BF13466A46164942
:103460000C48C2E905134FF400731384103D134B4D
:10347000D5614FF4115142F8103F06F0A4FDC54646
:1034800061E722F4FF7222F00102B9E700ED00E0EB
:10349000E9BF000078B3000014C000002BC000009A
:1034A0004CC000005AC0000079C0000095C0000068
:1034B000D0BF0000BBBF0000B9C000000400000185
:1034C000024A536943F010035361704700ED00E076
:1034D000EFF30880EFF3098101B57246FFF7DEFED6
:1034E00001BD00BF044800232021C2180133302B46
:1034F00082F80013F9D1704700E100E0002080F36A
:103500001488BFF36F8FFEF7FDFB00200D490860A4
:10351000BFF34F8F0C4880F3088800F03DF820205F
:1035200080F3118809484FF40461401880F309883A
:10353000EFF314800221084380F31488BFF36F8FE8
:10354000FFF7AEFB94ED00E040580020804A0020D9
:10355000BFF34F8F0549064BCA6802F4E06213437C
:10356000CB60BFF34F8F00BFFDE700BF00ED00E071
:103570000400FA050749D1F890200023C2F307227E
:103580001846934200DB7047C1F89830C1F8A0009C
:103590000133F6E700ED00E008B572B6002383F3CF
:1035A0001388FFF7E7FF144B4FF0FF32C3F880207A
:1035B000C3F88420C3F88820C3F88C20C3F8902077
:1035C000C3F89420C3F89820C3F89C20C3F8802146
:1035D000C3F88421C3F88821C3F88C21C3F8902153
:1035E000C3F89421C3F89821C3F89C2162B6BFF3B5
:1035F0004F8FBFF36F8F08BD00E100E0084B9B6861
:1036000083420BD1EFF3058343B1064B5A6842F076
:1036100080525A605A6A22F400425A6205F0ACB8ED
:10362000E440002000ED00E0024B034A0348012182
:1036300000F092B80000042000000020CCB400008C
:10364000426E054B403A1A60044A4021C3E9011218
:103650001846012100F08AB8E43E002000000B1556
:103660002DE9F041DFF8B4E09C4600AF1546002399
:103670008B421ADA4468002C4DD0BCF1000F1DD0EB
:10368000661E344215D06C4688B06A462449C2E9A9
:103690000513032342F8103F224800234FF4C25180
:1036A000FEF7CCFD6FF01505A5462846BD46BDE8E2
:1036B000F0811F2CE7D902681642E4D1202C026861
:1036C00086685FFA85F814D9B4F1004F13D8013C2D
:1036D000B4FA84F4C4F11F046400B8F1070F46EA99
:1036E00004060AD96C4688B06A460F4BC2E9053514
:1036F000CFE70824F1E73E24EFE722F01F022A4338
:1037000042F0100246F00106CEF89850CEF89C2008
:103710000135CEF8A06001330C30A9E700ED00E0E0
:10372000D0C0000070B30000F3C00000044B0522BD
:10373000C3F89420BFF34F8FBFF36F8F704700BF64
:1037400000ED00E0BFF35F8F024B0022C3F894202E
:10375000704700BF00ED00E010B5034C0123227854
:10376000FFF77EFF207010BD0D43002008B5094A09
:1037700000231278FFF774FF10F1160F03D0064BE9
:103780000022072800DD08BDC3F89800C3F8A02078
:103790000130F6E70D43002000ED00E01449086811
:1037A000082810B521D8FFF7CDFF124C4968002238
:1037B000904201F10C0105D10F4B1870FFF7B6FFD5
:1037C000002010BDC4F8982051F80C3C23F01F03D2
:1037D000134343F01003C4F89C3051F8043C43F009
:1037E0000103C4F8A0300132E2E74FF0FF30E8E710
:1037F000D8B4000000ED00E00D43002008B5024BF6
:103800001B689847002008BDF03E0020034B044A87
:103810001860937843F0020393707047F03E0020E5
:10382000702C0020F0B587B007460E4614460021E4
:10383000102268461D4607F0A9FB02238DF80230CE
:103840002A46054B019321466846CDE9047605F0EA
:1038500065FC07B0F0BD00BFCD9F000008B506496C
:10386000064821F00701C1F1005202F5802205F05F
:1038700051FF002008BD00BFD35C0020C05C0020C9
:103880000E4A0123C2F840354FF080424FF080517C
:10389000C2F87835D1F83001082808D1D1F83411B0
:1038A000052904D80648415C09B1C2F838364FF002
:1038B00080430122C3F880250020704700E00140CA
:1038C00028C1000020B1034B800143F001031847D9
:1038D000704700BFD0B30000054B0122C3F800259C
:1038E00090F88E1009B1DA6070471A605A6070471C
:1038F0000070004070B5087900F01F04072C86B0F6
:1039000023D80B780B2B15D8DFE803F00707070740
:10391000140614140E10141204234A78032A18D023
:10392000042A28D0314B06E00523F6E70623F4E706
:103930000723F2E72E4B0593022304932D4800231F
:1039400004AA4FF48251FEF779FC6FF0150006B01F
:1039500070BD01254A8844F20A06B2423FD00CD815
:1039600044F20306B24216D044F20506B24234D005
:10397000AAB3214BDFE70025ECE744F21406B2427C
:103980002FD044F22806B2422DD044F20F06B242A4
:10399000EFD1032200E00022C0F340101B0243EAF3
:1039A000005343EA053343EA0243220102F1804215
:1039B00002F5E0420020C2F81835230103F18043EC
:1039C00003F5E0438A79C3F81425C3F810050B4BBF
:1039D0004A79234483F8A820B9E70122DCE70222D0
:1039E000DAE70422D8E70522D6E700BF51C100007C
:1039F00032C1000010B3000075C1000000000020BB
:103A00002DE9F04188B04668731EFE2B02AF0546D3
:103A10000CD9764B7B6102233B617548002307F18B
:103A200010024FF48251FEF709FC1BE00021714C9B
:103A3000DFF8C4C10A4626FA01F313F001033CD0B3
:103A40001CF80130A3B96C4688B002AA6B48C2E9E1
:103A50000501032142F8101F65484FF4C251FEF7DB
:103A6000EDFBA5466FF015001837BD46BDE8F081A7
:103A700004EB011895F811E0D8F81805BEF1000E16
:103A800018BF4FF0010E20F0807040EA0E60C8F8B9
:103A9000180501F15100000101322350D2B2013169
:103AA0000829C8D12B7CA3F10801062916D8DFE824
:103AB00001F0201522150915130001F15100000134
:103AC0002350ECE702234B49012AC1F8F0356B7C07
:103AD00013D9A3B14A4B9DE70323F4E76C4688B0A2
:103AE00002AA4849C2E90513032342F8103F002304
:103AF000B2E70023E7E70123E5E7082B1BD8C1F86D
:103B0000F43529685300D9B9E96899421CD26C464A
:103B100088B002AA3C48D3610423C2E9050142F8F7
:103B2000103F334800234FF40151FEF787FB6FF03D
:103B30000B00A54698E76C4688B002AA3349D1E746
:103B4000898901FB0333DFE72A4BA968C3F82C16E8
:103B5000AC46C3F83026BCE80F002D4C04F17C06BF
:103B60000FC6DCF800303360002626672B68A446B9
:103B7000B3B30FCB04F1900585E80F00E567A4F817
:103B8000A06068B3BFF35B8F5CE8003F4CE8006265
:103B9000002AF9D1BFF35B8F1E49D4F890001E4A6A
:103BA0004FF400458C463146E0FB05C100236046DA
:103BB000FCF79CFE0022CDE90001002304F108007F
:103BC00005F018F894F8783073B914484FF0FF32C4
:103BD0004FF0FF3304F070F900B12067206F43E726
:103BE0000B48FFF779FEEDE700203DE7A0C100009C
:103BF00010B3000000700040A8000020BEC100000B
:103C0000FDC10000D8C1000052C200002FC2000058
:103C1000000000203F420F0040420F0058000020EB
:103C200070B50C4616460C4D0C484FF0FF324FF065
:103C3000FF3304F041F90123204685F878306E67A0
:103C4000FFF7DEFE95F87830044603B110B1034863
:103C500004F00CF9204670BD000000204000002058
:103C600038B50C460C4D0D484FF0FF324FF0FF3386
:103C700004F022F90023204685F878306B67FFF7BF
:103C8000BFFE95F87830044603B110B1034804F044
:103C9000EDF8204638BD00BF0000002040000020A5
:103CA00010B50E4B0024C3F80441D3F80421C3F827
:103CB0001041D3F810211222C3F804230720FEF785
:103CC000A3FF224601210720FEF7CEFF0448836CA4
:103CD00013B9403004F0CAF8002010BD0070004055
:103CE0000000002038B5344BD3F80421002A56D008
:103CF0000022C3F80421D3F80411304C012199604B
:103D0000C3F80025E36F2546D3B3D4F89430B4F854
:103D1000A02033B104F17C019847012814D0022877
:103D200028D0B4F8A030B4F89C209A4222D90133AC
:103D3000A4F8A030204BD3F82C26D3F8341689B23F
:103D400002EB4102C3F82C26D4F8903023B9BDE829
:103D500038401A48FFF7C0BDBFF35B8F55E8003FFE
:103D60005A1E45E800210029F8D1BFF35B8F012BD3
:103D7000EDDC38BDD4F8903013B1114807F04DF8A0
:103D800094F878304BB1606F10B1002104F062FFFD
:103D90000C48BDE8384004F069B80B48F9E7D3F89F
:103DA00010110029E5D0C3F81021D3F81021012209
:103DB0009A601A605A60DCE7007000400000002042
:103DC000080000204000002058000020084B70B57B
:103DD000C31A0D4607499B10044659430648402222
:103DE00006F032F92B4601462046BDE870401847E0
:103DF000083F0020B76DDBB670B0000073B50C4C07
:103E00000C4A4023041B00930D460B460A49A4109C
:103E100061430646094806F043F9011E05DA3046BB
:103E20002B4602B0BDE87040184702B070BD00BF1D
:103E3000083F00200BA10000B76DDBB670B000009A
:103E4000002270B5012104461046FEF70DFF0F4811
:103E500002F0A8FA0E4B984215D106F0C6FB26696F
:103E60000C49304605F0E3FC00280BDB01253564E6
:103E70002469084904F11C0005F0D9FC002801DB85
:103E8000E564002070BD6FF00400FBE7CD3E00004C
:103E90000000AD0B08B5000070B501460C230948C1
:103EA0004B43C418D4E90E56403300221844A26391
:103EB00006F0B7F82DB132462B460348BDE87040F6
:103EC000184770BD083F002070B0000010B10128F5
:103ED00004D07047034B1B6C5B0701D1FFF7DCBFBD
:103EE000704700BF083F002008B54FF02003EFF3F4
:103EF000118183F31288BFF36F8F124A136843F066
:103F000002001060DA0708D481F31188BFF36F8FC5
:103F10000120BDE8084006F075BB4FF08043D3F8A0
:103F20000C24D3F80C34DB07EED5074806F079F8FB
:103F300081F31188BFF36F8F0020BDE80840FFF7C1
:103F4000ABBF00BF583F0020483F00207FB5002294
:103F50000123CDE9022304ABCDE90433094ACDF8AE
:103F600000D06B46CDF804D006F0C8F8002805DB79
:103F70004FF480420023684603F09EFF07B05DF8CF
:103F800004FB00BF29A1000010B54FF02003EFF3A0
:103F9000118483F31288BFF36F8F074A136823F0ED
:103FA0000201DB07116002D4012006F067FB84F3F5
:103FB0001188BFF36F8F10BD583F0020024AC3B273
:103FC0001C2003FB00207047083F00202DE9F04132
:103FD0003849BFF35B8F0746012251E8003F41E8B3
:103FE00000200028F9D1BFF35B8F33B93249334841
:103FF0004B60CB608A6005F02DFC7B1E012B2BD81B
:10400000012F07D14FF08043D3F81C3403F0030392
:10401000012B21D006F064FD0546F8B9284B1B782A
:10402000E3B14FF080430222C3F808230646DFF8CD
:1040300094804FF08044D4F81824D4F81834D20374
:1040400016D503F00303012B01D0012F10D15DB36E
:1040500086F31188BFF36F8FBDE8F0814FF0200326
:10406000EFF3118683F31288BFF36F8F0125DEE72C
:10407000ADB13046FEF756FDD4F81835002BDAD135
:10408000D4F80421002AD6D0C4F80431D4F804317D
:104090000123C4F81835C8F88031A360CBE70021AC
:1040A000212004F049FBE7E74FF080430222C3F8E8
:1040B0000423D1E7043F0020F43E0020243F0020E9
:1040C0002047002000E100E008B5074806F0AFFCFB
:1040D00038B10648FFF79AFB0448FDF7CDFC0020F5
:1040E00008BD6FF01200FBE7ACB00000F14000002B
:1040F0000A2838B5074D044604D1AB680D215B682A
:1041000028469847AB6803485B68E1B29847204669
:1041100038BD00BFACB0000030B54068057B01F091
:104120001F04B2F5001F85B044EA451405D12046AE
:1041300002F014FC002005B030BD0025B2F5800F60
:10414000CDE9025514D1B3F1007F0CBF0423052340
:104150008DF808300023194602AA204602F01AFA08
:10416000234B98423DD10121204602F0A9FBE1E713
:10417000B3F1C06F27D0B3F1007F14BF0123022336
:104180008DF80830836823FA01F111F00101E1D1C3
:10419000B2F1A07FDED104F01F03620903F5E073E2
:1041A00013D0012A20D1134A52F82330DB07D1D48F
:1041B0000DF107052946204602F02CFB0E4B9842D4
:1041C00006D00395C6E70323DAE74FF0A042EBE7FA
:1041D000284602F06FFB064B9842F2D06FF00B00BE
:1041E000A9E76FF01500A6E751F82330FFDE00BF06
:1041F0000000AD0B000300500400AD0B10B502F041
:1042000049FB044668B902F01DFB084B98420AD1ED
:104210000748214602F0F8FA224605210620FEF75B
:1042200023FD002010BD6FF00400FBE70000AD0B84
:1042300035420000420970B5034602D0012A17D06A
:1042400070BD0D4E326951680029F9D003F01F038B
:1042500001250C689D400029F2D08A682A4002D0CE
:104260004B68304698472CB1236821461C46F2E73C
:10427000024EE7E72346F8E798B0000084B000005C
:104280002DE9FF4147683B7B01F01F0545EA4315D7
:104290000E4628460DF10701144602F0BBFA14F44D
:1042A000403F80460DD1284602F07EFB3D4B9845AD
:1042B00003D19DF8070002F0F7FA002004B0BDE832
:1042C000F0810023194602AA2846CDE9023302F004
:1042D00061F9344B984214D1804503D19DF8070011
:1042E00002F0E2FAA3034ED540F206332340B3F5C1
:1042F000837F1AD00DD8062B18D005D8B3B1022B66
:1043000033D06FF01500D9E7B3F5807FF9D10123E1
:104310000CE040F20222934229D0B3F5407F28D02E
:10432000B3F5007FEDD1022300E007238DF80830BC
:1043300084F48033C3F30043E0068DF8093054BFA2
:10434000C4F34013032321038DF80A3013D57A6890
:104350000123B340C2F80835002202A9284602F022
:10436000D9F9104B9842A8D0CBE70423DEE7052308
:10437000DCE70323DAE7620341BF01237A68B34035
:10438000C2F80C35E8E7E3064FF0000354BFC4F36E
:10439000401403241A4602A928468DF8084002F06A
:1043A000F9F8DEE70000AD0B08B543681B68D3F8E9
:1043B0000805D3F80C1503F01FF9034B984214BFFE
:1043C0006FF00F00002008BD0000AD0BB0B5044633
:1043D00082B0002200AF01210320FEF745FC636894
:1043E0009D693A1D0021284605F083FF002827DB40
:1043F0007B682A681979186800F066FC00281FDBC2
:1044000060682369114A00F1080102F09BFF104B1C
:10441000984218D023686C4688B06A460D49C2E9B4
:1044200005134FF4007393830B4B42F8103F0B4876
:1044300000234FF4E251FDF701FF6FF00F00A54696
:104440000837BD46B0BD0020FAE700BF6144000058
:104450000000AD0BDCC200000300000140B300000F
:104460000378012B08D0022B08D04BB9054B0B6306
:1044700001F1180003F0FABC034BF8E7034BF6E731
:10448000034BF4E70000AD0B0100AE0B0200AE0BD6
:104490000100AD0B10B511F001034268046986B04C
:1044A0000FD1C1F3420001280ED0022815D00D4AC9
:1044B0000592022204920C4804AA4FF48251FDF79F
:1044C000BDFE6FF0150006E013684FF0CC72C3F824
:1044D00024250020616306B010BD13684FF0CD6243
:1044E000F5E700BFFCC2000040B300002DE9F04F2B
:1044F0008BB000AF06460C469246BB60D0F80490E5
:10450000D0F810804FF0FF324FF0FF33404603F0F9
:10451000D3FC08F11803FB600022002308F1180007
:1045200003F0CAFC484602F051FFDFF804B1002551
:10453000554501D3002453E0237A3B6013F0080172
:1045400072D1122207F11600796006F01FFD3B6858
:104550006068B968B86103F001022068797513F0EA
:10456000020F79683A75386216D10AF1FF33AB420F
:1045700002D9237D5B0711D5002A55D1202207F1EE
:104580001401484602F04EFF584509D0294B984285
:1045900024D16FF00F0423E00A46F0E74022EEE753
:1045A0000023F8684FF4804203F086FC034610B302
:1045B0006C4688B06A46204BC2E90535032342F8B1
:1045C000103F1E4800234FF4C251FDF737FE484606
:1045D000A54602F00BFF3046FFF7E6FE6FF004043D
:1045E000484602F003FF404603F040FC20462C37CB
:1045F000BD46BDE8F08FD8F83010594504F10C04E1
:1046000010D06C4688B06A460D48D561C2E90501F4
:10461000042142F8101F09484FF40151FDF70EFE26
:10462000A546DBE7013583E76FF08504D8E700BFD7
:104630000000AD0B0B00AD0B0EC3000040B300003B
:1046400038C300007FB5084B059302230493074845
:10465000002304AA4FF48251FDF7F0FD6FF015001E
:1046600007B05DF804FB00BF77C3000048B300004B
:104670007FB5074B05930748022304AA4FF48251E4
:10468000049305F0BEFD6FF0040007B05DF804FB75
:10469000ADC3000030B300002DE9F04F8FB00646E7
:1046A00000AF06F1C803FB604FF0FF324FF0FF335D
:1046B00006F1C80003F000FCF86803F025FC32683E
:1046C0005368D2F8108018689B884FF04002FA7542
:1046D00007F117023A6201227A62002287F8282045
:1046E000062207F118043A630722FC6287F8342097
:1046F000826807F1200195680222A8470546A0B10B
:104700006C4688B06A462C4BC2E90530032342F858
:10471000103F2A484FF4C45105F073FDA54600210F
:1047200040F2676004F008F8C6E708F12003BB60B8
:104730004FF0FF324FF0FF3308F1200003F0E0FAB2
:1047400008F58B7A2946A946637825783AF802BF9E
:1047500045EA0325AAF80050D8F83830002D18BFD4
:104760004FF00109B3B185EA0B0B00222BFA02F3DB
:10477000DB070CD5012393402B42D8E90D0C14BF65
:1047800001230023C7E90021E047D7E900210132D6
:104790000D2AEBD10131032904F10204D4D1B86808
:1047A00003F028FB40F26760002103F0C5FFB9F178
:1047B000000F3FF476AF7FE7CFC3000030B30000B7
:1047C00010B501461A44096940684C68944288B0A3
:1047D00027D88968914224D3FBB140F2DC539A4236
:1047E0001DD840F2EE239A4294BF832285228DF891
:1047F00007200DF10701012205F00AFD58B10A4B0F
:104800000A48079306AA02234FF48251069305F043
:10481000F8FC6FF0040008B010BD8122E7E78722A2
:10482000E5E76FF01500F6E7FBC3000030B30000CA
:10483000B0B5034682B07F2940681C6900AF1546B9
:1048400035D8CB081C443B7101F0070101238B4094
:10485000227CDBB225B313439A427B7125D002221E
:10486000391D05F0D5FCF0B1124A134B6C4688B0E7
:10487000002D18BF13466A4610491148C2E90513B6
:104880004FF4007393830F4B42F8103F4FF4E25103
:1048900005F0B7FC6FF00400A5460837BD46B0BD73
:1048A00022EA0303D8E77B7923740020F5E76FF051
:1048B0001500F2E783BF000022C4000026C40000F8
:1048C00030B30000030000012DE9F04196B0056906
:1048D0004468286008AF206806F0A9F888B99B4BA7
:1048E0007B6302239A483B6307F130024FF4825105
:1048F00005F087FC6FF0150630463837BD46BDE839
:10490000F08110220021A81806F040FB00224FF48D
:10491000FA63C5E901234FF4C803EB6007F10C010A
:104920002123012220463B7305F072FC014688B129
:104930006C46224688B0874BC4E90530032342F811
:10494000103F83484FF4C25105F05BFCA5466FF061
:104950000406D1E7112207F10C0006F017FB112223
:1049600007F10C01204605F053FC30B16C4622469D
:1049700088B0794BC2E90530E0E7EF23012207F167
:104980000C0120463B7305F043FC20B16C462246E7
:1049900088B0724BEEE78123012207F10C0120461B
:1049A0003B7305F035FC064630B16C46224688B0B4
:1049B0006B4BC4E90530C1E705F1200006F0B1F802
:1049C0000122314605F1C80006F0B2F8237A002B27
:1049D00000F08A80E06806F02AF808B9614B7FE7AA
:1049E000638AE068217C43F48032D0F810E0D0F88C
:1049F000088013F0010F4FF0010CDEF800300CFAC4
:104A000001FC14BF4CEA030323EA0C03CEF8003088
:104A1000D8F80030984778B16C46224688B0524B9F
:104A2000C2E90530032342F8103F49484FF4C25110
:104A300005F0E7FBA5465DE7237C4C4A4FF00108F3
:104A400008FA03F3C5E91023E0688368DB6905F120
:104A50003C013BB14246984738B16C46224688B08B
:104A6000434BDDE76FF08500F7E7A12307F10C0169
:104A7000424620463B7305F0CBFB014658B13D4B07
:104A80007B63022332483B6307F130024FF48251CB
:104A900005F0B7FB5BE74022FA70FA1C2068A38898
:104AA00087F82810C7E908283A1DFA6206223A63F7
:104AB000072287F83420826807F12001D2F80880A5
:104AC0000222C04708B12C4BDAE7E068217C8368FA
:104AD0004FF0A0729C694FF00073A04700B36C4682
:104AE000224688B0254B9BE7A023012207F10C0149
:104AF00020463B7305F08CFB08B1214BC0E705F164
:104B0000E00420493246204606F07BF941F69A122D
:104B10000023CDE9002320460022002304F06AF898
:104B200000220023CDE9062300236FF00D02CDE91A
:104B30000323CDE901330095134B4FF4C87205F5FB
:104B4000A07105F1480003F053F8D5E644C4000015
:104B500030B300005DC4000090C40000BDC400007C
:104B6000E8C4000011C5000026C5000009A200002D
:104B70004BC500006FC5000092C50000B5C5000020
:104B8000E0C50000FDA10000994600002DE9F047B6
:104B90004668336800AF0546D3B96C4688B00168F3
:104BA0006A463C48C2E905014FF4007191833A49D5
:104BB00042F8101F39484FF4E251FDF73FFBA5467C
:104BC0006FF01204336863BB2046BD46BDE8F08732
:104BD0000024F7E76D4688B06A46314BC2E90530DC
:104BE000032342F8103F2D4800234FF4C251FDF734
:104BF00025FBAD46E8E76C4688B029686A46294837
:104C0000C2E905014FF400719183234942F8101F56
:104C100022484FF4E251FDF711FBA5466FF0120454
:104C2000D2E7002CFAD1A0464FF00109746854F87D
:104C3000380004EBC80A05F0FAFE03460028DAD073
:104C400054F838009AF80410BAF80630D0F810C0BA
:104C5000D0F808A0DCF80040DA0754BF43F4B013E2
:104C600083F4D01323F4801209FA01FEDB074CBF52
:104C700044EA0E0424EA0E04CCF80040DAF80030CE
:104C8000984704460028A5D1336808F10108434538
:104C9000CCD899E710C600000300000150B3000013
:104CA0003BC600005AC60000036803F01F025B0900
:104CB000026004D0012B034818BF002070474FF05A
:104CC000A0407047000300502DE9F04FDFF89891A5
:104CD00085B01546824600EB81014FF00108514531
:104CE00003D1002005B0BDE8F08FDAF8003003F002
:104CF0007F04C3F343277F2C4FEA134308BF4FF0D1
:104D0000FF34222B00F2AD80DFE803F01222282BC3
:104D10002E352BABABABAB4650ABABABABABABAB16
:104D2000ABAB535E6164676A6D709A9DA0A3A600E9
:104D3000C5F80C45601C1BD003A80394FFF7B4FF13
:104D4000039B08FA03F3C0F808350126B34654E084
:104D5000C5F81445601C0BD00026F7E7C5F80845D8
:104D6000E8E7C5F81045F5E7621CC5F8084576D1B7
:104D70000AF1040AB3E7631CC5F80C45F8D0012614
:104D800003A80394FFF790FF039B08FA03F3C0F80E
:104D90000C354FF0010B30E0C5F80845002FD9D194
:104DA000631CE5D00026B346062726E0C5F80C456F
:104DB000F4E7C5F86045661CDAF80030D8D0C3F3D4
:104DC0008033002BDBD0B7E7C5F86445F3E7C5F8BF
:104DD0006845F0E7C5F86C45EDE7C5F82045B9E74B
:104DE000C5F82445B6E7C5F81C45B3E7C5F8244522
:104DF000621CBDD001264FF0000BDAF800300193A1
:104E000003F40052002A03A81CBF01264FF0000B38
:104E10000394FFF749FF039A019B00EB8200C3F361
:104E2000C114D0F800273B0243EA840343EA0B0392
:104E300002EA0902134343EA4603C0F8003797E742
:104E4000C5F8284576E7C5F83045D1E7C5F83445BB
:104E5000CEE7C5F83845CBE7C5F83C45C8E700269E
:104E60008EE76FF085003DE7F0F8FCFF036803F084
:104E70001F025B09026004D0012B034818BF002009
:104E800070474FF0A04070470003005010B54FF03E
:104E90002003EFF3118483F31288BFF36F8F00298F
:104EA000036808DDC1F5B60202F5B6629A4207DB77
:104EB0000B44036004E0FBD0044A521A9A42F7DD27
:104EC00084F31188BFF36F8F10BD00BF50FAA4FFA9
:104ED00030B523290469406823D14FF02003EFF354
:104EE000118183F31288BFF36F8F0025236825603B
:104EF00081F31188BFF36F8F4FF4B4714B43016B93
:104F000093FBF1F11160046B04FB113313B953608F
:104F1000002030BD04494B435360016B93FBF1F318
:104F2000F5E76FF08500F4E740420F0090B585B0DB
:104F300000AF07F1100404E907001C46BB88206994
:104F4000B3F5807F16D0B3F5827F16D1B968FFF72D
:104F50009DFF4FF02003EFF3118283F31288BFF31C
:104F60006F8FD0E9013182F31188BFF36F8F0BB1DE
:104F7000204698471437BD4690BD6C4688B06A46B7
:104F80000649C2E90513032342F8103F04480023F1
:104F90004FF4C251FDF752F9A546EBE782C6000077
:104FA00080B3000070B5446886B0636A05469847D0
:104FB000A66A6A460021304605F09BF900281EDBF0
:104FC000009B326819791868FFF77EFE002816DB0F
:104FD0002B46254A04F10801204601F01DFE234B13
:104FE00098420ED1224B05930223049321480023BB
:104FF00004AA4FF48251FDF721F96FF00F0006B0BB
:1050000070BD1D4B98420DD01C4B05930223049399
:105010001848002304AA4FF48251FDF70FF96FF0EE
:105020000D00ECE76968CB6A5A1C18D068460093FB
:10503000FFF71CFF009A01239340C0F80C35CB6AA0
:1050400000936846FFF712FF009B00EB83000C4BB8
:10505000D0F80027134043F00303C0F80037204680
:1050600001F0FAFD0020CAE72D4F00000500AD0B4E
:1050700099C6000080B300000000AD0BADC6000073
:10508000F0F8FCFF014B01221A60704700C000409D
:105090000C2903690BD1DB6A064907484B4393FB94
:1050A000F0F100FB113311605360002070476FF086
:1050B0008500704790D0030040420F00044B006908
:1050C0000022C3F80021D3F8003102F0CFBE00BFA8
:1050D00000C000407FB505692B6B63B33A2901D04E
:1050E0000C292BD105F118064FF0FF324FF0FF339A
:1050F000304602F005FE134B0193286B0323002476
:1051000069460394029304F0A5FB4FF0FF324FF081
:10511000FF33284602F0D0FE286B04F0F3FB0A4B65
:10512000D3F80825EA6201225A60304602F062FE96
:10513000204604B070BD6FF00A00FAE76FF08500FA
:10514000F7E700BF8550000000C0004010B50469BB
:105150000020FEF733FF20634FF0FF32002120468E
:1051600005F0E6FC04F1180005F0DBFC002201214B
:105170000C20FDF779FD0C20FDF746FD024B0122C6
:10518000C3F80423002010BD00C00040F0B54B79E7
:10519000012B26D0032B21D110258B79032B1DD178
:1051A000CE790EB1012E19D10A7912B1022A15D188
:1051B0000E220B684468B3F5164F276867D02DD8C8
:1051C000B3F5165F66D016D8B3F5966F64D00AD8DB
:1051D000B3F5967F63D0B3F5167F63D06FF085008B
:1051E00054E00025D9E7B3F5166F5ED0B3F5965FAE
:1051F000F4D1384B3CE0B3F5E14F59D007D8B3F5C3
:10520000615F57D0B3F5964FE8D1334B30E047F6A6
:105210001224A342E2D14FF4000329E0B3F5613F29
:105220004AD013D8B3F5963F49D009D84DF6C024DB
:10523000A34246D0B3F5614FD0D14FF46B0317E0D2
:10524000B3F5E13FCAD14FF0EB7311E0B3F5612F35
:105250003AD008D8214CA34239D0B3F5E12FBDD1C3
:105260004FF0E86304E01E4CA342B7D14FF08053E7
:105270000469C7F82435436835431B682A43C3F8DB
:105280006C2503C9231D83E803000020F0BD4FF403
:105290001D03EDE7134BEBE74FF49E23E8E74FF4D4
:1052A000A033E5E74FF41C33E2E74FF41D23DFE7BB
:1052B0000D4BDDE70D4BDBE74FF06C73D8E70C4B84
:1052C000D6E74FF46503D3E74FF07063D0E74FF0B4
:1052D0008063CDE700B0130000A04E0090D0030023
:1052E00040420F000050270000C0750000F03A0057
:1052F00000903A012DE9F043002287B08046012159
:105300000220FDF7B1FC0220FDF77EFCD8F8047006
:10531000D8F810603C680021C4F80015C6F8008079
:10532000D7F80C906A46484604F0E3FF051E25DBDB
:10533000009BD9F8002019791868FFF7C5FC051EF5
:105340001CDB311D4046FFF721FF0546B0B97B68E5
:10535000990723D506F1180001F03AFC234B984237
:1053600010D0234B05930223049322482B4604AA12
:105370004FF482516FF00405FCF760FF284607B038
:10538000BDE8F083307E04F10C0204F5907105F065
:1053900022F9337E0120984000F09CFF0823C4F8D6
:1053A00000353B7A53B9C4F81031D4F81031736921
:1053B000C4F834350123C4F8383523607B689A0774
:1053C0005CBF4FF48073C4F804337B68DB0644BFD2
:1053D0004FF48003C4F804333369C4F84435002320
:1053E000C4F848350123A360E360C7E70000AD0BB4
:1053F000F7C60000A0B30000F8B5044607690D46E3
:1054000005F06EFBB0B92E4B1B789BB1642660682B
:1054100004F0DDFF00BB012005F0DBF8013EF6D112
:105420000021212003F088F9F0E786F31188BFF30B
:105430006F8FF5E74FF02003EFF3118683F31288A7
:10544000BFF36F8F6068314604F0C1FF90B986F3F7
:105450001188BFF36F8FEDE74FF02003EFF3118654
:1054600083F31288BFF36F8F6068314604F0AFFF9B
:105470000028DAD03B691D70626838691368C3F888
:1054800044050120C3F848050020C3F82001D3F8E3
:105490002051C3F858015268D3F85801D20608D5F4
:1054A000626812680820C2F800054FF48002C3F851
:1054B000042301229A6081F31188BFF36F8FF8BD36
:1054C000204700202DE9F04387B045680669D5F8EC
:1054D000208000AF3A460021404604F00AFF041E37
:1054E0001EDB3B68D8F8002019791868FFF7ECFB41
:1054F000041E15DB686A441C25D000F037FB10F150
:10550000130F044611D1364B7B61022335483B61B2
:1055100007F110024FF4825104F0BAFF6FF0120449
:1055200020461C37BD46BDE8F083411D0BD12E4BF4
:105530007B6102232B483B6107F110024FF482513B
:1055400004F0A6FFECE7EB699847B5684FF0010857
:10555000D6E9023203EBC2039D4204D3304604F085
:10556000AEFF0024DCE7286805F061FAB0B92B68CB
:105570006C468AB019682B796A461C48D3614FF48F
:10558000007313841A4BC2E9050142F8103F154815
:105590004FF4115104F07CFFA546BFE72868297934
:1055A000EB88D0F810C0D0F80890DCF80040DA079B
:1055B00054BF43F4B01383F4D01323F4801208FAD9
:1055C00001FEDB074CBF44EA0E0424EA0E04CCF8CB
:1055D0000040D9F800309847041EA1DB0835B7E732
:1055E00034C7000090B300005FC700007CC7000014
:1055F000040000017FB5054640682A69936D116E6D
:10560000E3B9A9B1546D91661E460B46D26D029264
:10561000CDE90046EAB1002918BF194603910022DE
:10562000694601F0BBFC0D4B984214D06FF00401A9
:10563000286904B0BDE8704004F06BBF546D11B12F
:105640008B4228BF0B46002C936614BF1E460026D3
:10565000DCE71146E2E704B070BD00BF0000AD0B0F
:1056600010B5037886B00C46002B5ED18A6E42B925
:105670004B6E18696FF0730106B0BDE8104004F07E
:1056800048BF8B6D5BB19A421ED9294B05932948BF
:10569000022304AA4FF48251049304F0F9FE236E0E
:1056A000A26E5BB19A4227D9214B05932148022370
:1056B00004AA4FF48251049304F0EAFE606E06B02F
:1056C000BDE81040FFF796BF9B1A8B6573B94B6C12
:1056D00008334B648B6C013B8B6401F1580204F17D
:1056E0004400483104F0C1FE6065D8E74B6D002BE3
:1056F000D5D013444B65D2E79B1A23667BB9E36C84
:105700000833E364236D013B236504F1600204F177
:10571000500104F14C0004F0A8FEE065CEE7E36D13
:10572000002BCBD01344E365C8E706B010BD00BF23
:10573000A0C7000090B300002DE9F04F8BB000AF80
:10574000C7E9023243687B608B8804699A04064685
:10575000884636D44FF0FF324FF0FF3304F110008B
:1057600002F0AAFBC4F80480D6F81090D6F804A082
:1057700099F86D3023B1D9F80030984500F01781C1
:10578000B8F804C01CF4006F22D0744B7B62022373
:1057900073483B6207F120024FF482516FF0850598
:1057A00004F076FE23689B8813F4005304D16360F1
:1057B00004F1100002F05AFB28462C37BD46BDE824
:1057C000F08FA369002BC5D163689942C2D1CBE7A2
:1057D0001CF0010F15D06D4688B033686A466149E8
:1057E0005F48C2E905134FF4007393835E4B42F8A0
:1057F000103F4FF4E25104F04BFEAD466FF015053B
:10580000D0E71CF0080F0BD0584B7B6202235448A2
:105810003B6207F120024FF4825104F039FEEDE7BC
:10582000CCF34513082B01D0514BEEE7D8F80050CC
:10583000504B9D4201D8504BE7E70AF1080BBBE8FB
:105840000F0007F1100EAEE80F00DBF80030CEF8C5
:1058500000304A4B9D425DD9494B9D425DD9494B31
:105860009D425DD9484B9D425DD9484B9D425DD9D3
:10587000474B9D422CBF4FF000454FF080451CF038
:10588000020FBD610CF0040353D0002B14BF03239F
:1058900002233B77CCF300137B77DAF80030D3F8A0
:1058A00008351CF0020F4FEA5312CCF3400103F00D
:1058B0001F0345D1002A40D0012A40F029813549F3
:1058C000012202FA03F3C1F80C3599F86D302BB1BF
:1058D000504601F02BFB002389F86D304B462E4AD1
:1058E00007F11001504601F0EDFA2C4B984259D0C7
:1058F0006D4688B06A462A4BC2E90530032342F858
:10590000103F17484FF4C25104F0C2FDAD466FF08E
:10591000040547E74FF00075B1E74FF08065AEE74B
:105920004FF00065ABE74FF08055A8E74FF000550A
:10593000A5E7003B18BF0123ABE74FF0A041BFE74D
:105940004AB1012A40F0E7801249012202FA03F32A
:10595000C1F80835B9E74FF0A041F6E7BEC700002F
:1059600090B30000D8C7000003000001FAC7000090
:1059700019C8000047E8010048C800008FD00300A4
:105980001FA107003F420F007F841E00FF083D005B
:1059900000127A0000030050615600000000AD0BB9
:1059A00079C80000012389F86D30C9F8008001230F
:1059B00084F86C307B68586A431C0ED004F0C5FD37
:1059C00074300AD1564B7B62022356483B6207F182
:1059D00020024FF4845104F05BFDFB68002B73D16F
:1059E00063640023A36404F1580204F1480104F144
:1059F000440004F03AFDBB686065002B6CD1E364A1
:105A00000023236504F1600204F1500104F14C000D
:105A100004F02BFDE06520680023236448B183680F
:105A20003BB10121083004F036FD2368186904F009
:105A3000F9FF3046FFF7DEFD0022A06C13468342DB
:105A400052D10023256D1946A94254D19342A04654
:105A500038BF13464FF4FA5202FB03F558F8283BBF
:105A60004FF4004C1B68B5FBF3F540F2E730C83546
:105A700000214FF47A720023E5FB0C01FAF736FFA0
:105A800002460B46404602F017FA00283AD0264B51
:105A90007B62022323483B6207F120024FF48251CC
:105AA00004F0F6FC00257868A56601F03FFA84F85A
:105AB0006D5030696FF0730104F02BFD404602F029
:105AC00023FA6FF073056DE6FB681B686364002BB7
:105AD00087D0FB685B6885E7BB681B68E364002BC5
