:10000000802C002005270000EB990000D926000075
:10001000D9260000D9260000D926000000000000E3
:10002000000000000000000000000000791F000038
:10003000D926000000000000151F0000D92600008E
:10004000352000003520000035200000352000005C
:10005000352000003520000035200000352000004C
:10006000352000003520000035200000352000003C
:10007000352000003520000035200000352000002C
:10008000352000003520000035200000352000001C
:10009000352000003520000035200000352000000C
:1000A00035200000352000003520000035200000FC
:1000B00035200000352000003520000035200000EC
:1000C00035200000352000003520000035200000DC
:1000D00035200000352000003520000035200000CC
:1000E00035200000352000003520000035200000BC
:1000F00035200000352000003520000035200000AC
:1001000053B94AB9002908BF00281CBF4FF0FF317E
:100110004FF0FF3000F00CB8ADF1080C6DE904CEE3
:1001200000F008F8DDF804E0DDE9022304B07047D0
:10013000704700BF2DE9F04786468C460846089E6A
:10014000154674461946002B40F0C2808542B2FA2B
:1001500082F245D94AB1C2F1200300FA02FC2EFA1C
:1001600003F3954043EA0C0C94404FEA154EA8B2B5
:10017000BCFBFEF8230C0EFB18CC08FB00F943EA8D
:100180000C43994528D9EB1808F1FF3704D299455B
:1001900002D9A8F102072B44A3EB0903A4B2B3FBD5
:1001A000FEFC0EFB1C330CFB00F044EA0344A042AF
:1001B00014D92C190CF1FF3304D2A04202D9ACF1AE
:1001C00002032C44241A43EA07401EB1D440002302
:1001D00034607360BDE8F0874746DDE76346F1E7CA
:1001E00092BB431B01214FEA154EAFB2B3FBFEFC9D
:1001F000200C0EFB1C330CFB07F840EA0343984528
:1002000062D9EB180CF1FF3004D2984502D9ACF159
:1002100002002B44A3EB0803A4B2B3FBFEFC0EFBCD
:100220001C330CFB07F744EA0344A7424ED92C19B0
:100230000CF1FF3304D2A74202D9ACF102032C44E3
:10024000E41B43EA0040C0E7C2F1200320FA03F1B7
:10025000954090402EFA03F303434FEA154EAFB298
:10026000B1FBFEFC0EFB1C10190C0CFB07F841EA5D
:100270000041884504FA02F422D969180CF1FF30D4
:1002800004D2884502D9ACF102002944A1EB08014F
:100290009BB2B1FBFEFC0EFB1C110CFB07F743EA03
:1002A00001439F420ED9EB180CF1FF3104D29F425B
:1002B00002D9ACF102012B44DB1B41EA004192E779
:1002C0006046E3E76146F7E76046A3E76346B7E7C2
:1002D000834206D916B9002108467BE7C6E900E04B
:1002E000F9E7B3FA83F78FB9834201D3724508D88F
:1002F000BEEB020460EB030301209C461EB9002103
:1003000068E73846FAE7C6E9004CF8E7C7F1200C81
:10031000BB4022FA0CF41C432EFA0CF120FA0CF329
:10032000B84001434FEA14490EFA07F5B3FBF9F858
:100330001FFA84FE09FB18300B0C08FB0EFA43EA87
:1003400000439A4502FA07F240D9E31808F1FF305A
:1003500004D29A4502D9A8F102002344A3EB0A0370
:1003600089B2B3FBF9F809FB183308FB0EFE41EA2A
:1003700003418E452CD9611808F1FF3304D28E4514
:1003800002D9A8F10203214443EA0040A0FB0298ED
:10039000A1EB0E014145CE46434602D306D14D4561
:1003A00004D2B9EB020E68EB04030138002EA6D08C
:1003B000B5EB0E0261EB030101FA0CFC22FA07F324
:1003C0004CEA0303F940C6E9003198E74046C5E727
:1003D0004346D9E7034613F8012B002AFBD1181A2C
:1003E000013870472DE9F04F14228BB000242146CC
:1003F0000DEB0200CDE9024404940AF01FFB0DF15D
:1004000006030793022308933F4F38460AF078F813
:100410008046E8B1BB683D491B6838469847021ED4
:100420001EDB45462646102306930A23ADF82430EA
:10043000BB6805A95B6838469847011E15DA344841
:1004400008F06DFE40F6CD40002107F0A1FDEAE77F
:100450003968304808F063FE00200BB0BDE8F08F2B
:100460002D48214608F05BFEF6E7BDF806A04FF6E2
:10047000DB739A45D7D8294B4FF4FA7909FB0AF96F
:1004800099453ADDBDB30AF0ECF94FF47A72A0FB5E
:10049000020302FB0133C00B40EA43450322B6FBD3
:1004A000F2F303EB4303F31A0AA901EB83032C1BBA
:1004B000022E43F8204C0DD9DDE902310B4404999A
:1004C00017480B444EF66021B3FBF2F3B1FBF3F196
:1004D00008F025FE3146134808F021FE12484FF47B
:1004E0007A725146B9FBF2F208F019FE06F1010BDF
:1004F0002C465E4600252120A6E747F22F5399455A
:10050000D8BF4546F7E700BF68AB00006EAE0000FD
:10051000F2B20000ACB20000D0B20000671E0600CC
:1005200007B3000011B300001EB300002DE9F04F27
:1005300091B08407009302F004030293C2F3C20354
:1005400003F10103DDF86890039205460E4605931A
:1005500040F0BA81041D30B1072909D86FF01B00A3
:1005600011B0BDE8F08F01F00706341DC6F1080692
:10057000009B4FF00008591E4FF0040A4FF0FF3364
:100580000193CDF810804746C34653460DB1009AFB
:1005900022600598002800F3E8809848009A82427B
:1005A00003D397488242C0F0E080039AA4EB050E83
:1005B00092074FEA9E0000F103810F2F00F2B180F5
:1005C000002D00F0058107F140020DEB020C019AAD
:1005D0000CF8200C0CF8102C049801300490E7E083
:1005E0007A285DD84B280ED8472859D829282DD8E5
:1005F000252852D054D820287AD02338D0F1000BA7
:100600004BEB000B74E04C382E2849D8DFE800F0A3
:100610007048484848484848484848484B4848482F
:10062000484848484859484B4B595959704B6D48B0
:100630007048184B184848827F4B48484B487F0009
:1006400000204FF0000B4FF0040A38E02A38C0B207
:10065000012202FA00F010EA0E0F49D110F0625C9C
:100660002FD110EA020B43D06046013C5444B4FB46
:10067000FAF40AFB04F4002D61D0A3EB050CA444AA
:100680006645FFF46BAF002868D1042B47D159F8B9
:10069000043B2360043404232AE0019A013A0192C6
:1006A0004FF0000B24E011F8010C6C2834D111F844
:1006B000023C00206C2B8346C5D14FF0080A5346FC
:1006C000D3E709F1070929F007090734F9E802AB74
:1006D00024F0070435B106982044B0423FF63EAFFF
:1006E000C4E900AB08344FF0000B4FF0080A534642
:1006F00011F8010F002878D0BBF1000F7FF470AF24
:100700002528F5D1019B013301934FF0010B4FF0E8
:10071000040AECE7584694E700208346A5E7082B37
:1007200002D06FF015001BE709F1070929F007094E
:10073000F9E80223C4E9002308340823D8E768B99C
:10074000042B02D109F10409A4E7082BE9D109F12E
:10075000070929F0070909F10809EDE7059A013AA7
:10076000059259F8042B009210E7039A900720D5C0
:10077000A4EB050E4FEA9E004FF0010CBEF5007F82
:10078000CFD20F2FCDD8F5B107F140020DEB020EFD
:10079000C0B2019A0EF8200C0EF8102CBCF1000F1C
:1007A0003FF41AAF60F07F000EF8200C08F101084A
:1007B0000137C5F10802043406924FF6DA7E97E756
:1007C0004FF0000CDAE7BCF1000F01D00136EFE783
:1007D000029802360028EBD10098CDE90631FFF7E8
:1007E000F9FDDDE906310644E2E7631BB3F5806FEE
:1007F00097D23DB9A6F10804E018B1E670AA00004E
:10080000DCC20000029A28609B082B709DF8103013
:10081000C2B1EB7085F80280B8F1000F05D008A8CE
:100820000022C5F1010C97420ED1C5F101030DF173
:1008300020094FF0000A01930DF1300B574512D1FA
:10084000601B8DE66B70E5E710F8013B190608D5D3
:1008500004EB0C0E764503F07F03FFF47FAE04F843
:10086000013B0132DFE7B8F1000F03D099F9002016
:10087000002A17DB029BD3B11AF80B2004F8012BD6
:100880000022019B981820448642FFF467AE99F835
:10089000000004F8010B0099039220460AF0C0F80A
:1008A000039A14440AF1010A09F10109C6E799F80B
:1008B000002055F822300093029B45F82230009822
:1008C000FFF788FD421CDCE76FF00D0048E600BF33
:1008D0002DE9F04F95B000AF90F802B0BB61BB6F4F
:1008E0007A62C3F3C00304463B618A4641B9457846
:1008F00000780BEB80002044554517D8A0EB040A84
:10090000E3787B61BBF1000F02D0BB6FD80716D430
:100910007B6953BB7B6A1BB1BA6951462046984735
:10092000554628465437BD46BDE8F08F461C304634
:10093000FFF750FD013030440AF1010ADCE723786B
:100940003B629B00FB603B6A6268FA6104EB8309CF
:100950007B6A002B40F0FE805546C84609EB0B0A27
:100960000026D04551D1D94413E0BB6F9907D1D5AA
:1009700023783B6299469B00FB606368FB617B6A5E
:1009800004EB8909002B7AD15546BBF1000F4FD1FA
:100990005E46BB6F13F0050F7B6909EB430ABB6F23
:1009A00003F002030CBF4FF0020B4FF0010B7B6210
:1009B000D145B6D019F8021B19F8013C54F8238030
:1009C000AA4B984502D3AA4B984538D33B69002BD4
:1009D00042D0F86908F07CFB00283DD0E8468AB098
:1009E0006A46A44B5361FB69C2E906314FF40073B8
:1009F0001384A14B42F8103FA04800234FF412513A
:100A000000F020FD023DC546D2E718F8013B54F83E
:100A10002300FFF7DFFCFB6F01303BB1D7F88030DC
:100A20009E423EBFFB6F23F816000136054498E74F
:100A3000BB6F13F004061CBF7E6AD944A9E73B696B
:100A400023B1F86908F044FB0028C7D1BB6FDA076F
:100A500005D4A5EB0B05ABE77B6A002BA8D040467D
:100A6000FFF7B8FCFB6F43B1D7F880309E423FBF21
:100A7000FA6F431C22F816300136054498E7BBF1A3
:100A8000000F6DD0BB6F13F004066CD0D846002663
:100A900007F140005A46494609F0C2FF7B695B00F6
:100AA0007B607B69D94409EB4303BB60BB6F03F0F8
:100AB00002033B60BB684B4557D1B96F6378B86F91
:100AC000890706EB030254BF4FEA58010021C5070E
:100AD000D2B200F19A8010F0040F14BF40460020FB
:100AE000FB616270A070E170BA69F9687B6A2046A8
:100AF0009847051EFFF615AF3B6A2370FB696370CC
:100B00007B69E3704146BA697B6A84F802B007F1F9
:100B100040009847B0F10008C0F2A480FB68BA69B1
:100B2000AAEB0B01C91A7B684846C91A7B6A984729
:100B30000028C0F29980A84408EB00054FF0000B94
:100B400007F1300AB34562D30021BA697B6A0846CF
:100B50009847E6E65E464FF0000807F1300099E757
:100B60005E46D8469AE7B04698E719F8021B3F4B15
:100B700019F8015C54F82500984202D33C4B984286
:100B80001DD33B6923B1F86908F0A2FA002891D17E
:100B90003B68FBB908F1280307F1280208F10100BE
:100BA00003EB020C07F1500353FA80F008F102083E
:100BB0000CF8101C5FFA88F800F8105C7AE73B69C3
:100BC0002BB1F86908F084FA00287FF473AFBB6F8B
:100BD000DB0709D506F1280307F12802711C9E18CE
:100BE00006F8205CCEB265E7BB6F58077FF562AFB1
:100BF00008F1280307F1280208F1010103EB0208BC
:100C000008F8105C5FFA81F854E7002068E71BF8E9
:100C10000A3087F82F3054F82390FB6FFBB133F87C
:100C20001B80BA697B6A012107F12F0098470028D1
:100C30001ADB0544B8F1000F06D14846FFF7CAFB9E
:100C400000F101081FFA88F8BA697B6A41464846F4
:100C50009847002808DB05440BF1010B72E7D7F831
:100C60007C80DEE745465CE605465AE670AA000051
:100C7000DCC2000040B3000004000001ACAD000085
:100C8000014B1860704700BFB000002080B50546DA
:100C90000E461746984607F095F9034609F0DEFE22
:100CA000DFF81890044649F800304246304639468D
:100CB000A84754F8090001F0A5FD00BF0800000096
:100CC0002DE9F047058B04462807904611D40229E8
:100CD00005F0070540F0CD80204608F096FA78B17F
:100CE0000138218B042811D8DFE800F0C3106D858E
:100CF000950001290CBF45F0100545F0200525831E
:100D000088F31188BFF36F8FBDE8F08701F0070A01
:100D1000AA4500F0A6800027B9463E46A368002BEE
:100D200000F0BD8041F00801218388F31188BFF3F2
:100D30006F8FA168002900F0BB800D68002900F0CA
:100D4000B780D1F80480334652462046C047002D74
:100D500076D02B6829461D46F0E701F007035A1F9D
:100D6000012A1BD8002221F00701062B276889B22F
:100D7000C4E9002209D13B4603E0628B0132628361
:100D80001B68002BF9D141F002012183204608F0B5
:100D90003CFA00287BD041F0200177E0042B0AD1F7
:100DA00021F0070189B22183204608F02EFA10B104
:100DB00041F020012183218B01F0070AAA4550D080
:100DC0000027B946AAE7236921F0070141F006018F
:100DD000062DD3F8009021832DD1B9F1000F40D01A
:100DE00041F00801218388F31188BFF36F8F3A49DE
:100DF0002046C84729E021F00701236941F004019A
:100E000089B2042DD3F804902183E6D000273E4612
:100E10004FF0040A82E721F00701236941F0050140
:100E200089B2052DD3F808902183D6D000273E46FD
:100E30004FF0050A72E700273E464FF0060A6DE7BD
:100E40002B4687E7B9F1000FD1D14FF02003EFF324
:100E5000118883F31288BFF36F8F238B23F008036D
:100E60002383258BEA062ED525F01003238305F076
:100E700007056669218B002EBFF66FAF0023276838
:100E8000C4E9003321F0070141F001012183218BE6
:100E900001F0070AAA454FF000097FF43FAF002F89
:100EA0009BD041F00801218388F31188BFF36F8F35
:100EB000002FC7D03D68394633465246204608F0D9
:100EC000D0F92F46F4E7AB067FF51AAF25F02003E3
:100ED000238305F00705FFE68F92000008B504465E
:100EE0004FF02002EFF3118382F31288BFF36F8F6C
:100EF00004F04CFB204601F02FFC034808F00FF9EA
:100F000000F006FFFCE700BFF4B3000004F086BB6E
:100F10002DE9F047DFF85880044607464FF00109F5
:100F200014B93846BDE8F08794FAA4F5B5FA85F50A
:100F300009FA05F32E0108EB05156FEA030A24EA06
:100F400003042B7B002BEBD058F806301B694BB900
:100F50004644042273682846196807EA0A0700F025
:100F60005DFADDE7284698470028D9D1F0E700BFB1
:100F700034AE000030B51049104889B0002209F0A5
:100F800072FC0F4D0F4900220023CDE906230024F7
:100F90000E23CDE90334CDE901440B4B00944FF40B
:100FA0004072284606F084FB0849284609F007FBF2
:100FB000204609B030BD00BFD10F0000C80B002093
:100FC00040070020801B0020C11200001DB400005B
:100FD000014806F0ABBC00BFC80300202DE9F04774
:100FE00080461F480F4608F061FC0646002830D0B6
:100FF00000252846BDE8F087237B73B12368DB68B2
:101000000BB12046984723681B69D3B96368042253
:101010001968204600F002FA013610344C45EBD333
:10102000B8F1000FE5D0002DE2D02846FFF770FFA1
:101030000546002FF7D000214FF4A47006F0A8FF5A
:10104000F1E7204698470028E0D00AFA06F31D434E
:10105000E2E7044CDFF8109005464FF0010ADDE7A7
:10106000F00D002034AE000054AE0000014B53F8E8
:101070002000704790AE000008B5034608462BB12B
:10108000044A136000F07EFC002008BD6FF01500DC
:10109000FBE700BFB400002010B5044C237813B95F
:1010A000034806F043FC0123237010BD38170020CD
:1010B000C803002010B50446084808F0F7FB5CB1EF
:1010C000BFF35B8F064B53E8001F013943E8001262
:1010D000002AF8D1BFF35B8F10BD00BFE80D0020E0
:1010E000EC0D00200020064BBFF35B8F014653E858
:1010F000000F43E80012002AF9D1BFF35B8F70475D
:10110000E80D002070B5FFF7EDFF084C084E0546CE
:10111000B44200D370BD63685B792BB123685B6810
:1011200013B12946204698471034F1E734AE000049
:1011300054AE000010B5044C0449204608F047FAAC
:10114000034B1C6010BD00BF200300207CAE0000DC
:10115000E00D0020084A094808B500231370084A2A
:101160001360084A4FF400411360FFF785FFBDE8A4
:101170000840FFF7DFBF00BF39170020A998000023
:10118000E80D0020EC0D002001460022014800235C
:1011900008F03EBA20030020014808F0D7BA00BF8B
:1011A00020030020024B0146186808F021BB00BF55
:1011B000E00D0020014808F057BB00BF20030020CD
:1011C00070B5284B187800284BD0FFF7E5FF05468F
:1011D00090B1BFF35B8F244B53E8001F013943E804
:1011E0000012002AF8D1BFF35B8F204C204EB4428E
:1011F0002DD32846FFF7D6FF1E4B1F4C1B68002B34
:1012000019DD09F02EFB4FF47A72A0FB020302FBFA
:101210000131C30BD4E9002043EA41439B1A4FEA52
:10122000D13140F2E93261EB0001934271F10001EA
:1012300001D3FFF767FFD4E9003213F57A7342F167
:101240000002C4E90032BDE87040FFF7B3BF636835
:101250005B7923B1236829461B68204698471034E0
:10126000C5E770BD38170020EC0D002034AE00003B
:1012700054AE0000E80D0020C00B002070B50D4DED
:10128000297861B90120FFF7A9FE0B4C0B4EB4423F
:1012900006D3FFF795FF0028FBD101232B7070BD0B
:1012A00063685B791BB1236820469B6898471034BC
:1012B000EDE700BF3917002034AE000054AE000047
:1012C00000212DE9F0470846FFF788FE044658B391
:1012D00040F267684FF0000909F0C0FB1B4B1C4A45
:1012E0001B58136033B11B4B1B68092B02DD1A48D6
:1012F00006F01CFB194FDFF860A0002544B1204622
:10130000FFF706FE044618B94FF0FF384FF0FF39DB
:10131000FFF756FF064628B9B5B942464B46504638
:1013200006F02AFB3546E9E74FF0FF384FF0FF396A
:10133000D2E72B689B691BB10022114628469847CB
:101340001035BD42F5D3E8E7054DFAE70800000087
:10135000E40D0020EC0D0020C803002054AE000076
:1013600034AE000013B5184808F0A0FA174B1B78EC
:101370007BB14FF02003EFF3118483F31288BFF3A6
:101380006F8FFFF71DFF84F31188BFF36F8F02B0DB
:1013900010BD0F4B1B68002BF9D050B90022002361
:1013A000CDE900230B484FF40042002307F04EF82C
:1013B000EDE70928EBD1074809F061FA064802B0C9
:1013C000BDE8104006F0B2BAEC0D0020391700203D
:1013D000E40D0020C80B0020C803002010B5064B08
:1013E0001B68044698472146A060044808F08EF91F
:1013F000BDE81040FFF7B6BFB40000202003002076
:10140000044A054B9B1AB1EBD30F34BF52F831009D
:101410000020704774AD000034AE0000084BC31AC2
:1014200010B41B1144680133237143689A714368F7
:101430001960436801225A7110BCFFF72DBE00BF2E
:1014400034AE00002DE9F04F8FB004AFC1F34A284D
:10145000B8600D4691467B600C0DB8F1000F63D06B
:10146000002607F114034FF0040B4FF00A0AC7F8E7
:101470000C80C7E907667E620193CDF808B0CDF80D
:1014800000A007F11C03F96832464846FFF720FA2E
:10149000B0F5006F03461CD36C468AB0D9F804102F
:1014A00004AB2648C3E9050140F2FF71D9611A4631
:1014B0004FF400711984224B42F8103F2148334603
:1014C0004FF41251FFF7BEFFA5462C37BD46BDE8CD
:1014D000F08FC0F30A0804F11700184420F0070049
:1014E00080083B60FFF750FE68F35325044690B137
:1014F0003B68154AC7E9083600F1100107F11403EB
:10150000F961CDE900A3CDF808B0F96807F11C0333
:101510004846FFF7DDF968F353257B68B9682A462A
:10152000204608F0F9F9D0E704F1170020F0070091
:101530008008FFF729FE0446EDE700BF32B4000043
:1015400004000001ECAD0000ED9800002DE9F04F23
:1015500087B0DDE91269DDE9105A04460F4693466B
:101560009846A6B31021CDF800903346524600208D
:10157000CDF81490FEF7DAFF014605F11700084494
:10158000144B039104F007040BF0070BE40020F068
:10159000070003EA412344EA8B1480081C43FFF749
:1015A000F3FD44EA0554054640B13EB10399CDF838
:1015B0000090334652461030FEF7B8FF43462246AD
:1015C0003946284607B0BDE8F04F08F0A5B93146C6
:1015D000D3E700BF00FE0F000EB403B503AB014616
:1015E00053F8042B0448019301F020FA02B05DF88F
:1015F00004EB03B0704700BF7F990000CA0605D412
:101600008B064CBF02490349FFF7E6BF704700BF96
:1016100072B4000071B400002DE9F04F89B09B4610
:101620009DF84C300493DDE914930593049B0692D6
:10163000DDE9167604460D46002B00F0878006F0A3
:101640000803079308F050F906F0020A0246002842
:101650004BD086492046FFF7BFFF8046BAF1000F06
:1016600008D016F0440F42D181492A462046FFF7A0
:10167000B3FF804406F001035BB17E4B049A7E49C0
:1016800053F822207D4B2046002A08BF1A46FFF758
:10169000A3FF06F00803002B55D0794B049A794933
:1016A00053F822202046FFF797FF0546069B2BB1F3
:1016B00075491A462046FFF78FFF0544BBF1000F1E
:1016C00005D072495A462046FFF786FF0544454437
:1016D000B9F1000F49D1002F4FD1F30700F1C080BD
:1016E00031462046FFF78AFFB4E08046B6E7684BF4
:1016F00018680028BDD0674B4FF47A7E1B68B5FB95
:10170000F3F54FF46162B5FBF0F300FB1355B3FB47
:10171000F2FA0EFB05F502FB1A323C21B5FBF0FC98
:10172000B2FBF1F300FB1C5501FB13220EFB05F588
:101730000092B5FBF0F55849CDE901C55246204667
:10174000FFF74AFF95E706F00805AFE7BBF1010F89
:1017500006D1B9F1000F64D1002F7BD000250CE039
:10176000B9F1000FF8D04D485CE04D484D494B466B
:10177000224607F07CFC002F68D0DFF82C91DFF8C0
:101780002CA1102F31462046B84628BF4FF0100834
:10179000FFF734FF4FF0000B5D4545DC059B5146DC
:1017A0001A782046FFF718FF4FF0010B1BF0070FC8
:1017B00003D149462046FFF70FFFD8453BD9059B8B
:1017C000514613F80B202046FFF706FF0BF1010BE3
:1017D000BBF1100FEAD1364920464FF0000BFFF75E
:1017E000FBFE5A46059B9A5CA2F120015F2928BFA7
:1017F0002E2230492046FFF7EFFE0BF1010BBBF123
:10180000100F1DD01BF0070F03D149462046FFF7EC
:10181000E3FED8455A46E5D849462046FFF7DCFEA8
:10182000EBE71F48049DA1E749462046FFF7D4FE99
:101830000BF1010BB0E720492046FFF7CDFEC5E7CD
:10184000059BB7EB0807434405939AD1049B002BF3
:101850007FF443AF204609B0BDE8F04F08F082B8EE
:10186000064A05492046FFF7B7FE39E779B400007C
:101870007DB40000A0AE00008BBB000074B400007B
:10188000B4AE0000A2B40000A8B40000ACB40000E4
:10189000F80D0020F40D002086B40000B59900007A
:1018A0007F9900002D2A0000B9B40000B1B40000F7
:1018B000BBB40000BDB40000B7B400002DE9F04196
:1018C0000F884B688E6886B005460C469046C7F375
:1018D00082175BB1144A9B1A43F3CF01002920DB26
:1018E0002078C0F3C200FFF78BFD034621466088D5
:1018F00051F8102B0197C2F34A22002A01EB02048F
:10190000C0F30B1008BF00210022CDE90408CDE987
:101910000214009231462846FFF77EFE06B0BDE86D
:10192000F0810023E2E700BF74AD000073B542F21E
:101930000F738B4228BF0B4605680F4A04460521EA
:10194000684607F019F963680C495B6806460B2284
:10195000284607F0FAFF63683246694628465B6806
:1019600007F0F3FF636806495B681B22284607F00F
:10197000ECFF02B070BD00BF0EC20000DCB400007E
:10198000C0B40000074A00210123904206D8064A4D
:1019900001B901231360054B1860704740085B00D4
:1019A0000121F2E740420F00F40D0020F80D002065
:1019B000014B01221A7070473A170020014B00209A
:1019C00019607047100E0020024B034801221A7064
:1019D00007F0C8BF3B170020E4AE00000148FFF746
:1019E000A5BF00BFE4AE000010B5064B18680C465A
:1019F000FFF73CFB21460346BDE8104002480F229A
:101A0000184700BF100E0020E4AE000010B9074BCD
:101A100018707047064B1B781BB141F2883008F0F4
:101A20006ABDA420002106F0B3BA00BF3A17002017
:101A30003B1700202DE9F843DFF874901D4F8046D6
:101A40000E46042499F8005095B905F021FC28466B
:101A50003246414605F0CEFB054605F023FCE5B1D4
:101A600001233B7099F8003073B93046BDE8F88324
:101A700032464146002005F0BDFB0546EFE7204613
:101A8000FFF7C4FF651E2C46002005F0F7FB002879
:101A9000EBD03B78002BF2D1E7E73B78002BE4D08A
:101AA000013C2046FFF7B2FF3B78002BCAD1DCE7B0
:101AB0003B1700203A170020014B002019607047A7
:101AC000280E0020024B034801221A7007F04ABF7B
:101AD0004D17002010AF00000148FFF727BF00BFDF
:101AE00010AF000010B5064B18680C46FFF7BEFAA1
:101AF00021460346BDE8104002480F22184700BFA8
:101B0000280E002010AF0000F8B5074F0D46044620
:101B10004618B44201D12846F8BD14F8011BBB6831
:101B200001485B689847F4E754AB0000014806F0B1
:101B30007BBE00BF20AF000038B5044618B90F4B7C
:101B40000F485B6898476168B1F5683F10D0B1F500
:101B5000680F0DD00B4DA9420AD011F468612068BE
:101B600007D00146084808F0FEFC002323606560AA
:101B700038BD142208F062FFF9E700BFA802002078
:101B800032B500002C5F5CA92C13002008B520B3EF
:101B90004368B3F5683F10D101220368BFF35B8F40
:101BA00053E8001F002903D143E800200028F7D1A3
:101BB000BFF35B8F0DD1002008BD094A93420AD0C4
:101BC00000684FF0FF324FF0FF3305F0F9FD0028B9
:101BD000F1D00448F0E70448EEE76FF4E040EBE7AB
:101BE0002C5F5CA9E98FFFFFEA8FFFFF08B5D8B132
:101BF0004368B3F5683F10D100220368BFF35B8FE1
:101C000053E8001F012903D143E800200028F7D141
:101C1000BFF35B8F0BD1002008BD074A934208D069
:101C2000006805F047FEF6E76FF4E040F4E703488C
:101C3000F2E70348F0E700BF2C5F5CA9E98FFFFFE4
:101C4000EA8FFFFF10B5044618B91D4B1D485B68AD
:101C500098476368B3F5683F2FD0B3F5680F2CD071
:101C6000194A934219D1236803BB18484FF0FF3239
:101C70004FF0FF33214605F0ADFC08B923681BB9CE
:101C80000F4B13485B68984720681422002108F026
:101C9000D5FE4FF46863636008E0B3F5683F0DD884
:101CA0003A2B03D040F6BA629342DED1206808F0A6
:101CB000A1FC636843F03A03636010BD054AF3E793
:101CC000A802002032B500002C5F5CA92C13002074
:101CD00058B500003A00003A08B5064906484023C6
:101CE000142208F032FCBDE808400449044806F01C
:101CF0000DBE00BF2C0E00202C13002028AF0000CA
:101D00003CAF0000014910220A60704710ED00E06E
:101D100072B6404080F31188BFF36F8FBFF34F8FCF
:101D200030BF62B6BFF36F8F704700BF72B64940D5
:101D300081F31188BFF34F8F20BF80F3118862B603
:101D4000704700BF2DE9F047814600AF0C460029DF
:101D50004CD06E468AB0D1E90012A3686D46274880
:101D6000A8464FF0050AC5E90501C5E9072348F86B
:101D700010AF2348424600234FF42151FFF762FB86
:101D8000B546D4E903126369AD461E48C5F810A0F4
:101D9000C5E90501C5E907231948002342464FF468
:101DA0002151FFF74FFBB54688B0E3696D46164AEF
:101DB000A8464FF0030AC5E9052348F810AF1048BC
:101DC000002342464FF4C251FFF73CFBB546A369DE
:101DD000AD460E4AC5F810A0C5E905230848002302
:101DE00042464FF4C251FFF72DFBB5462146484607
:101DF00005F05EFABD46BDE8F08700BF85B500007E
:101E00000CAE0000B4B50000E3B50000F2B5000070
:101E100040B2002807DB044A4109012300F01F00FB
:101E2000834042F82130704700E100E040B20028D2
:101E30000CDB4309064900F01F00203301228240D9
:101E400041F82320BFF34F8FBFF36F8F704700BF60
:101E500000E100E0054B420900F01F0053F822208A
:101E6000012303FA00F01040704700BF00E100E0DA
:101E700040B20028A8BF00F1604001F10101B8BFE5
:101E8000064B4FEA4111ACBF00F5614000F00F0076
:101E9000C9B2B4BF195480F80013704714ED00E0C4
:101EA00030BFFFF7FDBF00BF0B4A08B50B4B22F058
:101EB0007F029A60BFF34F8FBFF36F8FD3F88820F4
:101EC00022F47002C3F8882005F0B0FA06F0F2F8A8
:101ED00000F00CFC05F0FCFA0000000000ED00E052
:101EE000094A0A4993680968D967094998674B689C
:101EF00043F080534B60002383F31188BFF36F8F4F
:101F00009368D86F704700BF28150020F4B1000017
:101F100000ED00E015498A684FF030001044EFF3FF
:101F2000098C80E8F01F202080F31288BFF36F8FA8
:101F30000F4F4FF000664A698A603E604FF07404AC
:101F4000141920680B4C2060906F0023936780F376
:101F5000118804B5104600F077FCBDE8044002F19A
:101F6000300090E8F01F8CF3098870472815002096
:101F700004ED00E0481300201EF0040F0CBFEFF347
:101F80000880EFF30980816911F8021C0229FFD053
:101F900001B507F022FD01BD42F8203C009B42F84C
:101FA0001C3C0A49019B42F8183C029B42F8143C35
:101FB00021F001014FF0807342F8043C42F8081C04
:101FC0000023203A02658367704700BF8D0C000034
:101FD000094A0346906870B113F1160F406E05D0A0
:101FE000A0F140029A4205D8834203D2814228BF21
:101FF00000207047002070472815002008B51446BF
:102000000A4A0B4B9060426F1A600D4600F01CFCB0
:10201000204685F30988002163B681F31188BFF358
:102020006F8F00220023FEF731FE00BF281500202D
:102030004813002001B5EFF30580A0F110004FEA2E
:10204000C0000449014409C99847BDE8014002495C
:1020500008470000F4AB0000B9200000114B124A01
:102060002DE9F041D518DFF84480013DB5FBF3F5CB
:102070005D430F4B08EB0304013CB4FBF3F403FB9B
:1020800004540E1B07460B49304608F0C9FC701972
:1020900042460021083E08F0D1FC7E6704F10800AA
:1020A000BDE8F08101000000000000000400000015
:1020B0000400000054AE0000044B9968586988423F
:1020C00003D003494FF080520A6070472815002062
:1020D00004ED00E02DE9F04186B0064600AF0D4664
:1020E000474B7B6102244FF4825146483C6107F123
:1020F000100207F081FC444B9B6AD9046DD5434B19
:102100004048C7E9044307F110024FF4825107F039
:1021100073FC17203C4B9B6A1A050BD53C4B7B612B
:10212000022338483B6107F110024FF4825107F057
:1021300063FC1820344CA36A9B0523D5E846354B35
:102140007B6102232F483B6107F110024FF482515B
:1021500007F052FCA36BA26A100412D588B06A463D
:102160002D492848C2E90513032342F8103F4FF4D4
:10217000C25107F041FCC5461EB1A36A23F40043D7
:10218000A3621920204B9B6A59050BD5234B7B6119
:1021900002231C483B6107F110024FF4825107F003
:1021A0002BFC1A20184B9A6AD20518D51C4B7B6160
:1021B000022314483B6107F110024FF4825107F0EB
:1021C0001BFC1B20104A936A43F47F439362183729
:1021D00000232B70BD46BDE8F08116209AE79B6A6C
:1021E0009B04EFD50F4B7B61022306483B6107F14F
:1021F00010024FF4825107F0FFFB1C20E2E700BF02
:1022000020B600000CAE000000ED00E036B6000085
:1022100047B600005AB6000073B6000088B600004A
:10222000A3B60000BBB6000010B586B0364B3748E9
:10223000059304AA02244FF48251049407F0DCFBB6
:10224000334B9B6A9A015DD5324B304804AA4FF458
:102250008251CDE9044307F0CFFB1E202C4B9B6A33
:10226000DB010AD52C4B2948059304AA02234FF41D
:102270008251049307F0C0FB1F20254B9B6A1C036F
:102280000AD5264B2148059304AA02234FF4825114
:10229000049307F0B1FB21201D4B9B6A59030AD51B
:1022A0001F4B1A48059304AA02234FF4825104934A
:1022B00007F0A2FB2220164B9B6A9A030AD5194B02
:1022C0001248059304AA02234FF48251049307F0A5
:1022D00093FB23200E4B9B6ADB030AD5124B0B4862
:1022E000059304AA02234FF48251049307F084FB60
:1022F0002420074A936A6FEA03436FEA1343936209
:1023000006B010BD1D20A9E7EAB600000CAE000023
:1023100000ED00E002B7000015B700002FB7000085
:102320004DB7000072B700008CB700002DE9F047F0
:1023300086B0814600AF8A469046514B7B610224AD
:1023400050483C6107F110024FF4825107F054FBF2
:102350004D4B9B6ADE0645D54C4B4A48C7E90443C2
:1023600007F110024FF48251112407F045FB464B50
:102370009B6A1D070BD5464B7B61022341483B619D
:1023800007F110024FF48251122407F035FB3E4D45
:10239000AB6A980728D56C463E4B7B6102233B61B4
:1023A0004FF48251374807F1100207F025FB6E6B9E
:1023B000AB6A190660D588B06A46374B3148C2E926
:1023C0000536032342F8103F4FF4C25107F014FBC7
:1023D000A546BAF1000F03D0AB6A23F08003AB62CD
:1023E000132403E01024C2E76FF01506264B9B6A06
:1023F000DA070BD5294B7B61022322483B6107F1A9
:1024000010024FF48251142407F0F6FA1E4B9B6A17
:102410009B060BD5224B7B6102231A483B6107F1D7
:1024200010024FF48251152407F0E6FA164B9A6A0F
:10243000D50602D49A6A90070AD55B68190507D5B4
:1024400049463046FFF7C4FD10B180F309880224E5
:102450000D4B9A6A920642BF5A6A22F400525A629F
:102460009A6A42F0FF029A6220460023183788F8E1
:102470000030BD46BDE8F0876FF01506B0E700BF3D
:10248000B7B700000CAE000000ED00E0CDB70000D3
:1024900047B6000000B8000018B800002EB80000D1
:1024A000BBB600002DE9F0437A4B8BB0D3F8048023
:1024B00000AF0446C8F30805002686F31188BFF371
:1024C0006F8F02F07F43B3F17F4F0ED102F00C0308
:1024D000082B19D1704BFB6102237048BB6107F1D7
:1024E00018024FF4825107F087FA00263446002381
:1024F000FB71EB1E092B00F2AD80DFE803F00AA0B0
:10250000A39CABABABABABA610074CBF0C460126F4
:10251000EDE7E946624BFB614FF0020807F1180254
:102520005E48C7F818804FF4825107F065FA00231F
:10253000584DFB71EB6A9A070BD55A4BC7E90683D6
:10254000564807F118024FF4825107F055FA00235C
:1025500042E0EB6A002B01DA534BEFE7EB6A5B00DA
:10256000F5D5524B4D48C7E9068307F118024FF4E1
:10257000825107F041FA6B69A26943F480736B6181
:10258000BFF34F8FBFF36F8F6B6932F8022C23F4C8
:1025900080736B61BFF34F8FBFF36F8F4DF6027384
:1025A0009A4209D0AB6ADBB2002B37D0FA1D012169
:1025B0002046FFF7BBFE40E088B023686A463C49EE
:1025C0003648C2E90513032342F8103F4FF4C251C5
:1025D00007F012FA2368CD46FA79DAB907F108054F
:1025E00004F1200C206861682A4603C2083464455F
:1025F0001546F7D17A6A002E47D0C2F3080121B9F7
:102600006FEA52226FEA42227A6207F10801184605
:10261000FFF798FB2C37BD46BDE8F083AB6A13F497
:102620007F4F04D0F91D0120FFF754FD05E0AB6A90
:10263000B3F5803F8BD3FFF7F7FD0346CCE7FA1DD8
:102640000021B5E7F91D0020EEE71A4BFB610223DC
:10265000BB6175E7184A194B18F4F87FE8468AB051
:1026600018BF13466A4616490C48C2E905134FF4D1
:1026700000731384103D134BD5614FF4115142F890
:10268000103F07F0B9F9C54661E722F4FF7222F066
:102690000102B9E700ED00E07BB800000CAE0000DD
:1026A000A6B80000BDB80000DEB80000ECB800001D
:1026B0000BB9000027B9000062B800004DB8000057
:1026C0004BB9000004000001024A536943F01003B3
:1026D0005361704700ED00E0EFF30880EFF30981EC
:1026E00001B57246FFF7DEFE01BD00BF04480023BE
:1026F0002021C2180133302B82F80013F9D1704722
:1027000000E100E0002080F31488BFF36F8FFEF734
:10271000FDFB00200D490860BFF34F8F0C4880F38C
:10272000088800F03DF8202080F3118809484FF414
:102730000461401880F30988EFF3148002210843F4
:1027400080F31488BFF36F8FFFF7AEFB94ED00E0CA
:10275000802C0020C01E0020BFF34F8F0549064B80
:10276000CA6802F4E0621343CB60BFF34F8F00BF2F
:10277000FDE700BF00ED00E00400FA050749D1F8CD
:1027800090200023C2F307221846934200DB7047D3
:10279000C1F89830C1F8A0000133F6E700ED00E081
:1027A00008B572B6002383F31388FFF7E7FF144BD5
:1027B0004FF0FF32C3F88020C3F88420C3F888208C
:1027C000C3F88C20C3F89020C3F89420C3F8982055
:1027D000C3F89C20C3F88021C3F88421C3F8882162
:1027E000C3F88C21C3F89021C3F89421C3F8982131
:1027F000C3F89C2162B6BFF34F8FBFF36F8F08BD44
:1028000000E100E0084B9B6883420BD1EFF30583A6
:1028100043B1064B5A6842F080525A605A6A22F419
:1028200000425A6205F0D4BB2815002000ED00E0FC
:10283000024B034A0348012100F092B80000042033
:10284000000000204CAF0000426E054B403A1A6079
:10285000044A4021C3E901121846012100F08AB858
:102860004C13002000000B152DE9F041DFF8B4E017
:102870009C4600AF154600238B421ADA4468002CB0
:102880004DD0BCF1000F1DD0661E344215D06C46F1
:1028900088B06A462449C2E90513032342F8103F71
:1028A000224800234FF4C251FEF7CCFD6FF015050E
:1028B000A5462846BD46BDE8F0811F2CE7D9026831
:1028C0001642E4D1202C026886685FFA85F814D994
:1028D000B4F1004F13D8013CB4FA84F4C4F11F04DE
:1028E0006400B8F1070F46EA04060AD96C4688B0BE
:1028F0006A460F4BC2E90535CFE70824F1E73E24CD
:10290000EFE722F01F022A4342F0100246F00106D0
:10291000CEF89850CEF89C200135CEF8A060013357
:102920000C30A9E700ED00E062B9000004AE000041
:1029300085B90000044B0522C3F89420BFF34F8FE4
:10294000BFF36F8F704700BF00ED00E0BFF35F8FF4
:10295000024B0022C3F89420704700BF00ED00E056
:1029600010B5034C01232278FFF77EFF207010BDC5
:102970004E17002008B5094A00231278FFF774FFAC
:1029800010F1160F03D0064B0022072800DD08BD0A
:10299000C3F89800C3F8A0200130F6E74E170020D6
:1029A00000ED00E014490868082810B521D8FFF7A9
:1029B000CDFF124C49680022904201F10C0105D173
:1029C0000F4B1870FFF7B6FF002010BDC4F8982019
:1029D00051F80C3C23F01F03134343F01003C4F8D9
:1029E0009C3051F8043C43F00103C4F8A03001329C
:1029F000E2E74FF0FF30E8E758AF000000ED00E0FD
:102A00004E17002008B5024B1B689847002008BDF0
:102A100058130020034B044A1860937843F00203D4
:102A20009370704758130020D8000020F0B587B08D
:102A300007460E4614460021102268461D4607F040
:102A4000FDFF02238DF802302A46054B01932146F3
:102A50006846CDE9047606F0BBF807B0F0BD00BFCC
:102A6000FF99000008B50649064821F00701C1F1A9
:102A7000005202F5802206F08BFB002008BD00BF4B
:102A800013310020003100200E4A0123C2F84035E6
:102A90004FF080424FF08051C2F87835D1F83001C4
:102AA000082808D1D1F83411052904D80648415C1A
:102AB00009B1C2F838364FF080430122C3F88025AF
:102AC0000020704700E00140BAB9000020B1034B7C
:102AD000800143F001031847704700BF60AE00005B
:102AE000054B0122C3F8002590F88E1009B1DA6079
:102AF00070471A605A6070470070004070B50879DE
:102B000000F01F04072C86B023D80B780B2B15D8A8
:102B1000DFE803F007070707140614140E10141259
:102B200004234A78032A18D0042A28D0314B06E01F
:102B30000523F6E70623F4E70723F2E72E4B059378
:102B4000022304932D48002304AA4FF48251FEF778
:102B500079FC6FF0150006B070BD01254A8844F27B
:102B60000A06B2423FD00CD844F20306B24216D055
:102B700044F20506B24234D0AAB3214BDFE7002568
:102B8000ECE744F21406B2422FD044F22806B242D7
:102B90002DD044F20F06B242EFD1032200E0002212
:102BA000C0F340101B0243EA005343EA053343EAF3
:102BB0000243220102F1804202F5E0420020C2F805
:102BC0001835230103F1804303F5E0438A79C3F804
:102BD0001425C3F810050B4B4A79234483F8A82029
:102BE000B9E70122DCE70222DAE70422D8E705226E
:102BF000D6E700BFE3B90000C4B90000A4AD0000EF
:102C000007BA0000000000202DE9F04188B04668B6
:102C1000731EFE2B02AF05460CD9764B7B61022357
:102C20003B617548002307F110024FF48251FEF713
:102C300009FC1BE00021714CDFF8C4C10A4626FAEA
:102C400001F313F001033CD01CF80130A3B96C462A
:102C500088B002AA6B48C2E90501032142F8101F9F
:102C600065484FF4C251FEF7EDFBA5466FF0150025
:102C70001837BD46BDE8F08104EB011895F811E066
:102C8000D8F81805BEF1000E18BF4FF0010E20F065
:102C9000807040EA0E60C8F8180501F1510000018B
:102CA00001322350D2B201310829C8D12B7CA3F1C3
:102CB0000801062916D8DFE801F0201522150915AC
:102CC000130001F1510000012350ECE702234B49AE
:102CD000012AC1F8F0356B7C13D9A3B14A4B9DE7AB
:102CE0000323F4E76C4688B002AA4849C2E90513F9
:102CF000032342F8103F0023B2E70023E7E7012354
:102D0000E5E7082B1BD8C1F8F43529685300D9B979
:102D1000E96899421CD26C4688B002AA3C48D3614B
:102D20000423C2E9050142F8103F334800234FF461
:102D30000151FEF787FB6FF00B00A54698E76C4644
:102D400088B002AA3349D1E7898901FB0333DFE761
:102D50002A4BA968C3F82C16AC46C3F83026BCE849
:102D60000F002D4C04F17C060FC6DCF800303360F8
:102D7000002626672B68A446B3B30FCB04F1900559
:102D800085E80F00E567A4F8A06068B3BFF35B8F28
:102D90005CE8003F4CE80062002AF9D1BFF35B8F8A
:102DA0001E49D4F890001E4A4FF400458C46314627
:102DB000E0FB05C100236046FDF7A2F90022CDE942
:102DC0000001002304F1080005F040FB94F878307E
:102DD00073B914484FF0FF324FF0FF3304F0CCFDCD
:102DE00000B12067206F43E70B48FFF779FEEDE75E
:102DF00000203DE732BA0000A4AD000000700040A2
:102E0000A800002050BA00008FBA00006ABA000083
:102E1000E4BA0000C1BA0000000000203F420F00E9
:102E200040420F005800002070B50C4616460C4D6D
:102E30000C484FF0FF324FF0FF3304F09DFD0123AB
:102E4000204685F878306E67FFF7DEFE95F878301B
:102E5000044603B110B1034804F068FD204670BD7C
:102E6000000000204000002038B50C460C4D0D48F5
:102E70004FF0FF324FF0FF3304F07EFD0023204679
:102E800085F878306B67FFF7BFFE95F87830044619
:102E900003B110B1034804F049FD204638BD00BF1E
:102EA000000000204000002010B50E4B0024C3F8A5
:102EB0000441D3F80421C3F81041D3F810211222A1
:102EC000C3F804230720FEF7A3FF224601210720B1
:102ED000FEF7CEFF0448836C13B9403004F026FDA2
:102EE000002010BD007000400000002038B5344BB9
:102EF000D3F80421002A56D00022C3F80421D3F8C5
:102F00000411304C01219960C3F80025E36F254678
:102F1000D3B3D4F89430B4F8A02033B104F17C01D9
:102F20009847012814D0022828D0B4F8A030B4F86B
:102F30009C209A4222D90133A4F8A030204BD3F828
:102F40002C26D3F8341689B202EB4102C3F82C26A2
:102F5000D4F8903023B9BDE838401A48FFF7C0BD17
:102F6000BFF35B8F55E8003F5A1E45E8002100295A
:102F7000F8D1BFF35B8F012BEDDC38BDD4F8903076
:102F800013B1114807F07BFC94F878304BB1606FB7
:102F900010B1002105F08AFA0C48BDE8384004F071
:102FA000C5BC0B48F9E7D3F810110029E5D0C3F8E8
:102FB0001021D3F8102101229A601A605A60DCE7D0
:102FC00000700040000000200800002040000020A9
:102FD00058000020084B70B5C31A0D4607499B10D6
:102FE000044659430648402206F047FD2B46014659
:102FF0002046BDE87040184770130020B76DDBB65F
:1030000018AB000073B50C4C0C4A4023041B009312
:103010000D460B460A49A41061430646094806F0CE
:1030200058FD011E05DA30462B4602B0BDE870405F
:10303000184702B070BD00BF701300203D9B000018
:10304000B76DDBB618AB0000002270B50121044655
:103050001046FEF70DFF0F4802F06AFC0E4B984237
:1030600015D107F018F826690C49304606F01DF90D
:1030700000280BDB012535642469084904F11C0094
:1030800006F013F9002801DBE564002070BD6FF045
:103090000400FBE7D53000000000AD0B88AF000056
:1030A00070B501460C2309484B43C418D4E90E56A9
:1030B000403300221844A26306F0CCFC2DB1324606
:1030C0002B460348BDE87040184770BD70130020C0
:1030D00018AB000010B1012804D07047034B1B6CE3
:1030E0005B0701D1FFF7DCBF704700BF7013002002
:1030F00008B54FF02003EFF3118183F31288BFF37B
:103100006F8F124A136843F002001060DA0708D488
:1031100081F31188BFF36F8F0120BDE8084006F0EE
:10312000C7BF4FF08043D3F80C24D3F80C34DB072F
:10313000EED5074806F08EFC81F31188BFF36F8F40
:103140000020BDE80840FFF7ABBF00BFC013002060
:10315000B01300207FB500220123CDE9022304AB88
:10316000CDE90433094ACDF800D06B46CDF804D040
:1031700006F0DDFC002805DB4FF4804200236846A2
:1031800004F0FAFB07B05DF804FB00BF5B9B000096
:1031900010B54FF02003EFF3118483F31288BFF3CF
:1031A0006F8F074A136823F00201DB07116002D416
:1031B000012006F0B9FF84F31188BFF36F8F10BDB3
:1031C000C01300202DE9F0413849BFF35B8F07465B
:1031D000012251E8003F41E800200028F9D1BFF367
:1031E0005B8F33B9324933484B60CB608A6006F05D
:1031F0006FF87B1E012B2BD8012F07D14FF0804396
:10320000D3F81C3403F00303012B21D007F0D1F9CC
:103210000546F8B9284B1B78E3B14FF080430222F2
:10322000C3F808230646DFF894804FF08044D4F8B2
:103230001824D4F81834D20316D503F00303012B55
:1032400001D0012F10D15DB386F31188BFF36F8FCA
:10325000BDE8F0814FF02003EFF3118683F312886D
:10326000BFF36F8F0125DEE7ADB13046FEF75EFD9F
:10327000D4F81835002BDAD1D4F80421002AD6D09E
:10328000C4F80431D4F804310123C4F81835C8F85F
:103290008031A360CBE70021212004F079FEE7E72D
:1032A0004FF080430222C3F80423D1E76C130020BF
:1032B0005C1300208C130020691B002000E100E05B
:1032C00008B5074807F01CF938B10648FFF7A2FB1C
:1032D0000448FDF7D5FC002008BD6FF01200FBE7A5
:1032E00054AB0000E93200000A2838B5074D044607
:1032F00004D1AB680D215B6828469847AB6803484A
:103300005B68E1B29847204638BD00BF54AB00006F
:1033100030B54068057B01F01F04B2F5001F85B091
:1033200044EA451405D1204602F0DEFD002005B038
:1033300030BD0025B2F5800FCDE9025514D1B3F1AF
:10334000007F0CBF042305238DF8083000231946A5
:1033500002AA204602F0E4FB234B98423DD1012112
:10336000204602F073FDE1E7B3F1C06F27D0B3F15F
:10337000007F14BF012302238DF80830836823FAED
:1033800001F111F00101E1D1B2F1A07FDED104F031
:103390001F03620903F5E07313D0012A20D1134AF9
:1033A00052F82330DB07D1D40DF10705294620461A
:1033B00002F0F6FC0E4B984206D00395C6E70323B5
:1033C000DAE74FF0A042EBE7284602F039FD064B62
:1033D0009842F2D06FF00B00A9E76FF01500A6E756
:1033E00051F82330FFDE00BF0000AD0B000300509A
:1033F0000400AD0B10B502F013FD044668B902F0ED
:10340000E7FC084B98420AD10748214602F0C2FC6B
:10341000224605210620FEF72BFD002010BD6FF08F
:103420000400FBE70000AD0B2D340000420970B52D
:10343000034602D0012A17D070BD0D4E3269516883
:103440000029F9D003F01F0301250C689D400029D5
:10345000F2D08A682A4002D04B68304698472CB197
:10346000236821461C46F2E7024EE7E72346F8E7C9
:1034700040AB00002CAB00002DE9FF4147683B7BCF
:1034800001F01F0545EA43150E4628460DF10701D8
:10349000144602F085FC14F4403F80460DD12846C6
:1034A00002F048FD3D4B984503D19DF8070002F01E
:1034B000C1FC002004B0BDE8F0810023194602AA37
:1034C0002846CDE9023302F02BFB344B984214D14D
:1034D000804503D19DF8070002F0ACFCA3034ED554
:1034E00040F206332340B3F5837F1AD00DD8062B64
:1034F00018D005D8B3B1022B33D06FF01500D9E73F
:10350000B3F5807FF9D101230CE040F2022293420F
:1035100029D0B3F5407F28D0B3F5007FEDD1022349
:1035200000E007238DF8083084F48033C3F30043B0
:10353000E0068DF8093054BFC4F340130323210380
:103540008DF80A3013D57A680123B340C2F80835E4
:10355000002202A9284602F0A3FB104B9842A8D0F3
:10356000CBE70423DEE70523DCE70323DAE7620386
:1035700041BF01237A68B340C2F80C35E8E7E3069F
:103580004FF0000354BFC4F3401403241A4602A9A9
:1035900028468DF8084002F0C3FADEE70000AD0BC4
:1035A00008B543681B68D3F80805D3F80C1503F079
:1035B00083FD034B984214BF6FF00F00002008BD3D
:1035C0000000AD0BB0B5044682B0002200AF01216F
:1035D0000320FEF74DFC63689D693A1D00212846D3
:1035E00006F0A0FB002827DB7B682A681979186899
:1035F00000F066FC00281FDB60682369114A00F1B7
:10360000080103F0FFFB104B984218D023686C466A
:1036100088B06A460D49C2E905134FF400739383DD
:103620000B4B42F8103F0B4800234FF4E251FDF7DB
:1036300009FF6FF00F00A5460837BD46B0BD00205A
:10364000FAE700BF593600000000AD0B6EBB00006A
:1036500003000001D4AD00000378012B08D0022B39
:1036600008D04BB9054B0B6301F1180004F05EB9AB
:10367000034BF8E7034BF6E7034BF4E70000AD0B11
:103680000100AE0B0200AE0B0100AD0B10B511F046
:1036900001034268046986B00FD1C1F342000128DA
:1036A0000ED0022815D00D4A0592022204920C4831
:1036B00004AA4FF48251FDF7C5FE6FF0150006E035
:1036C00013684FF0CC72C3F824250020616306B064
:1036D00010BD13684FF0CD62F5E700BF8EBB000050
:1036E000D4AD00002DE9F04F8BB000AF06460C467C
:1036F0009246BB60D0F80490D0F810804FF0FF32B3
:103700004FF0FF33404604F037F908F11803FB602F
:103710000022002308F1180004F02EF9484603F0B7
:10372000B5FBDFF804B10025554501D3002453E073
:10373000237A3B6013F0080172D1122207F11600C0
:10374000796007F07BF93B686068B968B86103F09D
:1037500001022068797513F0020F79683A753862B2
:1037600016D10AF1FF33AB4202D9237D5B0711D595
:10377000002A55D1202207F11401484603F0B2FB7C
:10378000584509D0294B984224D16FF00F0423E00B
:103790000A46F0E74022EEE70023F8684FF4804243
:1037A00004F0EAF8034610B36C4688B06A46204B32
:1037B000C2E90535032342F8103F1E4800234FF4A9
:1037C000C251FDF73FFE4846A54603F06FFB304669
:1037D000FFF7E6FE6FF00404484603F067FB40463F
:1037E00004F0A4F820462C37BD46BDE8F08FD8F889
:1037F0003010594504F10C0410D06C4688B06A466C
:103800000D48D561C2E90501042142F8101F09489D
:103810004FF40151FDF716FEA546DBE7013583E7BE
:103820006FF08504D8E700BF0000AD0B0B00AD0BB7
:10383000A0BB0000D4AD0000CABB00007FB5084BA0
:103840000593022304930748002304AA4FF48251EE
:10385000FDF7F8FD6FF0150007B05DF804FB00BF41
:1038600009BC0000DCAD00007FB5074B059307489D
:10387000022304AA4FF48251049306F0DBF96FF09F
:10388000040007B05DF804FB3FBC0000C4AD0000BD
:103890002DE9F04F8FB0064600AF06F1C803FB607C
:1038A0004FF0FF324FF0FF3306F1C80004F064F828
:1038B000F86804F089F832685368D2F81080186804
:1038C0009B884FF04002FA7507F117023A62012215
:1038D0007A62002287F82820062207F118043A634A
:1038E0000722FC6287F83420826807F1200195687E
:1038F0000222A8470546A0B16C4688B06A462C4B08
:10390000C2E90530032342F8103F2A484FF4C4515E
:1039100006F090F9A546002140F2676004F038FBFC
:10392000C6E708F12003BB604FF0FF324FF0FF33D2
:1039300008F1200003F044FF08F58B7A2946A946D8
:10394000637825783AF802BF45EA0325AAF80050C3
:10395000D8F83830002D18BF4FF00109B3B185EA0F
:103960000B0B00222BFA02F3DB070CD5012393404B
:103970002B42D8E90D0C14BF01230023C7E9002115
:10398000E047D7E9002101320D2AEBD101310329AB
:1039900004F10204D4D1B86803F08CFF40F26760F0
:1039A000002104F0F5FAB9F1000F3FF476AF7FE79C
:1039B00061BC0000C4AD000010B501461A4409699D
:1039C00040684C68944288B027D88968914224D3D3
:1039D000FBB140F2DC539A421DD840F2EE239A42EA
:1039E00094BF832285228DF807200DF10701012263
:1039F00006F027F958B10A4B0A48079306AA022392
:103A00004FF48251069306F015F96FF0040008B0E8
:103A100010BD8122E7E78722E5E76FF01500F6E7A2
:103A20008DBC0000C4AD0000B0B5034682B07F2954
:103A300040681C6900AF154635D8CB081C443B7163
:103A400001F0070101238B40227CDBB225B3134335
:103A50009A427B7125D00222391D06F0F2F8F0B1AE
:103A6000124A134B6C4688B0002D18BF13466A46A5
:103A700010491148C2E905134FF4007393830F4BAB
:103A800042F8103F4FF4E25106F0D4F86FF0040012
:103A9000A5460837BD46B0BD22EA0303D8E77B79C7
:103AA00023740020F5E76FF01500F2E715B8000069
:103AB000B4BC0000B8BC0000C4AD000003000001AD
:103AC0002DE9F04196B005694468286008AF206888
:103AD00006F016FD88B99B4B7B6302239A483B6333
:103AE00007F130024FF4825106F0A4F86FF015068A
:103AF00030463837BD46BDE8F08110220021A818B5
:103B000006F09CFF00224FF4FA63C5E901234FF44D
:103B1000C803EB6007F10C012123012220463B730F
:103B200006F08FF8014688B16C46224688B0874B74
:103B3000C4E90530032342F8103F83484FF4C251D3
:103B400006F078F8A5466FF00406D1E7112207F1D8
:103B50000C0006F073FF112207F10C01204606F05D
:103B600070F830B16C46224688B0794BC2E9053016
:103B7000E0E7EF23012207F10C0120463B7306F03A
:103B800060F820B16C46224688B0724BEEE7812384
:103B9000012207F10C0120463B7306F052F806465D
:103BA00030B16C46224688B06B4BC4E90530C1E7A2
:103BB00005F1200006F01EFD0122314605F1C80086
:103BC00006F01FFD237A002B00F08A80E06806F0E3
:103BD00097FC08B9614B7FE7638AE068217C43F476
:103BE0008032D0F810E0D0F8088013F0010F4FF0C9
:103BF000010CDEF800300CFA01FC14BF4CEA0303A0
:103C000023EA0C03CEF80030D8F80030984778B19A
:103C10006C46224688B0524BC2E90530032342F875
:103C2000103F49484FF4C25106F004F8A5465DE73D
:103C3000237C4C4A4FF0010808FA03F3C5E910232E
:103C4000E0688368DB6905F13C013BB14246984777
:103C500038B16C46224688B0434BDDE76FF08500F3
:103C6000F7E7A12307F10C01424620463B7305F01C
:103C7000E8FF014658B13D4B7B63022332483B636A
:103C800007F130024FF4825105F0D4FF5BE7402288
:103C9000FA70FA1C2068A38887F82810C7E908285A
:103CA0003A1DFA6206223A63072287F834208268B6
:103CB00007F12001D2F808800222C04708B12C4B3E
:103CC000DAE7E068217C83684FF0A0729C694FF0CE
:103CD0000073A04700B36C46224688B0254B9BE793
:103CE000A023012207F10C0120463B7305F0A9FF38
:103CF00008B1214BC0E705F1E004204932462046D7
:103D000006F0B1FD41F69A120023CDE900232046CA
:103D10000022002304F09AFB00220023CDE90623B1
:103D200000236FF00D02CDE90323CDE901330095A7
:103D3000134B4FF4C87205F5A07105F1480003F06C
:103D4000B7FCD5E6D6BC0000C4AD0000EFBC000057
:103D500022BD00004FBD00007ABD0000A3BD0000E1
:103D6000B8BD00003B9C0000DDBD000001BE0000AE
:103D700024BE000047BE000072BE00002F9C000061
:103D8000913800002DE9F0474668336800AF0546DA
:103D9000D3B96C4688B001686A463C48C2E905015F
:103DA0004FF4007191833A4942F8101F39484FF49B
:103DB000E251FDF747FBA5466FF01204336863BB81
:103DC0002046BD46BDE8F0870024F7E76D4688B081
:103DD0006A46314BC2E90530032342F8103F2D48B3
:103DE00000234FF4C251FDF72DFBAD46E8E76C46CA
:103DF00088B029686A462948C2E905014FF4007174
:103E00009183234942F8101F22484FF4E251FDF7F5
:103E100019FBA5466FF01204D2E7002CFAD1A04698
:103E20004FF00109746854F8380004EBC80A06F032
:103E300067FB03460028DAD054F838009AF80410DB
:103E4000BAF80630D0F810C0D0F808A0DCF800406E
:103E5000DA0754BF43F4B01383F4D01323F4801271
:103E600009FA01FEDB074CBF44EA0E0424EA0E0403
:103E7000CCF80040DAF80030984704460028A5D175
:103E8000336808F101084345CCD899E7A2BE000089
:103E900003000001E4AD0000CDBE0000ECBE000058
:103EA000036803F01F025B09026004D0012B034882
:103EB00018BF002070474FF0A0407047000300502B
:103EC0002DE9F04FDFF8849185B01546824600EB6E
:103ED00081014FF00108514503D1002005B0BDE834
:103EE000F08FDAF8003003F07F04C3F343277F2C10
:103EF0004FEA134308BF4FF0FF34222B00F2A38098
:103F0000DFE803F012232B442E3544A1A1A1A147E1
:103F100073A1A1A1A1A1A1A1A1A176818487A1A141
:103F2000A18A909396999C00C5F80C45601C1BD003
:103F300003A80394FFF7B4FF039B08FA03F3C0F848
:103F4000083501264FF0010B2CE0C5F81445631C21
:103F50000AD000264FF0000B24E0C5F80845E5E73D
:103F6000621CC5F808456CD10AF1040AB3E7631C6A
:103F7000C5F80C45F8D0012603A80394FFF790FF7D
:103F8000039B08FA03F3C0F80C35DBE7C5F81045CE
:103F9000DDE7C5F80845002FD9D1671CE4D000261D
:103FA000B3460627DAF80030019303F40052002AE2
:103FB00003A81CBF01264FF0000B0394FFF770FF0E
:103FC000039A019B00EB8200C3F3C114D0F80027D1
:103FD0003B0243EA840343EA0B0302EA0902134368
:103FE00043EA4603C0F80037BEE7C5F80C45D2E700
:103FF000C5F86045661CDAF80030B5D0C3F38033ED
:10400000002BB8D094E7C5F86445F3E7C5F86845D8
:10401000F0E7C5F86C45EDE7C5F82445621CA3D070
:10402000012697E7C5F8284580E7C5F83045F5E74C
:10403000C5F83445F2E7C5F83845EFE7C5F83C4523
:10404000ECE7002698E76FF0850047E7F0F8FCFF03
:10405000F0B54B79012B26D0032B21D110258B797C
:10406000032B1DD1CE790EB1012E19D10A7912B1CF
:10407000022A15D10E220B684468B3F5164F276843
:1040800067D02DD8B3F5165F66D016D8B3F5966F06
:1040900064D00AD8B3F5967F63D0B3F5167F63D0AA
:1040A0006FF0850054E00025D9E7B3F5166F5ED0B8
:1040B000B3F5965FF4D1384B3CE0B3F5E14F59D0FE
:1040C00007D8B3F5615F57D0B3F5964FE8D1334BBE
:1040D00030E047F61224A342E2D14FF4000329E076
:1040E000B3F5613F4AD013D8B3F5963F49D009D80C
:1040F0004DF6C024A34246D0B3F5614FD0D14FF462
:104100006B0317E0B3F5E13FCAD14FF0EB7311E059
:10411000B3F5612F3AD008D8214CA34239D0B3F57A
:10412000E12FBDD14FF0E86304E01E4CA342B7D1AC
:104130004FF080530469C7F82435436835431B6842
:104140002A43C3F86C2503C9231D83E8030000201C
:10415000F0BD4FF41D03EDE7134BEBE74FF49E2347
:10416000E8E74FF4A033E5E74FF41C33E2E74FF400
:104170001D23DFE70D4BDDE70D4BDBE74FF06C73E5
:10418000D8E70C4BD6E74FF46503D3E74FF07063E5
:10419000D0E74FF08063CDE700B0130000A04E00E1
:1041A00090D0030040420F000050270000C075006F
:1041B00000F03A0000903A012DE9F043002287B068
:1041C000804601210220FDF753FE0220FDF720FE6C
:1041D000D8F80470D8F810603C680021C4F80015C5
:1041E000C6F80080D7F80C906A46484605F09AFD5C
:1041F000051E25DB009BD9F8002019791868FFF708
:104200005FFE051E1CDB311D4046FFF721FF054602
:10421000B0B97B68990723D506F1180001F09EFF1D
:10422000234B984210D0234B05930223049322483A
:104230002B4604AA4FF482516FF00405FDF702F9F2
:10424000284607B0BDE8F083307E04F10C0204F587
:10425000907105F016FF337E0120984001F000FBBD
:104260000823C4F800353B7A53B9C4F81031D4F8A8
:1042700010317369C4F834350123C4F8383523602C
:104280007B689A075CBF4FF48073C4F804337B6883
:10429000DB0644BF4FF48003C4F804333369C4F829
:1042A00044350023C4F848350123A360E360C7E721
:1042B0000000AD0B14BF00002CAE0000F8B50446A2
:1042C00007690D4606F075F9B0B92E4B1B789BB106
:1042D0006426606805F05CFD00BB012005F0CFFEA0
:1042E000013EF6D10021212003F052FEF0E786F3D3
:1042F0001188BFF36F8FF5E74FF02003EFF31186BE
:1043000083F31288BFF36F8F6068314605F040FD7C
:1043100090B986F31188BFF36F8FEDE74FF020035C
:10432000EFF3118683F31288BFF36F8F6068314615
:1043300005F02EFD0028DAD03B691D7062683869EF
:104340001368C3F844050120C3F848050020C3F8EA
:104350002001D3F82051C3F858015268D3F858010E
:10436000D20608D5626812680820C2F800054FF42A
:104370008002C3F8042301229A6081F31188BFF3FD
:104380006F8FF8BD691B00202DE9F04387B04568A9
:104390000669D5F8208000AF3A460021404605F076
:1043A000C1FC041E1EDB3B68D8F800201979186890
:1043B000FFF786FD041E15DB686A441C25D000F05B
:1043C00037FB10F1130F044611D1364B7B610223EA
:1043D00035483B6107F110024FF4825105F039FD79
:1043E0006FF0120420461C37BD46BDE8F083411D26
:1043F0000BD12E4B7B6102232B483B6107F110024E
:104400004FF4825105F025FDECE7EB699847B5685C
:104410004FF00108D6E9023203EBC2039D4204D3F8
:10442000304605F02DFD0024DCE7286806F068F82A
:10443000B0B92B686C468AB019682B796A461C485B
:10444000D3614FF4007313841A4BC2E9050142F89B
:10445000103F15484FF4115105F0FBFCA546BFE78E
:1044600028682979EB88D0F810C0D0F80890DCF8DB
:104470000040DA0754BF43F4B01383F4D01323F49D
:10448000801208FA01FEDB074CBF44EA0E0424EA5E
:104490000E04CCF80040D9F800309847041EA1DB88
:1044A0000835B7E751BF00001CAE00007CBF00001C
:1044B00099BF0000040000017FB5054640682A69E5
:1044C000936D116EE3B9A9B1546D91661E460B460A
:1044D000D26D0292CDE90046EAB1002918BF194613
:1044E00003910022694601F077FF0D4B984214D0EA
:1044F0006FF00401286904B0BDE8704005F0EABC23
:10450000546D11B18B4228BF0B46002C936614BF2B
:104510001E460026DCE71146E2E704B070BD00BF8E
:104520000000AD0B10B5037886B00C46002B5ED1B1
:104530008A6E42B94B6E18696FF0730106B0BDE820
:10454000104005F0C7BC8B6D5BB19A421ED9294B58
:1045500005932948022304AA4FF48251049305F0DD
:1045600078FC236EA26E5BB19A4227D9214B05934A
:104570002148022304AA4FF48251049305F069FCF8
:10458000606E06B0BDE81040FFF796BF9B1A8B65C2
:1045900073B94B6C08334B648B6C013B8B6401F13A
:1045A000580204F14400483105F040FC6065D8E74A
:1045B0004B6D002BD5D013444B65D2E79B1A236675
:1045C0007BB9E36C0833E364236D013B236504F19D
:1045D000600204F1500104F14C0005F027FCE06595
:1045E000CEE7E36D002BCBD01344E365C8E706B0FC
:1045F00010BD00BFBDBF00001CAE00002DE9F04F94
:104600008BB000AFC7E9023243687B608B880469D6
:104610009A040646884636D44FF0FF324FF0FF33F7
:1046200004F1100003F0A8F9C4F80480D6F8109043
:10463000D6F804A099F86D3023B1D9F80030984528
:1046400000F01781B8F804C01CF4006F22D0744B3E
:104650007B62022373483B6207F120024FF48251D0
:104660006FF0850505F0F5FB23689B8813F4005374
:1046700004D1636004F1100003F058F928462C3788
:10468000BD46BDE8F08FA369002BC5D16368994290
:10469000C2D1CBE71CF0010F15D06D4688B033684E
:1046A0006A4661495F48C2E905134FF4007393837A
:1046B0005E4B42F8103F4FF4E25105F0CAFBAD46A5
:1046C0006FF01505D0E71CF0080F0BD0584B7B623C
:1046D000022354483B6207F120024FF4825105F057
:1046E000B8FBEDE7CCF34513082B01D0514BEEE7B7
:1046F000D8F80050504B9D4201D8504BE7E70AF1E3
:10470000080BBBE80F0007F1100EAEE80F00DBF856
:104710000030CEF800304A4B9D425DD9494B9D4256
:104720005DD9494B9D425DD9484B9D425DD9484B6F
:104730009D425DD9474B9D422CBF4FF000454FF045
:1047400080451CF0020FBD610CF0040353D0002B18
:1047500014BF032302233B77CCF300137B77DAF8F3
:104760000030D3F808351CF0020F4FEA5312CCF397
:10477000400103F01F0345D1002A40D0012A40F038
:1047800029813549012202FA03F3C1F80C3599F861
:104790006D302BB1504601F0E7FD002389F86D30F4
:1047A0004B462E4A07F11001504601F0A9FD2C4B53
:1047B000984259D06D4688B06A462A4BC2E9053006
:1047C000032342F8103F17484FF4C25105F041FB54
:1047D000AD466FF0040547E74FF00075B1E74FF0C5
:1047E0008065AEE74FF00065ABE74FF08055A8E776
:1047F0004FF00055A5E7003B18BF0123ABE74FF092
:10480000A041BFE74AB1012A40F0E78012490122E6
:1048100002FA03F3C1F80835B9E74FF0A041F6E713
:10482000DBBF00001CAE0000F5BF0000030000016C
:1048300017C0000036C0000047E8010065C0000056
:104840008FD003001FA107003F420F007F841E008E
:10485000FF083D0000127A000003005025450000CB
:104860000000AD0B96C00000012389F86D30C9F837
:104870000080012384F86C307B68586A431C0ED09A
:1048800005F044FB74300AD1564B7B620223564834
:104890003B6207F120024FF4845105F0DAFAFB681D
:1048A000002B73D163640023A36404F1580204F164
:1048B000480104F1440005F0B9FABB686065002BBB
:1048C0006CD1E3640023236504F1600204F150011C
:1048D00004F14C0005F0AAFAE06520680023236487
:1048E00048B183683BB10121083005F0B5FA23686F
:1048F000186905F000FE3046FFF7DEFD0022A06CCF
:104900001346834252D10023256D1946A94254D142
:104910009342A04638BF13464FF4FA5202FB03F508
:1049200058F8283B4FF4004C1B68B5FBF3F540F2F8
:10493000E730C83500214FF47A720023E5FB0C0103
:10494000FBF7DEFB02460B46404603F015F8002855
:104950003AD0264B7B62022323483B6207F12002B8
:104960004FF4825105F075FA00257868A56601F0CC
:10497000FBFC84F86D5030696FF0730105F0AAFA02
:10498000404603F021F86FF073056DE6FB681B6885
:104990006364002B87D0FB685B6885E7BB681B6896
:1049A000E364002B8ED0BB685B688CE7616C01EB25
:1049B000C301013349680A44A3E7E06C00EBC1007E
:1049C000013140680344A1E7256C15F1740F7FF4B1
:1049D0004BAEC9E7C1F80C15FFDE0023C3F808355C
:1049E000FAE700BFBDC000001CAE0000E7C0000039
:1049F00000F01F0240090DD001280ED10A4B03EB35
:104A000082030A4AD3F80007024042EA8102C3F84F
:104A1000002770474FF0A043F1E702F5E072002352
:104A200053F82230FFDE00BF00030050F0F8FCFF17
:104A300030B585B001238DF80430054602230DF111
:104A400007008DF80830039001F0FAF90C4B9842FA
:104A500004460FD1002302AA01A9284601F060F8FC
:104A6000A0420AD09DF8070001F0E4F96FF00400BD
:104A700005B030BD6FF01200FAE70020F8E700BF84
:104A80000000AD0B2DE9F04387B045680669D5F805
:104A90003C8000AF3A460021404605F043F9041E31
:104AA0001EDB3B68D8F8002019791868FFF708FA70
:104AB000041E15DB286C441C25D0FFF7B9FF10F14C
:104AC000130F044611D1364B7B61022335483B61FD
:104AD00007F110024FF4825105F058FA6FF01204FA
:104AE00020461C37BD46BDE8F083411D0BD12E4B3F
:104AF0007B6102232B483B6107F110024FF4825186
:104B000005F044FAECE76B6B9847B5684FF0010885
:104B1000D6E9023203EBC2039D4204D3304605F0CE
:104B20004CFA0024DCE7286805F0EAFCB0B92B68F1
:104B30006C468AB019682B796A461C48D3614FF4D9
:104B4000007313841A4BC2E9050142F8103F15485F
:104B50004FF4115105F01AFAA546BFE728682979E4
:104B6000EB88D0F810C0D0F80890DCF80040DA07E5
:104B700054BF43F4B01383F4D01323F4801208FA23
:104B800001FEDB074CBF44EA0E0424EA0E04CCF815
:104B90000040D9F800309847041EA1DB0835B7E77C
:104BA00051BF000024AE00007CBF000099BF000090
:104BB00004000001F0B504694768A56D236E85B057
:104BC00006463DB96BBB1946306905B0BDE8F040FB
:104BD00005F01DBA616D03BB31BB3A8F636D009167
:104BE000AA4228BF2A46A2661BB1A36D002B18BF9C
:104BF00013460193E36D02931BB1236E002B18BF84
:104C00001346002269463846039301F0ABFE0E4B73
:104C1000984217D06FF00401D6E79D4228BF1D4689
:104C2000DAE7616D1D46D8E701F06043B3F1005F3C
:104C3000D3D0082D28BF0825206F2A4605F0F0FEA6
:104C4000216FCAE705B0F0BD0000AD0B10B50378C9
:104C500086B00C46002B5ED18A6E42B94B6E186945
:104C60006FF0730106B0BDE8104005F0D0B98B6D50
:104C70005BB19A421ED9294B05932948022304AA05
:104C80004FF48251049305F081F9236EA26E5BB15B
:104C90009A4227D9214B05932148022304AA4FF4B5
:104CA0008251049305F072F9606E06B0BDE81040C1
:104CB000FFF780BF9B1A8B6573B94B6C08334B644D
:104CC0008B6C013B8B6401F1580204F144004831C4
:104CD00005F049F96065D8E74B6D002BD5D013443A
:104CE0004B65D2E79B1A23667BB9E36C0833E36418
:104CF000236D013B236504F1600204F1500104F1CE
:104D00004C0005F030F9E065CEE7E36D002BCBD029
:104D10001344E365C8E706B010BD00BFBDBF000087
:104D200024AE00002DE9F04F8FB000AFC7E902328A
:104D300043687B608B8804699A048046894639D42D
:104D40004FF0FF324FF0FF3304F1100002F014FE79
:104D5000C4F80490D8F804B0D8F810A0DBF80830F4
:104D60003B609AF86D3023B1DAF80030994500F0D5
:104D70002E81B9F804E01EF4006F22D0774B7B62DD
:104D8000022377483B6207F120024FF482516FF013
:104D9000850505F0FBF823689B8813F4005304D1C4
:104DA000636004F1100002F0C1FD28463C37BD46A7
:104DB000BDE8F08FA369002BC2D163689942BFD1CF
:104DC000C8E71EF0010F16D06D4688B0D8F8003045
:104DD0006A4664496248C2E905134FF4007393833D
:104DE000614B42F8103F4FF4E25105F0CFF8AD4669
:104DF0006FF01505CFE71EF0080F0BD05B4B7B6201
:104E0000022357483B6207F120024FF4825105F01C
:104E1000BDF8EDE7CEF34513082B01D0544BEEE778
:104E2000D9F800C0534B9C4501D8534BE7E70BF131
:104E30000C060FCE07F110050FC50FCE0FC53B684E
:104E4000634528BF63469C4696E803004B4B9C4550
:104E500085E8030017D24A4B9C4514D2494B9C4528
:104E600011D2494B9C455BD8484B9C455AD8484B7E
:104E70009C4559D8474B9C4558D84749474B484AC9
:104E80008C4588BF13461EF0020F7B620EF00403B0
:104E90004ED0002B14BF0323022387F82830CEF313
:104EA000001387F82930DBF80030D3F808351EF0FE
:104EB000020F4FEA5312CEF3400103F01F033ED11D
:104EC000002A39D0012A40F034813649012202FA01
:104ED00003F3C1F80C359AF86D302BB1584601F048
:104EE000F3FC00238AF86D3053462F4A07F1100176
:104EF000584601F0BBFC2D4B984263D06D4688B0FC
:104F00006A462B4BC2E90530032342F8103F144890
:104F10004FF4C25105F03AF8AD466FF004053AE798
:104F2000244BB0E7244BAEE7244BACE7244BAAE775
:104F3000003B18BF0123B0E74FF0A041C6E74AB1DC
:104F4000012A40F0F9801749012202FA03F3C1F85F
:104F50000835C0E74FF0A041F6E700BFDBBF000017
:104F600024AE0000F5BF00000300000117C00000E0
:104F700036C0000047E8010065C000000048E801B5
:104F80000024F40000127A00FF083D007F841E0018
:104F90003F420F001FA107008FD0030048E8010027
:104FA00090D00300000300504D4C00000000AD0BFA
:104FB00096C0000000093D0080841E0040420F00A2
:104FC00020A1070001238AF86D30CAF80090012360
:104FD00084F86C307B68186C431C0ED004F096FF8C
:104FE00074300AD1564B7B62022356483B6207F16C
:104FF00020024FF4845104F0C9FFFB68002B74D1E8
:1050000063640023A36404F1580204F1480104F12D
:10501000440004F0A8FFBB686065002B6DD1E36419
:105020000023236504F1600204F1500104F14C00F7
:1050300004F099FFE06520680023236448B1836889
:105040003BB10121083004F0A4FF2368186905F082
:1050500052FA4046FFF7AEFD0022A06C1346834291
:1050600053D10023256D1946A94255D193422646B6
:1050700038BF13464FF4FA5202FB03F556F8283BAB
:105080004FF4004C1B68B5FBF3F540F2E730C83530
:1050900000214FF47A720023E5FB0C01FBF730F896
:1050A00002460B46304602F067FC00283BD0264BF8
:1050B0007B62022323483B6207F120024FF48251B6
:1050C00004F064FF00257868A56601F0FDFB84F814
:1050D0006D50D8F810006FF0730104F098FF30465F
:1050E00002F072FC6FF0730555E6FB681B686364A1
:1050F000002B86D0FB685B6884E7BB681B68E364B1
:10510000002B8DD0BB685B688BE7616C01EBC30142
:10511000013349680A44A2E7E06C00EBC1000131A9
:1051200040680344A0E7256C15F1740F7FF433AE9B
:10513000C8E7C1F80C15FFDE0023C3F80835FAE70D
:10514000BDC0000024AE0000E7C0000070B5012320
:1051500083400E4ABFF35B8FDC4352E8001F01EA35
:10516000040542E80056002EF7D1BFF35B8F4FF4E1
:10517000803282400648C0F80823BFF35F8FBFF338
:105180006F8F0B4214BF0120002070BDE013002080
:105190000010014070B40E49D1E90034D01AC31890
:1051A00044F1000422F07F46C1E90034A6F5001363
:1051B000B3F5400F09D2074B1B681A0A1B069C194E
:1051C000054B42F10005C3E9004570BC03F048B847
:1051D000100C0020E4130020180C002011B3BFF3C2
:1051E0005B8F0123104A834052E800CF4CEA030C46
:1051F00042E800C10029F7D1BFF35B8F0B4A4FF49F
:1052000080338340C2F80433094BBFF35B8F1B68C4
:10521000BFF35B8FC340DB0742BF064B4FF4003246
:10522000C3F80021704700BFE013002000100140C8
:10523000DC13002000E100E00D4B1868010A0006B5
:10524000BFF35F8F0B4BD3F80435181841F1000101
:10525000B3F5801F0AD2084BD3E90023904271EBCB
:10526000030303D210F1807041F10001704700BFC9
:10527000E413002000100140180C00202DE9F04F2D
:1052800085B016461F469DF840A00446FFF75EFF16
:105290000190FFF7D1FFB04271EB070354D23E4BB0
:1052A000301A67EB0101984271F100014FD23B4B7C
:1052B00003EB0413D3E902239F4208BF96425ED05A
:1052C00037494FF4803804F1500508FA04F8AD006E
:1052D000C1F848832046ADB204F0B5FE26F07F4BFE
:1052E00005F1804504F5A87305F58835DC464FF0D7
:1052F00003090293029A2CF07F4341F82230C1F84F
:105300004483D1F80435274A6FF00200C01A604484
:1053100020F07F40904232D9286868B1D1F8043536
:105320000393A3EB0B0020F07F40B0F5000F26D9CC
:10533000204604F088FE039BBAF1000F07D109EB69
:10534000030C09F10109D5E7BAF1000F09D06FF09C
:10535000150520460199FFF741FF284605B0BDE835
:10536000F08F0123104ABFF35B8FA34052E8000F78
:10537000184342E800010029F8D1BFF35B8F0749C9
:105380000E98230101EB0412C8500F9B5360C2E931
:1053900002670025DDE700BF01008000000C00204F
:1053A00000100140FDFF7F00DC1300207FB51C4C86
:1053B0001C4BC4F80833C4F848331B4B00254FF08E
:1053C000FF304FF0FF31C4F80855C3E902014FF434
:1053D0008033C4F80433154B02264FF40032012108
:1053E000C4F804631120C3F880212A46FCF740FD6D
:1053F0001120FCF70DFD0E4A0123A360236013600A
:105400000C4B0D4A0093CDE9015500232846FFF7C8
:1054100035FF3046FDF7D6FE284604B070BD00BF0C
:105420000010014003000F00000C002000E100E02C
:10543000E013002095510000FFFF7F002DE9F743A6
:105440002F4CD4F8043399070BD5D4F8043143B169
:105450002C4A0023C4F80431D4F804311368013312
:105460001360D4F80433DA032AD5BFF35B8F264BDD
:1054700053E8002F22F0010143E800100028F7D183
:10548000BFF35B8FD30702D4D4F84031C3B10025FA
:10549000C4F84051D4F84031FFF7CEFE4FF020035E
:1054A000EFF3118283F31288BFF36F8F174BD3E9A9
:1054B0000267B042B94106D282F31188BFF36F8F01
:1054C00003B0BDE8F0834FF0FF384FF0FF39C3E978
:1054D0000289D3E900101D604FF48033C4F84833CB
:1054E000C4F84051D4F8403182F31188BFF36F8F74
:1054F0000029E5D0009032463B4628468847DFE742
:1055000000100140E4130020DC130020000C0020F8
:105510001FB5431C23D0012823DD134A134B9042AF
:10552000D4BF04461C46FFF787FE114B0F49D3E951
:105530000023801AB0F5000F28BF002404448C42D9
:1055400028BF0C46A2180B4900914FF00000CDE98E
:10555000010043F10003FFF791FE04B010BD034CBE
:10556000E1E70124DFE700BFFEFF7F00FFFF7F00D0
:10557000100C00209551000008B5FFF75DFE024BAE
:105580001B68C01A08BD00BF100C002010B5084CE5
:10559000012363601120FCF749FC064BC4F8083373
:1055A000C4F84833044B4FF40032C3F8802110BDD7
:1055B0000010014003000F0000E100E07FB5FBF7A1
:1055C0005DFE074B0593022304930648002304AABB
:1055D0004FF48251FBF736FF0020FDF7BDF800BF06
:1055E00042C10000BCAD00004FF08053D3F8302121
:1055F000082A06D1D3F83431052B02D8024AD05CF0
:1056000070470020704700BF65C10000024AD2F811
:105610000034002BFBD0704700E0014010B54FF084
:105620008053D3F83021082A4ED14FF08042002118
:10563000C2F80C11C2F81011C2F8381502F5404238
:10564000D3F80414C2F82015D3F80814C2F82415AE
:10565000D3F80C14C2F82815D3F81014C2F82C157E
:10566000D3F81414C2F83015D3F81814C2F834154E
:10567000D3F81C14C2F84015D3F82014C2F844150E
:10568000D3F82414C2F84815D3F82814C2F84C15DE
:10569000D3F82C14C2F85015D3F83014C2F85415AE
:1056A000D3F83414C2F86015D3F83814C2F864156E
:1056B000D3F83C14C2F86815D3F84014C2F86C153E
:1056C000D3F84434C2F87035FFF78EFF18B13A4B67
:1056D0003A4AC3F88C26FFF787FF18B1384BFB22F4
:1056E000C3F81825FFF780FF70B14FF080414FF0ED
:1056F0008053D1F8E42ED3F8583222F00F0203F091
:105700000F031343C1F8E43EFFF76EFF20B12D4BAA
:105710004FF40072C3F840264FF08053D3F8303175
:10572000082B1AD14FF08043D3F80024D20744BF8E
:105730006FF00102C3F800244FF08053D3F83431E6
:10574000052B02D8204AD35C3BB14FF01023D3F88D
:1057500008224FF08043C3F858254FF01023D3F8A8
:105760000022002A03DBD3F80432002B22DA174987
:1057700001234FF01020C1F804351224FFF746FF33
:10578000C0F80042FFF742FFC0F80442FFF73EFFB7
:105790000023C1F80435FFF739FFBFF34F8F0C49E1
:1057A0000C4BCA6802F4E0621343CB60BFF34F8F27
:1057B00000BFFDE710BD00BF00500040488103005E
:1057C00000F00040009002405FC1000000E0014096
:1057D00000ED00E00400FA0530B50468CCB1BFF379
:1057E0005B8FB4FA84F3C3F11F03DBB201229A404A
:1057F00024EA020250E8005FA54204D140E8002CF0
:10580000BCF1000FF6D1BFF35B8FE6D102480B70FD
:1058100030BD0248FCE700BF0000AD0B0200AD0B3D
:1058200010B50368CB40DB0714D401238B4002681A
:10583000BFF35B8F43EA020150E8004F944204D16A
:1058400040E8001CBCF1000FF6D1BFF35B8FEED136
:10585000014810BD0148FCE70000AD0B0400AD0B92
:10586000014BC3F80405704700F00140F7B504464A
:1058700018B1012823D003B0F0BD4FF080430222BD
:10588000C3F80823C3F80401D3F804210122DA6025
:10589000064601238DF8073042F210754FF080471D
:1058A000D4B1012CE7D1D7F80C3403F48033AEBB6C
:1058B00083B3012004F0E3FB013DF4D12AE04FF073
:1058C00080430022C3F80803C3F80021D3F8002165
:1058D00058600DF10706DCE7D7F8183403F480337D
:1058E0003EB9002BC7D0012004F0C9FB013DF3D124
:1058F000C1E7D7F8182402F003023260002BBAD0B7
:105900009DF80700012803D104F0B9FB013DC7D180
:10591000012CB0D1054B00225A71ACE7D7F80C240A
:1059200002F001023270002BEAD1F3E7E813002005
:10593000044B1A7922B9012218609A8002487047F4
:1059400002487047E81300200000AD0B0C00AD0BBF
:1059500010B54FF08043D3F800216AB10022C3F89C
:105960000021D3F800210122C3F80823114B5879F4
:1059700010B95A711B6898474FF08043D3F804213F
:1059800072B10022C3F80421D3F80421D3F81824FB
:10599000D3F81824920704D10122C3F818259A607D
:1059A00010BD0222C3F80823024BBDE810401B685B
:1059B00001201847E8130020036803F01F025B0969
:1059C000026004D0012B034818BF002070474FF03D
:1059D000A040704700030050034A430900F01F0035
:1059E000D35C1844C0B2704776C1000008B5FFF719
:1059F000F3FF034B083033F81000C0F3401008BD2C
:105A00002002002008B5FFF7E7FF034B083033F80A
:105A10001000C0F3400008BD2002002008B5FFF7C9
:105A2000DBFF034B083033F81000400B08BD00BF0C
:105A30002002002070B50546FFF7CEFF0C4C083061
:105A40000E4634F81030DA0508D5C3F3432304EBCF
:105A5000C302284654F8333052689847A3682BB1E4
:105A6000E26831462846BDE87040184770BD00BF67
:105A70002002002010B5FFF7AFFF124A083032F8BD
:105A80001030D9051CD5C3F3432123F4F85322F871
:105A9000103002F10E04002034F8023F13F4807F2E
:105AA00003D0C3F3432399420AD001303028F3D105
:105AB000002342F831300448BDE81040FFF7B0BE83
:105AC00010BD00BF2002002094020020F0B5014666
:105AD000104A114C00200125064602F14043A3F56F
