:10000000402D002081240000139500006D24000085
:100010006D2400006D2400006D240000000000002D
:100020000000000000000000000000008925000022
:100030006D24000000000000552500006D24000024
:100040004D2700004D2700004D2700004D270000E0
:100050004D2700004D2700004D2700004D270000D0
:100060004D2700004D2700004D2700004D270000C0
:100070004D2700004D2700004D2700004D270000B0
:100080004D2700004D2700004D2700004D270000A0
:100090004D2700004D2700004D2700004D27000090
:1000A0004D2700004D2700004D2700004D27000080
:1000B0004D2700004D2700004D2700004D27000070
:1000C0004D2700004D2700004D2700004D27000060
:1000D0004D2700004D2700004D2700004D27000050
:1000E0004D2700004D2700004D2700004D27000040
:1000F0004D2700004D2700004D2700004D27000030
:1001000053B94AB9002908BF00281CBF4FF0FF317E
:100110004FF0FF3000F00CB8ADF1080C6DE904CEE3
:1001200000F008F8DDF804E0DDE9022304B07047D0
:10013000704700BF2DE9F04786468C460846089E6A
:10014000154674461946002B40F0C2808542B2FA2B
:1001500082F245D94AB1C2F1200300FA02FC2EFA1C
:1001600003F3954043EA0C0C94404FEA154EA8B2B5
:10017000BCFBFEF8230C0EFB18CC08FB00F943EA8D
:100180000C43994528D9EB1808F1FF3704D299455B
:1001900002D9A8F102072B44A3EB0903A4B2B3FBD5
:1001A000FEFC0EFB1C330CFB00F044EA0344A042AF
:1001B00014D92C190CF1FF3304D2A04202D9ACF1AE
:1001C00002032C44241A43EA07401EB1D440002302
:1001D00034607360BDE8F0874746DDE76346F1E7CA
:1001E00092BB431B01214FEA154EAFB2B3FBFEFC9D
:1001F000200C0EFB1C330CFB07F840EA0343984528
:1002000062D9EB180CF1FF3004D2984502D9ACF159
:1002100002002B44A3EB0803A4B2B3FBFEFC0EFBCD
:100220001C330CFB07F744EA0344A7424ED92C19B0
:100230000CF1FF3304D2A74202D9ACF102032C44E3
:10024000E41B43EA0040C0E7C2F1200320FA03F1B7
:10025000954090402EFA03F303434FEA154EAFB298
:10026000B1FBFEFC0EFB1C10190C0CFB07F841EA5D
:100270000041884504FA02F422D969180CF1FF30D4
:1002800004D2884502D9ACF102002944A1EB08014F
:100290009BB2B1FBFEFC0EFB1C110CFB07F743EA03
:1002A00001439F420ED9EB180CF1FF3104D29F425B
:1002B00002D9ACF102012B44DB1B41EA004192E779
:1002C0006046E3E76146F7E76046A3E76346B7E7C2
:1002D000834206D916B9002108467BE7C6E900E04B
:1002E000F9E7B3FA83F78FB9834201D3724508D88F
:1002F000BEEB020460EB030301209C461EB9002103
:1003000068E73846FAE7C6E9004CF8E7C7F1200C81
:10031000BB4022FA0CF41C432EFA0CF120FA0CF329
:10032000B84001434FEA14490EFA07F5B3FBF9F858
:100330001FFA84FE09FB18300B0C08FB0EFA43EA87
:1003400000439A4502FA07F240D9E31808F1FF305A
:1003500004D29A4502D9A8F102002344A3EB0A0370
:1003600089B2B3FBF9F809FB183308FB0EFE41EA2A
:1003700003418E452CD9611808F1FF3304D28E4514
:1003800002D9A8F10203214443EA0040A0FB0298ED
:10039000A1EB0E014145CE46434602D306D14D4561
:1003A00004D2B9EB020E68EB04030138002EA6D08C
:1003B000B5EB0E0261EB030101FA0CFC22FA07F324
:1003C0004CEA0303F940C6E9003198E74046C5E727
:1003D0004346D9E7034613F8012B002AFBD1181A2C
:1003E0000138704708B50A4809F0E9FC28B90948FE
:1003F00008F0FAFB4FF0FF3008BD054809F0DFFCBC
:1004000008B90548F4E7054808F0EEFB0020F3E7DB
:10041000D4A400001CAE000033AE00004AAE0000C1
:10042000F7B52A4F2A4EC5B208244FF4003138469A
:1004300008F000FB08F013FBEB074CBF4FF48031D2
:100440004FF40031304608F0F5FA013C08F007FBA4
:100450001E484FF4803108F0EDFA08F000FB14F06C
:10046000FF044FEA5505E0D118484FF4003108F079
:10047000E1FA17484FF4803108F0DCFA08F0EFFA9F
:1004800012484FF4803108F0D5FA08F0E8FA114824
:100490000469836801A95B68984720B923680198BB
:1004A0005840C0F34030C0B220B909484FF4003181
:1004B00008F0C0FA08F0D3FA04484FF4003108F00D
:1004C000B9FA03B0BDE8F04008F0C9BA40AA00008C
:1004D00038AA0000D4A4000008B504484FF4003145
:1004E00008F0A8FABDE8084008F0B9BA38AA000038
:1004F00010B50C4C4FF40031204608F09BFA08F080
:10050000AEFA09484FF4803108F094FA08F0A7FADF
:1005100020464FF4803108F08DFABDE8104008F015
:100520009EBA00BF38AA000040AA0000072810B5F4
:10053000044605D9174808F057FB4FF0FF3010BDAF
:10054000154B1A68904223D001461860134808F0F2
:100550004BFBFFF7C1FF4420FFF762FFFFF7C8FF27
:10056000FFF7BAFF6FF03F00FFF75AFF0C4B185729
:10057000FFF756FFFFF7BCFFFFF7AEFF094B93F9FC
:100580000000FFF74DFFFFF7B3FF074808F02CFB13
:100590000020D4E767AE00004815002076AE0000CA
:1005A000A0AE0000400D002089AE000001460248C8
:1005B00083685B68184700BF4CA5000010B50A4C63
:1005C000204609F0FCFB30B90848216808F00CFB14
:1005D0004FF0FF3010BD002420460134FFF7E6FF46
:1005E000802CF9D10020F5E74CA50000A9AE000051
:1005F0002DE9F84F0A23284C90FBF3F5DFF89CA077
:1006000003FB15074FF4827303FB05454FF0000809
:100610004FEA480606F1080BA94659F8043B012B9E
:1006200025D1DAF8083031461B6850469847013624
:100630005E45F2D108F10808B8F1400F05F1200538
:10064000E6D14FF48273DFF8548003FB07440026A1
:100650001027A7F10805A146BD420CD10836402E4F
:1006600005F1100704F12004F3D1BDE8F88F3046FE
:10067000FFF79CFFDBE759F8043B012B07D1D8F8C3
:10068000083029461B68404698470135E4E728466C
:10069000FFF78CFFF9E700BF980000204CA5000091
:1006A000014806F087B900BF60150020014806F038
:1006B00081B900BFDC0B002010B5124C1248216834
:1006C00008F092FA2068FFF793FF206840B9FFF71F
:1006D0002DFF23680F333D2BA8BF0023236010BDDF
:1006E000431E0E2B01D80120F1E7A0F110030E2BC1
:1006F00001D80320EBE71F380E2894BF0520072000
:10070000E5E700BF74150020C5AE00000D490E4A94
:100710000B681268A3F13200904202DC32339A4235
:1007200002DD0A60012070470849094A0B68126817
:10073000A3F132009042F4DC32339A42F1DC002023
:10074000704700BF5C15002054150020581500208C
:10075000501500202DE9F84F524D5349D5F808B0F7
:10076000DFF84891DBF8003028469847002801461A
:10077000C9F8000004DA4E48BDE8F84F08F034BA72
:100780004C4C02234FF00A0A6360A4F810A02146E3
:10079000DBF804302846984700280146C9F80000D5
:1007A00001DA4548E8E7DFF81481454EB8F8003033
:1007B00033604449DBF8003028469847002801465A
:1007C000C9F8000001DA4048D6E704276760A4F8BA
:1007D00010A02146DBF8043028469847002801463F
:1007E000C9F8000001DA3948C6E7394DB8F80030D9
:1007F000316838482B6008F0F7F92968364808F066
:10080000F3F932684FF6DB739A4249DC2A689A4260
:1008100046DCFFF77BFF3368304C40F2FF329342F7
:1008200005D12A689A4213D10023236017E0B3F55B
:10083000FF7F04DC2B68934211D10323F5E740F2DC
:10084000FF118B420BD02B68934208D10123ECE7B8
:10085000B2F5007F15DA40F2FF139A4213D1204817
:1008600008F0C2F921681F4B01291A680DD1032A2B
:1008700001D104221A601A681B48BDE8F84F08F03D
:10088000B3B92760EBE70223CFE7022903D1042A9B
:10089000F1D10322EEE70329F9D00429EBD1E6E7F1
:1008A000BDE8F88F10A500004EAA00004C150020EE
:1008B000CFAE0000C40B0020EFAE0000E817002010
:1008C0005415002062AA00000EAF00002EAF0000F9
:1008D000501500204DAF000059AF000070150020EA
:1008E000DEB00000D80B002065AF000013B517483C
:1008F00008F07AF9FFF776FD38B1154808F074F979
:100900004FF0FF34204602B010BDFFF757FE0446FB
:1009100008B11048F2E74FF4004200230E48CDE939
:10092000002306F00DFE0D490D4809F0A8FA2246F5
:100930000C490D4809F005FC41F69A1200230A48BB
:10094000CDE9002306F0FCFDDCE700BF7EAF000030
:1009500099AF0000BDAF0000900D002055070000CA
:1009600060150020A1060000F00D00202DE9F04FD9
:1009700091B08407009302F004030293C2F3C20310
:1009800003F10103DDF86890039205460E460593D6
:1009900040F0BA81041D30B1072909D86FF01B005F
:1009A00011B0BDE8F08F01F00706341DC6F108064E
:1009B000009B4FF00008591E4FF0040A4FF0FF3320
:1009C0000193CDF810804746C34653460DB1009AB7
:1009D00022600598002800F3E8809848009A824237
:1009E00003D397488242C0F0E080039AA4EB050E3F
:1009F00092074FEA9E0000F103810F2F00F2B180B1
:100A0000002D00F0058107F140020DEB020C019A68
:100A10000CF8200C0CF8102C049801300490E7E03E
:100A20007A285DD84B280ED8472859D829282DD8A0
:100A3000252852D054D820287AD02338D0F1000B62
:100A40004BEB000B74E04C382E2849D8DFE800F05F
:100A50007048484848484848484848484B484848EB
:100A6000484848484859484B4B595959704B6D486C
:100A70007048184B184848827F4B48484B487F00C5
:100A800000204FF0000B4FF0040A38E02A38C0B2C3
:100A9000012202FA00F010EA0E0F49D110F0625C58
:100AA0002FD110EA020B43D06046013C5444B4FB02
:100AB000FAF40AFB04F4002D61D0A3EB050CA44466
:100AC000B4453FF66BAF002868D1042B47D159F8E5
:100AD000043B2360043404232AE0019A013A019282
:100AE0004FF0000B24E011F8010C6C2834D111F800
:100AF000023C00206C2B8346C5D14FF0080A5346B8
:100B0000D3E709F1070929F007090734F9E802AB2F
:100B100024F0070435B106982044B0423FF63EAFBA
:100B2000C4E900AB08344FF0000B4FF0080A5346FD
:100B300011F8010F002878D0BBF1000F7FF470AFDF
:100B40002528F5D1019B013301934FF0010B4FF0A4
:100B5000040AECE7584694E700208346A5E7082BF3
:100B600002D06FF015001BE709F1070929F007090A
:100B7000F9E80223C4E9002308340823D8E768B958
:100B8000042B02D109F10409A4E7082BE9D109F1EA
:100B9000070929F0070909F10809EDE7059A013A63
:100BA000059259F8042B009210E7039A900720D57C
:100BB000A4EB050E4FEA9E004FF0010CBEF5007F3E
:100BC000CFD20F2FCDD8F5B107F140020DEB020EB9
:100BD000C0B2019A0EF8200C0EF8102CBCF1000FD8
:100BE0003FF41AAF60F07F000EF8200C08F1010806
:100BF0000137C5F10802043406924FF6DA7E97E712
:100C00004FF0000CDAE7BCF1000F01D00136EFE73E
:100C1000029802360028EBD10098CDE90631FFF7A3
:100C2000D9FBDDE906310644E2E7631BB3F5806FCB
:100C300097D23DB9A6F10804E018B1E640A400003F
:100C400044BE0000029A28609B082B709DF810306B
:100C5000C2B1EB7085F80280B8F1000F05D008A88A
:100C60000022C5F1010C97420ED1C5F101030DF12F
:100C700020094FF0000A01930DF1300B574512D1B6
:100C8000601B8DE66B70E5E710F8013B190608D58F
:100C900004EB0C0EB64503F07F033FF67FAE04F87D
:100CA000013B0132DFE7B8F1000F03D099F90020D2
:100CB000002A17DB029BD3B11AF80B2004F8012B92
:100CC0000022019B98182044B0423FF667AE99F885
:100CD000000004F8010B00990392204609F087FBFD
:100CE000039A14440AF1010A09F10109C6E799F8C7
:100CF000002055F822300093029B45F822300098DE
:100D0000FFF768FB421CDCE76FF00D0048E600BF10
:100D10002DE9F04F97B000AF90F802A0D7F880B05F
:100D20003B62CBF3C0030446FA62BB61894641B91A
:100D3000457800780AEB800020444D4517D8A0EB99
:100D40000409E378FB61BAF1000F02D01BF0010F38
:100D500016D1FB6953BBFB6A1BB13A6A4946204670
:100D600098474D4628465C37BD46BDE8F08F461C87
:100D70003046FFF72FFB0130304409F10109DCE771
:100D8000237862687A62FA6A9900796104EB8301D8
:100D9000002A40F000814D460E4601EB0A094FF053
:100DA00000084E454CD101EB0A0610E01BF0020F83
:100DB000D1D023789A007A6162687A62FA6A04EB89
:100DC0008301002A77D14D4601EB0A0690461BF0BD
:100DD000050F0CBF02230123FB62FB6906EB430AEC
:100DE0000BF00203BB625645BCD016F8021B16F886
:100DF000013C54F82390AF4B994502D3AE4B994533
:100E000036D3BB69002B40D0786A07F0C6FE0028B5
:100E10003BD0E9468AB06A46A84B53617B6AC2E977
:100E200006314FF400731384A54B42F8103FA548D8
:100E300000234FF4125100F013FD023DCD46D2E7DE
:100E400016F8013BF96254F82300FFF7C3FAD7F80C
:100E50008430F96A01304BB1D7F8883098453EBFED
:100E6000D7F8843023F8180008F10108054498E702
:100E7000BB6923B1786A07F090FE0028C9D11BF046
:100E8000010F05D1FB6AED1AADE7BB6A002BAAD0B2
:100E90004846FFF79FFAD7F8843053B1D7F8883027
:100EA00098453FBFD7F88420431C22F8183008F13A
:100EB0000108054497E7BAF1000F72D01BF0040651
:100EC00072D0D046002607F1480052463B61B96215
:100ED00009F08DFAB96A3B6901EB0A02BA62FA6954
:100EE000F9695200FA60BA6A02EB41023A610BF00A
:100EF0000202BA603A69B96A8A4257D162787A6264
:100F00001BF0020F32440CBF4FEA580100211BF0C6
:100F1000010FD2B240F09F801BF0040F14BF404677
:100F20000020BB616270A070E1703A6A7969FB6A67
:100F300020469847051EFFF615AFBB6923707B6AF4
:100F40006370FB69E37041463A6AFB6A84F802A069
:100F500007F148009847B0F10008C0F2B5807B69FE
:100F60003A6AA9EB0A01C91AFB68C91AD7E90A0348
:100F700098470028C0F2AA80A84408EB00054FF06B
:100F8000000B07F1380AB34567D300213A6AFB6AC0
:100F900008469847E6E656464FF0000807F1380045
:100FA00093E75646D04697E7B04695E7BA6A12F8F7
:100FB000021BBA6212F8015C3E4A54F825009042C6
:100FC00002D33D4A90421ED3BA6932B1786A7B603F
:100FD00007F0E3FD7B6800288CD1BA6802BB08F1FA
:100FE000280207F1300C08F10100944407F158027F
:100FF00052FA80F008F102080CF8101C5FFA88F829
:1010000000F8105C76E7BA693AB1786A7B6007F05D
:10101000C4FD7B6800287FF46DAF1BF0010F09D081
:1010200006F1280207F13000711C161806F8205C42
:10103000CEB25FE71BF0040F3FF45CAF08F128026B
:1010400007F1300008F1010102EB000808F8105C1C
:101050005FFA81F84EE7002063E71BF80A3087F853
:10106000373054F82390D7F88430FBB133F81B8025
:101070003A6AFB6A012107F137009847002825DB0F
:101080000544B8F1000F06D14846FFF7A3F900F177
:1010900001081FFA88F83A6AFB6A414648469847B1
:1010A000002813DB05440BF1010B6CE7D7F88480B3
:1010B000DEE700BF40A4000044BE0000D5AF000042
:1010C00004000001FCA6000045464BE6054649E643
:1010D000014B1860704700BFEC0B002080B505463F
:1010E0000E461746984605F0C3FF034609F09EF9E1
:1010F000DFF81890044649F8003042463046394639
:10110000A84754F8090001F0D3F900BF0800000017
:101110002DE9F047058B04462807904611D4022993
:1011200005F0070540F0CC80204607F0BCFF78B101
:101130000138218B042811D8DFE800F0C2106D853A
:10114000950001290CBF45F0100545F020052583C9
:1011500088F31188BFF36F8FBDE8F08701F0070AAD
:10116000AA4500F0A5800027B9463E46A368002B9B
:1011700000F0BC8041F00801218388F31188BFF39F
:101180006F8FA168002900F0BA800D68002900F077
:10119000B680D1F80480334652462046C047002D21
:1011A00076D02B6829461D46F0E701F007035A1F49
:1011B000012A1BD8002221F00701062B276889B2DB
:1011C000C4E9002209D13B4603E0628B013262830D
:1011D0001B68002BF9D141F002012183204607F062
:1011E00062FF00287AD041F0200176E0042B0AD17A
:1011F00021F0070189B22183204607F054FF10B186
:1012000041F020012183218B01F0070AAA454FD02C
:101210000027B946AAE7236921F0070141F006013A
:10122000062DD3F8009021832DD1B9F1000F3FD0C6
:1012300041F00801218388F31188BFF36F8F3A4989
:101240002046C84729E021F00701236941F0040145
:1012500089B2042DD3F804902183E6D000273E46BE
:101260004FF0040A82E721F00701236941F00501EC
:1012700089B2052DD3F808902183D6D000273E46A9
:101280004FF0050A72E700273E464FF0060A6DE769
:101290002B4687E7B9F1000FD1D1EFF31188202356
:1012A00083F31288BFF36F8F238B23F0080323830C
:1012B000258BEA062ED525F01003238305F00705BC
:1012C0006669218B002EBFF670AF00232768C4E942
:1012D000003321F0070141F001012183218B01F04E
:1012E000070AAA454FF000097FF440AF002F9CD0B9
:1012F00041F00801218388F31188BFF36F8F002F1D
:10130000C8D03D68394633465246204607F0F7FEBE
:101310002F46F4E7AB067FF51BAF25F020032383B0
:1013200005F0070500E700BF2B9100002DE9F0470D
:10133000DFF85880044607464FF0010914B93846D3
:10134000BDE8F08794FAA4F5B5FA85F509FA05F336
:101350002E0108EB05156FEA030A24EA03042B7B30
:10136000002BEBD058F806301B694BB946440422D9
:1013700073682846196807EA0A0700F05DFADDE796
:10138000284698470028D9D1F0E700BF6CA7000095
:1013900030B51049104889B0002208F0D2FE0F4D38
:1013A0000F4900220023CDE9062300240E23CDE9B6
:1013B0000334CDE901440B4B00944FF440722846AE
:1013C00005F088FB0849284608F08BFD204609B047
:1013D00030BD00BFED130000B0120020280E002029
:1013E000401C0020DD16000089B00000014805F017
:1013F0007FB900BFDC0D00202DE9F04780461F4873
:101400000F4607F03CFF0646002830D0002528464E
:10141000BDE8F087237B6BB12368DB680BB1204606
:10142000984723681B69D3B963680422196820466A
:1014300000F002FA013610344C45EBD3B8F1000F3E
:10144000E5D0002DE2D02846FFF770FF0546002FBB
:10145000F7D000214FF4A47005F0ECFDF1E7204631
:1014600098470028E0D00AFA06F31D43E2E7044C4F
:10147000DFF8109005464FF0010ADDE788150020DF
:101480006CA700008CA70000014B53F820007047A8
:1014900084AA000008B5034608462BB1044A13602D
:1014A00000F06EFC002008BD6FF01500FBE700BFE8
:1014B000F00B002010B5044C237813B9034805F055
:1014C00017F90123237010BDEA170020DC0D00205E
:1014D00010B50446084807F0D2FE5CB1BFF35B8F3D
:1014E000064B53E8001F013943E80012002AF8D1E7
:1014F000BFF35B8F10BD00BF801500208415002056
:101500000020064BBFF35B8F014653E8000F43E812
:101510000012002AF9D1BFF35B8F704780150020BD
:1015200070B5FFF7EDFF084C084E0546B44200D3F6
:1015300070BD63685B792BB123685B6813B1294682
:10154000204698471034F1E76CA700008CA70000F4
:1015500010B5044C0449204607F04DFC034B1C60B9
:1015600010BD00BF540D002070AA000078150020A7
:10157000084A094808B500231370084A1360084A4E
:101580004FF400411360FFF785FFBDE80840FFF707
:10159000DFBF00BFEB1700207B920000801500200A
:1015A00084150020014600220148002307F044BCB6
:1015B000540D0020014807F0DABC00BF540D002094
:1015C000024B0146186807F026BD00BF78150020C1
:1015D000014807F05BBD00BF540D002070B5284BDB
:1015E000187800284BD0FFF7E5FF054690B1BFF310
:1015F0005B8F244B53E8001F013943E80012002A97
:10160000F8D1BFF35B8F204C204EB4422DD3284637
:10161000FFF7D6FF1E4B1F4C1B68002B19DD08F08F
:101620008EFD4FF47A72A0FB020302FB0131C30B63
:10163000D4E9002043EA41439B1A4FEAD13140F2FA
:10164000E93261EB0001934271F1000101D3FFF730
:1016500067FFD4E9003213F57A7342F10002C4E95E
:101660000032BDE87040FFF7B3BF63685B7923B118
:10167000236829461B68204698471034C5E770BD8B
:10168000EA170020841500206CA700008CA700003A
:1016900080150020A812002070B50D4D297861B981
:1016A0000120FFF7A9FE0B4C0B4EB44206D3FFF707
:1016B00095FF0028FBD101232B7070BD63685B7917
:1016C0001BB1236820469B6898471034EDE700BFA4
:1016D000EB1700206CA700008CA7000000212DE96B
:1016E000F0470846FFF788FE044658B340F26768A3
:1016F0004FF0000908F09AFE1B4B1C4A1B58136060
:1017000033B11B4B1B68092B02DD1A4804F0F0FFB4
:10171000194FDFF860A0002544B12046FFF706FE10
:10172000044618B94FF0FF384FF0FF39FFF756FF66
:10173000064628B9B5B942464B46504604F0FCFF70
:101740003546E9E74FF0FF384FF0FF39D2E72B6815
:101750009B691BB100221146284698471035BD42AF
:10176000F5D3E8E7054DFAE7080000007C150020F6
:1017700084150020DC0D00208CA700006CA7000061
:1017800013B5184807F07BFD174B1B7873B1EFF3C7
:101790001184202383F31288BFF36F8FFFF71EFF9E
:1017A00084F31188BFF36F8F02B010BD0F4B1B681D
:1017B000002BF9D050B900220023CDE900230C48BA
:1017C0004FF40042002305F0BBFEEDE70928EBD102
:1017D000074808F0C2FC074802B0BDE8104004F01A
:1017E00087BF00BF84150020EB1700207C15002068
:1017F000B0120020DC0D002010B5064B1B6804461B
:1018000098472146A060044807F092FBBDE81040CD
:10181000FFF7B6BFF00B0020540D0020044A054B23
:101820009B1AB1EBD30F34BF52F831000020704740
:10183000F4A600006CA70000084BC31A10B41B11DB
:1018400044680133237143689A714368196043689F
:1018500001225A7110BCFFF72DBE00BF6CA700001B
:101860002DE9F04F8FB004AFC1F34A28B8600D46A0
:1018700091467B600C0DB8F1000F63D0002607F194
:1018800014034FF0040B4FF00A0AC7F80C80C7E9A5
:1018900007667E620193CDF808B0CDF800A007F18D
:1018A0001C03F96832464846FFF732FAB0F5006F7C
:1018B00003461CD36C468AB0D9F8041004AB264802
:1018C000C3E9050140F2FF71D9611A464FF4007176
:1018D0001984224B42F8103F214833464FF41251ED
:1018E000FFF7BEFFA5462C37BD46BDE8F08FC0F31D
:1018F0000A0804F11700184420F0070080083B6034
:10190000FFF750FE68F35325044690B13B68154A33
:10191000C7E9083600F1100107F11403F961CDE9B8
:1019200000A3CDF808B0F96807F11C034846FFF79B
:10193000EFF968F353257B68B9682A46204607F01B
:10194000D4FCD0E704F1170020F007008008FFF76F
:1019500029FE0446EDE700BF9EB000000400000130
:101960002CA70000BF9200002DE9F04F87B0DDE901
:101970001269DDE9105A04460F4693469846A6B30D
:101980001021CDF80090334652460020CDF8149037
:10199000FEF7ECFF014605F117000844144B0391D4
:1019A00004F007040BF0070BE40020F0070003EA43
:1019B000412344EA8B1480081C43FFF7F3FD44EAFB
:1019C0000554054640B13EB10399CDF80090334629
:1019D00052461030FEF7CAFF434622463946284693
:1019E00007B0BDE8F04F07F080BC3146D3E700BF39
:1019F00000FE0F00406820B1034BC01A40F3CF0037
:101A000070474FF0FF307047F4A600000EB403B5E6
:101A100003AB014653F8042B0448019301F030F85E
:101A200002B05DF804EB03B0704700BFFF93000005
:101A3000CA0605D48B064CBF02490349FFF7E6BF2F
:101A4000704700BFDEB00000DDB000002DE9F04FB0
:101A500089B09A46149B06939DF84CB0159B05934C
:101A6000169B179E049304460D469046BBF1000F4B
:101A700000F09D8006F48073079307F01EFC06F0CB
:101A80000209024600283ED092492046FFF7BEFFD9
:101A90000746B9F1000F08D016F0440F35D18E4932
:101AA0002A462046FFF7B2FF074406F0010353B170
:101AB0008A4B8B4953F82B208A4B2046002A08BFBB
:101AC0001A46FFF7A3FF06F48073002B49D006F0F7
:101AD0000803002B63D1B8F1000F66D0824942465B
:101AE0002046FFF793FF0546069B3D44002B6DD132
:101AF000049B002B73D1F30700F1E58031462046AB
:101B0000FFF796FFD9E00746C3E7784B186800282F
:101B1000CAD0774B4FF47A791B68B5FBF3F54FF4D5
:101B20006161B5FBF0F300FB135509FB05F54FF0C0
:101B30003C0CB3FBF1F201FB1231B5FBF0FEB1FB43
:101B4000FCF300FB1E550CFB131109FB05F500917E
:101B5000B5FBF0F56749CDE901E52046FFF756FFF3
:101B6000A2E706F00803EBB1634B644953F82B205E
:101B70002046FFF74BFF0546B8F1000F05D05A4944
:101B800042462046FFF742FF0544BAF1000FABD0B2
:101B90005B4952462046FFF739FF0544A4E74FF062
:101BA000000AE1E706F00805E6E745469CE7BAF1DA
:101BB000010F069B06D1002B65D1049B002B7CD026
:101BC00000250CE0002BF8D04E485DE04E48069B07
:101BD0004E49224606F0B0FF049B002B69D0DFF887
:101BE0003081DFF83091049F3146102F204628BF06
:101BF0001027FFF71DFF4FF0000A554546DC059BF7
:101C000049461A782046FFF701FF4FF0010A1AF003
:101C1000070F03D141462046FFF7F8FE57453CD950
:101C2000059B494613F80A202046FFF7EFFE0AF10C
:101C3000010ABAF1100FEAD1374920464FF0000AE5
:101C4000FFF7E4FE5246059B9A5C344B995C11F019
:101C5000970F08BF2E2232492046FFF7D7FE0AF120
:101C6000010ABAF1100F1DD01AF0070F03D1414637
:101C70002046FFF7CBFE57455246E4D84146204662
:101C8000FFF7C4FEEBE720485D46A0E7414620464B
:101C9000FFF7BCFE0AF1010AAFE722492046FFF731
:101CA000B5FEC4E7059B3B440593049BDB1B0493F3
:101CB00099D1BBF1000F7FF41EAF204609B0BDE8FB
:101CC000F04F07F08FBB074A05492046FFF79EFEFD
:101CD00014E700BFE5B00000E9B0000094AA0000DE
:101CE000D1B70000E0B000000EB100009015002058
:101CF0008C150020F2B00000A8AA000012B100006C
:101D000018B1000035940000FF930000812A000004
:101D100025B100001DB1000027B1000039BD000051
:101D200029B1000023B1000073B542F20F738B425A
:101D300028BF0B4605680F4A04460521684605F092
:101D400059FC63680C495B6806460B22284607F07D
:101D50003BFB63683246694628465B6807F034FB04
:101D6000636806495B681B22284607F02DFB02B01A
:101D700070BD00BF49B2000048B100002CB10000A6
:101D8000074A00210123904206D8064A01B90123DF
:101D90001360054B1860704740085B000121F2E7B3
:101DA00040420F008C15002090150020014B0122AD
:101DB0001A707047EC170020014B00201960704723
:101DC000A8150020024B034801221A7007F00ABB35
:101DD000ED170020D8AA00000148FFF7A5BF00BFFB
:101DE000D8AA000010B5064B18680C46FFF74CFB4C
:101DF00021460346BDE8104002480F22184700BFA5
:101E0000A8150020D8AA000010B9074B1870704719
:101E1000064B1B781BB141F2883007F0CBBFA420E2
:101E2000002105F007B900BFEC170020ED170020D6
:101E30002DE9F843DFF874901D4F80460E460424C8
:101E400099F8005095B904F0E1F928463246414628
:101E500004F08EF9054604F0E3F9E5B101233B7087
:101E600099F8003073B93046BDE8F88332464146F0
:101E7000002004F07DF90546EFE72046FFF7C4FF98
:101E8000651E2C46002004F0B7F90028EBD03B7803
:101E9000002BF2D1E7E73B78002BE4D0013C204651
:101EA000FFF7B2FF3B78002BCAD1DCE7ED1700202B
:101EB000EC170020F8B5074F0D4604464618B4420B
:101EC00001D12846F8BD14F8011BBB6801485B68C6
:101ED0009847F4E7FCA40000014B03600020704722
:101EE0001CAB00002DE9F047064600AF0C46002968
:101EF00036D0E9468AB0D1E90012A3686D46214880
:101F0000A8464FF0050AC5E90501C5E9072348F8C9
:101F100010AF1D48424600234FF42151FFF7A0FCAB
:101F2000CD46D4E903126369AD461848C5F810A040
:101F3000C5E90501C5E907231348002342464FF4CC
:101F40002151FFF78DFCCD46E369114A0E4801216E
:101F500007F024FAA3690F4A0B48012107F01EFA83
:101F6000012E07D1EFF305830B4A0748103B31469A
:101F700007F014FA2146304604F068F9BD46BDE882
:101F8000F08700BF9EB100004CA70000CDB100005B
:101F9000FCB100000BB2000039B2000030BFFFF707
:101FA000FDBF00BF2DE9F0410B4EDFF8308006EB9E
:101FB0000807CC1B054632460949204608F017FAA7
:101FC000A01942460021083C08F01FFA2C6707F1CF
:101FD0000800BDE8F08100BF000000000400000020
:101FE0008CA70000074A936893F90E10002907DBBD
:101FF000526993421FBF044A536843F080535360B1
:10200000704700BFB017002000ED00E070B5294C0C
:1020100006460D462848294907F082FAA36AD904E2
:102020003CD52548264907F07BFA1720A36A1A05F4
:1020300004D52148234907F073FA18201D4CA36AE0
:102040009B0512D51C48204907F06AFAA36BA26AC7
:10205000100409D51D4A1848012107F09FF91EB147
:10206000A36A23F40043A3621920124CA36A590502
:1020700004D51148164907F053FA1A20A36ADA0565
:102080000ED50D48134907F04BFA1B20094A936AF5
:1020900043F47F43936200232B7070BD1620C5E785
:1020A000A36A9B04F2D504480B4907F039FA1C20B7
:1020B000ECE700BF00ED00E04CA700004CB20000D0
:1020C00062B2000073B2000086B200009FB200004E
:1020D000B4B20000CFB20000E7B2000010B5204C4F
:1020E0002049214807F01CFAA36A990136D51E48F9
:1020F0001E4907F015FA1E20A36ADA0104D51A4812
:102100001B4907F00DFA1F20154CA36A1B0304D5C9
:102110001548184907F004FA2120A36A590304D589
:102120001148154907F0FCF922200D4CA36A9A03C7
:1021300004D50D48114907F0F3F92320A36ADB0306
:1021400004D509480E4907F0EBF92420044A936AA4
:102150006FEA03436FEA1343936210BD1D20CBE780
:1021600000ED00E016B300004CA700002EB3000005
:1021700041B300005BB3000079B300009EB30000E0
:10218000B8B300002DE9F843364D804689463648FD
:102190003649174607F0C4F9AB6ADE0627D534493D
:1021A000314807F0BDF91124AB6A1D0704D5314948
:1021B0002D4807F0B5F912242A4DAB6A980718D5B7
:1021C0002D49294807F0ACF96E6BAB6A190646D564
:1021D0002A4A25483346012107F0E0F8B9F1000FFB
:1021E00003D0AB6A23F08003AB62132403E0102416
:1021F000DAE76FF015061B4DAB6ADA0704D5204904
:10220000194807F08DF91424AB6A9B0604D51D49C3
:10221000154807F085F91524124B9A6AD50602D4A1
:102220009A6A90070AD55B68190507D5414630467A
:1022300000F042FA10B180F309880224094B9A6A2F
:10224000920642BF5A6A22F400525A629A6A42F0D7
:10225000FF029A6200233B702046BDE8F8836FF0CE
:102260001506C2E700ED00E04CA70000E3B3000054
:10227000F9B3000073B200002CB4000044B40000B5
:102280005AB40000E7B200002DE9F041664B8AB075
:10229000D3F8048000AF0446C8F30805002686F38F
:1022A0001188BFF36F8F02F07F43B3F17F4F07D1E7
:1022B00002F00C03082B12D15C495D4807F030F99D
:1022C000002634460023FB71EB1E092B00F28A80A6
:1022D000DFE803F00A80837D888888888886100775
:1022E0004CBF0C460126EDE7524951484E4D07F0D0
:1022F00017F90023FB71EB6A9A0705D54E494C4844
:1023000007F00EF9002333E0EB6A002B01DA4B49AA
:10231000F5E7EB6A5B00F5D54949454807F000F958
:102320006B69A26943F480736B61BFF34F8FBFF396
:102330006F8F6B6932F8022C23F480736B61BFF3EB
:102340004F8FBFF36F8F4DF602739A4209D0AB6A7D
:10235000DBB27BB3FA1D01212046FFF713FF0346D2
:1023600006E02368374A3248012107F017F823684E
:10237000FA79DAB907F1080504F1200C20686168E0
:102380002A4603C2083464451546F7D17A6A002EFE
:1023900044D0C2F3080121B96FEA52226FEA422207
:1023A0007A6207F108011846FFF79CFD2837BD4601
:1023B000BDE8F081AB6A13F47F4F04D0F91D012012
:1023C000FFF724FECBE7AB6AB3F5803F9AD3FFF764
:1023D00085FEC4E7FA1D0021BEE7F91D0020EFE7E6
:1023E00019498CE7194A1A4B18F4F87FE8468AB065
:1023F00018BF13466A461749C2E905134FF4007324
:102400001384103D144BD56142F8103F0848002357
:102410004FF41151FFF724FAC54673E722F4FF7217
:1024200022F00102BCE700BF00ED00E0A7B400000D
:102430004CA70000D2B40000E9B400000AB50000C7
:1024400018B5000037B5000053B500008EB4000089
:1024500079B4000077B5000004000001024A536916
:1024600043F010035361704700ED00E0EFF3088084
:10247000EFF3098101B57246FFF706FF01BD00BF0A
:1024800002F048FB202080F3118808484FF40461D3
:10249000401880F30988EFF314800221084380F389
:1024A0001488BFF36F8F00F0C7F80000801F002072
:1024B000084B9B6883420BD1EFF3058343B1064B76
:1024C0005A6842F080525A605A6A22F400425A62B4
:1024D00007F0D8BDB017002000ED00E0094A93686E
:1024E0006FF00A019967084958674B6843F08053B9
:1024F0004B60002383F31188BFF36F8F9368986F4D
:10250000704700BFB017002000ED00E010B5044692
:10251000EFF31183202383F31288BFF36F8F0A4BED
:1025200058699860094B4FF000625A60084B026F7F
:102530001A600022436F426783F31188BFF36F8FE5
:1025400000F022F9204610BDB017002000ED00E099
:10255000D01500200B498A684FF030001044EFF38B
:10256000098C80E8F01F74467046FFF7CFFFA6463F
:1025700004498A6802F1300090E8F01F8CF3098862
:1025800070470000B01700201EF0040F0CBFEFF3DF
:102590000880EFF30980816911F8021C0229FFD03D
:1025A00001B506F0B2FF01BD40B2002807DB044AC6
:1025B0004109012300F01F00834042F82130704799
:1025C00000E100E040B200280CDB4309064900F0BE
:1025D0001F0020330122824041F82320BFF34F8F98
:1025E000BFF36F8F704700BF00E100E0054B420969
:1025F00000F01F0053F82220012303FA00F01040DE
:10260000704700BF00E100E040B20028A8BF00F121
:10261000604001F10101B8BF064B4FEA4111ACBF68
:1026200000F5614000F00F00C9B2B4BF195480F842
:102630000013704714ED00E00F4A08B50F4B22F06D
:102640007F029A60BFF34F8FBFF36F8FD3F888205C
:1026500022F47002C3F88820EFF3148323F00403FC
:1026600083F31488BFF36F8F03F0DAFE04F09EFD4E
:1026700000F060F803F018FF0000000000ED00E03B
:1026800042F8203C009B42F81C3C0A49019B42F85E
:10269000183C029B42F8143C21F001014FF080737A
:1026A00042F8043C42F8081C0023203A02654367C4
:1026B000704700BFDD100000094A0346906870B102
:1026C00013F1160F006E05D0A0F140029A4205D812
:1026D000834203D2814228BF002070470020704708
:1026E000B017002008B515460B4A0C4B9060026FDE
:1026F0001A600E4600F048F82C4686F309884FF021
:102700000000074B984720464FF000014FF00002B1
:102710004FF00003034C2047B0170020D0150020D5
:1027200031950000DD100000014B10221A61704746
:1027300000ED00E0044800232021C2180133302BB3
:1027400082F80013F9D1704700E100E008B5EFF31B
:102750000583064A103B02EBC30152F83300496877
:102760008847BDE80840FFF73DBC00BF74A50000E6
:10277000024B034A0348012100F08AB800000420FC
:10278000000000201CAB0000026E054B403A1A60AE
:10279000044A4021C3E901121846012100F082B821
:1027A000D415002000000B1508B503461048D0F8DA
:1027B0009020C2F30722013A934207D90D480E4AEE
:1027C000012106F0EBFD6FF0150008BDC0F8983050
:1027D0000A6822F01F021A4342F01002C0F89C203F
:1027E0008A6842F00102C0F8A0201846EDE700BF59
:1027F00000ED00E044A700008EB50000F0B50E46E5
:1028000085B01F4604460025B5420DDA606810B356
:1028100097B1431E18420AD0104A11482B46012195
:1028200006F0BCFD6FF01502104605B0F0BD1F2884
:10283000F2D921680B42EFD12368019306F09BFE89
:10284000A36801A90343D0B20393FFF7ADFF10F1D2
:10285000160FE7D0421C01350C34D5E7B4B50000A3
:1028600044A70000044B0522C3F89420BFF34F8F08
:10287000BFF36F8F704700BF00ED00E0BFF35F8FC5
:10288000024B0022C3F89420704700BF00ED00E027
:1028900010B5034C01232278FFF7B0FF207010BD64
:1028A000FF17002008B50B4A00231278FFF7A6FF98
:1028B00010F1160F07D0084A0021D2F89030C3F368
:1028C0000723984200DB08BDC2F89800C2F8A010A8
:1028D0000130F2E7FF17002000ED00E02DE9F043A2
:1028E00057485849D0F890300D68C3F307239D42EC
:1028F00085B000F2A180FFF7C1FF49680022954230
:1029000001F10C011AD1504C504F25706846FFF769
:10291000E3FADFF83C81DFF83C9106460025AE4241
:102920001FD1237846490020D1F89020C2F3072216
:1029300093427BDBFFF796FF00204CE0C0F8982025
:1029400051F80C3C23F01F03134343F01003C0F86D
:102950009C3051F8043C43F00103C0F8A030013230
:10296000CDE7009800EB05114FEA051CCB683B4012
:10297000B3F5000F44D00AD8B3F5001F2ED0B3F53D
:10298000800F34D0B3F5801F10D00135C7E7B3F105
:10299000807F3ED0B3F1007FF7D150F80C308868CB
:1029A0004A6806F0E8FD40F4802009E050F80C3059
:1029B00088684A6806F0DFFD40F0885040F4302017
:1029C000039001A92078CDE90123FFF7EDFE00284F
:1029D00028DA6FF0150005B0BDE8F08350F80C3030
:1029E00088684A6806F0C7FD40EA0800E8E750F842
:1029F0000C3088684A6806F0BEFD40EA0900DFE74F
:102A000050F80C3088684A6806F0B5FD40F08270D6
:102A1000D6E750F80C3088684A6806F0ACFD40F004
:102A20008870CDE7237801332370AEE7C1F8983082
:102A3000C1F8A000013377E74FF0FF30CBE700BFCC
:102A400000ED00E028AB0000FF1700200000F0FFC1
:102A5000000008110000020708B5024B1B689847E8
:102A6000002008BDE0150020034B044A186093784D
:102A700043F0020393707047E0150020FC0B002028
:102A8000F0B587B007460E4614460021102268466E
:102A90001D4607F0BAFC02238DF802302A46054B8A
:102AA000019321466846CDE9047604F06BFE07B039
:102AB000F0BD00BF9795000008B50649064821F013
:102AC0000701C1F1005202F5802205F0F8FF002055
:102AD00008BD00BFC7310020E41500200E4A0123C5
:102AE000C2F840354FF080424FF08051C2F878353F
:102AF000D1F83001082808D1D1F83411052904D8BB
:102B00000648415C09B1C2F838364FF080430122D3
:102B1000C3F880250020704700E00140E6B50000C2
:102B200020B1034B800143F001031847704700BFF9
:102B3000A0A70000054B0122C3F8002590F87610ED
:102B400009B1DA6070471A605A607047007000403F
:102B5000F8B50B798D7903F01F02072A1DD80C7880
:102B60000B2C15D8DFE804F0070707071406141428
:102B70000E10141204244878032811D0042821D000
:102B80002A4A06E00524F6E70624F4E70724F2E7DC
:102B9000274A2848012106F0F8FB6FF01500F8BD20
:102BA0000126488844F20A07B84239D00CD844F2CA
:102BB0000307B84216D044F20507B8422ED078B3C6
:102BC0001D4AE6E70026ECE744F21407B84229D094
:102BD00044F22807B84227D044F20F07B842EFD199
:102BE000032000E000204F7914491144C3F340133F
:102BF00081F890701B05110143EA042301F1804123
:102C000001F5E04143EA063343EA00430020C1F8FE
:102C10001835C1F81455C1F81005C0E70120E2E7E6
:102C20000220E0E70420DEE70520DCE70FB6000025
:102C3000F0B50000F4A6000033B60000000000204C
:102C4000F7B50D464FF0FF3363484FF0FF3203F006
:102C500073FD6E68731EFE2B05D9604A6048012122
:102C600006F093FB12E000235E485F4F1A4626FAF7
:102C700003F111F0010134D017F803C0BCF1000FCB
:102C80000CD15A4A5648012106F088FB6FF0150412
:102C9000514803F02DFD204603B0F0BD00EB031EAC
:102CA0006C7CDEF81815003C18BF012421F08071FF
:102CB00041EA0461CEF8181503F15101090101320E
:102CC00040F801C0D2B20133082BD0D12B7CA3F144
:102CD0000801062916D8DFE801F01715191509159E
:102CE000130003F1510424010151ECE702233D4993
:102CF000012AC1F8F0356B7C0AD95BB13C4AADE7DB
:102D00000323F4E73B4ABDE70023F0E70123EEE7A6
:102D1000082B10D8C1F8F4352B6851006BB9EB685B
:102D20008B420ED2344A00912D48012106F040FB1F
:102D30006FF00B04ACE7314AA4E79B8903FB011158
:102D4000EDE7284BA968C3F82C162F46C3F83026A8
:102D50000FCF2B4C04F164060FC63B68336000268E
:102D600026662B68274693B30FCB04F1780585E8D8
:102D70000F006566A4F8886048B3BFF35B8F57E81F
:102D8000003F47E80062002AF9D1BFF35B8F1D497D
:102D9000A56F1D4A4FF400400F463146E5FB007118
:102DA00000233846FDF7ACF90022CDE900010023ED
:102DB00004F1080004F0C4FB14484FF0FF324FF058
:102DC000FF3303F0B9FC00B12066246E60E70C48C5
:102DD000FFF7B0FEF0E700BF400000205EB6000045
:102DE000F4A6000000700040900000207CB60000B7
:102DF000BBB6000096B6000010B70000EDB60000AC
:102E0000000000203F420F0040420F005000002011
:102E100010B50E4B0024C3F80441D3F80421C3F8C5
:102E20001041D3F810211222C3F804230720FFF722
:102E3000BBFB224601210720FFF7E6FB0448836C19
:102E400013B9403003F054FC002010BD0070004066
:102E50000000002038B52E4BD3F80421002A49D0B9
:102E60000022C3F80421D3F804112A4C01219960EF
:102E7000C3F80025636E2546BBB3E36FB4F8882022
:102E800033B104F164019847012814D0022827D0F7
:102E9000B4F88830B4F884209A4221D90133A4F8D8
:102EA00088301B4BD3F82C26D3F8341689B202EBAA
:102EB0004102C3F82C26A36F23B9BDE8384015485A
:102EC000FFF738BEBFF35B8F55E8003F5A1E45E859
:102ED00000210029F8D1BFF35B8F012BEDDC38BD59
:102EE000A36F13B10C4807F038F90C48BDE838401F
:102EF00003F0FEBBD3F810110029F0D0C3F8102165
:102F0000D3F8102101229A601A605A60E7E700BFE7
:102F10000070004000000020080000205000002049
:102F2000084B70B5C31A0D4607499B100446594318
:102F30000648402206F05AFB2B4601462046BDE8D3
:102F40007040184704160020B76DDBB6C0A400001F
:102F500073B50C4C0C4A4023041B00930D460B46E2
:102F60000A49A41061430646094806F06AFB011E9F
:102F700005DA30462B4602B0BDE87040184702B073
:102F800070BD00BF04160020AB960000B76DDBB625
:102F9000C0A4000010B5EFF31184202383F312883E
:102FA000BFF36F8F074A136823F00201DB0711603C
:102FB00002D4012006F06FFD84F31188BFF36F8FF8
:102FC00010BD00BF54160020002270B50121044638
:102FD0001046FFF719FB0F4801F026FF0E4B9842F1
:102FE00015D101F031FF26690C49304606F0AAF8E8
:102FF00000280BDB012535642469084904F11C0015
:1030000006F0A0F8002801DBE564002070BD6FF039
:103010000400FBE7193100000000AD0B54AB0000C9
:103020001FB500220123CDE90223094ACDF800D0C3
:103030006B46CDF804D006F031FB002805DB4FF4D9
:1030400080420023684603F077FB05B05DF804FB7F
:10305000C996000030B4104B0C2202FB003301462D
:103060000020D3E90E529863EFF31180202484F3FB
:103070001288BFF36F8F1C6C04F0C00444F002048C
:103080001C6480F31188BFF36F8F1DB12B4603487A
:1030900030BC184730BC704704160020C0A40000A4
:1030A00010B4EFF31182202383F31288BFF36F8FE4
:1030B0001748016841F002040460C80707D482F38E
:1030C0001188BFF36F8F012010BC01F0CFBE4FF00D
:1030D0008041D1F80C04D1F80C14C907EFD5EFF3F7
:1030E000118083F31288BFF36F8F0A490B6C03F0D2
:1030F000C00343F002030B6480F31188BFF36F8FAA
:1031000082F31188BFF36F8F002010BCFFF7A2BFBE
:10311000541600200416002010B1012804D0704776
:10312000034B1B6C5B0701D1FFF794BF704700BFD7
:10313000041600202DE9F0413849BFF35B8F0746A4
:10314000012251E8003F41E800200028F9D1BFF3F7
:103150005B8F33B9324933484B60CB608A6006F0ED
:1031600004F87B1E012B2BD8012F07D14FF0804391
:10317000D3F81C3403F00303012B21D006F0ABFE7F
:103180000546F8B9284B1B78E3B14FF08043022283
:10319000C3F808230646DFF894804FF08044D4F843
:1031A0001824D4F81834D20315D503F00303012BE7
:1031B00001D0012F0FD155B386F31188BFF36F8F64
:1031C000BDE8F081EFF31186202383F31288BFF36B
:1031D0006F8F0125DFE7ADB1304606F0BDF9D4F8B9
:1031E0001835002BDBD1D4F80421002AD7D0C4F83D
:1031F0000431D4F804310123C4F81835C8F88031FB
:10320000A360CCE70021212003F014FFE7E74FF093
:1032100080430222C3F80423D2E700BF0016002037
:10322000F015002020160020121C002000E100E014
:1032300008B5074806F0C3FD38B10648FFF714FC8F
:103240000448FDF745FF002008BD6FF01200FBE7C2
:10325000FCA40000593200000A2838B5074D044686
:1032600004D1AB680D215B6828469847AB680348DA
:103270005B68E1B29847204638BD00BFFCA400005F
:10328000F0B54068057B01F01F0444EA4514056968
:1032900087B0002D64D0B2F5001F00F1100506D1F3
:1032A0002146284606F088FC002007B0F0BD01AE9C
:1032B0000027B2F5800F0197776039D1B3F1007F15
:1032C00014BF052304238DF804300023CDE90463E3
:1032D0000393836823FA01F111F001011AD1B2F1CD
:1032E000A07F17D104F01F03620903F5E0732AD011
:1032F000012A3BD11F4A52F82330DB070AD40DF1D3
:10330000030632462146284602F08EF81A4B9842B0
:103310001CD0029603AA2146284601F047FF174B0E
:10332000984220D101222146284602F0E1F8BBE76D
:10333000B3F1C06F05D0B3F1007F14BF01230223A6
:10334000C1E70323BFE74FF0A042D4E73146284648
:1033500002F0C8F8094B9842DBD06FF00B00A4E7ED
:103360006FF08500A1E76FF015009EE751F823305C
:10337000FFDE00BF000300500400AD0B0000AD0BEA
:1033800038B545682B69B3B11035284602F09AF874
:10339000044680B90146284602F060F8084B98427E
:1033A0000BD108492246284602F038F8224605216A
:1033B0000620FFF729F9002038BD6FF00400FBE775
:1033C0000000AD0BC9330000420970B5034602D0BE
:1033D000012A17D070BD0D4E326951680029F9D00D
:1033E00003F01F0301250C689D400029F2D08A6874
:1033F0002A4002D04B68304698472CB123682146BA
:103400001C46F2E7024EE7E72346F8E7E8A400008F
:10341000D4A400002DE9F043466840F20635D006FA
:10342000337B87B002EA050554BFC2F34010032086
:1034300001F01F07B5F5837F144647EA43178DF85F
:10344000030044D00FD8062D18D007D8B5B1022DEF
:103450003FD06FF0150007B0BDE8F083B5F5807F71
:10346000F7D101250AE040F20222954233D0B5F5AA
:10347000407F32D0B5F5007FEBD1022522032ED557
:10348000726801238B40C2F80835326992BB07F09D
:103490001F037F092BD0012F79D13F4A02EB830212
:1034A00084F48033D2F80017C3F30043C4F34044DC
:1034B00044EA430421F4E16144EA800421F0070175
:1034C00044EA05230B43C2F800370020C3E7072571
:1034D000D4E70425D2E70525D0E70325CEE763032B
:1034E00041BF012372688B40C2F80C35CDE74FF025
:1034F000A042D3E710360DF102023946304601F002
:1035000093FF14F4403F80460CD13946304606F014
:1035100051FB224B9845D8D19DF80210304601F05E
:10352000DBFFD2E701AB4FF0000903AA3946304672
:10353000CDE90439CDE90199CDF80C9001F036FEC2
:10354000164B984285D114F4003315D09DF8033002
:103550008DF80E3084F48034C4F300444B4603AA43
:10356000394630468DF80C508DF80D4001F0D8FEEC
:103570000A4B9842CDD06CE7CDE9043303AA0DF194
:10358000030339463046039301F010FEF0E703F5DC
:10359000E07352F82330FFDE000300500000AD0B53
:1035A00002780B69012A08D0022A08D04AB9064AD3
:1035B0005A6203F1140003F09BB8044AF8E7044A86
:1035C000F6E7044AF4E700BF0000AD0B0100AE0BC4
:1035D0000200AE0B0100AD0B2DE9F04FD0F81090BA
:1035E000D0F8048085B005460C461746029309F1D1
:1035F000040A4FF0FF324FF0FF33504603F09CF8BF
:1036000009F1140B00230022584603F095F84046B8
:1036100002F0FAFB7B1E00260393B74201D8002379
:1036200022E0039B217AB34283BF237D83F004030E
:10363000C3F3800300230193029B0093D4E900238A
:10364000284600F08FF8034670B94FF480420023FB
:10365000584603F071F898B1404602F0E5FB284661
:1036600000F06EF86FF004034046029302F0DCFBBA
:10367000504603F03DF8029B184605B0BDE8F08FB8
:10368000D9F82430034A934204F10C04EAD10136FC
:10369000C3E700BF0000AD0B98B504464068234661
:1036A000826900AF00F1080102F06AFB0E4B9842FC
:1036B00017D023686C4688B06A460C49C2E90513E6
:1036C0004FF4007393830A4B42F8103F09480023DC
:1036D0004FF4E251FEF7C4F86FF00F00A546BD4667
:1036E00098BD0020FBE700BF0000AD0BB4B70000A1
:1036F000030000011CA7000008B5CA074368006961
:103700000AD4C1F34202012A09D0022A0FD00A4A80
:103710000A48012105F039FE6FF0150006E01B682C
:103720004FF0CC72C3F824250160002008BD1B684F
:103730004FF0CD62F6E700BFD4B700001CA7000031
:1037400008B543681B68D3F80805D3F80C1502F0D8
:1037500071FC034B984214BF6FF00F00002008BDAE
:103760000000AD0B2DE9F04186B00C4647689DF88E
:1037700034801546002112220DF106001E4606F087
:1037800044FEBDF830208DF8052004F0010314F04C
:1037900008028DF804300296049509D0124A1348A5
:1037A000012105F0F2FD6FF0850006B0BDE8F08163
:1037B000A10705D4B8F1000F11D1002BF3D12022BD
:1037C00001A9384602F04CFB094B984209D00B3353
:1037D00098420CBF6FF00F006FF00400E5E7402245
:1037E000EEE70020E1E700BFE6B700001CA70000FD
:1037F0000000AD0BB0B5034682B07F2940681C695C
:1038000000AF154636D8CB081C443B7101F00701C8
:1038100001238B40227CDBB22DB313439A427B7190
:1038200026D00222391D05F0C7FFF8B1134A144B08
:103830006C4688B0002D18BF13466A461149C2E98C
:1038400005134FF4007393830F4B42F8103F0F485A
:1038500000234FF4E251FEF703F86FF00400A54691
:103860000837BD46B0BD22EA0303D7E77B7923744E
:103870000020F5E76FF01500F2E700BF41B400004B
:103880000CB8000010B80000030000010CA70000F5
:1038900008B5044A0448012105F077FD6FF00400E3
:1038A00008BD00BF2EB800000CA7000013B50146EC
:1038B0001A44096940684C68944222D88968914248
:1038C0001FD3D3B140F2DC539A4218D840F2EE2312
:1038D0009A4294BF832285228DF807200DF10701BB
:1038E000012205F069FF30B10748084A012105F0BF
:1038F0004CFD6FF0040002B010BD8122ECE787227E
:10390000EAE76FF01500F6E70CA7000050B80000DA
:1039100030B505694468286087B0206806F04FFA22
:1039200040B92748274A012105F02FFD6FF0150007
:1039300007B030BD10220021A81806F066FD002255
:103940004FF4FA63C5E901234FF4C803EB60012289
:10395000212301A920468DF8043005F02DFF0346F0
:1039600038B1194A1648012105F018FD6FF004001E
:10397000DEE70146112201A806F047FD112201A948
:10398000204605F019FF034608B1104AEAE7EF2385
:10399000012201A920468DF8043005F00DFF0346F1
:1039A00008B10B4ADEE78123012201A920468DF8E8
:1039B000043005F001FF0028BAD0064A0346D1E7DB
:1039C0000CA7000077B8000090B80000C3B8000052
:1039D000F0B800001BB900002DE9F04746683368D5
:1039E00000AF0546D3B96C4688B001686A463748CF
:1039F000C2E905014FF400719183354942F8101F67
:103A000034484FF4E251FDF72BFFA5466FF0120446
:103A1000336813BB2046BD46BDE8F0870024F7E7B6
:103A20002D4A034601212B4805F0B8FCF2E76C460D
:103A300088B029686A462948C2E905014FF4007137
:103A40009183234942F8101F22484FF4E251FDF7B9
:103A500007FFA5466FF01204DCE7002CFAD1A1465F
:103A60004FF00108746854F8390004EBC90A06F0F5
:103A7000A6F903460028DAD054F839009AF8041061
:103A8000BAF80630D0F810C0D0F808A0DCF8004032
:103A9000DA0754BF43F4B01383F4D01323F4801235
:103AA00008FA01FEDB074CBF44EA0E0424EA0E04C8
:103AB000CCF80040DAF80030984704460028AFD12F
:103AC000336809F101094B45CCD8A3E757B9000089
:103AD0000300000124A7000082B90000A1B9000082
:103AE000036803F01F025B09026004D0012B034846
:103AF00018BF002070474FF0A040704700030050EF
:103B00002DE9F04FDFF89491DFF894A185B01546C8
:103B1000834600EB810140F2FF18594503D1002094
:103B200005B0BDE8F08FDBF800305E04C3F3C322BC
:103B3000C3F3080400F1AC805B0C19F80270444533
:103B400008BF4FF0FF34222B00F2A580DFE803F01E
:103B500012191F22252B22A3A3A3A33B68A3A3A36F
:103B6000A3A3A3A3A3A36B818487A3A3A38A9194F4
:103B7000979A9D00C5F80C45601C5ED10BF1040BB3
:103B8000CBE7C5F81445621CF8D000265FE0C5F805
:103B90000845F1E7C5F81045F5E7631CC5F8084589
:103BA000ECD0002604E0661CC5F80C45E6D00126E2
:103BB00003A80394FFF794FF039B012202FA03F387
:103BC000C0F80C3508E0C5F80845002FDBD1631CB0
:103BD000D4D0002632460627DBF80030019303F4E8
:103BE0000040002818BF002203A8009218BF012639
:103BF0000394FFF775FF039C019B009A00EB840080
:103C0000C3F3412CD0F800473B0243EA8C03134333
:103C100004EA0A04234343EA4603C0F80037ADE749
:103C2000C5F80C45D1E7C5F86045601CDBF80030ED
:103C3000A4D0C3F30043002BB9D003A80394FFF72B
:103C40004FFF039B012606FA03F3C0F808353246FE
:103C5000C2E7C5F86445E8E7C5F86845E5E7C5F893
:103C60006C45E2E7C5F82445621C87D00022012696
:103C7000B2E7C5F828457FE7C5F83045F4E7C5F851
:103C80003445F1E7C5F83845EEE7C5F83C4573E73C
:103C90006FF0150044E76FF0850041E7C9B90000F7
:103CA000F0F8FCFF2DE9F74306460022012102202F
:103CB000FEF7AAFC0220FEF777FC776835693C68BE
:103CC0004FF00008C4F800852E60D7F80C9001AAC8
:103CD0004146484605F0CDFD002837DB019BD9F869
:103CE000002019791868FFF70BFF00282EDB6B7A8C
:103CF0003169012B03D0032B26D14FF01008AB7A8A
:103D0000032B21D195F80BC0BCF1000F02D0BCF100
:103D1000010F19D12A7A12B1022A15D10E226B682D
:103D20007068B3F5164F00687BD02DD8B3F5165FD9
:103D30007AD016D8B3F5966F78D00AD8B3F5967FB7
:103D400077D0B3F5167F77D06FF0850003B0BDE86C
:103D5000F083B3F5166F72D0B3F5965FF4D15C4B78
:103D60003EE0B3F5E14F6DD007D8B3F5615F6BD09E
:103D7000B3F5964FE8D1574B32E047F6122E734514
:103D8000E2D14FF400032BE0B3F5613F5ED013D8CE
:103D9000B3F5963F5DD009D84DF6C02E73455AD085
:103DA000B3F5614FD0D14FF46B0319E0B3F5E13FA8
:103DB000CAD14FF0EB7313E0B3F5612F4ED009D8A1
:103DC000DFF814E173454CD0B3F5E12FBCD14FF0CF
:103DD000E86305E0DFF804E17345B5D14FF08053A7
:103DE000C0F82435736848EA0C081B6842EA0802E8
:103DF000C3F86C250B1DD5E9010183E803007B683E
:103E000099073DD505F1180001F0A8FC344B984204
:103E10002AD03448344A012105F0B7FA6FF0040083
:103E200094E74FF41D03DBE7304BD9E74FF49E23B3
:103E3000D6E74FF4A033D3E74FF41C33D0E74FF469
:103E40001D23CDE72A4BCBE72A4BC9E74FF06C7314
:103E5000C6E7294BC4E74FF46503C1E74FF0706331
:103E6000BEE74FF08063BBE7287E04F10C0204F547
:103E7000907105F006FE2B7E0120984000F06CFF4B
:103E80000823C4F800353B7A53B9C4F81031D4F88C
:103E900010316B69C4F834350123C4F83835236018
:103EA0007B689A075CBF4FF48073C4F804337B6867
:103EB000DB0644BF4FF48003C4F804332B69C4F815
:103EC000443500200123C4F84805A360E3603DE7C2
:103ED00000B0130000A04E0090D0030040420F003D
:103EE0000000AD0B64A70000D1B90000005027000E
:103EF00000C0750000F03A0000903A012DE9F04151
:103F0000044607690D4605F0E6FF4FF02008B0B9FA
:103F10002C4B1B789BB16426606805F0D8FCF0B987
:103F2000012005F0ACFD013EF6D10021212003F077
:103F300081F8F0E786F31188BFF36F8FF5E7EFF3B1
:103F40001186314688F31288BFF36F8F606805F0E1
:103F5000BEFC80B986F31188BFF36F8FEFE7EFF3F4
:103F60001186314688F31288BFF36F8F606805F0C1
:103F7000AEFC0028DED03B691D70626838691368AA
:103F8000C3F844050120C3F848050020C3F8200108
:103F9000D3F82051C3F858015268D3F85801D2061B
:103FA00008D5626812680820C2F800054FF4800244
:103FB000C3F8042301229A6081F31188BFF36F8F45
:103FC000BDE8F081121C00202DE9F04383B0456864
:103FD0000669D5F8208000AF3A1D0021404605F063
:103FE00048FC041E1ADB7B68D8F800201979186891
:103FF000FFF786FD041E11DB696A481C1BD005F122
:10400000280000F023FB10F1130F04460BD1314AB6
:104010003148012105F0A2FC6FF0120420460C3754
:10402000BD46BDE8F083411D05D12C4A2A48012137
:1040300005F094FCF2E7EB699847B5684FF001088A
:10404000D6E9023203EBC2039D4204D3304605F0A9
:10405000B3FC0024E2E7286805F0B1FE0346B0B9DE
:104060002A68297910686C468AB06A461C4DD1616D
:104070004FF4007111841B49C2E9055042F8101F2A
:1040800015484FF41151FDF7EBFBA546C4E728682E
:104090002979EB88D0F810C0D0F80890DCF80040FF
:1040A000DA0754BF43F4B01383F4D01323F480121F
:1040B00008FA01FEDB074CBF44EA0E0424EA0E04B2
:1040C000CCF80040D9F800309847041EA6DB08352C
:1040D000B6E700BF0EBA00005CA7000039BA0000C6
:1040E00056BA0000040000017FB505464068296902
:1040F0008A6C0B6D0ABBABB14C6C8B6516461A46CD
:10410000C96C0291CDE9004611B3002B18BF1346CC
:1041100000226946039301F05FFC0E4B98420AD0DF
:104120006FF004032C69236304F1200002F0E0FA2D
:10413000002384F85C3004B070BD4C6C13B19A421B
:1041400028BF1A46002C8A6514BF16460026D7E7FA
:104150000B46DDE70000AD0B38B503780C4663B9BC
:104160008D6D5DB94B6D1C696FF07303236304F1B2
:10417000200002F0BDFA84F85C5038BD8B6C33B17E
:104180009D4213D9224A2348012105F0E7FB236D04
:10419000A26D33B19A4221D91D4A1E48012105F072
:1041A000DDFB606DBDE83840FFF79EBF5B1B8B6495
:1041B00073B94B6B08334B638B6B013B8B6301F122
:1041C000480204F13400383105F0CFFB6064DEE7CB
:1041D0004B6C002BDBD02B444B64D8E79B1A236538
:1041E0007BB9E36B0833E363236C013B236404F185
:1041F000500204F1400104F13C0005F0B6FBE0641C
:10420000CFE7E36C002BCCD01344E364C9E700BFD5
:104210007ABA00005CA700002DE9F04F8BB000AF28
:10422000C7E9023243687B608B8804699E0480463C
:10423000894630D44FF0FF324FF0FF3304F11000C5
:1042400002F07AFAC4F80490D8F810A0D8F804B0B4
:104250009AF85D3023B1DAF80030994500F0DD803E
:10426000B9F8046016F400631CD0B34AB3480121C6
:1042700005F074FB6FF0850523689B8813F40053E9
:1042800004D1636004F1100002F032FA28462C37A2
:10429000BD46BDE8F08FA369002BCBD1636899427E
:1042A000C8D1D1E7F50716D56D4688B0D8F800100B
:1042B0006A46A348C2E905014FF400719183A14900
:1042C00042F8101F9D484FF4E251FDF7C9FAAD4680
:1042D0006FF01505D0E7300705D59B4A97480121B7
:1042E00005F03CFBF4E7C6F34513082B01D0974AD1
:1042F000F4E7D9F80050964B9D4201D8954AEDE776
:104300000BF1080EBEE80F0007F1140CACE80F002B
:10431000DEF80030CCF800308F4B9D4254D98F4BE3
:104320009D4254D98E4B9D4254D98E4B9D4254D9B7
:104330008D4B9D4254D98D4B9D422CBF4FF0004573
:104340004FF08045B107FD6106F004034BD5002B0B
:1043500014BF0323022387F82030C6F3001387F825
:104360002130DBF80030D3F8083516F0020F4FEAA1
:104370005312C6F3400103F01F033BD1BAB3012A25
:1043800040F03C817A49012202FA03F3C1F80C356E
:104390009AF85D302BB1584601F0E6FA00238AF80E
:1043A0005D30744A534607F11401584601F0A8FAEB
:1043B000714A904203462BD0704A6048012104F0B4
:1043C000EDFF6FF0040557E74FF00075BAE74FF0C7
:1043D0008065B7E74FF00065B4E74FF08055B1E76F
:1043E0004FF00055AEE7003B18BF0123B3E74FF095
:1043F000A041C8E74AB1012A40F003815C4901228B
:1044000002FA03F3C1F80835C2E74FF0A041F6E71E
:1044100001238AF85D30CAF80090012384F85C30EB
:104420007B68596A4A1C0AD003F1280005F0EEFAAD
:10443000743004D1524A4148022105F08FFAFB68DA
:10444000002B40F0A18063630023A36304F14802C2
:1044500004F1380104F1340005F087FABB686064A8
:10446000002B40F09A80E3630023236404F15002A0
:1044700004F1400104F13C0005F077FAE0642068A3
:104480000023236348B183683BB10121083005F064
:104490007FFA2368186905F08DFC4046FFF724FE7B
:1044A0000022A06B1346834240F080800023256CDD
:1044B0001946A94240F081809342264638BF1346F0
:1044C0004FF4FA5202FB03F556F8203B4FF4004C30
:1044D0001B68B5FBF3F540F2E730C83500214FF417
:1044E0007A720023E5FB0C01FBF70AFE02460B463D
:1044F000304602F021F9002866D0224A0F480121F7
:1045000005F02CFA4FF000097868C4F8589001F0D3
:104510002BFA84F85D90D8F810506FF07308C5F846
:10452000308005F1200002F0E3F885F85C90304619
:1045300002F028F945464BE098BA00005CA700005D
:10454000B2BA000003000001D4BA0000F3BA0000C0
:1045500047E8010022BB00008FD003001FA1070025
:104560003F420F007F841E00FF083D0000127A00CA
:1045700000030050594100000000AD0B53BB000088
:104580007ABB0000A4BB0000FB681B686363002BC0
:104590003FF45AAFFB685B6857E7BB681B68E3638F
:1045A000002B3FF461AFBB685B685EE7616B01EBBA
:1045B000C301013349680A4475E7E06B00EBC100B1
:1045C00001314068034474E7256B15F1740F99D0ED
:1045D0002368002B3FF450AE9A68002A3FF44CAE9B
:1045E000998811F480567FF447AE186905F0E2FB14
:1045F00020683146083005F0CBF93DE6C1F80C15CE
:10460000FFDE0023C3F80835FAE700BF00F01F0201
:1046100040090DD001280ED10A4B03EB82030A4A50
:10462000D3F80007024042EA8102C3F8002770472E
:104630004FF0A043F1E702F5E072002353F8223077
:10464000FFDE00BF00030050F0F8FCFFF0B587B0BC
:1046500001238DF8023002238DF804306B4403935C
:104660000F4601AB0DF103010024049305460291AE
:10467000059400F037FF0C4B984206460FD103AA71
:104680003946284600F092FDB0420BD09DF8031049
:10469000284600F021FF6FF0040007B0F0BD6FF076
:1046A0001200FAE72046F8E70000AD0B70B50123D1
:1046B00083400E4ABFF35B8FDC4352E8001F01EAE0
:1046C000040542E80056002EF7D1BFF35B8F4FF48C
:1046D000803282400648C0F80823BFF35F8FBFF3E3
:1046E0006F8F0B4214BF0120002070BD9416002074
:1046F0000010014070B40E49D1E90034D01AC3183B
:1047000044F1000422F07F46C1E90034A6F500130D
:10471000B3F5400F09D2074B1B681A0A1B069C19F8
:10472000054B42F10005C3E9004570BC02F018BE1C
:10473000F8120020981600200013002011B3BFF3D8
:104740005B8F0123104A834052E800CF4CEA030CF0
:1047500042E800C10029F7D1BFF35B8F0B4A4FF449
:1047600080338340C2F80433094BBFF35B8F1B686F
:10477000BFF35B8FC340DB0742BF064B4FF40032F1
:10478000C3F80021704700BF9416002000100140BC
:104790009016002000E100E00D4B1868010A0006A9
:1047A000BFF35F8F0B4BD3F80435181841F10001AC
:1047B000B3F5801F0AD2084BD3E90023904271EB76
:1047C000030303D210F1807041F10001704700BF74
:1047D0009816002000100140001300202DE9F04F32
:1047E00085B016461F469DF840A00446FFF75EFFC1
:1047F0000190FFF7D1FFB04271EB070354D23E4B5B
:10480000301A67EB0101984271F100014FD23B4B26
:1048100003EB0413D3E902239F4208BF96425ED004
:1048200037494FF4803804F1500508FA04F8AD0018
:10483000C1F848832046ADB205F010F926F07F4B51
:1048400005F1804504F5A87305F58835DC464FF081
:1048500003090293029A2CF07F4341F82230C1F8F9
:104860004483D1F80435274A6FF00200C01A60442F
:1048700020F07F40904232D9286868B1D1F80435E1
:104880000393A3EB0B0020F07F40B0F5000F26D977
:10489000204605F0E3F8039BBAF1000F07D109EBBE
:1048A000030C09F10109D5E7BAF1000F09D06FF047
:1048B000150520460199FFF741FF284605B0BDE8E0
:1048C000F08F0123104ABFF35B8FA34052E8000F23
:1048D000184342E800010029F8D1BFF35B8F074974
:1048E0000E98230101EB0412C8500F9B5360C2E9DC
:1048F00002670025DDE700BF01008000E81200200C
:1049000000100140FDFF7F00901600207FB51C4C79
:104910001C4BC4F80833C4F848331B4B00254FF038
:10492000FF304FF0FF31C4F80855C3E902014FF4DE
:104930008033C4F80433154B02264FF400320121B2
:10494000C4F804631120C3F880212A46FDF75CFEF9
:104950001120FDF729FE0E4A0123A3602360136096
:104960000C4B0D4A0093CDE9015500232846FFF773
:1049700035FF3046FEF7DEFB284604B070BD00BFB1
:104980000010014003000F00E812002000E100E0E9
:1049900094160020F5460000FFFF7F002DE9F74345
:1049A0002F4CD4F8043399070BD5D4F8043143B114
:1049B0002C4A0023C4F80431D4F8043113680133BD
:1049C0001360D4F80433DA0329D5BFF35B8F264B89
:1049D00053E8002F22F0010143E800100028F7D12E
:1049E000BFF35B8FD30702D4D4F84031BBB10025AD
:1049F000C4F84051D4F84031FFF7CEFEEFF31182F6
:104A0000202383F31288BFF36F8F184BD3E902671B
:104A1000B042B94106D282F31188BFF36F8F03B061
:104A2000BDE8F0834FF0FF384FF0FF39C3E902894A
:104A3000D3E900101D604FF48033C4F84833C4F844
:104A40004051D4F8403182F31188BFF36F8F0029B1
:104A5000E5D0009032463B4628468847DFE700BF56
:104A6000001001409816002090160020E812002047
:104A700030B5431C124C85B005D08442A8BF044613
:104A8000012CB8BF0124FFF787FE0E4B0C4DD3E974
:104A90000013401AB0F5000F10D22218AA4228BF06
:104AA0002A4652184FF0000007490091CDE9010055
:104AB00043F10003FFF792FE05B030BD2A46F0E750
:104AC000FFFF7F00F8120020F546000008B5FFF751
:104AD00063FE024B1B68C01A08BD00BFF81200201D
:104AE0004FF08053D3F83021082A06D1D3F834315F
:104AF000052B02D8024AD05C70470020704700BFE7
:104B0000EABB0000024AD2F80034002BFBD0704709
:104B100000E0014010B54FF08053D3F83021082A4F
:104B20004ED14FF080420021C2F80C11C2F8101192
:104B3000C2F8381502F54042D3F80414C2F8201523
:104B4000D3F80814C2F82415D3F80C14C2F82815A9
:104B5000D3F81014C2F82C15D3F81414C2F8301579
:104B6000D3F81814C2F83415D3F81C14C2F8401541
:104B7000D3F82014C2F84415D3F82414C2F8481509
:104B8000D3F82814C2F84C15D3F82C14C2F85015D9
:104B9000D3F83014C2F85415D3F83414C2F86015A1
:104BA000D3F83814C2F86415D3F83C14C2F8681569
:104BB000D3F84014C2F86C15D3F84434C2F87035F9
:104BC000FFF78EFF18B13A4B3A4AC3F88C26FFF72D
:104BD00087FF18B1384BFB22C3F81825FFF780FF79
:104BE00070B14FF080414FF08053D1F8E42ED3F8EC
:104BF000583222F00F0203F00F031343C1F8E43ED2
:104C0000FFF76EFF20B12D4B4FF40072C3F8402622
:104C10004FF08053D3F83031082B1AD14FF0804336
:104C2000D3F80024D20744BF6FF00102C3F8002478
:104C30004FF08053D3F83431052B02D8204AD35C8F
:104C40003BB14FF01023D3F808224FF08043C3F854
:104C500058254FF01023D3F80022002A03DBD3F8A5
:104C60000432002B22DA174901234FF01020C1F83B
:104C700004351224FFF746FFC0F80042FFF742FF59
:104C8000C0F80442FFF73EFF0023C1F80435FFF7E8
:104C900039FFBFF34F8F0C490C4BCA6802F4E06236
:104CA0001343CB60BFF34F8F00BFFDE710BD00BFC4
:104CB000005000404881030000F000400090024096
:104CC000E4BB000000E0014000ED00E00400FA0554
:104CD00030B50468CCB1BFF35B8FB4FA84F3C3F191
:104CE0001F03DBB201229A4024EA020250E8005F6F
:104CF000A54204D140E8002CBCF1000FF6D1BFF36F
:104D00005B8FE6D102480B7030BD0248FCE700BF64
:104D10000000AD0B0200AD0B10B50368CB40DB0704
:104D200014D401238B400268BFF35B8F43EA020176
:104D300050E8004F944204D140E8001CBCF1000F41
:104D4000F6D1BFF35B8FEED1014810BD0148FCE7FF
:104D50000000AD0B0400AD0B014BC3F80405704718
:104D600000F00140F7B5044618B1012823D003B084
:104D7000F0BD4FF080430222C3F808230122DA601D
:104D8000C3F80401D3F80431064601238DF8073037
:104D900042F210754FF08047D4B1012CE7D1D7F81B
:104DA0000C3403F48033AEBB83B3012004F067FE00
:104DB000013DF4D12AE04FF080430022C3F80803FC
:104DC0005860C3F80021D3F800310DF10706DCE785
:104DD000D7F8183403F480333EB9002BC7D0012034
:104DE00004F04DFE013DF3D1C1E7D7F8182402F0DD
:104DF00003023260002BBAD09DF80700012803D1CE
:104E000004F03DFE013DC7D1012CB0D1054B00227D
:104E10005A71ACE7D7F80C2402F001023270002B73
:104E2000EAD1F3E79C160020044B1A7922B901223B
:104E300018609A8002487047024870479C1600200C
:104E40000000AD0B0C00AD0B08B5074B1B682BB178
:104E50000020FDF7CBFB08B9FDF7A6FB4FF0804320
:104E60000022C3F8182508BD9C16002010B510B10B
:104E7000012843D010BD4FF08043D3F81814D3F865
:104E80001824C80321D502F00303012B04D013B169
:104E90000020FFF767FF00234FF080420220C2F896
:104EA000183508224FF4827303F180430021196002
:104EB00002F180421C6801241460154A12680AB38A
:104EC0004FF08043C3F80403D4E7D3F81424D10788
:104ED000E1D5D3F81C249207DAD40D4A12681AB12E
:104EE0000222C3F80423C5E7D3F80421002AFBD02B
:104EF0000022C3F80421D3F80431BBE700224FF4A9
:104F00008073D1E71A68002AFCD019601B68B1E7EA
:104F10009C16002010B54FF08043D3F800216AB1F1
:104F20000022C3F80021D3F800210122C3F808238E
:104F3000114B587910B95A711B6898474FF080434C
:104F4000D3F8042172B10022C3F80421D3F804215C
:104F5000D3F81824D3F81824920704D10122C3F8F7
:104F600018259A6010BD0222C3F80823024BBDE841
:104F700010401B68012018479C160020036803F0AE
:104F80001F025B09026004D0012B034818BF0020F8
:104F900070474FF0A040704700030050034A430998
:104FA00000F01F00D35C1844C0B27047F0BB000093
:104FB00070B50546FFF7F2FF0C4C08300E4634F88A
:104FC0001030DA0508D5C3F3432304EBC3022846A7
:104FD00054F8333052689847A3682BB1E2683146E1
:104FE0002846BDE87040184770BD00BFB00C0020D7
:104FF00008B5FFF7D3FF034B083033F81000400B20
:1050000008BD00BFB00C002008B5FFF7C7FF034B79
:10501000083033F81000C0F3400008BDB00C002089
:1050200008B5FFF7BBFF034B083033F81000C0F39F
:10503000401008BDB00C0020034611F0010010B56F
:10504000CCB20DD1A207C4F3400012D5094AD2F860
:1050500020055860C2F82005003818BF012008E07C
:105060004FF0A041D1F820251A60C1F82025002A70
:10507000E8D010BD0003005010B5FFF78FFF124AB3
:10508000083032F81030D9051CD5C3F3432123F47E
:10509000F85322F8103002F10E04002034F8023FD9
:1050A00013F4807F03D0C3F3432399420AD0013025
:1050B0003028F3D1002342F831300448BDE81040D5
:1050C000FFF72ABE10BD00BFB00C0020280D002045
:1050D000F0B5054600200446012607468C420BD158
:1050E000114BD3F87C2132B10022C3F87C21D3F8D4
:1050F0007C3140F00040F0BDE3B29B0003F58072CC
:105100009B0806FA03F31D420BD002F1804202F520
:10511000C042D2F800C0BCF1000F02D01760126884
:1051200018430134DAE700BF00600040F7B50646D7
:105130000846FFF733FF194F00F108050C4637F812
:105140001530DB0727D5304604F010FD2046FFF769
:1051500067FF40B12046FFF74BFF316800F5A270B2
:10516000002341F820302046FFF786FF002301A8E6
:1051700027F815300194FFF701FF019B00EB830036
:10518000074BD0F80027134043F00203C0F8003764
:10519000044803B0F0BD0448FBE700BFB00C00209A
:1051A000F0F8FCFF0000AD0B0400AD0B2DE9FF4152
:1051B000164680460846FFF7F1FE0D463168044664
:1051C00009B32846FFF720FF18B12846FFF728FF4C
:1051D00010BB0023CDE900338DF80E308DF80F3071
:1051E0000DF10F020B4628460DF10E0104F055FC9F
:1051F000474A04F1080132F8113023F0020343F06A
:10520000010322F81130736863B328461F78596888
:10521000FFF7FAFE10B1D1B13E4826E03C4A04F156
:10522000080032F8103023F02003DB04DB0C22F8F6
:10523000103061B1032FEFD87168496891F800C050
:10524000D8F80010A7B90CF5A27C41F82C70304AB0
:1052500004F1080132F8113023F01C0343EA8703FC
:1052600022F81130B3684BBB2B4804B0BDE8F08185
:1052700001EB8C0143EA4C33D1F810E52EF0030E1C
:10528000C1F810E5D8F8001001EB8C0E43F02003B4
:10529000DEF8101522F8103021F44F3121F440715E
:1052A000CEF810152902DEF8108501F47C5141EA90
:1052B000074141EA0801CEF81015C8E7D3E90067B5
:1052C0002846FFF7D9FE002ECED0114DD5E9002398
:1052D000964203D19F4201D1002209E00F480DF10F
:1052E0000F01FFF7F5FC0C4B9842BED19DF80F2043
:1052F00045F8326005EBC20308345F6035F81430BE
:1053000043EA422343F4807325F81430ACE700BF2E
:10531000B00C00200400AD0B0000AD0B280D0020E8
:105320002DE9F0430C4685B08046204611461E46C6
:10533000FFF734FE054629B32046FFF765FE18B98E
:105340002046FFF76DFE18BB314F05F1080937F80D
:10535000193013F01C0F02D04B78012B18D0012309
:105360008DF80F300023CDE900134A1C8B1C20461A
:105370000DF10F0104F091FB37F8193043F00303EE
:1053800027F81930002E41D02046FFF73DFE18B90E
:10539000204805B0BDE8F08396F800C0D8F800308A
:1053A0001B4F0CF5A272002143F8221005F10802F0
:1053B00037F8121021F02001C904C90C27F8121087
:1053C00075781DB3D8F80000B67800EB8C002D047A
:1053D000D0F8103523F4991323F4F853C0F810359E
:1053E000230203F47C5305F440353605D0F810E56C
:1053F0002B4306F4801641EA4C31334341F020013F
:1054000043EA0E0327F81210C0F810350248C0E72F
:10541000B00C00200400AD0B0000AD0B014BC3E944
:1054200002127047B00C002010B508461446FFF772
:10543000F7FD50B10846FFF7B1FD054B083033F8D2
:10544000103004485B0B237010BD0348FCE700BF1D
:10545000B00C00200000AD0B0400AD0B70B5164D74
:1054600095F8804006462CBB2146602205F11000CD
:1054700004F0CBFF30682E6F21468E420ED1002300
:10548000C0F87C31D0F87C3140F30730FDF78CF860
:1054900001230A4885F88030AB6770BDCBB29B0012
:1054A00003F580727C2B08BF845001F1010108BF15
:1054B0008358E2E70248F0E7B00C00200000AD0B93
:1054C0000C00AD0B034B93F88000003818BF01208F
:1054D000704700BFB00C00200148FFF71DBC00BFA3
:1054E000240D00200148FFF7F3BB00BF240D00206E
:1054F00073B503681646D3F80423002AA8BF4FF0FB
:1055000000420546A8BFC3F8042308460C46FFF72F
:1055100087FD00B30846FFF777FD0146D8B920465E
:10552000FFF766FD04B2A40004F580720346286804
:105530008150296882582144D1F8102542F0010297
:10554000C1F810252EB12968012202FA03F3C1F82F
:10555000043302B070BD2046FFF720FD0F4B08302A
:1055600033F81030C3F38203042B12D0052B12D072
:1055700001A80194FFF702FD019AD0F81035D3403D
:1055800003F00103991C204602B0BDE8704004F00E
:10559000CDBA0321F7E70221F5E700BFB00C0020E8
:1055A0002DE9F04F694BDFF8A881D3F80403D8F850
:1055B0007010C0B289B040F00040FFF789FD051EB1
:1055C0002FDAC24600235AF87C1F06A8CDE906331D
:1055D000FFF732FD5F4B01930DF118094FF0000BFF
:1055E000019A12F8013B0192DA0803F007031AF856
:1055F000022022FA03F3DA071CD409F10409BBF1F3
:10560000000F14D0D8F870104FF00040FFF760FD85
:10561000D8F87C1006A8FFF70FFD0028DAD125F096
:1056200000450124002D79D109B0BDE8F08F4FF07D
:10563000010BD5E7484B5B440293D9F800100029D1
:10564000DBD0029B91FAA1F11C78B1FA81F141EA19
:1056500044142046FFF7A2FC0830059438F8107077
:10566000C808BB0819F80020039301F007010123C3
:1056700003FA01F122EA010209F8002005A8FFF768
:105680007DFC059A039B02F5E072C7F3820650F891
:1056900022205B073746C2F3014224D52046394613
:1056A000D6B2FFF785FC05A80594FFF767FC059BBC
:1056B00003F5E07350F82330C3F301439E4207D152
:1056C0000021204604F032FA3146204604F02EFA3A
:1056D00005A80594FFF752FC059B012202FA03F38B
:1056E000C0F82035A9E7022A0CD10321204604F096
:1056F0001DFA06F00503012BEAD139462046FFF7D3
:1057000057FCE5E702212046039204F00FFA032E2E
:10571000F3D0039A032ADBD1022EEDE795FAA5F325
:10572000B3FA83F304FA03F29B0003F1804303F519
:10573000C04325EA0205D3F81005D3F81015C0F3CD
:105740000520C1F30141FFF733FC6BE70060004027
:10575000B00C002000BC000000BC00000146014865
:10576000FFF7B6BA340D0020036803F01F025B098F
:10577000026004D0012B034818BF002070474FF08F
:10578000A04070470003005007B5019001A8FFF743
:10579000EBFF019B00EB8300054BD0F80027134083
:1057A00043F00303C0F8003703B05DF804FB00BF0B
:1057B000F0F8FCFF73B5CB7B0446002B38D10B7B94
:1057C0000878012B77D804F009FA0B78019301A827
:1057D000FFF7CAFF019B00EB83003C4BD0F800278A
:1057E000134043F00103C0F800374878FF2804D085
:1057F00004F0F4F94878FFF7C7FF8B78FF2B0FD040
:1058000001A88D7B0193FFF7AFFF019B00EB8300A5
:105810002E4BD0F80027134043EA8503C0F8003729
:10582000C878FF2804D004F0CCF9C878FFF7ACFFA3
:1058300023792748CA78282505FB03039A770B7C30
:105840009BB94B7825680E78FF2B18BF1A468B78CA
:10585000C5F8086508BF4FF0FF32FF2B08BF4FF0B7
:10586000FF33C5F80C25C5F8103523688A68C3F8DE
:1058700024254B7B0A7B2568003B18BF0123022AA5
:105880001CD0032A1DD0012A01D143F00203C5F820
:10589000543523794979282202FB0303D9772379E8
:1058A0005343C35883B1206840F3073002B0BDE8CA
:1058B0007040FCF779BE04F084F986E743F00403F6
:1058C000E5E743F00603E2E702B070BDF0F8FCFF45
:1058D000A416002007B5019001A8FFF745FF019B22
:1058E00000EB8300054BD0F80027134043F0020380
:1058F000C0F8003703B05DF804FB00BFF0F8FCFF10
:105900002DE9F04190F80480144C4FF0280C0CFB6A
:1059100008FC04EB0C06074696F81CE0BEF1000FED
:1059200019D144F80C20736041B1CB7B86F8253047
:10593000CB78B3774B79F377FFF73CFF3A680848A9
:105940000123C2F80035282202FB084400226277B6
:105950002377BDE8F0810348FBE700BFA4160020D1
:105960000000AD0B0C00AD0B70B50679194C056845
:1059700028237343E35833B145F30730FCF722FE85
:105980000423C5F808330023C5F80035282303FB9A
:10599000064393F82530BBB9D5F80805FFF79AFF01
:1059A000D5F81005421C01D0FFF794FFD5F80C057F
:1059B000431C01D0FFF78EFF282303FB0643987F8B
:1059C000FF2801D0FFF786FF282303FB06440023AE
:1059D000237770BDA41600202DE9F8430779394CD0
:1059E00028237B439046E2180E46517F81460029CA
:1059F00066D1E3580BB10123537796E80F002825B1
:105A000005FB074505F10C0C8CE80F00A87F00236F
:105A1000FF2885F8243001D004F0E0F82823B8F1FD
:105A2000000F06D003FB0743002227485A77BDE842
:105A3000F883D9F8005003FB07430422C5F8082374
:105A4000C3F82080C5F80881D5F8082172689AB19A
:105A500033681B78C5F81C357368012B0ED9336881
:105A60005B78C5F81C3528237B43E65876B10423C0
:105A7000C5F804331548DAE7DB7FEBE7F368012B61
:105A8000F1D9282303FB0743DB7FEAE707EB870114
:105A900004EBC101D5F80831002BFBD0C5F8086133
:105AA0002846D5F8083104F0A6F80028F2D12823BA
:105AB00003FB0744A07FFF28DCD004F082F8D9E77D
:105AC0000348B4E7A41600200300AD0B0000AD0BA3
:105AD0000B00AD0B10B54FF040200023C0F808318B
