:1000000080360020292900007D890000FD2800009D
:10001000FD280000FD280000FD2800000000000071
:100020000000000000000000000000009D21000012
:10003000FD2800000000000039210000FD2800001C
:1000400059220000592200005922000059220000C4
:1000500059220000592200005922000059220000B4
:1000600059220000592200005922000059220000A4
:100070005922000059220000592200005922000094
:100080005922000059220000592200005922000084
:100090005922000059220000592200005922000074
:1000A0005922000059220000592200005922000064
:1000B0005922000059220000592200005922000054
:1000C0005922000059220000592200005922000044
:1000D0005922000059220000592200005922000034
:1000E0005922000059220000592200005922000024
:1000F0005922000059220000592200005922000014
:1001000053B94AB9002908BF00281CBF4FF0FF317E
:100110004FF0FF3000F00CB8ADF1080C6DE904CEE3
:1001200000F008F8DDF804E0DDE9022304B07047D0
:10013000704700BF2DE9F04786468C460846089E6A
:10014000154674461946002B40F0C2808542B2FA2B
:1001500082F245D94AB1C2F1200300FA02FC2EFA1C
:1001600003F3954043EA0C0C94404FEA154EA8B2B5
:10017000BCFBFEF8230C0EFB18CC08FB00F943EA8D
:100180000C43994528D9EB1808F1FF3704D299455B
:1001900002D9A8F102072B44A3EB0903A4B2B3FBD5
:1001A000FEFC0EFB1C330CFB00F044EA0344A042AF
:1001B00014D92C190CF1FF3304D2A04202D9ACF1AE
:1001C00002032C44241A43EA07401EB1D440002302
:1001D00034607360BDE8F0874746DDE76346F1E7CA
:1001E00092BB431B01214FEA154EAFB2B3FBFEFC9D
:1001F000200C0EFB1C330CFB07F840EA0343984528
:1002000062D9EB180CF1FF3004D2984502D9ACF159
:1002100002002B44A3EB0803A4B2B3FBFEFC0EFBCD
:100220001C330CFB07F744EA0344A7424ED92C19B0
:100230000CF1FF3304D2A74202D9ACF102032C44E3
:10024000E41B43EA0040C0E7C2F1200320FA03F1B7
:10025000954090402EFA03F303434FEA154EAFB298
:10026000B1FBFEFC0EFB1C10190C0CFB07F841EA5D
:100270000041884504FA02F422D969180CF1FF30D4
:1002800004D2884502D9ACF102002944A1EB08014F
:100290009BB2B1FBFEFC0EFB1C110CFB07F743EA03
:1002A00001439F420ED9EB180CF1FF3104D29F425B
:1002B00002D9ACF102012B44DB1B41EA004192E779
:1002C0006046E3E76146F7E76046A3E76346B7E7C2
:1002D000834206D916B9002108467BE7C6E900E04B
:1002E000F9E7B3FA83F78FB9834201D3724508D88F
:1002F000BEEB020460EB030301209C461EB9002103
:1003000068E73846FAE7C6E9004CF8E7C7F1200C81
:10031000BB4022FA0CF41C432EFA0CF120FA0CF329
:10032000B84001434FEA14490EFA07F5B3FBF9F858
:100330001FFA84FE09FB18300B0C08FB0EFA43EA87
:1003400000439A4502FA07F240D9E31808F1FF305A
:1003500004D29A4502D9A8F102002344A3EB0A0370
:1003600089B2B3FBF9F809FB183308FB0EFE41EA2A
:1003700003418E452CD9611808F1FF3304D28E4514
:1003800002D9A8F10203214443EA0040A0FB0298ED
:10039000A1EB0E014145CE46434602D306D14D4561
:1003A00004D2B9EB020E68EB04030138002EA6D08C
:1003B000B5EB0E0261EB030101FA0CFC22FA07F324
:1003C0004CEA0303F940C6E9003198E74046C5E727
:1003D0004346D9E7034613F8012B002AFBD1181A2C
:1003E0000138704708B50A4808F044FF28B90948A1
:1003F00007F06DFE4FF0FF3008BD054808F03AFFEA
:1004000008B90548F4E7054807F061FE0020F3E766
:10041000B0970000649E00007B9E0000929E00004A
:10042000F7B52A4F2A4EC5B208244FF4003138469A
:1004300007F0DCFD07F0EFFDEB074CBF4FF4803118
:100440004FF40031304607F0D1FD013C07F0E3FDE9
:100450001E484FF4803107F0C9FD07F0DCFD14F0B1
:10046000FF044FEA5505E0D118484FF4003107F07A
:10047000BDFD17484FF4803107F0B8FD07F0CBFD04
:1004800012484FF4803107F0B1FD07F0C4FD114868
:100490000469836801A95B68984720B923680198BB
:1004A0005840C0F34030C0B220B909484FF4003181
:1004B00007F09CFD07F0AFFD04484FF4003107F052
:1004C00095FD03B0BDE8F04007F0A5BDB09A00006F
:1004D000A89A0000B097000008B504484FF4003116
:1004E00007F084FDBDE8084007F095BDA89A00001C
:1004F00010B50C4C4FF40031204607F077FD07F0A3
:100500008AFD09484FF4803107F070FD07F083FD44
:1005100020464FF4803107F069FDBDE8104007F038
:100520007ABD00BFA89A0000B09A0000072810B555
:10053000044605D9174807F0CAFD4FF0FF3010BD3B
:10054000154B1A68904223D001461860134807F0F3
:10055000BEFDFFF7C1FF4420FFF762FFFFF7C8FFB2
:10056000FFF7BAFF6FF03F00FFF75AFF0C4B185729
:10057000FFF756FFFFF7BCFFFFF7AEFF094B93F9FC
:100580000000FFF74DFFFFF7B3FF074807F09FFD9F
:100590000020D4E7AF9E0000E0170020BE9E0000C0
:1005A000E89E0000000D0020D19E00000146024898
:1005B00083685B68184700BF1498000010B50A4CA8
:1005C000204608F057FE30B90848216807F07FFD43
:1005D0004FF0FF3010BD002420460134FFF7E6FF46
:1005E000802CF9D10020F5E714980000F19E00005E
:1005F0002DE9F84F0A23284C90FBF3F5DFF89CA077
:1006000003FB15074FF4827303FB05454FF0000809
:100610004FEA480606F1080BA94659F8043B012B9E
:1006200025D1DAF8083031461B6850469847013624
:100630005E45F2D108F10808B8F1400F05F1200538
:10064000E6D14FF48273DFF8548003FB07440026A1
:100650001027A7F10805A146BD420CD10836402E4F
:1006600005F1100704F12004F3D1BDE8F88F3046FE
:10067000FFF79CFFDBE759F8043B012B07D1D8F8C3
:10068000083029461B68404698470135E4E728466C
:10069000FFF78CFFF9E700BF00000020149800006E
:1006A00010B5124C1248216807F011FD2068FFF7C1
:1006B0009FFF206840B9FFF739FF23680F333D2BB8
:1006C000A8BF0023236010BD431E0E2B01D80120BC
:1006D000F1E7A0F110030E2B01D80420EBE71F383F
:1006E0000E2894BF06200720E5E700BFE41700208E
:1006F0000D9F0000014806F067BA00BF2C0B0020D8
:1007000013B50E4807F0E3FCFFF76CFE38B10C4858
:1007100007F0DDFC4FF0FF34204602B010BDFFF7BC
:100720004DFF044608B10748F2E74FF400420023AA
:100730000548CDE9002306F0A5FFEDE7179F00006F
:10074000329F0000569F0000500D00202DE9F04F11
:1007500091B08407009302F004030293C2F3C20332
:1007600003F10103DDF86890039205460E460593F8
:1007700040F0BA81041D30B1072909D86FF01B0081
:1007800011B0BDE8F08F01F00706341DC6F1080670
:10079000009B4FF00008591E4FF0040A4FF0FF3342
:1007A0000193CDF810804746C34653460DB1009AD9
:1007B00022600598002800F3E8809848009A824259
:1007C00003D397488242C0F0E080039AA4EB050E61
:1007D00092074FEA9E0000F103810F2F00F2B180D3
:1007E000002D00F0058107F140020DEB020C019A8B
:1007F0000CF8200C0CF8102C049801300490E7E061
:100800007A285DD84B280ED8472859D829282DD8C2
:10081000252852D054D820287AD02338D0F1000B84
:100820004BEB000B74E04C382E2849D8DFE800F081
:100830007048484848484848484848484B4848480D
:10084000484848484859484B4B595959704B6D488E
:100850007048184B184848827F4B48484B487F00E7
:1008600000204FF0000B4FF0040A38E02A38C0B2E5
:10087000012202FA00F010EA0E0F49D110F0625C7A
:100880002FD110EA020B43D06046013C5444B4FB24
:10089000FAF40AFB04F4002D61D0A3EB050CA44488
:1008A0006645FFF46BAF002868D1042B47D159F897
:1008B000043B2360043404232AE0019A013A0192A4
:1008C0004FF0000B24E011F8010C6C2834D111F822
:1008D000023C00206C2B8346C5D14FF0080A5346DA
:1008E000D3E709F1070929F007090734F9E802AB52
:1008F00024F0070435B106982044B0423FF63EAFDD
:10090000C4E900AB08344FF0000B4FF0080A53461F
:1009100011F8010F002878D0BBF1000F7FF470AF01
:100920002528F5D1019B013301934FF0010B4FF0C6
:10093000040AECE7584694E700208346A5E7082B15
:1009400002D06FF015001BE709F1070929F007092C
:10095000F9E80223C4E9002308340823D8E768B97A
:10096000042B02D109F10409A4E7082BE9D109F10C
:10097000070929F0070909F10809EDE7059A013A85
:10098000059259F8042B009210E7039A900720D59E
:10099000A4EB050E4FEA9E004FF0010CBEF5007F60
:1009A000CFD20F2FCDD8F5B107F140020DEB020EDB
:1009B000C0B2019A0EF8200C0EF8102CBCF1000FFA
:1009C0003FF41AAF60F07F000EF8200C08F1010828
:1009D0000137C5F10802043406924FF6DA7E97E734
:1009E0004FF0000CDAE7BCF1000F01D00136EFE761
:1009F000029802360028EBD10098CDE90631FFF7C6
:100A0000E9FCDDE906310644E2E7631BB3F5806FDC
:100A100097D23DB9A6F10804E018B1E604970000AA
:100A200088AE0000029A28609B082B709DF8103059
:100A3000C2B1EB7085F80280B8F1000F05D008A8AC
:100A40000022C5F1010C97420ED1C5F101030DF151
:100A500020094FF0000A01930DF1300B574512D1D8
:100A6000601B8DE66B70E5E710F8013B190608D5B1
:100A700004EB0C0E764503F07F03FFF47FAE04F821
:100A8000013B0132DFE7B8F1000F03D099F90020F4
:100A9000002A17DB029BD3B11AF80B2004F8012BB4
:100AA0000022019B981820448642FFF467AE99F813
:100AB000000004F8010B00990392204608F0D2FDD3
:100AC000039A14440AF1010A09F10109C6E799F8E9
:100AD000002055F822300093029B45F82230009800
:100AE000FFF778FC421CDCE76FF00D0048E600BF22
:100AF0002DE9F04F95B000AF90F802B0BB61BB6F2D
:100B00007A62C3F3C00304463B618A4641B9457823
:100B100000780BEB80002044554517D8A0EB040A61
:100B2000E3787B61BBF1000F02D0BB6FD80716D40E
:100B30007B6953BB7B6A1BB1BA6951462046984713
:100B4000554628465437BD46BDE8F08F461C304612
:100B5000FFF740FC013030440AF1010ADCE723785A
:100B60003B629B00FB603B6A6268FA6104EB8309AD
:100B70007B6A002B40F0FE805546C84609EB0B0A05
:100B80000026D04551D1D94413E0BB6F9907D1D588
:100B900023783B6299469B00FB606368FB617B6A3C
:100BA00004EB8909002B7AD15546BBF1000F4FD1D8
:100BB0005E46BB6F13F0050F7B6909EB430ABB6F01
:100BC00003F002030CBF4FF0020B4FF0010B7B62EE
:100BD000D145B6D019F8021B19F8013C54F823800E
:100BE000AA4B984502D3AA4B984538D33B69002BB2
:100BF00042D0F86907F044FA00283DD0E8468AB0B0
:100C00006A46A44B5361FB69C2E906314FF4007395
:100C10001384A14B42F8103FA04800234FF4125117
:100C200000F020FD023DC546D2E718F8013B54F81C
:100C30002300FFF7CFFBFB6F01303BB1D7F88030CB
:100C40009E423EBFFB6F23F816000136054498E72D
:100C5000BB6F13F004061CBF7E6AD944A9E73B6949
:100C600023B1F86907F00CFA0028C7D1BB6FDA0787
:100C700005D4A5EB0B05ABE77B6A002BA8D040465B
:100C8000FFF7A8FBFB6F43B1D7F880309E423FBF10
:100C9000FA6F431C22F816300136054498E7BBF181
:100CA000000F6DD0BB6F13F004066CD0D846002641
:100CB00007F140005A46494608F0D4FC7B695B00C6
:100CC0007B607B69D94409EB4303BB60BB6F03F0D6
:100CD00002033B60BB684B4557D1B96F6378B86F6F
:100CE000890706EB030254BF4FEA58010021C507EC
:100CF000D2B200F19A8010F0040F14BF40460020D9
:100D0000FB616270A070E170BA69F9687B6A204685
:100D10009847051EFFF615AF3B6A2370FB696370A9
:100D20007B69E3704146BA697B6A84F802B007F1D7
:100D300040009847B0F10008C0F2A480FB68BA698F
:100D4000AAEB0B01C91A7B684846C91A7B6A984707
:100D50000028C0F29980A84408EB00054FF0000B72
:100D600007F1300AB34562D30021BA697B6A0846AD
:100D70009847E6E65E464FF0000807F1300099E735
:100D80005E46D8469AE7B04698E719F8021B3F4BF3
:100D900019F8015C54F82500984202D33C4B984264
:100DA0001DD33B6923B1F86907F06AF9002891D196
:100DB0003B68FBB908F1280307F1280208F101009C
:100DC00003EB020C07F1500353FA80F008F102081C
:100DD0000CF8101C5FFA88F800F8105C7AE73B69A1
:100DE0002BB1F86907F04CF900287FF473AFBB6FA3
:100DF000DB0709D506F1280307F12802711C9E18AC
:100E000006F8205CCEB265E7BB6F58077FF562AF8E
:100E100008F1280307F1280208F1010103EB020899
:100E200008F8105C5FFA81F854E7002068E71BF8C7
:100E30000A3087F82F3054F82390FB6FFBB133F85A
:100E40001B80BA697B6A012107F12F0098470028AF
:100E50001ADB0544B8F1000F06D14846FFF7BAFA8D
:100E600000F101081FFA88F8BA697B6A41464846D2
:100E70009847002808DB05440BF1010B72E7D7F80F
:100E80007C80DEE745465CE605465AE604970000AE
:100E900088AE00006E9F000004000001F899000079
:100EA000014B1860704700BF3C0B002080B5054621
:100EB0000E461746984606F0A1F9034608F018FCBE
:100EC000DFF81890044649F800304246304639466B
:100ED000A84754F8090001F0A7FD00BF0800000072
:100EE0002DE9F047058B04462807904611D40229C6
:100EF00005F0070540F0CD80204607F05EF978B197
:100F00000138218B042811D8DFE800F0C3106D856B
:100F1000950001290CBF45F0100545F020052583FB
:100F200088F31188BFF36F8FBDE8F08701F0070ADF
:100F3000AA4500F0A6800027B9463E46A368002BCC
:100F400000F0BD8041F00801218388F31188BFF3D0
:100F50006F8FA168002900F0BB800D68002900F0A8
:100F6000B780D1F80480334652462046C047002D52
:100F700076D02B6829461D46F0E701F007035A1F7B
:100F8000012A1BD8002221F00701062B276889B20D
:100F9000C4E9002209D13B4603E0628B013262833F
:100FA0001B68002BF9D141F002012183204607F094
:100FB00004F900287BD041F0200177E0042B0AD10E
:100FC00021F0070189B22183204607F0F6F810B11D
:100FD00041F020012183218B01F0070AAA4550D05E
:100FE0000027B946AAE7236921F0070141F006016D
:100FF000062DD3F8009021832DD1B9F1000F40D0F8
:1010000041F00801218388F31188BFF36F8F3A49BB
:101010002046C84729E021F00701236941F0040177
:1010200089B2042DD3F804902183E6D000273E46F0
:101030004FF0040A82E721F00701236941F005011E
:1010400089B2052DD3F808902183D6D000273E46DB
:101050004FF0050A72E700273E464FF0060A6DE79B
:101060002B4687E7B9F1000FD1D14FF02003EFF302
:10107000118883F31288BFF36F8F238B23F008034B
:101080002383258BEA062ED525F01003238305F054
:1010900007056669218B002EBFF66FAF0023276816
:1010A000C4E9003321F0070141F001012183218BC4
:1010B00001F0070AAA454FF000097FF43FAF002F67
:1010C0009BD041F00801218388F31188BFF36F8F13
:1010D000002FC7D03D68394633465246204607F0B8
:1010E00098F82F46F4E7AB067FF51AAF25F02003FA
:1010F000238305F00705FFE63F82000008B504469C
:101100004FF02002EFF3118382F31288BFF36F8F49
:1011100003F06CFD204601F031FC034806F0D7FFD8
:1011200000F008FFFCE700BF22A0000003F0A6BD0E
:101130002DE9F047DFF85880044607464FF00109D3
:1011400014B93846BDE8F08794FAA4F5B5FA85F5E8
:1011500009FA05F32E0108EB05156FEA030A24EAE4
:1011600003042B7B002BEBD058F806301B694BB9DE
:101170004644042273682846196807EA0A0700F003
:101180005DFADDE7284698470028D9D1F0E700BF8F
:10119000789A000030B51049104889B0002208F054
:1011A00037FA0F4D0F4900220023CDE90623002412
:1011B0000E23CDE90334CDE901440B4B00944FF4E9
:1011C0004072284605F062FA0849284608F0B1F84E
:1011D000204609B030BD00BFF1110000C815002045
:1011E0004011002080250020E11400004BA00000E9
:1011F000014805F089BB00BFEC0D00202DE9F04748
:1012000080461F480F4607F01AFB0646002830D0DC
:1012100000252846BDE8F087237B73B12368DB688F
:101220000BB12046984723681B69D3B96368042231
:101230001968204600F002FA013610344C45EBD311
:10124000B8F1000FE5D0002DE2D02846FFF770FF7F
:101250000546002FF7D000214FF4A47005F0B4FF2D
:10126000F1E7204698470028E0D00AFA06F31D432C
:10127000E2E7044CDFF8109005464FF0010ADDE785
:10128000F8170020789A0000989A0000014B53F854
:1012900020007047CC9A000008B5034608462BB1E1
:1012A000044A136000F080FC002008BD6FF01500B8
:1012B000FBE700BF400B002010B5044C237813B9A6
:1012C000034805F021FB0123237010BD18210020E5
:1012D000EC0D002010B50446084807F0B0FA5CB1E8
:1012E000BFF35B8F064B53E8001F013943E8001240
:1012F000002AF8D1BFF35B8F10BD00BFF0170020AC
:10130000F41700200020064BBFF35B8F014653E823
:10131000000F43E80012002AF9D1BFF35B8F70473A
:10132000F017002070B5FFF7EDFF084C084E05469A
:10133000B44200D370BD63685B792BB123685B68EE
:1013400013B12946204698471034F1E7789A0000F7
:10135000989A000010B5044C0449204607F000F9A3
:10136000034B1C6010BD00BF140D0020B89A000094
:10137000E8170020084A094808B500231370084AF6
:101380001360084A4FF400411360FFF785FFBDE882
:101390000840FFF7DFBF00BF192100203B88000095
:1013A000F0170020F4170020014600220148002316
:1013B00007F0F7B8140D0020014807F090B900BFFE
:1013C000140D0020024B0146186807F0DAB900BF7F
:1013D000E8170020014807F010BA00BF140D0020E4
:1013E00070B5284B187800284BD0FFF7E5FF05466D
:1013F00090B1BFF35B8F244B53E8001F013943E8E2
:101400000012002AF8D1BFF35B8F204C204EB4426B
:101410002DD32846FFF7D6FF1E4B1F4C1B68002B11
:1014200019DD08F0F3F84FF47A72A0FB020302FB17
:101430000131C30BD4E9002043EA41439B1A4FEA30
:10144000D13140F2E93261EB0001934271F10001C8
:1014500001D3FFF767FFD4E9003213F57A7342F145
:101460000002C4E90032BDE87040FFF7B3BF636813
:101470005B7923B1236829461B68204698471034BE
:10148000C5E770BD18210020F4170020789A0000ED
:10149000989A0000F0170020C015002070B50D4D7F
:1014A000297861B90120FFF7A9FE0B4C0B4EB4421D
:1014B00006D3FFF795FF0028FBD101232B7070BDE9
:1014C00063685B791BB1236820469B68984710349A
:1014D000EDE700BF19210020789A0000989A0000DB
:1014E00000212DE9F0470846FFF788FE044658B36F
:1014F00040F267684FF0000908F0FAF81B4B1C4AED
:101500001B58136033B11B4B1B68092B02DD1A48B3
:1015100005F0FAF9194FDFF860A0002544B1204624
:10152000FFF706FE044618B94FF0FF384FF0FF39B9
:10153000FFF756FF064628B9B5B942464B46504616
:1015400005F006FA3546E9E74FF0FF384FF0FF396E
:10155000D2E72B689B691BB10022114628469847A9
:101560001035BD42F5D3E8E7054DFAE70800000065
:10157000EC170020F4170020EC0D0020989A0000D2
:10158000789A000013B5184807F059F9174B1B78E3
:101590007BB14FF02003EFF3118483F31288BFF384
:1015A0006F8FFFF71DFF84F31188BFF36F8F02B0B9
:1015B00010BD0F4B1B68002BF9D050B9002200233F
:1015C000CDE900230B484FF40042002306F05AF8FF
:1015D000EDE70928EBD1074808F026F8064802B0E5
:1015E000BDE8104005F090B9F41700201921002043
:1015F000EC170020C8150020EC0D002010B5064B9C
:101600001B68044698472146A060044807F047F845
:10161000BDE81040FFF7B6BF400B0020140D0020BE
:10162000044A054B9B1AB1EBD30F34BF52F831007B
:1016300000207047D0990000789A0000084BC31A28
:1016400010B41B1144680133237143689A714368D5
:101650001960436801225A7110BCFFF72DBE00BF0C
:10166000789A00002DE9F04F8FB004AFC1F34A28FB
:10167000B8600D4691467B600C0DB8F1000F63D049
:10168000002607F114034FF0040B4FF00A0AC7F8C5
:101690000C80C7E907667E620193CDF808B0CDF8EB
:1016A00000A007F11C03F96832464846FFF720FA0C
:1016B000B0F5006F03461CD36C468AB0D9F804100D
:1016C00004AB2648C3E9050140F2FF71D9611A460F
:1016D0004FF400711984224B42F8103F21483346E1
:1016E0004FF41251FFF7BEFFA5462C37BD46BDE8AB
:1016F000F08FC0F30A0804F11700184420F0070027
:1017000080083B60FFF750FE68F35325044690B114
:101710003B68154AC7E9083600F1100107F11403C8
:10172000F961CDE900A3CDF808B0F96807F11C0311
:101730004846FFF7DDF968F353257B68B9682A4608
:10174000204607F0B2F8D0E704F1170020F00700B8
:101750008008FFF729FE0446EDE700BF60A0000007
:1017600004000001389A00007F8800002DE9F04F46
:1017700087B0DDE91269DDE9105A04460F46934649
:101780009846A6B31021CDF800903346524600206B
:10179000CDF81490FEF7DAFF014605F11700084472
:1017A000144B039104F007040BF0070BE40020F046
:1017B000070003EA412344EA8B1480081C43FFF727
:1017C000F3FD44EA0554054640B13EB10399CDF816
:1017D0000090334652461030FEF7B8FF434622468B
:1017E0003946284607B0BDE8F04F07F05EB83146ED
:1017F000D3E700BF00FE0F000EB403B503AB0146F4
:1018000053F8042B0448019301F022FA02B05DF86A
:1018100004EB03B0704700BF11890000CA0605D46D
:101820008B064CBF02490349FFF7E6BF704700BF74
:10183000A0A000009FA000002DE9F04F89B09A46BB
:10184000DDE914739DF84CB00593169B179E069224
:1018500004460D460493BBF1000F00F0858006F0AE
:101860000803079307F009F806F00209024600286A
:1018700049D086492046FFF7BFFF8046B9F1000FE7
:1018800008D016F0440F40D181492A462046FFF780
:10189000B3FF804406F0010353B17E4B7E4953F8F9
:1018A0002B207E4B2046002A08BF1A46FFF7A4FFD4
:1018B00006F00803002B54D0794B7A4953F82B20BB
:1018C0002046FFF799FF0546069B2BB176491A463D
:1018D0002046FFF791FF0544BAF1000F05D0734988
:1018E00052462046FFF788FF05444544002F49D162
:1018F000049B002B4FD1F30700F1C18031462046F5
:10190000FFF78CFFB5E08046B8E7694B1868002800
:10191000BFD0684B4FF47A791B68B5FBF3F54FF4F1
:101920006161B5FBF0F300FB135509FB05F54FF0C2
:101930003C0CB3FBF1F201FB1231B5FBF0FEB1FB45
:10194000FCF300FB1E550CFB131109FB05F5009180
:10195000B5FBF0F55849CDE901E52046FFF74CFF0E
:1019600097E706F00805AFE7BAF1010F06D1002F9F
:1019700065D1049B002B7CD000250CE0002FF8D013
:101980004E485DE04E484F493B46224606F047FB35
:10199000049B002B69D0DFF83081DFF83091049F81
:1019A0003146102F204628BF1027FFF737FF4FF092
:1019B000000A554546DC059B49461A782046FFF744
:1019C0001BFF4FF0010A1AF0070F03D141462046D2
:1019D000FFF712FF57453CD9059B494613F80A20EB
:1019E0002046FFF709FF0AF1010ABAF1100FEAD108
:1019F000374920464FF0000AFFF7FEFE5246059B8E
:101A00009A5C344B995C11F0970F08BF2E22324933
:101A10002046FFF7F1FE0AF1010ABAF1100F1DD0BE
:101A20001AF0070F03D141462046FFF7E5FE574560
:101A30005246E4D841462046FFF7DEFEEBE7204859
:101A40005D46A0E741462046FFF7D6FE0AF1010AAF
:101A5000AFE722492046FFF7CFFEC4E7059B3B4492
:101A60000593049BDB1B049399D1BBF1000F7FF41A
:101A700042AF204609B0BDE8F04F06F03CBF074A30
:101A800005492046FFF7B8FE38E700BFA7A00000D1
:101A9000ABA00000DC9A000058A60000A2A0000045
:101AA000F09A0000D0A00000D6A00000DAA000004C
:101AB00000180020FC170020B4A000004789000097
:101AC00011890000512C0000E7A00000DFA00000F9
:101AD000E9A0000076AD0000EBA00000E5A000004A
:101AE0002DE9F0410F884B688E6886B005460C469C
:101AF0009046C7F382175BB1144A9B1A43F3CF0198
:101B0000002920DB2078C0F3C200FFF789FD0346DF
:101B10002146608851F8102B0197C2F34A22002A0F
:101B200001EB0204C0F30B1008BF00210022CDE935
:101B30000408CDE90214009231462846FFF77CFEE6
:101B400006B0BDE8F0810023E2E700BFD0990000B5
:101B500073B542F20F738B4228BF0B4605680F4ADC
:101B600004460521684605F0CDFF63680C495B68B3
:101B700006460B22284606F0B1FE636832466946E7
:101B800028465B6806F0AAFE636806495B681B226C
:101B9000284606F0A3FE02B070BD00BFB6AC000040
:101BA0000AA10000EEA00000074A00210123904294
:101BB00006D8064A01B901231360054B1860704727
:101BC00040085B000121F2E740420F00FC170020B3
:101BD00000180020014B01221A7070471A210020C2
:101BE000014B00201960704718180020024B034871
:101BF00001221A7006F07FBE1B210020209B0000EE
:101C00000148FFF7A5BF00BF209B000010B5064BA1
:101C100018680C46FFF73AFB21460346BDE8104022
:101C200002480F22184700BF18180020209B000010
:101C300010B9074B18707047064B1B781BB141F267
:101C4000883007F012BBA420002105F0BDBA00BF08
:101C50001A2100201B2100202DE9F843DFF87490A1
:101C60001D4F80460E46042499F8005095B904F0A3
:101C7000FDFA28463246414604F0AAFA054604F029
:101C8000FFFAE5B101233B7099F8003073B9304693
:101C9000BDE8F88332464146002004F099FA054633
:101CA000EFE72046FFF7C4FF651E2C46002004F036
:101CB000D3FA0028EBD03B78002BF2D1E7E73B7852
:101CC000002BE4D0013C2046FFF7B2FF3B78002B0D
:101CD000CAD1DCE71B2100201A210020014B002083
:101CE0001960704730180020024B034801221A7017
:101CF00006F001BE2D2100204C9B00000148FFF79B
:101D000027BF00BF4C9B000010B5064B18680C465F
:101D1000FFF7BCFA21460346BDE8104002480F22F7
:101D2000184700BF301800204C9B0000F8B5074F43
:101D30000D4604464618B44201D12846F8BD14F8B1
:101D4000011BBB6801485B689847F4E7D89700001F
:101D5000014805F02FBD00BF5C9B000038B504466C
:101D600018B90F4B0F485B6898476168B1F5683F39
:101D700010D0B1F5680F0DD00B4DA9420AD011F467
:101D80006861206807D00146084807F0A6FA0023DA
:101D90002360656038BD142207F072FCF9E700BFCC
:101DA000A00C002060A100002C5F5CA9341D002065
:101DB00008B520B34368B3F5683F10D1012203682A
:101DC000BFF35B8F53E8001F002903D143E80020D5
:101DD0000028F7D1BFF35B8F0DD1002008BD094A61
:101DE00093420AD000684FF0FF324FF0FF3304F007
:101DF000D5FC0028F1D00448F0E70448EEE76FF482
:101E0000E040EBE72C5F5CA9E98FFFFFEA8FFFFF63
:101E100008B5D8B14368B3F5683F10D10022036814
:101E2000BFF35B8F53E8001F012903D143E8002073
:101E30000028F7D1BFF35B8F0BD1002008BD074A04
:101E4000934208D0006804F023FDF6E76FF4E04009
:101E5000F4E70348F2E70348F0E700BF2C5F5CA912
:101E6000E98FFFFFEA8FFFFF10B5044618B91D4B3D
:101E70001D485B6898476368B3F5683F2FD0B3F59A
:101E8000680F2CD0194A934219D1236803BB184814
:101E90004FF0FF324FF0FF33214604F089FB08B9C1
:101EA00023681BB90F4B13485B68984720681422BE
:101EB000002107F0E5FB4FF46863636008E0B3F5C9
:101EC000683F0DD83A2B03D040F6BA629342DED178
:101ED000206807F049FA636843F03A03636010BD75
:101EE000054AF3E7A00C002060A100002C5F5CA96C
:101EF000341D002086A100003A00003A08B50649CA
:101F000006484023142207F0DAF9BDE808400449E6
:101F1000044805F0C1BC00BF34180020341D002067
:101F2000649B0000789B0000014910220A60704702
:101F300010ED00E072B6404080F31188BFF36F8F60
:101F4000BFF34F8F30BF62B6BFF36F8F704700BFD4
:101F500072B6494081F31188BFF34F8F20BF80F3E1
:101F6000118862B6704700BF2DE9F047814600AF87
:101F70000C4600294CD06E468AB0D1E90012A36805
:101F80006D462748A8464FF0050AC5E90501C5E991
:101F9000072348F810AF2348424600234FF421514D
:101FA000FFF760FBB546D4E903126369AD461E48EE
:101FB000C5F810A0C5E90501C5E9072319480023A4
:101FC00042464FF42151FFF74DFBB54688B0E36917
:101FD0006D46164AA8464FF0030AC5E9052348F89E
:101FE00010AF1048002342464FF4C251FFF73AFBAE
:101FF000B546A369AD460E4AC5F810A0C5E905234C
:102000000848002342464FF4C251FFF72BFBB54668
:102010002146484604F03AF9BD46BDE8F08700BFC6
:10202000B3A10000589A0000E2A1000011A2000034
:1020300020A2000040B2002807DB044A4109012326
:1020400000F01F00834042F82130704700E100E0BB
:1020500040B200280CDB4309064900F01F00203382
:102060000122824041F82320BFF34F8FBFF36F8FCF
:10207000704700BF00E100E0054B420900F01F007F
:1020800053F82220012303FA00F01040704700BFEC
:1020900000E100E040B20028A8BF00F1604001F17B
:1020A0000101B8BF064B4FEA4111ACBF00F56140DA
:1020B00000F00F00C9B2B4BF195480F80013704784
:1020C00014ED00E030BFFFF7FDBF00BF0B4A08B5BD
:1020D0000B4B22F07F029A60BFF34F8FBFF36F8FDD
:1020E000D3F8882022F47002C3F8882004F08CF919
:1020F00005F0FCF800F00CFC04F0D8F9000000003A
:1021000000ED00E0094A0A4993680968996709499E
:1021100058674B6843F080534B60002383F311886A
:10212000BFF36F8F9368986F704700BF081F002040
:10213000AC9D000000ED00E015498A684FF03000CA
:102140001044EFF3098C80E8F01F202080F3128800
:10215000BFF36F8F0F4F4FF000664A698A603E6091
:102160004FF07004141920680B4C2060506F00234E
:10217000536780F3118804B5104600F077FCBDE882
:10218000044002F1300090E8F01F8CF3098870479A
:10219000081F002004ED00E0501D00201EF0040F79
:1021A0000CBFEFF30880EFF30980816911F8021C7E
:1021B0000229FFD001B506F0D9FB01BD42F8203C51
:1021C000009B42F81C3C0A49019B42F8183C029BC8
:1021D00042F8143C21F001014FF0807342F8043CB6
:1021E00042F8081C0023203A02654367704700BF8D
:1021F000AD0E0000094A0346906870B113F1160F46
:10220000006E05D0A0F140029A4205D8834203D265
:10221000814228BF0020704700207047081F00201F
:1022200008B514460A4A0B4B9060026F1A600D46BF
:1022300000F01CFC204685F30988002163B681F379
:102240001188BFF36F8F00220023FEF72FFE00BF1F
:10225000081F0020501D002001B5EFF30580A0F1FC
:1022600010004FEAC0000449014409C99847BDE87D
:10227000014002490847000050980000DD2200009C
:10228000114B124A2DE9F041D518DFF84480013D89
:10229000B5FBF3F55D430F4B08EB0304013CB4FBC6
:1022A000F3F403FB04540E1B07460B49304607F0BA
:1022B000D9F9701942460021083E07F0E1F93E675E
:1022C00004F10800BDE8F0810100000000000000FA
:1022D0000400000004000000989A0000044B996874
:1022E0005869884203D003494FF080520A60704712
:1022F000081F002004ED00E02DE9F04186B00646FD
:1023000000AF0D46474B7B6102244FF48251464893
:102310003C6107F1100206F038FB444B9B6AD9047C
:102320006DD5434B4048C7E9044307F110024FF411
:10233000825106F02AFB17203C4B9B6A1A050BD5ED
:102340003C4B7B61022338483B6107F110024FF49C
:10235000825106F01AFB1820344CA36A9B0523D542
:10236000E846354B7B6102232F483B6107F11002A1
:102370004FF4825106F009FBA36BA26A100412D538
:1023800088B06A462D492848C2E90513032342F85C
:10239000103F4FF4C25106F0F8FAC5461EB1A36AC9
:1023A00023F40043A3621920204B9B6A59050BD5E7
:1023B000234B7B6102231C483B6107F110024FF461
:1023C000825106F0E2FA1A20184B9A6AD20518D503
:1023D0001C4B7B61022314483B6107F110024FF450
:1023E000825106F0D2FA1B20104A936A43F47F43CD
:1023F0009362183700232B70BD46BDE8F08116208C
:102400009AE79B6A9B04EFD50F4B7B61022306483A
:102410003B6107F110024FF4825106F0B6FA1C201E
:10242000E2E700BF4EA20000589A000000ED00E075
:1024300064A2000075A2000088A20000A1A2000012
:10244000B6A20000D1A20000E9A2000010B586B03B
:10245000364B3748059304AA02244FF48251049462
:1024600006F093FA334B9B6A9A015DD5324B3048A4
:1024700004AA4FF48251CDE9044306F086FA1E20E7
:102480002C4B9B6ADB010AD52C4B2948059304AAE7
:1024900002234FF48251049306F077FA1F20254B54
:1024A0009B6A1C030AD5264B2148059304AA0223E4
:1024B0004FF48251049306F068FA21201D4B9B6A69
:1024C00059030AD51F4B1A48059304AA02234FF457
:1024D0008251049306F059FA2220164B9B6A9A0304
:1024E0000AD5194B1248059304AA02234FF48251CE
:1024F000049306F04AFA23200E4B9B6ADB030AD5AD
:10250000124B0B48059304AA02234FF48251049303
:1025100006F03BFA2420074A936A6FEA03436FEA06
:102520001343936206B010BD1D20A9E718A3000055
:10253000589A000000ED00E030A3000043A3000023
:102540005DA300007BA30000A0A30000BAA30000CD
:102550002DE9F04786B0814600AF8A469046514B40
:102560007B61022450483C6107F110024FF4825114
:1025700006F00BFA4D4B9B6ADE0645D54C4B4A489C
:10258000C7E9044307F110024FF48251112406F009
:10259000FCF9464B9B6A1D070BD5464B7B6102231A
:1025A00041483B6107F110024FF48251122406F0BA
:1025B000ECF93E4DAB6A980728D56C463E4B7B61E3
:1025C00002233B614FF48251374807F1100206F0B5
:1025D000DCF96E6BAB6A190660D588B06A46374B7A
:1025E0003148C2E90536032342F8103F4FF4C25187
:1025F00006F0CBF9A546BAF1000F03D0AB6A23F081
:102600008003AB62132403E01024C2E76FF01506C9
:10261000264B9B6ADA070BD5294B7B6102232248A4
:102620003B6107F110024FF48251142406F0ADF91A
:102630001E4B9B6A9B060BD5224B7B6102231A48DB
:102640003B6107F110024FF48251152406F09DF909
:10265000164B9A6AD50602D49A6A90070AD55B6827
:10266000190507D549463046FFF7C4FD10B180F380
:10267000098802240D4B9A6A920642BF5A6A22F4D4
:1026800000525A629A6A42F0FF029A622046002380
:10269000183788F80030BD46BDE8F0876FF01506A2
:1026A000B0E700BFE5A30000589A000000ED00E08D
:1026B000FBA3000075A200002EA4000046A40000A9
:1026C0005CA40000E9A200002DE9F0437A4B8BB036
:1026D000D3F8048000AF0446C8F30805002686F34B
:1026E0001188BFF36F8F02F07F43B3F17F4F0ED19C
:1026F00002F00C03082B19D1704BFB6102237048C8
:10270000BB6107F118024FF4825106F03EF9002632
:1027100034460023FB71EB1E092B00F2AD80DFE88D
:1027200003F00AA0A39CABABABABABA610074CBFAE
:102730000C460126EDE7E946624BFB614FF00208CB
:1027400007F118025E48C7F818804FF4825106F06E
:102750001CF90023584DFB71EB6A9A070BD55A4BB5
:10276000C7E90683564807F118024FF4825106F074
:102770000CF9002342E0EB6A002B01DA534BEFE740
:10278000EB6A5B00F5D5524B4D48C7E9068307F16C
:1027900018024FF4825106F0F8F86B69A26943F40D
:1027A00080736B61BFF34F8FBFF36F8F6B6932F82C
:1027B000022C23F480736B61BFF34F8FBFF36F8FD5
:1027C0004DF602739A4209D0AB6ADBB2002B37D0C8
:1027D000FA1D01212046FFF7BBFE40E088B02368C8
:1027E0006A463C493648C2E90513032342F8103FC4
:1027F0004FF4C25106F0C9F82368CD46FA79DAB928
:1028000007F1080504F1200C206861682A4603C21C
:10281000083464451546F7D17A6A002E47D0C2F3D2
:10282000080121B96FEA52226FEA42227A6207F167
:1028300008011846FFF798FB2C37BD46BDE8F0832A
:10284000AB6A13F47F4F04D0F91D0120FFF754FD4C
:1028500005E0AB6AB3F5803F8BD3FFF7F7FD034686
:10286000CCE7FA1D0021B5E7F91D0020EEE71A4B71
:10287000FB610223BB6175E7184A194B18F4F87F16
:10288000E8468AB018BF13466A4616490C48C2E9A2
:1028900005134FF400731384103D134BD5614FF4AF
:1028A000115142F8103F06F070F8C54661E722F476
:1028B000FF7222F00102B9E700ED00E0A9A40000D8
:1028C000589A0000D4A40000EBA400000CA500005E
:1028D0001AA5000039A5000055A5000090A400002D
:1028E0007BA4000079A5000004000001024A53699E
:1028F00043F010035361704700ED00E0EFF30880F0
:10290000EFF3098101B57246FFF7DEFE01BD00BF9E
:10291000044800232021C2180133302B82F8001311
:10292000F9D1704700E100E0002080F31488BFF384
:102930006F8FFEF7FBFB00200D490860BFF34F8F40
:102940000C4880F3088800F03DF8202080F31188BF
:1029500009484FF40461401880F30988EFF31480AC
:102960000221084380F31488BFF36F8FFFF7AEFB9B
:1029700094ED00E080360020C0280020BFF34F8F88
:102980000549064BCA6802F4E0621343CB60BFF30B
:102990004F8F00BFFDE700BF00ED00E00400FA0527
:1029A0000749D1F890200023C2F30722184693422A
:1029B00000DB7047C1F89830C1F8A0000133F6E79A
:1029C00000ED00E008B572B6002383F31388FFF72B
:1029D000E7FF144B4FF0FF32C3F88020C3F8842088
:1029E000C3F88820C3F88C20C3F89020C3F8942043
:1029F000C3F89820C3F89C20C3F88021C3F8842131
:102A0000C3F88821C3F88C21C3F89021C3F894211E
:102A1000C3F89821C3F89C2162B6BFF34F8FBFF370
:102A20006F8F08BD00E100E0084B9B6883420BD12B
:102A3000EFF3058343B1064B5A6842F080525A6067
:102A40005A6A22F400425A6204F0DEBB081F0020DA
:102A500000ED00E0024B034A0348012100F092B868
:102A60000000042000000020889B0000026E054B3F
:102A7000403A1A60044A4021C3E901121846012174
:102A800000F08AB8541D002000000B152DE9F0411C
:102A9000DFF8B4E09C4600AF154600238B421ADAFB
:102AA0004468002C4DD0BCF1000F1DD0661E34428E
:102AB00015D06C4688B06A462449C2E90513032341
:102AC00042F8103F224800234FF4C251FEF7CAFDDE
:102AD0006FF01505A5462846BD46BDE8F0811F2CC0
:102AE000E7D902681642E4D1202C026886685FFAB2
:102AF00085F814D9B4F1004F13D8013CB4FA84F42A
:102B0000C4F11F046400B8F1070F46EA04060AD9AD
:102B10006C4688B06A460F4BC2E90535CFE70824FA
:102B2000F1E73E24EFE722F01F022A4342F01002B1
:102B300046F00106CEF89850CEF89C200135CEF82C
:102B4000A06001330C30A9E700ED00E090A5000083
:102B5000509A0000B3A50000044B0522C3F894204E
:102B6000BFF34F8FBFF36F8F704700BF00ED00E0E2
:102B7000BFF35F8F024B0022C3F89420704700BF61
:102B800000ED00E010B5034C01232278FFF77EFF33
:102B9000207010BD2E21002008B5094A00231278AC
:102BA000FFF774FF10F1160F03D0064B0022072821
:102BB00000DD08BDC3F89800C3F8A0200130F6E797
:102BC0002E21002000ED00E014490868082810B507
:102BD00021D8FFF7CDFF124C49680022904201F145
:102BE0000C0105D10F4B1870FFF7B6FF002010BD88
:102BF000C4F8982051F80C3C23F01F03134343F012
:102C00001003C4F89C3051F8043C43F00103C4F8AD
:102C1000A0300132E2E74FF0FF30E8E7949B00007C
:102C200000ED00E02E21002008B5024B1B689847FC
:102C3000002008BD601D0020034B044A18609378F3
:102C400043F0020393707047601D0020640B002066
:102C5000F0B587B007460E4614460021102268469C
:102C60001D4606F00DFD02238DF802302A46054B65
:102C7000019321466846CDE9047604F06FFF07B062
:102C8000F0BD00BF9189000008B50649064821F053
:102C90000701C1F1005202F5802205F051FA00202F
:102CA00008BD00BF133B0020003B00200E4A01235B
:102CB000C2F840354FF080424FF08051C2F878356D
:102CC000D1F83001082808D1D1F83411052904D8E9
:102CD0000648415C09B1C2F838364FF08043012202
:102CE000C3F880250020704700E00140E8A50000FF
:102CF00020B1034B800143F001031847704700BF28
:102D0000A09A0000084B70B5C31A0D4607499B10E6
:102D1000044659430648402205F061FE2B46014611
:102D20002046BDE870401847781D0020B76DDBB61F
:102D30009C97000073B50C4C0C4A4023041B009375
:102D40000D460B460A49A41061430646094805F0A2
:102D500072FE011E05DA30462B4602B0BDE8704017
:102D6000184702B070BD00BF781D0020A18A000086
:102D7000B76DDBB69C970000002270B501210446B8
:102D80001046FFF787F90F4802F002F90E4B984200
:102D900015D106F0BDF826690C49304605F05DFAFC
:102DA00000280BDB012535642469084904F11C0067
:102DB00005F053FA002801DBE564002070BD6FF0D8
:102DC0000400FBE7052E00000000AD0BB49B0000E3
:102DD00070B501460C2309484B43C418D4E90E567C
:102DE000403300221844A26305F0E6FD2DB13246BF
:102DF0002B460348BDE87040184770BD781D002081
:102E00009C97000010B1012804D07047034B1B6C45
:102E10005B0701D1FFF7DCBF704700BF781D0020C2
:102E200008B54FF02003EFF3118183F31288BFF34D
:102E30006F8F124A136843F002001060DA0708D45B
:102E400081F31188BFF36F8F0120BDE8084006F0C1
:102E50006CB84FF08043D3F80C24D3F80C34DB0764
:102E6000EED5074805F0A8FD81F31188BFF36F8FF9
:102E70000020BDE80840FFF7ABBF00BFC81D002021
:102E8000B81D00201FB500220123CDE90223094A05
:102E9000CDF800D06B46CDF804D005F0FAFD00283F
:102EA00005DB4FF480420023684603F051FD05B076
:102EB0005DF804FBBF8A000010B54FF02003EFF36C
:102EC000118483F31288BFF36F8F074A136823F0CE
:102ED0000201DB07116002D4012006F062F884F3DE
:102EE0001188BFF36F8F10BDC81D00202DE9F04180
:102EF0003849BFF35B8F0746012251E8003F41E8A4
:102F000000200028F9D1BFF35B8F33B93249334831
:102F10004B60CB608A6005F0B3F97B1E012B2BD888
:102F2000012F07D14FF08043D3F81C3403F0030383
:102F3000012B21D006F0F7F90546F8B9284B1B788C
:102F4000E3B14FF080430222C3F808230646DFF8BE
:102F500094804FF08044D4F81824D4F81834D20365
:102F600016D503F00303012B01D0012F10D15DB35F
:102F700086F31188BFF36F8FBDE8F0814FF0200317
:102F8000EFF3118683F31288BFF36F8F0125DEE71D
:102F9000ADB13046FEF7DCFFD4F81835002BDAD19E
:102FA000D4F80421002AD6D0C4F80431D4F804316E
:102FB0000123C4F81835C8F88031A360CBE700219D
:102FC000212004F001F9E7E74FF080430222C3F823
:102FD0000423D1E7741D0020641D0020941D0020EF
:102FE0004125002000E100E008B5074806F042F95D
:102FF00038B10648FFF720FE0448FDF751FF0020D6
:1030000008BD6FF01200FBE7D897000011300000F8
:103010000A2838B5074D044604D1AB680D215B681A
:1030200028469847AB6803485B68E1B2984720465A
:1030300038BD00BFD897000030B54068057B01F06F
:103040001F04B2F5001F85B044EA451405D120469F
:1030500002F07AFA002005B030BD0025B2F5800FED
:10306000CDE9025514D1B3F1007F0CBF0423052331
:103070008DF808300023194602AA204602F080F895
:10308000234B98423DD10121204602F00FFAE1E79F
:10309000B3F1C06F27D0B3F1007F14BF0123022327
:1030A0008DF80830836823FA01F111F00101E1D1B4
:1030B000B2F1A07FDED104F01F03620903F5E073D3
:1030C00013D0012A20D1134A52F82330DB07D1D480
:1030D0000DF107052946204602F092F90E4B984261
:1030E00006D00395C6E70323DAE74FF0A042EBE7EB
:1030F000284602F0D5F9064B9842F2D06FF00B004B
:10310000A9E76FF01500A6E751F82330FFDE00BFF6
:103110000000AD0B000300500400AD0B10B502F031
:10312000AFF9044668B902F083F9084B98420AD116
:103130000748214602F05EF9224605210620FEF7E7
:10314000A9FF002010BD6FF00400FBE70000AD0BED
:1031500055310000420970B5034602D0012A17D04C
:1031600070BD0D4E326951680029F9D003F01F037C
:1031700001250C689D400029F2D08A682A4002D0BF
:103180004B68304698472CB1236821461C46F2E72D
:10319000024EE7E72346F8E7C4970000B097000027
:1031A0002DE9FF4147683B7B01F01F0545EA4315C8
:1031B0000E4628460DF10701144602F021F914F4D9
:1031C000403F80460DD1284602F0E4F93D4B98453A
:1031D00003D19DF8070002F05DF9002004B0BDE8BE
:1031E000F0810023194602AA2846CDE9023301F0F6
:1031F000C7FF344B984214D1804503D19DF8070096
:1032000002F048F9A3034ED540F206332340B3F54C
:10321000837F1AD00DD8062B18D005D8B3B1022B56
:1032200033D06FF01500D9E7B3F5807FF9D10123D2
:103230000CE040F20222934229D0B3F5407F28D01F
:10324000B3F5007FEDD1022300E007238DF80830AD
:1032500084F48033C3F30043E0068DF8093054BF93
:10326000C4F34013032321038DF80A3013D57A6881
:103270000123B340C2F80835002202A9284602F013
:103280003FF8104B9842A8D0CBE70423DEE7052394
:10329000DCE70323DAE7620341BF01237A68B34026
:1032A000C2F80C35E8E7E3064FF0000354BFC4F35F
:1032B000401403241A4602A928468DF8084001F05C
:1032C0005FFFDEE70000AD0B08B543681B68D3F86D
:1032D0000805D3F80C1502F0DDFE034B984214BF2D
:1032E0006FF00F00002008BD0000AD0BB0B5044624
:1032F00082B0002200AF01210320FEF7CBFE6368FD
:103300009D693A1D0021284605F0BEFC002827DBF8
:103310007B682A681979186800F066FC00281FDBB2
:1033200060682369114A00F1080102F059FD104B51
:10333000984218D023686C4688B06A460D49C2E9A5
:1033400005134FF4007393830B4B42F8103F0B4867
:1033500000234FF4E251FEF785F96FF00F00A54608
:103360000837BD46B0BD0020FAE700BF813300003A
:103370000000AD0B3BA6000003000001209A0000F6
:103380000378012B08D0022B08D04BB9054B0B62F8
:1033900001F1100003F0B8BA034BF8E7034BF6E76E
:1033A000034BF4E70000AD0B0100AE0B0200AE0BC7
:1033B0000100AD0B10B511F001034268046986B03D
:1033C0000FD1C1F3420001280ED0022815D00D4ABA
:1033D0000592022204920C4804AA4FF48251FEF78F
:1033E00041F96FF0150006E013684FF0CC72C3F896
:1033F00024250020616206B010BD13684FF0CD6235
:10340000F5E700BF5BA60000209A00002DE9F04F11
:103410008BB000AF06460C469246BB60D0F80490D5
:10342000D0F810804FF0FF324FF0FF33404603F0EA
:103430008FFA08F11003FB600022002308F110004E
:1034400003F086FA484602F00FFDDFF804B10025CC
:10345000554501D3002453E0237A3B6013F0080163
:1034600072D1122207F11600796006F009F93B6863
:103470006068B968B86103F001022068797513F0DB
:10348000020F79683A75386216D10AF1FF33AB4200
:1034900002D9237D5B0711D5002A55D1202207F1DF
:1034A0001401484602F00CFD584509D0294B9842BA
:1034B00024D16FF00F0423E00A46F0E74022EEE744
:1034C0000023F8684FF4804203F042FA034610B339
:1034D0006C4688B06A46204BC2E90535032342F8A2
:1034E000103F1E4800234FF4C251FEF7BBF8484678
:1034F000A54602F0C9FC3046FFF7E6FE6FF0040473
:10350000484602F0C1FC404603F0FEF920462C3745
:10351000BD46BDE8F08FD8F82010594504F10C04E1
:1035200010D06C4688B06A460D48D561C2E90501E5
:10353000042142F8101F09484FF40151FEF792F898
:10354000A546DBE7013583E76FF08504D8E700BFC8
:103550000000AD0B0B00AD0B6DA60000209A000023
:1035600097A600007FB5084B0593022304930748F4
:10357000002304AA4FF48251FEF774F86FF015008F
:1035800007B05DF804FB00BFD6A60000289A000033
:103590007FB5074B05930748022304AA4FF48251D5
:1035A000049305F0F9FA6FF0040007B05DF804FB2E
:1035B0000CA70000109A00002DE9F04F8FB00646CE
:1035C00000AF06F1C803FB604FF0FF324FF0FF334E
:1035D00006F1C80003F0BCF9F86803F0E1F93268BD
:1035E0005368D2F8108018689B884FF04002FA7533
:1035F00007F117023A6201227A62002287F8282036
:10360000062207F118043A630722FC6287F8342087
:10361000826807F1200195680222A8470546A0B1FB
:103620006C4688B06A462C4BC2E90530032342F849
:10363000103F2A484FF4C45105F0AEFAA5460021C8
:1036400040F2676003F0C0FDC6E708F12003BB60ED
:103650004FF0FF324FF0FF3308F1200003F09EF8E7
:1036600008F5877A2946A946637825783AF802BF93
:1036700045EA0325AAF80050D8F83830002D18BFC5
:103680004FF00109B3B185EA0B0B00222BFA02F3CC
:10369000DB070CD5012393402B42D8E90D0C14BF56
:1036A00001230023C7E90021E047D7E900210132C7
:1036B0000D2AEBD10131032904F10204D4D1B868F9
:1036C00003F0E6F840F26760002103F07DFDB9F1F8
:1036D000000F3FF476AF7FE72EA70000109A00009E
:1036E00010B501461A44096940684C68944288B094
:1036F00027D88968914224D3FBB140F2DC539A4227
:103700001DD840F2EE239A4294BF832285228DF881
:1037100007200DF10701012205F045FA58B10A4BC7
:103720000A48079306AA02234FF48251069305F034
:1037300033FA6FF0040008B010BD8122E7E787225A
:10374000E5E76FF01500F6E75AA70000109A0000B1
:10375000B0B5034682B07F2940681C6900AF1546AA
:1037600035D8CB081C443B7101F0070101238B4085
:10377000227CDBB225B313439A427B7125D002220F
:10378000391D05F010FAF0B1124A134B6C4688B09F
:10379000002D18BF13466A4610491148C2E90513A7
:1037A0004FF4007393830F4B42F8103F4FF4E251F4
:1037B00005F0F2F96FF00400A5460837BD46B0BD2C
:1037C00022EA0303D8E77B7923740020F5E76FF042
:1037D0001500F2E743A4000081A7000085A70000C0
:1037E000109A0000030000012DE9F04196B0056930
:1037F0004468286008AF206805F03CFD88B99B4B01
:103800007B6302239A483B6307F130024FF48251F5
:1038100005F0C2F96FF0150630463837BD46BDE8F1
:10382000F08110220021A81805F02AFF00224FF491
:10383000FA63C5E901234FF4C803EB6007F10C01FB
:103840002123012220463B7305F0ADF9014688B1E2
:103850006C46224688B0874BC4E90530032342F802
:10386000103F83484FF4C25105F096F9A5466FF01A
:103870000406D1E7112207F10C0005F001FF112227
:1038800007F10C01204605F08EF930B16C46224656
:1038900088B0794BC2E90530E0E7EF23012207F158
:1038A0000C0120463B7305F07EF920B16C462246A0
:1038B00088B0724BEEE78123012207F10C0120460C
:1038C0003B7305F070F9064630B16C46224688B06D
:1038D0006B4BC4E90530C1E705F1200005F044FD5C
:1038E0000122314605F1C80005F045FD237A002B81
:1038F00000F08A80E06805F0BDFC08B9614B7FE705
:10390000638AE068217C43F48032D0F810E0D0F87C
:10391000088013F0010F4FF0010CDEF800300CFAB4
:1039200001FC14BF4CEA030323EA0C03CEF8003079
:10393000D8F80030984778B16C46224688B0524B90
:10394000C2E90530032342F8103F49484FF4C25101
:1039500005F022F9A5465DE7237C4C4A4FF00108AB
:1039600008FA03F3C5E91023E0688368DB6905F111
:103970003C013BB14246984738B16C46224688B07C
:10398000434BDDE76FF08500F7E7A12307F10C015A
:10399000424620463B7305F006F9014658B13D4BBF
:1039A0007B63022332483B6307F130024FF48251BC
:1039B00005F0F2F85BE74022FA70FA1C2068A38851
:1039C00087F82810C7E908283A1DFA6206223A63E8
:1039D000072287F83420826807F12001D2F8088096
:1039E0000222C04708B12C4BDAE7E068217C8368EB
:1039F0004FF0A0729C694FF00073A04700B36C4673
:103A0000224688B0254B9BE7A023012207F10C0139
:103A100020463B7305F0C7F808B1214BC0E705F11C
:103A2000D80420493246204605F0F2FD41F69A12AC
:103A30000023CDE9002320460022002303F022FECC
:103A400000220023CDE9062300236FF00D02CDE90B
:103A50000323CDE901330095134B4FF4C87205F5EC
:103A6000A07105F1480002F011FED5E6A3A7000001
:103A7000109A0000BCA70000EFA700001CA80000DF
:103A800047A8000070A8000085A800009F8B0000D8
:103A9000AAA80000CEA80000F1A8000014A9000008
:103AA0003FA90000938B0000B93500002DE9F047D5
:103AB0004668336800AF0546D3B96C4688B00168E4
:103AC0006A463C48C2E905014FF4007191833A49C6
:103AD00042F8101F39484FF4E251FDF7C3FDA546E7
:103AE0006FF01204336863BB2046BD46BDE8F08723
:103AF0000024F7E76D4688B06A46314BC2E90530CD
:103B0000032342F8103F2D4800234FF4C251FDF724
:103B1000A9FDAD46E8E76C4688B029686A462948A1
:103B2000C2E905014FF400719183234942F8101F47
:103B300022484FF4E251FDF795FDA5466FF01204BF
:103B4000D2E7002CFAD1A0464FF00109746854F86E
:103B5000380004EBC80A05F08DFB03460028DAD0D4
:103B600054F838009AF80410BAF80630D0F810C0AB
:103B7000D0F808A0DCF80040DA0754BF43F4B013D3
:103B800083F4D01323F4801209FA01FEDB074CBF43
:103B900044EA0E0424EA0E04CCF80040DAF80030BF
:103BA000984704460028A5D1336808F10108434529
:103BB000CCD899E76FA9000003000001309A0000FB
:103BC0009AA90000B9A90000036803F01F025B096D
:103BD000026004D0012B034818BF002070474FF04B
:103BE000A0407047000300502DE9F04FDFF88491AA
:103BF00085B01546824600EB81014FF00108514522
:103C000003D1002005B0BDE8F08FDAF8003003F0F2
:103C10007F04C3F343277F2C4FEA134308BF4FF0C1
:103C2000FF34222B00F2A380DFE803F012232B44A1
:103C30002E3544A1A1A1A14773A1A1A1A1A1A1A138
:103C4000A1A176818487A1A1A18A909396999C00D5
:103C5000C5F80C45601C1BD003A80394FFF7B4FF04
:103C6000039B08FA03F3C0F8083501264FF0010B57
:103C70002CE0C5F81445631C0AD000264FF0000B59
:103C800024E0C5F80845E5E7621CC5F808456CD195
:103C90000AF1040AB3E7631CC5F80C45F8D0012605
:103CA00003A80394FFF790FF039B08FA03F3C0F8FF
:103CB0000C35DBE7C5F81045DDE7C5F80845002FF2
:103CC000D9D1671CE4D00026B3460627DAF80030C5
:103CD000019303F40052002A03A81CBF01264FF0F1
:103CE000000B0394FFF770FF039A019B00EB820027
:103CF000C3F3C114D0F800273B0243EA840343EA2C
:103D00000B0302EA0902134343EA4603C0F80037F3
:103D1000BEE7C5F80C45D2E7C5F86045661CDAF881
:103D20000030B5D0C3F38033002BB8D094E7C5F88A
:103D30006445F3E7C5F86845F0E7C5F86C45EDE77D
:103D4000C5F82445621CA3D0012697E7C5F828458D
:103D500080E7C5F83045F5E7C5F83445F2E7C5F822
:103D60003845EFE7C5F83C45ECE7002698E76FF0EB
:103D7000850047E7F0F8FCFFF0B54B79012B26D022
:103D8000032B21D110258B79032B1DD1CE790EB1B8
:103D9000012E19D10A7912B1022A15D10E220B680F
:103DA0004468B3F5164F276867D02DD8B3F5165F72
:103DB00066D016D8B3F5966F64D00AD8B3F5967F5F
:103DC00063D0B3F5167F63D06FF0850054E0002513
:103DD000D9E7B3F5166F5ED0B3F5965FF4D1384BE3
:103DE0003CE0B3F5E14F59D007D8B3F5615F57D048
:103DF000B3F5964FE8D1334B30E047F61224A34297
:103E0000E2D14FF4000329E0B3F5613F4AD013D863
:103E1000B3F5963F49D009D84DF6C024A34246D009
:103E2000B3F5614FD0D14FF46B0317E0B3F5E13F29
:103E3000CAD14FF0EB7311E0B3F5612F3AD008D837
:103E4000214CA34239D0B3F5E12FBDD14FF0E86347
:103E500004E01E4CA342B7D14FF080530469C7F869
:103E60002435436835431B682A43C3F86C2503C9CE
:103E7000231D83E803000020F0BD4FF41D03EDE790
:103E8000134BEBE74FF49E23E8E74FF4A033E5E74D
:103E90004FF41C33E2E74FF41D23DFE70D4BDDE762
:103EA0000D4BDBE74FF06C73D8E70C4BD6E74FF4C4
:103EB0006503D3E74FF07063D0E74FF08063CDE741
:103EC00000B0130000A04E0090D0030040420F004D
:103ED0000050270000C0750000F03A0000903A0141
:103EE0002DE9F043002287B0804601210220FEF731
:103EF000D1F80220FEF79EF8D8F80470D8F81060C8
:103F00003C680021C4F80015C6F80080D7F80C9072
:103F10006A46484604F0B8FE051E25DB009BD9F82A
:103F2000002019791868FFF75FFE051E1CDB311DA4
:103F30004046FFF721FF0546B0B97B68990723D5B6
:103F400006F1180001F03AFC234B984210D0234BA5
:103F500005930223049322482B4604AA4FF482516E
:103F60006FF00405FDF77EFB284607B0BDE8F0833F
:103F7000307E04F10C0204F5907104F0BFFF337E33
:103F80000120984000F09CFF0823C4F800353B7ADC
:103F900053B9C4F81031D4F810317369C4F834350A
:103FA0000123C4F8383523607B689A075CBF4FF45F
:103FB0008073C4F804337B68DB0644BF4FF480038E
:103FC000C4F804333369C4F844350023C4F84835D1
:103FD0000123A360E360C7E70000AD0BE1A9000087
:103FE000709A0000F8B5044607690D4605F09BF984
:103FF000B0B92E4B1B789BB16426606804F07AFE42
:1040000000BB012004F078FF013EF6D10021212001
:1040100003F0DAF8F0E786F31188BFF36F8FF5E766
:104020004FF02003EFF3118683F31288BFF36F8FF5
:104030006068314604F05EFE90B986F31188BFF3E4
:104040006F8FEDE74FF02003EFF3118683F31288B3
:10405000BFF36F8F6068314604F04CFE0028DAD061
:104060003B691D70626838691368C3F84405012014
:10407000C3F848050020C3F82001D3F82051C3F845
:1040800058015268D3F85801D20608D56268126800
:104090000820C2F800054FF48002C3F8042301226F
:1040A0009A6081F31188BFF36F8FF8BD412500201E
:1040B0002DE9F04387B045680669D5F8208000AF48
:1040C0003A460021404604F0DFFD041E1EDB3B683B
:1040D000D8F8002019791868FFF786FD041E15DB53
:1040E000686A441C25D000F037FB10F1130F04461A
:1040F00011D1364B7B61022335483B6107F1100239
:104100004FF4825104F057FE6FF0120420461C3722
:10411000BD46BDE8F083411D0BD12E4B7B610223D0
:104120002B483B6107F110024FF4825104F043FE2B
:10413000ECE7EB699847B5684FF00108D6E9023221
:1041400003EBC2039D4204D3304604F04BFE00242F
:10415000DCE7286805F08EF8B0B92B686C468AB0A9
:1041600019682B796A461C48D3614FF40073138495
:104170001A4BC2E9050142F8103F15484FF411519E
:1041800004F019FEA546BFE728682979EB88D0F826
:1041900010C0D0F80890DCF80040DA0754BF43F4B0
:1041A000B01383F4D01323F4801208FA01FEDB0766
:1041B0004CBF44EA0E0424EA0E04CCF80040D9F8BF
:1041C00000309847041EA1DB0835B7E71EAA00009F
:1041D000689A000049AA000066AA000004000001D5
:1041E0007FB5054640682A69936C116DE3B9A9B1A2
:1041F000546C91651E460B46D26C0292CDE9004686
:10420000EAB1002918BF194603910022694601F05E
:1042100013FC0D4B984214D06FF00401286904B0D0
:10422000BDE8704004F008BE546C11B18B4228BF49
:104230000B46002C936514BF1E460026DCE7114692
:10424000E2E704B070BD00BF0000AD0B10B503780D
:1042500086B00C46002B5ED18A6D42B94B6D186951
:104260006FF0730106B0BDE8104004F0E5BD8B6C43
:104270005BB19A421ED9294B05932948022304AA0F
:104280004FF48251049304F096FD236DA26D5BB14F
:104290009A4227D9214B05932148022304AA4FF4BF
:1042A0008251049304F087FD606D06B0BDE81040B4
:1042B000FFF796BF9B1A8B6473B94B6B08334B6344
:1042C0008B6B013B8B6301F1480204F13400383100
:1042D00004F05EFD6064D8E74B6C002BD5D013442E
:1042E0004B64D2E79B1A23657BB9E36B0833E36326
:1042F000236C013B236404F1500204F1400104F1FA
:104300003C0004F045FDE064CEE7E36C002BCBD02D
:104310001344E364C8E706B010BD00BF8AAA0000DA
:10432000689A00002DE9F04F8BB000AFC7E9023268
:1043300043687B608B8804699A040646884636D4B5
:104340004FF0FF324FF0FF3304F1100002F000FB9A
:10435000C4F80480D6F81090D6F804A099F85D301F
:1043600023B1D9F80030984500F01781B8F804C09F
:104370001CF4006F22D0744B7B62022373483B62B3
:1043800007F120024FF482516FF0850504F013FD10
:1043900023689B8813F4005304D1636004F1100078
:1043A00002F0B2FA28462C37BD46BDE8F08FA3696B
:1043B000002BC5D163689942C2D1CBE71CF0010F35
:1043C00015D06D4688B033686A4661495F48C2E9D6
:1043D00005134FF4007393835E4B42F8103F4FF484
:1043E000E25104F0E8FCAD466FF01505D0E71CF093
:1043F000080F0BD0584B7B62022354483B6207F1F5
:1044000020024FF4825104F0D6FCEDE7CCF34513C3
:10441000082B01D0514BEEE7D8F80050504B9D428D
:1044200001D8504BE7E70AF1080BBBE80F0007F192
:10443000100EAEE80F00DBF80030CEF800304A4B2B
:104440009D425DD9494B9D425DD9494B9D425DD905
:10445000484B9D425DD9484B9D425DD9474B9D429B
:104460002CBF4FF000454FF080451CF0020FBD619E
:104470000CF0040353D0002B14BF032302233B771B
:10448000CCF300137B77DAF80030D3F808351CF052
:10449000020F4FEA5312CCF3400103F01F0345D142
:1044A000002A40D0012A40F029813549012202FA30
:1044B00003F3C1F80C3599F85D302BB1504601F08B
:1044C00083FA002389F85D304B462E4A07F110012C
:1044D000504601F045FA2C4B984259D06D4688B0B1
:1044E0006A462A4BC2E90530032342F8103F1748B9
:1044F0004FF4C25104F05FFCAD466FF0040547E78E
:104500004FF00075B1E74FF08065AEE74FF0006502
:10451000ABE74FF08055A8E74FF00055A5E7003B0B
:1045200018BF0123ABE74FF0A041BFE74AB1012A12
:1045300040F0E7801249012202FA03F3C1F808357E
:10454000B9E74FF0A041F6E7A8AA0000689A00007A
:10455000C2AA000003000001E4AA000003AB0000AF
:1045600047E8010032AB00008FD003001FA1070015
:104570003F420F007F841E00FF083D0000127A00BA
:10458000000300504D4200000000AD0B63AB000083
:10459000012389F85D30C9F80080012384F85C307C
:1045A0007B68586A431C0ED004F062FC74300AD158
:1045B000564B7B62022356483B6207F120024FF4C0
:1045C000845104F0F8FBFB68002B73D16363002374
:1045D000A36304F1480204F1380104F1340004F04B
:1045E000D7FBBB686064002B6CD1E36300232364BA
:1045F00004F1500204F1400104F13C0004F0C8FB56
:10460000E06420680023236348B183683BB1012143
:10461000083004F0D3FB2368186904F026FE304606
:10462000FFF7DEFD0022A06B1346834252D1002328
:10463000256C1946A94254D19342A04638BF13466F
:104640004FF4FA5202FB03F558F8203B4FF4004CAC
:104650001B68B5FBF3F540F2E730C83500214FF495
:104660007A720023E5FB0C01FBF74AFD02460B467C
:10467000404602F06DF900283AD0264B7B620223B7
:1046800023483B6207F120024FF4825104F093FB70
:1046900000257868A56501F097F984F85D503069C8
:1046A0006FF0730104F0C8FB404602F079F96FF037
:1046B00073056DE6FB681B686363002B87D0FB689E
:1046C0005B6885E7BB681B68E363002B8ED0BB6823
:1046D0005B688CE7616B01EBC301013349680A44F5
:1046E000A3E7E06B00EBC100013140680344A1E7A0
:1046F000256B15F1740F7FF44BAEC9E7C1F80C15AB
:10470000FFDE0023C3F80835FAE700BF8AAB0000DC
:10471000689A0000B4AB000000F01F0240090DD001
:1047200001280ED10A4B03EB82030A4AD3F8000793
:10473000024042EA8102C3F8002770474FF0A043CD
:10474000F1E702F5E072002353F82230FFDE00BFEC
:1047500000030050F0F8FCFF30B585B001238DF860
:104760000430054602230DF107008DF80830039050
:1047700000F096FE0C4B984204460FD1002302AA8B
:1047800001A9284600F0FCFCA0420AD09DF80700D1
:1047900000F080FE6FF0040005B030BD6FF0120035
:1047A000FAE70020F8E700BF0000AD0B70B5012369
:1047B00083400E4ABFF35B8FDC4352E8001F01EADF
:1047C000040542E80056002EF7D1BFF35B8F4FF48B
:1047D000803282400648C0F80823BFF35F8FBFF3E2
:1047E0006F8F0B4214BF0120002070BDE81D002018
:1047F0000010014070B40E49D1E90034D01AC3183A
:1048000044F1000422F07F46C1E90034A6F500130C
:10481000B3F5400F09D2074B1B681A0A1B069C19F7
:10482000054B42F10005C3E9004570BC02F034BEFF
:1048300010160020EC1D00201816002011B3BFF345
:104840005B8F0123104A834052E800CF4CEA030CEF
:1048500042E800C10029F7D1BFF35B8F0B4A4FF448
:1048600080338340C2F80433094BBFF35B8F1B686E
:10487000BFF35B8FC340DB0742BF064B4FF40032F0
:10488000C3F80021704700BFE81D00200010014060
:10489000E41D002000E100E00D4B1868010A00064D
:1048A000BFF35F8F0B4BD3F80435181841F10001AB
:1048B000B3F5801F0AD2084BD3E90023904271EB75
:1048C000030303D210F1807041F10001704700BF73
:1048D000EC1D002000100140181600202DE9F04FBB
:1048E00085B016461F469DF840A00446FFF75EFFC0
:1048F0000190FFF7D1FFB04271EB070354D23E4B5A
:10490000301A67EB0101984271F100014FD23B4B25
:1049100003EB0413D3E902239F4208BF96425ED003
:1049200037494FF4803804F1500508FA04F8AD0017
:10493000C1F848832046ADB204F0C2FA26F07F4B9E
:1049400005F1804504F5A87305F58835DC464FF080
:1049500003090293029A2CF07F4341F82230C1F8F8
:104960004483D1F80435274A6FF00200C01A60442E
:1049700020F07F40904232D9286868B1D1F80435E0
:104980000393A3EB0B0020F07F40B0F5000F26D976
:10499000204604F095FA039BBAF1000F07D109EB0A
:1049A000030C09F10109D5E7BAF1000F09D06FF046
:1049B000150520460199FFF741FF284605B0BDE8DF
:1049C000F08F0123104ABFF35B8FA34052E8000F22
:1049D000184342E800010029F8D1BFF35B8F074973
:1049E0000E98230101EB0412C8500F9B5360C2E9DB
:1049F00002670025DDE700BF0100800000160020EF
:104A000000100140FDFF7F00E41D00207FB51C4C1D
:104A10001C4BC4F80833C4F848331B4B00254FF037
:104A2000FF304FF0FF31C4F80855C3E902014FF4DD
:104A30008033C4F80433154B02264FF400320121B1
:104A4000C4F804631120C3F880212A46FDF722FB35
:104A50001120FDF7EFFA0E4A0123A36023601360D3
:104A60000C4B0D4A0093CDE9015500232846FFF772
:104A700035FF3046FEF73AFA284604B070BD00BF55
:104A80000010014003000F000016002000E100E0CC
:104A9000E81D0020F5470000FFFF7F002DE9F743E8
:104AA0002F4CD4F8043399070BD5D4F8043143B113
:104AB0002C4A0023C4F80431D4F8043113680133BC
:104AC0001360D4F80433DA032AD5BFF35B8F264B87
:104AD00053E8002F22F0010143E800100028F7D12D
:104AE000BFF35B8FD30702D4D4F84031C3B10025A4
:104AF000C4F84051D4F84031FFF7CEFE4FF0200308
:104B0000EFF3118283F31288BFF36F8F174BD3E952
:104B10000267B042B94106D282F31188BFF36F8FAA
:104B200003B0BDE8F0834FF0FF384FF0FF39C3E921
:104B30000289D3E900101D604FF48033C4F8483374
:104B4000C4F84051D4F8403182F31188BFF36F8F1D
:104B50000029E5D0009032463B4628468847DFE7EB
:104B600000100140EC1D0020E41D00200016002074
:104B70001FB5431C23D0012823DD134A134B904259
:104B8000D4BF04461C46FFF787FE114B0F49D3E9FB
:104B90000023801AB0F5000F28BF002404448C4283
:104BA00028BF0C46A2180B4900914FF00000CDE938
:104BB000010043F10003FFF791FE04B010BD034C68
:104BC000E1E70124DFE700BFFEFF7F00FFFF7F007A
:104BD00010160020F547000008B5FFF75DFE024BF8
:104BE0001B68C01A08BD00BF1016002010B5084C85
:104BF000012363601120FDF72BFA064BC4F808333C
:104C0000C4F84833044B4FF40032C3F8802110BD80
:104C10000010014003000F0000E100E07FB5FCF749
:104C20003DFC074B0593022304930648002304AA86
:104C30004FF48251FCF716FD0020FDF79FFE00BFE8
:104C4000F4AB0000089A00004FF08053D3F83021F5
:104C5000082A06D1D3F83431052B02D8024AD05C99
:104C600070470020704700BF17AC0000024AD2F81E
:104C70000034002BFBD0704700E0014010B54FF02E
:104C80008053D3F83021082A4ED14FF080420021C2
:104C9000C2F80C11C2F81011C2F8381502F54042E2
:104CA000D3F80414C2F82015D3F80814C2F8241558
:104CB000D3F80C14C2F82815D3F81014C2F82C1528
:104CC000D3F81414C2F83015D3F81814C2F83415F8
:104CD000D3F81C14C2F84015D3F82014C2F84415B8
:104CE000D3F82414C2F84815D3F82814C2F84C1588
:104CF000D3F82C14C2F85015D3F83014C2F8541558
:104D0000D3F83414C2F86015D3F83814C2F8641517
:104D1000D3F83C14C2F86815D3F84014C2F86C15E7
:104D2000D3F84434C2F87035FFF78EFF18B13A4B10
:104D30003A4AC3F88C26FFF787FF18B1384BFB229D
:104D4000C3F81825FFF780FF70B14FF080414FF096
:104D50008053D1F8E42ED3F8583222F00F0203F03A
:104D60000F031343C1F8E43EFFF76EFF20B12D4B54
:104D70004FF40072C3F840264FF08053D3F830311F
:104D8000082B1AD14FF08043D3F80024D20744BF38
:104D90006FF00102C3F800244FF08053D3F8343190
:104DA000052B02D8204AD35C3BB14FF01023D3F837
:104DB00008224FF08043C3F858254FF01023D3F852
:104DC0000022002A03DBD3F80432002B22DA174931
:104DD00001234FF01020C1F804351224FFF746FFDD
:104DE000C0F80042FFF742FFC0F80442FFF73EFF61
:104DF0000023C1F80435FFF739FFBFF34F8F0C498B
:104E00000C4BCA6802F4E0621343CB60BFF34F8FD0
:104E100000BFFDE710BD00BF005000404881030007
:104E200000F000400090024011AC000000E00140A2
:104E300000ED00E00400FA0530B50468CCB1BFF322
:104E40005B8FB4FA84F3C3F11F03DBB201229A40F3
:104E500024EA020250E8005FA54204D140E8002C99
:104E6000BCF1000FF6D1BFF35B8FE6D102480B70A7
:104E700030BD0248FCE700BF0000AD0B0200AD0BE7
:104E800010B50368CB40DB0714D401238B400268C4
:104E9000BFF35B8F43EA020150E8004F944204D114
:104EA00040E8001CBCF1000FF6D1BFF35B8FEED1E0
:104EB000014810BD0148FCE70000AD0B0400AD0B3C
:104EC000014BC3F80405704700F00140F7B50446F4
:104ED00018B1012823D003B0F0BD4FF08043022267
:104EE000C3F80823C3F80401D3F804210122DA60CF
:104EF000064601238DF8073042F210754FF08047C7
:104F0000D4B1012CE7D1D7F80C3403F48033AEBB15
:104F100083B3012003F0F0FF013DF4D12AE04FF00C
:104F200080430022C3F80803C3F80021D3F800210E
:104F300058600DF10706DCE7D7F8183403F4803326
:104F40003EB9002BC7D0012003F0D6FF013DF3D1BD
:104F5000C1E7D7F8182402F003023260002BBAD060
:104F60009DF80700012803D103F0C6FF013DC7D11A
:104F7000012CB0D1054B00225A71ACE7D7F80C24B4
:104F800002F001023270002BEAD1F3E7F01D00209D
:104F9000044B1A7922B9012218609A80024870479E
:104FA00002487047F01D00200000AD0B0C00AD0B57
:104FB00010B54FF08043D3F800216AB10022C3F846
:104FC0000021D3F800210122C3F80823114B58799E
:104FD00010B95A711B6898474FF08043D3F80421E9
:104FE00072B10022C3F80421D3F80421D3F81824A5
:104FF000D3F81824920704D10122C3F818259A6027
:1050000010BD0222C3F80823024BBDE810401B6804
:1050100001201847F01D0020036803F01F025B0900
:10502000026004D0012B034818BF002070474FF0E6
:10503000A040704700030050034A430900F01F00DE
:10504000D35C1844C0B2704728AC000008B5FFF725
:10505000F3FF034B083033F81000C0F3401008BDD5
:10506000180C002008B5FFF7E7FF034B083033F8B2
:105070001000C0F3400008BD180C002008B5FFF771
:10508000DBFF034B083033F81000400B08BD00BFB6
:10509000180C002070B50546FFF7CEFF0C4C083009
:1050A0000E4634F81030DA0508D5C3F3432304EB79
:1050B000C302284654F8333052689847A3682BB18E
:1050C000E26831462846BDE87040184770BD00BF11
:1050D000180C002010B5FFF7AFFF124A083032F865
:1050E0001030D9051CD5C3F3432123F4F85322F81B
:1050F000103002F10E04002034F8023F13F4807FD8
:1051000003D0C3F3432399420AD001303028F3D1AE
:10511000002342F831300448BDE81040FFF7B0BE2C
:1051200010BD00BF180C00208C0C0020F0B501460B
:10513000104A114C00200125064602F14043A3F518
:10514000C2439B0805FA03F3194204D0176817B14C
:105150001660176818430432A242EED1074BD3F809
:105160007C2132B10022C3F87C21D3F87C3140F09D
:105170000040F0BD00610040206100400060004040
:105180002DE9F04385B0054690461E46FFF754FFD3
:10519000044609B32846FFF765FF18B12846FFF714
:1051A00055FF38BB0023CDE900338DF80E308DF864
:1051B0000F300DF10F020B4628460DF10E0103F0E2
:1051C000F2FE4A4A04F1080132F8113023F00203DA
:1051D00043F0010322F81130B8F1000F31D0284616
:1051E00098F80070D8F80490FFF73CFF20B1B9F1AF
:1051F000000F1BD03E4826E03C4B04F1080C33F86E
:105200001C1021F02001C904C90C23F81C10B9F1AD
:10521000000F0BD0032FEDD8D8F8042092F800E04F
:10522000A7B9344B0EF5A27E43F82E702F4A04F135
:10523000080132F8113023F01C0343EA870322F8F7
:1052400011304EBB2C4805B0BDE8F0834FEA8E020A
:1052500002F1804202F5C04241EA4E31D2F8100517
:1052600020F00300C2F81005D2F8100520F44F30EA
:1052700020F44070C2F81005D2F81085280200F41E
:105280007C5040EA080040EA074041F0200123F842
:105290001C10C2F81005C9E7D6E900762846FFF7CA
:1052A00019FF002FCED0114DD5E90023974201D12F
:1052B0009E4218D011480DF10F01FFF7BDFD0E4BB6
:1052C0009842C0D19DF80F2045F8327005EBC2031B
:1052D00008345E6035F8143043EA422343F48073A7
:1052E00025F81430AEE70022EEE700BF180C0020CE
:1052F0000400AD0B006000400000AD0B8C0C0020E2
:105300002DE9FF4104461646FFF796FE054631B3E8
:105310002046FFF7A7FE20B92046FFF797FE00289A
:1053200060D1314F05F1080837F8183013F01C0F21
:1053300002D04B78012B55D001238DF80F3000237C
:10534000CDE900134A1C8B1C20460DF10F0103F020
:105350002AFE37F8183043F0030327F818301EB937
:10536000224804B0BDE8F0812046FFF77BFEC8B3B9
:105370001D4F96F800C005F10800614637F810503F
:10538000890025F0200501F18041ED0401F5C041BF
:10539000ED0C27F810500023C1F810357278002A60
:1053A000DED0D1F81035B67823F4991323F4F853EE
:1053B000C1F8103512042302D1F810E502F440328E
:1053C00003F47C531343320543EA0E0302F48012C4
:1053D00045EA4C35134345F0200527F81050C1F835
:1053E0001035BDE70248BCE7180C00200000AD0BEB
:1053F0000400AD0B014BC3E902017047180C0020FB
:1054000010B50446FFF722FE50B12046FFF714FE08
:10541000044B083033F8103003485B0B0B7010BDA1
:105420000248FCE7180C00200000AD0B0400AD0B97
:1054300070B50F4C94F87860BEB90E4D60223146BD
:1054400004F1100004F01CF9C5F87C610620D5F8C1
:105450007C31FCF7EFFD4FF00043C5F804330648FC
:10546000012384F87830636770BD0448FCE700BF0F
:10547000180C0020006000400000AD0B0500AD0BD3
:10548000034B93F87800003818BF0120704700BF25
:10549000180C002001460148FFF7F2BC880C0020E0
:1054A00001460148FFF7C8BC880C002037B5044608
:1054B000FFF7CCFD08B32046FFF7D4FD0546E0B961
:1054C0002046FFF7DBFD03B29B0003F1804202F5AB
:1054D000C24203F1804303F5C04315601268D3F85C
:1054E000102542F00102C3F8102521B1144A01230E
:1054F0008340C2F8043303B030BD2046FFF79CFD63
:10550000104B083033F81030C3F38203042B12D051
:10551000052B12D001A80194FFF77EFD019BD0F866
:105520001015D94001F001010231204603B0BDE859
:10553000304003F081BD0321F7E70221F5E700BF0A
:1055400000600040180C002010B50446FFF77EFDF7
:10555000C0B12046FFF786FDA0B92046FFF78EFDBB
:105560000B4A01238340C2F8083303B29B0003F1C6
:10557000804303F5C043D3F8102522F00302C3F89B
:10558000102510BD20460021BDE8104003F054BD99
:105590000060004073B50446FFF74EFD184E00F161
:1055A000080536F81530DB0727D52046FFF7CCFF76
:1055B0002046FFF74BFD40B12046FFF75FFD114B42
:1055C00000F5A270002243F820202046FFF782FD5C
:1055D000002301A826F815300194FFF71DFD019B5B
:1055E00000EB8300084BD0F80027134043F0020380
:1055F000C0F80037054802B070BD0548FBE700BFA2
:10560000180C002000600040F0F8FCFF0000AD0B1B
:105610000400AD0B2DE9F04F644BD3F80403C0B286
:1056200085B040F00040FFF781FD051E80F2A180AB
:105630004FF0A043D3F820250292C3F82025D3F8D9
:1056400020280392C3F820280DF108084FF0000924
:10565000574B09EB030B4FE093FAA3FA9BF800407A
:10566000BAFA8AFA4AEA44142046FFF7E5FC514B9D
:10567000019408304FEADA0233F810700AF0070399
:105680000120984018F8023023EA000308F802309D
:1056900001A8FFF7C1FC019B03F5E073B90850F8BE
:1056A0002330C7F38206C3F3014A4B0737462FD591
:1056B00020463146FFF7EEFC01A80194FFF7ACFC51
:1056C000019B03F5E0735FFA8AFA50F82330C3F3C5
:1056D00001439A4507D10021204603F0ADFC514615
:1056E000204603F0A9FC01A80194FFF795FC019A5C
:1056F00001239340C0F82035D8F80030002BABD1FF
:1057000008F10408B9F1000F1DD14FF001099FE71E
:10571000BAF1020F0CD10321204603F08DFC06F0F4
:105720000503012BDFD139462046FFF7B3FCDAE74A
:105730000221204603F080FC032EF4D0BAF1030FBF
:10574000D1D1022EEEE74FF00040FFF7EFFC4FF013
:10575000A0421949D2F820350293C2F82035D1F879
:10576000202503921343C1F820257FF46DAF25F067
:105770000045012415B905B0BDE8F08F95FAA5F3F1
:10578000B3FA83F304FA03F29B0003F1804303F5B9
:10579000C04325EA0205D3F81005D3F81015C0F36D
:1057A0000520C1F30141FFF775FCE3E7006000400D
:1057B00038AC0000180C00200003005001460148DE
:1057C000FFF73ABB940C0020036803F01F025B094B
:1057D000026004D0012B034818BF002070474FF02F
:1057E000A04070470003005007B5019001A8FFF7E3
:1057F000EBFF019B00EB8300054BD0F80027134023
:1058000043F00303C0F8003703B05DF804FB00BFAA
:10581000F0F8FCFF73B5CB7B0446002B38D10B7B33
:105820000878012B77D803F034FC0B78019301A89A
:10583000FFF7CAFF019B00EB83003C4BD0F8002729
:10584000134043F00103C0F800374878FF2804D024
:1058500003F01FFC4878FFF7C7FF8B78FF2B0FD0B2
:1058600001A88D7B0193FFF7AFFF019B00EB830045
:105870002E4BD0F80027134043EA8503C0F80037C9
:10588000C878FF2804D003F0F7FBC878FFF7ACFF17
:1058900023792748CA78282505FB03039A770B7CD0
:1058A0009BB94B7825680E78FF2B18BF1A468B786A
:1058B000C5F8086508BF4FF0FF32FF2B08BF4FF057
:1058C000FF33C5F80C25C5F8103523688A68C3F87E
:1058D00024254B7B0A7B2568003B18BF0123022A45
:1058E0001CD0032A1DD0012A01D143F00203C5F8C0
:1058F000543523794979282202FB0303D977237988
:105900005343C35883B1206840F3073002B0BDE869
:105910007040FCF78FBB03F0AFFB86E743F0040356
:10592000E5E743F00603E2E702B070BDF0F8FCFFE4
:10593000F81D002007B5019001A8FFF745FF019B66
:1059400000EB8300054BD0F80027134043F002031F
:10595000C0F8003703B05DF804FB00BFF0F8FCFFAF
:105960002DE9F04190F80480144C4FF0280C0CFB0A
:1059700008FC04EB0C06074696F81CE0BEF1000F8D
:1059800019D144F80C20736041B1CB7B86F82530E7
:10599000CB78B3774B79F377FFF73CFF3A68084849
:1059A0000123C2F80035282202FB08440022627756
:1059B0002377BDE8F0810348FBE700BFF81D002016
:1059C0000000AD0B0500AD0B70B50679194C0568EC
:1059D00028237343E35833B145F30730FCF738FB12
:1059E0000423C5F808330023C5F80035282303FB3A
:1059F000064393F82530BBB9D5F80805FFF79AFFA1
:105A0000D5F81005421C01D0FFF794FFD5F80C051E
:105A1000431C01D0FFF78EFF282303FB0643987F2A
:105A2000FF2801D0FFF786FF282303FB064400234D
:105A3000237770BDF81D00202DE9F8430779394C14
:105A400028237B439046E2180E46517F8146002969
:105A500066D1E3580BB10123537796E80F00282550
:105A600005FB074505F10C0C8CE80F00A87F00230F
:105A7000FF2885F8243001D003F00BFB2823B8F170
:105A8000000F06D003FB0743002227485A77BDE8E2
:105A9000F883D9F8005003FB07430422C5F8082314
:105AA000C3F82080C5F80881D5F8082172689AB13A
:105AB00033681B78C5F81C357368012B0ED9336821
:105AC0005B78C5F81C3528237B43E65876B1042360
:105AD000C5F804331548DAE7DB7FEBE7F368012B01
