:1000000080210020B11F0000019B00009D1F000007
:100010009D1F00009D1F00009D1F000000000000AC
:10002000000000000000000000000000B9200000F7
:100030009D1F000000000000852000009D1F0000A3
:100040007D2200007D2200007D2200007D22000034
:100050007D2200007D2200007D2200007D22000024
:100060007D2200007D2200007D2200007D22000014
:100070007D2200007D2200007D2200007D22000004
:100080007D2200007D2200007D2200007D220000F4
:100090007D2200007D2200007D2200007D220000E4
:1000A0007D2200007D2200007D2200007D220000D4
:1000B0007D2200007D2200007D2200007D220000C4
:1000C0007D2200007D2200007D2200007D220000B4
:1000D0007D2200007D2200007D2200007D220000A4
:1000E0007D2200007D2200007D2200007D22000094
:1000F0007D2200007D2200007D2200007D22000084
:1001000053B94AB9002908BF00281CBF4FF0FF317E
:100110004FF0FF3000F00CB8ADF1080C6DE904CEE3
:1001200000F008F8DDF804E0DDE9022304B07047D0
:10013000704700BF2DE9F04786468C460846089E6A
:10014000154674461946002B40F0C2808542B2FA2B
:1001500082F245D94AB1C2F1200300FA02FC2EFA1C
:1001600003F3954043EA0C0C94404FEA154EA8B2B5
:10017000BCFBFEF8230C0EFB18CC08FB00F943EA8D
:100180000C43994528D9EB1808F1FF3704D299455B
:1001900002D9A8F102072B44A3EB0903A4B2B3FBD5
:1001A000FEFC0EFB1C330CFB00F044EA0344A042AF
:1001B00014D92C190CF1FF3304D2A04202D9ACF1AE
:1001C00002032C44241A43EA07401EB1D440002302
:1001D00034607360BDE8F0874746DDE76346F1E7CA
:1001E00092BB431B01214FEA154EAFB2B3FBFEFC9D
:1001F000200C0EFB1C330CFB07F840EA0343984528
:1002000062D9EB180CF1FF3004D2984502D9ACF159
:1002100002002B44A3EB0803A4B2B3FBFEFC0EFBCD
:100220001C330CFB07F744EA0344A7424ED92C19B0
:100230000CF1FF3304D2A74202D9ACF102032C44E3
:10024000E41B43EA0040C0E7C2F1200320FA03F1B7
:10025000954090402EFA03F303434FEA154EAFB298
:10026000B1FBFEFC0EFB1C10190C0CFB07F841EA5D
:100270000041884504FA02F422D969180CF1FF30D4
:1002800004D2884502D9ACF102002944A1EB08014F
:100290009BB2B1FBFEFC0EFB1C110CFB07F743EA03
:1002A00001439F420ED9EB180CF1FF3104D29F425B
:1002B00002D9ACF102012B44DB1B41EA004192E779
:1002C0006046E3E76146F7E76046A3E76346B7E7C2
:1002D000834206D916B9002108467BE7C6E900E04B
:1002E000F9E7B3FA83F78FB9834201D3724508D88F
:1002F000BEEB020460EB030301209C461EB9002103
:1003000068E73846FAE7C6E9004CF8E7C7F1200C81
:10031000BB4022FA0CF41C432EFA0CF120FA0CF329
:10032000B84001434FEA14490EFA07F5B3FBF9F858
:100330001FFA84FE09FB18300B0C08FB0EFA43EA87
:1003400000439A4502FA07F240D9E31808F1FF305A
:1003500004D29A4502D9A8F102002344A3EB0A0370
:1003600089B2B3FBF9F809FB183308FB0EFE41EA2A
:1003700003418E452CD9611808F1FF3304D28E4514
:1003800002D9A8F10203214443EA0040A0FB0298ED
:10039000A1EB0E014145CE46434602D306D14D4561
:1003A00004D2B9EB020E68EB04030138002EA6D08C
:1003B000B5EB0E0261EB030101FA0CFC22FA07F324
:1003C0004CEA0303F940C6E9003198E74046C5E727
:1003D0004346D9E7034613F8012B002AFBD1181A2C
:1003E0000138704708B5044808F0DDFE034A137869
:1003F00083F00103137008BD78B700000C0C0020D7
:1004000013B50F4C206883683C21DB689847014690
:1004100028B10C4802B0BDE8104008F0C4BE206806
:10042000836824211B696A469847014620B1064823
:1004300008F0B9FE02B010BD00990448F8E700BF0B
:100440002809002084B70000A1B70000BAB7000057
:1004500007B50D490D4B0E484B6020238B60836818
:10046000DB690BB1012298470A4808F09CFE40F670
:10047000CD4200230848CDE9002307F073FB00209C
:1004800003B05DF804FB00BF2C090020E503000069
:1004900074AD0000D2B70000480200202DE9F04FF3
:1004A00091B08407009302F004030293C2F3C203E5
:1004B00003F10103DDF86890039205460E460593AB
:1004C00040F0BA81041D30B1072909D86FF01B0034
:1004D00011B0BDE8F08F01F00706341DC6F1080623
:1004E000009B4FF00008591E4FF0040A4FF0FF33F5
:1004F0000193CDF810804746C34653460DB1009A8C
:1005000022600598002800F3E8809848009A82420B
:1005100003D397488242C0F0E080039AA4EB050E13
:1005200092074FEA9E0000F103810F2F00F2B18085
:10053000002D00F0058107F140020DEB020C019A3D
:100540000CF8200C0CF8102C049801300490E7E013
:100550007A285DD84B280ED8472859D829282DD875
:10056000252852D054D820287AD02338D0F1000B37
:100570004BEB000B74E04C382E2849D8DFE800F034
:100580007048484848484848484848484B484848C0
:10059000484848484859484B4B595959704B6D4841
:1005A0007048184B184848827F4B48484B487F009A
:1005B00000204FF0000B4FF0040A38E02A38C0B298
:1005C000012202FA00F010EA0E0F49D110F0625C2D
:1005D0002FD110EA020B43D06046013C5444B4FBD7
:1005E000FAF40AFB04F4002D61D0A3EB050CA4443B
:1005F000B4453FF66BAF002868D1042B47D159F8BA
:10060000043B2360043404232AE0019A013A019256
:100610004FF0000B24E011F8010C6C2834D111F8D4
:10062000023C00206C2B8346C5D14FF0080A53468C
:10063000D3E709F1070929F007090734F9E802AB04
:1006400024F0070435B106982044B0423FF63EAF8F
:10065000C4E900AB08344FF0000B4FF0080A5346D2
:1006600011F8010F002878D0BBF1000F7FF470AFB4
:100670002528F5D1019B013301934FF0010B4FF079
:10068000040AECE7584694E700208346A5E7082BC8
:1006900002D06FF015001BE709F1070929F00709DF
:1006A000F9E80223C4E9002308340823D8E768B92D
:1006B000042B02D109F10409A4E7082BE9D109F1BF
:1006C000070929F0070909F10809EDE7059A013A38
:1006D000059259F8042B009210E7039A900720D551
:1006E000A4EB050E4FEA9E004FF0010CBEF5007F13
:1006F000CFD20F2FCDD8F5B107F140020DEB020E8E
:10070000C0B2019A0EF8200C0EF8102CBCF1000FAC
:100710003FF41AAF60F07F000EF8200C08F10108DA
:100720000137C5F10802043406924FF6DA7E97E7E6
:100730004FF0000CDAE7BCF1000F01D00136EFE713
:10074000029802360028EBD10098CDE90631FFF778
:1007500041FEDDE906310644E2E7631BB3F5806F35
:1007600097D23DB9A6F10804E018B1E6D8AC000074
:1007700088C50000029A28609B082B709DF81030F5
:10078000C2B1EB7085F80280B8F1000F05D008A85F
:100790000022C5F1010C97420ED1C5F101030DF104
:1007A00020094FF0000A01930DF1300B574512D18B
:1007B000601B8DE66B70E5E710F8013B190608D564
:1007C00004EB0C0EB64503F07F033FF67FAE04F852
:1007D000013B0132DFE7B8F1000F03D099F90020A7
:1007E000002A17DB029BD3B11AF80B2004F8012B67
:1007F0000022019B98182044B0423FF667AE99F85A
:10080000000004F8010B0099039220460AF03BFA1D
:10081000039A14440AF1010A09F10109C6E799F89B
:10082000002055F822300093029B45F822300098B2
:10083000FFF7D0FD421CDCE76FF00D0048E600BF7B
:100840002DE9F04F97B000AF90F802A0D7F880B034
:100850003B62CBF3C0030446FA62BB61894641B9EF
:10086000457800780AEB800020444D4517D8A0EB6E
:100870000409E378FB61BAF1000F02D01BF0010F0D
:1008800016D1FB6953BBFB6A1BB13A6A4946204645
:1008900098474D4628465C37BD46BDE8F08F461C5C
:1008A0003046FFF797FD0130304409F10109DCE7DC
:1008B000237862687A62FA6A9900796104EB8301AD
:1008C000002A40F000814D460E4601EB0A094FF028
:1008D00000084E454CD101EB0A0610E01BF0020F58
:1008E000D1D023789A007A6162687A62FA6A04EB5E
:1008F0008301002A77D14D4601EB0A0690461BF092
:10090000050F0CBF02230123FB62FB6906EB430AC0
:100910000BF00203BB625645BCD016F8021B16F85A
:10092000013C54F82390AF4B994502D3AE4B994507
:1009300036D3BB69002B40D0786A08F00DFC002844
:100940003BD0E9468AB06A46A84B53617B6AC2E94C
:1009500006314FF400731384A54B42F8103FA548AD
:1009600000234FF4125100F013FD023DCD46D2E7B3
:1009700016F8013BF96254F82300FFF72BFDD7F876
:100980008430F96A01304BB1D7F8883098453EBFC2
:10099000D7F8843023F8180008F10108054498E7D7
:1009A000BB6923B1786A08F0D7FB0028C9D11BF0D6
:1009B000010F05D1FB6AED1AADE7BB6A002BAAD087
:1009C0004846FFF707FDD7F8843053B1D7F8883091
:1009D00098453FBFD7F88420431C22F8183008F10F
:1009E0000108054497E7BAF1000F72D01BF0040626
:1009F00072D0D046002607F1480052463B61B962EA
:100A00000AF041F9B96A3B6901EB0A02BA62FA6974
:100A1000F9695200FA60BA6A02EB41023A610BF0DE
:100A20000202BA603A69B96A8A4257D162787A6238
:100A30001BF0020F32440CBF4FEA580100211BF09B
:100A4000010FD2B240F09F801BF0040F14BF40464C
:100A50000020BB616270A070E1703A6A7969FB6A3C
:100A600020469847051EFFF615AFBB6923707B6AC9
:100A70006370FB69E37041463A6AFB6A84F802A03E
:100A800007F148009847B0F10008C0F2B5807B69D3
:100A90003A6AA9EB0A01C91AFB68C91AD7E90A031D
:100AA00098470028C0F2AA80A84408EB00054FF040
:100AB000000B07F1380AB34567D300213A6AFB6A95
:100AC00008469847E6E656464FF0000807F138001A
:100AD00093E75646D04697E7B04695E7BA6A12F8CC
:100AE000021BBA6212F8015C3E4A54F8250090429B
:100AF00002D33D4A90421ED3BA6932B1786A7B6014
:100B000008F02AFB7B6800288CD1BA6802BB08F188
:100B1000280207F1300C08F10100944407F1580253
:100B200052FA80F008F102080CF8101C5FFA88F8FD
:100B300000F8105C76E7BA693AB1786A7B6008F031
:100B40000BFB7B6800287FF46DAF1BF0010F09D011
:100B500006F1280207F13000711C161806F8205C17
:100B6000CEB25FE71BF0040F3FF45CAF08F1280240
:100B700007F1300008F1010102EB000808F8105CF1
:100B80005FFA81F84EE7002063E71BF80A3087F828
:100B9000373054F82390D7F88430FBB133F81B80FA
:100BA0003A6AFB6A012107F137009847002825DBE4
:100BB0000544B8F1000F06D14846FFF70BFC00F1E1
:100BC00001081FFA88F83A6AFB6A41464846984786
:100BD000002813DB05440BF1010B6CE7D7F8848088
:100BE000DEE700BFD8AC000088C50000F2B7000007
:100BF00004000001BCAF000045464BE6054649E64F
:100C0000014B1860704700BF0000002080B505460A
:100C10000E461746984606F04FFD03460AF052F876
:100C2000DFF81890044649F800304246304639460D
:100C3000A84754F8090001F0D3F900BF08000000EC
:100C40002DE9F047058B04462807904611D4022968
:100C500005F0070540F0CC80204608F003FD78B190
:100C60000138218B042811D8DFE800F0C2106D850F
:100C7000950001290CBF45F0100545F0200525839E
:100C800088F31188BFF36F8FBDE8F08701F0070A82
:100C9000AA4500F0A5800027B9463E46A368002B70
:100CA00000F0BC8041F00801218388F31188BFF374
:100CB0006F8FA168002900F0BA800D68002900F04C
:100CC000B680D1F80480334652462046C047002DF6
:100CD00076D02B6829461D46F0E701F007035A1F1E
:100CE000012A1BD8002221F00701062B276889B2B0
:100CF000C4E9002209D13B4603E0628B01326283E2
:100D00001B68002BF9D141F002012183204608F035
:100D1000A9FC00287AD041F0200176E0042B0AD10A
:100D200021F0070189B22183204608F09BFC10B115
:100D300041F020012183218B01F0070AAA454FD001
:100D40000027B946AAE7236921F0070141F006010F
:100D5000062DD3F8009021832DD1B9F1000F3FD09B
:100D600041F00801218388F31188BFF36F8F3A495E
:100D70002046C84729E021F00701236941F004011A
:100D800089B2042DD3F804902183E6D000273E4693
:100D90004FF0040A82E721F00701236941F00501C1
:100DA00089B2052DD3F808902183D6D000273E467E
:100DB0004FF0050A72E700273E464FF0060A6DE73E
:100DC0002B4687E7B9F1000FD1D1EFF3118820232B
:100DD00083F31288BFF36F8F238B23F008032383E1
:100DE000258BEA062ED525F01003238305F0070591
:100DF0006669218B002EBFF670AF00232768C4E917
:100E0000003321F0070141F001012183218B01F022
:100E1000070AAA454FF000097FF440AF002F9CD08D
:100E200041F00801218388F31188BFF36F8F002FF1
:100E3000C8D03D68394633465246204608F03EFC4D
:100E40002F46F4E7AB067FF51BAF25F02003238385
:100E500005F0070500E700BFE99600002DE9F0471F
:100E6000DFF85880044607464FF0010914B93846A8
:100E7000BDE8F08794FAA4F5B5FA85F509FA05F30B
:100E80002E0108EB05156FEA030A24EA03042B7B05
:100E9000002BEBD058F806301B694BB946440422AE
:100EA00073682846196807EA0A0700F05DFADDE76B
:100EB000284698470028D9D1F0E700BF44B0000089
:100EC00030B51049104889B0002209F086FD0F4D59
:100ED0000F4900220023CDE9062300240E23CDE98B
:100EE0000334CDE901440B4B00944FF44072284683
:100EF00006F014F90849284609F061FC204609B0BB
:100F000030BD00BF1D0F000030070020A8020020E8
:100F1000801000200D120000A6B80000014806F065
:100F20004BB800BF940200202DE9F04780461F48CF
:100F30000F4608F0A7FC0646002830D000252846BA
:100F4000BDE8F087237B6BB12368DB680BB12046DB
:100F5000984723681B69D3B963680422196820463F
:100F600000F002FA013610344C45EBD3B8F1000F13
:100F7000E5D0002DE2D02846FFF770FF0546002F90
:100F8000F7D000214FF4A47006F078FBF1E720467B
:100F900098470028E0D00AFA06F31D43E2E7044C24
:100FA000DFF8109005464FF0010ADDE74809002000
:100FB00044B0000064B00000014B53F820007047BB
:100FC0001CB3000008B5034608462BB1044A136061
:100FD00000F06EFC002008BD6FF01500FBE700BFBD
:100FE0000400002010B5044C237813B9034805F021
:100FF000E3FF0123237010BD0D0C0020940200209C
:1010000010B50446084808F03DFC5CB1BFF35B8FA7
:10101000064B53E8001F013943E80012002AF8D1BB
:10102000BFF35B8F10BD00BF4009002044090020C2
:101030000020064BBFF35B8F014653E8000F43E8E7
:101040000012002AF9D1BFF35B8F704740090020DE
:1010500070B5FFF7EDFF084C084E0546B44200D3CB
:1010600070BD63685B792BB123685B6813B1294657
:10107000204698471034F1E744B0000064B0000007
:1010800010B5044C0449204608F094F9034B1C6049
:1010900010BD00BF0802002008B30000380900207E
:1010A000084A094808B500231370084A1360084A23
:1010B0004FF400411360FFF785FFBDE80840FFF7DC
:1010C000DFBF00BF0E0C0020819800004009002007
:1010D00044090020014600220148002308F08BB992
:1010E00008020020014808F021BA00BF08020020D1
:1010F000024B0146186808F06DBA00BF380900209D
:10110000014808F0A2BA00BF0802002070B5284BC1
:10111000187800284BD0FFF7E5FF054690B1BFF3E4
:101120005B8F244B53E8001F013943E80012002A6B
:10113000F8D1BFF35B8F204C204EB4422DD328460C
:10114000FFF7D6FF1E4B1F4C1B68002B19DD09F063
:1011500042FC4FF47A72A0FB020302FB0131C30B85
:10116000D4E9002043EA41439B1A4FEAD13140F2CF
:10117000E93261EB0001934271F1000101D3FFF705
:1011800067FFD4E9003213F57A7342F10002C4E933
:101190000032BDE87040FFF7B3BF63685B7923B1ED
:1011A000236829461B68204698471034C5E770BD60
:1011B0000D0C00204409002044B0000064B0000081
:1011C000400900202807002070B50D4D297861B92D
:1011D0000120FFF7A9FE0B4C0B4EB44206D3FFF7DC
:1011E00095FF0028FBD101232B7070BD63685B79EC
:1011F0001BB1236820469B6898471034EDE700BF79
:101200000E0C002044B0000064B0000000212DE965
:10121000F0470846FFF788FE044658B340F2676877
:101220004FF0000909F04EFD1B4B1C4A1B58136080
:1012300033B11B4B1B68092B02DD1A4805F0BCFEBD
:10124000194FDFF860A0002544B12046FFF706FEE5
:10125000044618B94FF0FF384FF0FF39FFF756FF3B
:10126000064628B9B5B942464B46504605F0C8FE79
:101270003546E9E74FF0FF384FF0FF39D2E72B68EA
:101280009B691BB100221146284698471035BD4284
:10129000F5D3E8E7054DFAE7080000003C09002017
:1012A000440900209402002064B0000044B0000013
:1012B00013B5184808F0E6FA174B1B7873B1EFF333
:1012C0001184202383F31288BFF36F8FFFF71EFF73
:1012D00084F31188BFF36F8F02B010BD0F4B1B68F2
:1012E000002BF9D050B900220023CDE900230C488F
:1012F0004FF40042002306F035FCEDE70928EBD15E
:10130000074809F076FB074802B0BDE8104005F039
:1013100053BE00BF440900200E0C00203C090020F1
:10132000300700209402002010B5064B1B680446CD
:1013300098472146A060044808F0D9F8BDE810405D
:10134000FFF7B6BF0400002008020020044A054B46
:101350009B1AB1EBD30F34BF52F831000020704715
:10136000BCAF000044B00000084BC31A10B41B11FE
:1013700044680133237143689A7143681960436874
:1013800001225A7110BCFFF72DBE00BF44B000000F
:101390002DE9F04F8FB004AFC1F34A28B8600D4675
:1013A00091467B600C0DB8F1000F63D0002607F169
:1013B00014034FF0040B4FF00A0AC7F80C80C7E97A
:1013C00007667E620193CDF808B0CDF800A007F162
:1013D0001C03F96832464846FFF732FAB0F5006F51
:1013E00003461CD36C468AB0D9F8041004AB2648D7
:1013F000C3E9050140F2FF71D9611A464FF400714B
:101400001984224B42F8103F214833464FF41251C1
:10141000FFF7BEFFA5462C37BD46BDE8F08FC0F3F1
:101420000A0804F11700184420F0070080083B6008
:10143000FFF750FE68F35325044690B13B68154A08
:10144000C7E9083600F1100107F11403F961CDE98D
:1014500000A3CDF808B0F96807F11C034846FFF770
:10146000EFF968F353257B68B9682A46204608F0EF
:101470003FFAD0E704F1170020F007008008FFF7DB
:1014800029FE0446EDE700BFBBB8000004000001E0
:10149000ECAF0000C59800002DE9F04F87B0DDE902
:1014A0001269DDE9105A04460F4693469846A6B3E2
:1014B0001021CDF80090334652460020CDF814900C
:1014C000FEF7ECFF014605F117000844144B0391A9
:1014D00004F007040BF0070BE40020F0070003EA18
:1014E000412344EA8B1480081C43FFF7F3FD44EAD0
:1014F0000554054640B13EB10399CDF800903346FE
:1015000052461030FEF7CAFF434622463946284667
:1015100007B0BDE8F04F08F0EBB93146D3E700BFA4
:1015200000FE0F00406820B1034BC01A40F3CF000B
:1015300070474FF0FF307047BCAF00000EB403B5EA
:1015400003AB014653F8042B0448019301F030F833
:1015500002B05DF804EB03B0704700BFED990000E6
:10156000CA0605D48B064CBF02490349FFF7E6BF04
:10157000704700BFFBB80000FAB800002DE9F04F3B
:1015800089B09A46149B06939DF84CB0159B059321
:10159000169B179E049304460D469046BBF1000F20
:1015A00000F09D8006F48073079308F089F906F037
:1015B0000209024600283ED092492046FFF7BEFFAE
:1015C0000746B9F1000F08D016F0440F35D18E4907
:1015D0002A462046FFF7B2FF074406F0010353B145
:1015E0008A4B8B4953F82B208A4B2046002A08BF90
:1015F0001A46FFF7A3FF06F48073002B49D006F0CC
:101600000803002B63D1B8F1000F66D0824942462F
:101610002046FFF793FF0546069B3D44002B6DD106
:10162000049B002B73D1F30700F1E580314620467F
:10163000FFF796FFD9E00746C3E7784B1868002804
:10164000CAD0774B4FF47A791B68B5FBF3F54FF4AA
:101650006161B5FBF0F300FB135509FB05F54FF095
:101660003C0CB3FBF1F201FB1231B5FBF0FEB1FB18
:10167000FCF300FB1E550CFB131109FB05F5009153
:10168000B5FBF0F56749CDE901E52046FFF756FFC8
:10169000A2E706F00803EBB1634B644953F82B2033
:1016A0002046FFF74BFF0546B8F1000F05D05A4919
:1016B00042462046FFF742FF0544BAF1000FABD087
:1016C0005B4952462046FFF739FF0544A4E74FF037
:1016D000000AE1E706F00805E6E745469CE7BAF1AF
:1016E000010F069B06D1002B65D1049B002B7CD0FB
:1016F00000250CE0002BF8D04E485DE04E48069BDC
:101700004E49224607F0F7FC049B002B69D0DFF816
:101710003081DFF83091049F3146102F204628BFDA
:101720001027FFF71DFF4FF0000A554546DC059BCB
:1017300049461A782046FFF701FF4FF0010A1AF0D8
:10174000070F03D141462046FFF7F8FE57453CD925
:10175000059B494613F80A202046FFF7EFFE0AF1E1
:10176000010ABAF1100FEAD1374920464FF0000ABA
:10177000FFF7E4FE5246059B9A5C344B995C11F0EE
:10178000970F08BF2E2232492046FFF7D7FE0AF1F5
:10179000010ABAF1100F1DD01AF0070F03D141460C
:1017A0002046FFF7CBFE57455246E4D84146204637
:1017B000FFF7C4FEEBE720485D46A0E74146204620
:1017C000FFF7BCFE0AF1010AAFE722492046FFF706
:1017D000B5FEC4E7059B3B440593049BDB1B0493C8
:1017E00099D1BBF1000F7FF41EAF204609B0BDE8D0
:1017F000F04F08F0EEB8074A05492046FFF79EFE75
:1018000014E700BF02B9000006B900002CB30000C5
:101810008DBE0000FDB800002BB90000500900206B
:101820004C0900200FB9000040B300002FB90000A0
:1018300035B90000239A0000ED990000B1250000A1
:1018400042B900003AB9000044B900007CC400006D
:1018500046B9000040B9000073B542F20F738B42E5
:1018600028BF0B4605680F4A04460521684606F066
:10187000B9F963680C495B6806460B22284608F0F4
:101880009AF863683246694628465B6808F093F820
:10189000636806495B681B22284608F08CF802B092
:1018A00070BD00BF66BA000065B9000049B900000C
:1018B000074A00210123904206D8064A01B90123B4
:1018C0001360054B1860704740085B000121F2E788
:1018D00040420F004C09002050090020014B01221A
:1018E0001A7070470F0C0020014B002019607047E0
:1018F00068090020024B034801221A7008F069B8F9
:10190000100C002070B300000148FFF7A5BF00BF16
:1019100070B3000010B5064B18680C46FFF74CFB7F
:1019200021460346BDE8104002480F22184700BF79
:101930006809002070B3000010B9074B1870704799
:10194000064B1B781BB141F2883008F0D8BEA420AA
:10195000002105F093BE00BF0F0C0020100C0020EA
:101960002DE9F843DFF874901D4F80460E4604249D
:1019700099F8005095B905F0ADF828463246414631
:1019800005F05AF8054605F0AFF8E5B101233B70C4
:1019900099F8003073B93046BDE8F88332464146C5
:1019A000002005F049F80546EFE72046FFF7C4FFA1
:1019B000651E2C46002005F083F80028EBD03B780C
:1019C000002BF2D1E7E73B78002BE4D0013C204626
:1019D000FFF7B2FF3B78002BCAD1DCE7100C0020E8
:1019E0000F0C0020F8B5074F0D4604464618B442C8
:1019F00001D12846F8BD14F8011BBB6801485B689B
:101A00009847F4E79CAD0000014B0360002070474D
:101A1000B4B300002DE9F047064600AF0C4600299C
:101A200036D0E9468AB0D1E90012A3686D46214854
:101A3000A8464FF0050AC5E90501C5E9072348F89E
:101A400010AF1D48424600234FF42151FFF7A0FC80
:101A5000CD46D4E903126369AD461848C5F810A015
:101A6000C5E90501C5E907231348002342464FF4A1
:101A70002151FFF78DFCCD46E369114A0E48012143
:101A800007F08FFFA3690F4A0B48012107F089FF78
:101A9000012E07D1EFF305830B4A0748103B31466F
:101AA00007F07FFF2146304605F034F8BD46BDE81B
:101AB000F08700BFBBB900000CB00000EAB900001D
:101AC00019BA000028BA000056BA000030BFFFF76C
:101AD000FDBF00BF2DE9F0410B4EDFF8308006EB73
:101AE0000807CC1B054632460949204609F0CBF8C9
:101AF000A01942460021083C09F0D3F82C6707F1F1
:101B00000800BDE8F08100BF0000000004000000F4
:101B100064B00000074A936893F90E10002907DBB0
:101B2000526993421FBF044A536843F08053536085
:101B3000704700BFDC0B002000ED00E070B5294CC1
:101B400006460D462848294907F0E1FFA36AD90453
:101B50003CD52548264907F0DAFF1720A36A1A0565
:101B600004D52148234907F0D2FF18201D4CA36A51
:101B70009B0512D51C48204907F0C9FFA36BA26A38
:101B8000100409D51D4A1848012107F00AFF1EB1AB
:101B9000A36A23F40043A3621920124CA36A5905D7
:101BA00004D51148164907F0B2FF1A20A36ADA05D6
:101BB0000ED50D48134907F0AAFF1B20094A936A66
:101BC00043F47F43936200232B7070BD1620C5E75A
:101BD000A36A9B04F2D504480B4907F098FF1C2028
:101BE000ECE700BF00ED00E00CB0000069BA0000B7
:101BF0007FBA000090BA0000A3BA0000BCBA00008F
:101C0000D1BA0000ECBA000004BB000010B5204CB3
:101C10002049214807F07BFFA36A990136D51E4869
:101C20001E4907F074FF1E20A36ADA0104D51A4882
:101C30001B4907F06CFF1F20154CA36A1B0304D53A
:101C40001548184907F063FF2120A36A590304D5FA
:101C50001148154907F05BFF22200D4CA36A9A0337
:101C600004D50D48114907F052FF2320A36ADB0376
:101C700004D509480E4907F04AFF2420044A936A14
:101C80006FEA03436FEA1343936210BD1D20CBE755
:101C900000ED00E033BB00000CB000004BBB0000C7
:101CA0005EBB000078BB000096BB0000BBBB000021
:101CB000D5BB00002DE9F843364D804689463648AD
:101CC0003649174607F023FFAB6ADE0627D53449AD
:101CD000314807F01CFF1124AB6A1D0704D53149B8
:101CE0002D4807F014FF12242A4DAB6A980718D527
:101CF0002D49294807F00BFF6E6BAB6A190646D5D4
:101D00002A4A25483346012107F04BFEB9F1000F5E
:101D100003D0AB6A23F08003AB62132403E01024EA
:101D2000DAE76FF015061B4DAB6ADA0704D52049D8
:101D3000194807F0ECFE1424AB6A9B0604D51D4934
:101D4000154807F0E4FE1524124B9A6AD50602D412
:101D50009A6A90070AD55B68190507D5414630464F
:101D600000F042FA10B180F309880224094B9A6A04
:101D7000920642BF5A6A22F400525A629A6A42F0AC
:101D8000FF029A6200233B702046BDE8F8836FF0A3
:101D90001506C2E700ED00E00CB0000000BC00003A
:101DA00016BC000090BA000049BC000061BC0000F5
:101DB00077BC000004BB00002DE9F041664B8AB0FF
:101DC000D3F8048000AF0446C8F30805002686F364
:101DD0001188BFF36F8F02F07F43B3F17F4F07D1BC
:101DE00002F00C03082B12D15C495D4807F08FFE0E
:101DF000002634460023FB71EB1E092B00F28A807B
:101E0000DFE803F00A80837D888888888886100749
:101E10004CBF0C460126EDE7524951484E4D07F0A4
:101E200076FE0023FB71EB6A9A0705D54E494C48B4
:101E300007F06DFE002333E0EB6A002B01DA4B491B
:101E4000F5E7EB6A5B00F5D54949454807F05FFEC9
:101E50006B69A26943F480736B61BFF34F8FBFF36B
:101E60006F8F6B6932F8022C23F480736B61BFF3C0
:101E70004F8FBFF36F8F4DF602739A4209D0AB6A52
:101E8000DBB27BB3FA1D01212046FFF713FF0346A7
:101E900006E02368374A3248012107F082FD2368B3
:101EA000FA79DAB907F1080504F1200C20686168B5
:101EB0002A4603C2083464451546F7D17A6A002ED3
:101EC00044D0C2F3080121B96FEA52226FEA4222DC
:101ED0007A6207F108011846FFF79CFD2837BD46D6
:101EE000BDE8F081AB6A13F47F4F04D0F91D0120E7
:101EF000FFF724FECBE7AB6AB3F5803F9AD3FFF739
:101F000085FEC4E7FA1D0021BEE7F91D0020EFE7BA
:101F100019498CE7194A1A4B18F4F87FE8468AB039
:101F200018BF13466A461749C2E905134FF40073F8
:101F30001384103D144BD56142F8103F084800232C
:101F40004FF41151FFF724FAC54673E722F4FF72EC
:101F500022F00102BCE700BF00ED00E0C4BC0000BD
:101F60000CB00000EFBC000006BD000027BD000063
:101F700035BD000054BD000070BD0000ABBC0000CA
:101F800096BC000094BD000004000001024A5369A1
:101F900043F010035361704700ED00E0EFF3088059
:101FA000EFF3098101B57246FFF706FF01BD00BFDF
:101FB00002F030FE202080F3118808484FF40461BD
:101FC000401880F30988EFF314800221084380F35E
:101FD0001488BFF36F8F00F0C7F80000C013002013
:101FE000084B9B6883420BD1EFF3058343B1064B4B
:101FF0005A6842F080525A605A6A22F400425A6289
:1020000008F0AEBCDC0B002000ED00E0094A93684C
:102010006FF00A019967084958674B6843F080538D
:102020004B60002383F31188BFF36F8F9368986F21
:10203000704700BFDC0B002000ED00E010B5044647
:10204000EFF31183202383F31288BFF36F8F0A4BC2
:1020500058699860094B4FF000625A60084B026F54
:102060001A600022436F426783F31188BFF36F8FBA
:1020700000F022F9204610BDDC0B002000ED00E04E
:10208000900900200B498A684FF030001044EFF3AC
:10209000098C80E8F01F74467046FFF7CFFFA64614
:1020A00004498A6802F1300090E8F01F8CF3098837
:1020B00070470000DC0B00201EF0040F0CBFEFF394
:1020C0000880EFF30980816911F8021C0229FFD012
:1020D00001B507F011FD01BD40B2002807DB044A3D
:1020E0004109012300F01F00834042F8213070476E
:1020F00000E100E040B200280CDB4309064900F093
:102100001F0020330122824041F82320BFF34F8F6C
:10211000BFF36F8F704700BF00E100E0054B42093D
:1021200000F01F0053F82220012303FA00F01040B2
:10213000704700BF00E100E040B20028A8BF00F1F6
:10214000604001F10101B8BF064B4FEA4111ACBF3D
:1021500000F5614000F00F00C9B2B4BF195480F817
:102160000013704714ED00E00F4A08B50F4B22F042
:102170007F029A60BFF34F8FBFF36F8FD3F8882031
:1021800022F47002C3F88820EFF3148323F00403D1
:1021900083F31488BFF36F8F04F0A6FD05F018FBDE
:1021A00000F060F804F0E4FD0000000000ED00E045
:1021B00042F8203C009B42F81C3C0A49019B42F833
:1021C000183C029B42F8143C21F001014FF080734F
:1021D00042F8043C42F8081C0023203A0265436799
:1021E000704700BF0D0C0000094A0346906870B1AB
:1021F00013F1160F006E05D0A0F140029A4205D8E7
:10220000834203D2814228BF0020704700207047DC
:10221000DC0B002008B515460B4A0C4B9060026F92
:102220001A600E4600F048F82C4686F309884FF0F5
:102230000000074B984720464FF000014FF0000286
:102240004FF00003034C2047DC0B002090090020D6
:102250001F9B00000D0C0000014B10221A617047FB
:1022600000ED00E0044800232021C2180133302B88
:1022700082F80013F9D1704700E100E008B5EFF3F0
:102280000583064A103B02EBC30152F8330049684C
:102290008847BDE80840FFF73DBC00BF3CAE0000EA
:1022A000024B034A0348012100F08AB800000420D1
:1022B00000000020B4B30000026E054B403A1A60E3
:1022C000044A4021C3E901121846012100F082B8F6
:1022D0009409002000000B1508B503461048D0F8FB
:1022E0009020C2F30722013A934207D90D480E4AC3
:1022F000012107F056FB6FF0150008BDC0F89830BB
:102300000A6822F01F021A4342F01002C0F89C2013
:102310008A6842F00102C0F8A0201846EDE700BF2D
:1023200000ED00E004B00000ABBD0000F0B50E46CB
:1023300085B01F4604460025B5420DDA606810B32B
:1023400097B1431E18420AD0104A11482B4601216A
:1023500007F027FB6FF01502104605B0F0BD1F28EF
:10236000F2D921680B42EFD12368019307F0FAFB01
:10237000A36801A90343D0B20393FFF7ADFF10F1A7
:10238000160FE7D0421C01350C34D5E7D1BD000053
:1023900004B00000044B0522C3F89420BFF34F8F14
:1023A000BFF36F8F704700BF00ED00E0BFF35F8F9A
:1023B000024B0022C3F89420704700BF00ED00E0FC
:1023C00010B5034C01232278FFF7B0FF207010BD39
:1023D000220C002008B50B4A00231278FFF7A6FF55
:1023E00010F1160F07D0084A0021D2F89030C3F33D
:1023F0000723984200DB08BDC2F89800C2F8A0107D
:102400000130F2E7220C002000ED00E02DE9F0435E
:1024100057485849D0F890300D68C3F307239D42C0
:1024200085B000F2A180FFF7C1FF49680022954204
:1024300001F10C011AD1504C504F25706846FFF73E
:10244000E3FADFF83C81DFF83C9106460025AE4216
:102450001FD1237846490020D1F89020C2F30722EB
:1024600093427BDBFFF796FF00204CE0C0F89820FA
:1024700051F80C3C23F01F03134343F01003C0F842
:102480009C3051F8043C43F00103C0F8A030013205
:10249000CDE7009800EB05114FEA051CCB683B40E7
:1024A000B3F5000F44D00AD8B3F5001F2ED0B3F512
:1024B000800F34D0B3F5801F10D00135C7E7B3F1DA
:1024C000807F3ED0B3F1007FF7D150F80C308868A0
:1024D0004A6807F047FB40F4802009E050F80C30D0
:1024E00088684A6807F03EFB40F0885040F430208E
:1024F000039001A92078CDE90123FFF7EDFE002824
:1025000028DA6FF0150005B0BDE8F08350F80C3004
:1025100088684A6807F026FB40EA0800E8E750F8B8
:102520000C3088684A6807F01DFB40EA0900DFE7C5
:1025300050F80C3088684A6807F014FB40F082704D
:10254000D6E750F80C3088684A6807F00BFB40F07B
:102550008870CDE7237801332370AEE7C1F8983057
:10256000C1F8A000013377E74FF0FF30CBE700BFA1
:1025700000ED00E0C0B30000220C00200000F0FFDE
:10258000000008110000020708B5024B1B689847BD
:10259000002008BDA0090020034B044A186093786E
:1025A00043F0020393707047A00900201000002040
:1025B000F0B587B007460E46144600211022684643
:1025C0001D4608F06EFB02238DF802302A46054BAB
:1025D000019321466846CDE9047605F0CBFB07B0B0
:1025E000F0BD00BF859B000008B50649064821F0F4
:1025F0000701C1F1005202F5802206F03FFD0020E4
:1026000008BD00BFC7210020A40900200E4A0123F5
:10261000C2F840354FF080424FF08051C2F8783513
:10262000D1F83001082808D1D1F83411052904D88F
:102630000648415C09B1C2F838364FF080430122A8
:10264000C3F880250020704700E0014003BE000071
:1026500020B1034B800143F001031847704700BFCE
:1026600070B00000084B70B5C31A0D4607499B10A7
:10267000044659430648402207F098FA2B46014683
:102680002046BDE870401847C4090020B76DDBB68E
:1026900060AD000073B50C4C0C4A4023041B009342
:1026A0000D460B460A49A41061430646094807F047
:1026B000A8FA011E05DA30462B4602B0BDE870408C
:1026C000184702B070BD00BFC40900206B9C000019
:1026D000B76DDBB660AD000010B5EFF311842023B9
:1026E00083F31288BFF36F8F074A136823F0020148
:1026F000DB07116002D4012007F065FD84F3118827
:10270000BFF36F8F10BD00BF140A0020002270B508
:10271000012104461046FFF70FFD0F4802F004FCAC
:102720000E4B984215D102F00FFC26690C49304639
:1027300006F0E7FF00280BDB012535642469084912
:1027400004F11C0006F0DDFF002801DBE564002039
:1027500070BD6FF00400FBE75D2800000000AD0BCA
:10276000E0B300001FB500220123CDE90223094A8E
:10277000CDF800D06B46CDF804D007F06FFA0028F2
:1027800005DB4FF480420023684604F039FC05B0B5
:102790005DF804FB899C000030B4104B0C2202FB56
:1027A000003301460020D3E90E529863EFF3118005
:1027B000202484F31288BFF36F8F1C6C04F0C004D4
:1027C00044F002041C6480F31188BFF36F8F1DB1C5
:1027D0002B46034830BC184730BC7047C409002062
:1027E00060AD000010B4EFF31182202383F3128850
:1027F000BFF36F8F1748016841F002040460C807F7
:1028000007D482F31188BFF36F8F012010BC02F050
:10281000ADBB4FF08041D1F80C04D1F80C14C907BE
:10282000EFD5EFF3118083F31288BFF36F8F0A495E
:102830000B6C03F0C00343F002030B6480F31188B8
:10284000BFF36F8F82F31188BFF36F8F002010BC2E
:10285000FFF7A2BF140A0020C409002010B101280C
:1028600004D07047034B1B6C5B0701D1FFF794BF8B
:10287000704700BFC4090020024AC3B21C2003FBFA
:1028800000207047C40900202DE9F0413849BFF30A
:102890005B8F0746012251E8003F41E800200028F5
:1028A000F9D1BFF35B8F33B9324933484B60CB600A
:1028B0008A6006F039FF7B1E012B2BD8012F07D130
:1028C0004FF08043D3F81C3403F00303012B21D0D5
:1028D00007F06FFF0546F8B9284B1B78E3B14FF0BE
:1028E00080430222C3F808230646DFF894804FF0A5
:1028F0008044D4F81824D4F81834D20315D503F042
:102900000303012B01D0012F0FD155B386F311889A
:10291000BFF36F8FBDE8F081EFF31186202383F3BF
:102920001288BFF36F8F0125DFE7ADB1304607F0A6
:102930000AF9D4F81835002BDBD1D4F80421002A89
:10294000D7D0C4F80431D4F804310123C4F81835C1
:10295000C8F88031A360CCE70021212004F08EFE6E
:10296000E7E74FF080430222C3F80423D2E700BF19
:10297000C0090020B0090020E00900204510002017
:1029800000E100E008B5074807F0BEFE38B1064890
:10299000FFF702FE0448FEF733F9002008BD6FF090
:1029A0001200FBE79CAD0000AD2900000A2838B5F5
:1029B000074D044604D1AB680D215B682846984753
:1029C000AB6803485B68E1B29847204638BD00BF5A
:1029D0009CAD0000F0B54068057B01F01F0444EA9F
:1029E0004514056987B0002D64D0B2F5001F00F1D1
:1029F000100506D12146284607F076FC002007B0D6
:102A0000F0BD01AE0027B2F5800F0197776039D194
:102A1000B3F1007F14BF052304238DF80430002395
:102A2000CDE904630393836823FA01F111F00101F6
:102A30001AD1B2F1A07F17D104F01F03620903F588
:102A4000E0732AD0012A3BD11F4A52F82330DB071A
:102A50000AD40DF1030632462146284602F064FDF1
:102A60001A4B98421CD0029603AA2146284602F02F
:102A70001DFC174B984220D101222146284602F026
:102A8000B7FDBBE7B3F1C06F05D0B3F1007F14BF52
:102A900001230223C1E70323BFE74FF0A042D4E79D
:102AA0003146284602F09EFD094B9842DBD06FF07C
:102AB0000B00A4E76FF08500A1E76FF015009EE71B
:102AC00051F82330FFDE00BF000300500400AD0BBF
:102AD0000000AD0B38B545682B69B3B110352846F9
:102AE00002F070FD044680B90146284602F036FD2A
:102AF000084B98420BD108492246284602F00EFDA9
:102B0000224605210620FFF717FB002038BD6FF095
:102B10000400FBE70000AD0B1D2B0000420970B55F
:102B2000034602D0012A17D070BD0D4E326951689C
:102B30000029F9D003F01F0301250C689D400029EE
:102B4000F2D08A682A4002D04B68304698472CB1B0
:102B5000236821461C46F2E7024EE7E72346F8E7E2
:102B600088AD000074AD00002DE9F043466840F2E6
:102B70000635D006337B87B002EA050554BFC2F3A1
:102B80004010032001F01F07B5F5837F144647EA84
:102B900043178DF8030044D00FD8062D18D007D85E
:102BA000B5B1022D3FD06FF0150007B0BDE8F0833E
:102BB000B5F5807FF7D101250AE040F20222954267
:102BC00033D0B5F5407F32D0B5F5007FEBD102258B
:102BD00022032ED5726801238B40C2F80835326972
:102BE00092BB07F01F037F092BD0012F79D13F4AF9
:102BF00002EB830284F48033D2F80017C3F300435E
:102C0000C4F3404444EA430421F4E16144EA80040B
:102C100021F0070144EA05230B43C2F800370020E6
:102C2000C3E70725D4E70425D2E70525D0E7032528
:102C3000CEE7630341BF012372688B40C2F80C35B5
:102C4000CDE74FF0A042D3E710360DF1020239462E
:102C5000304602F069FC14F4403F80460CD13946FE
:102C6000304607F03FFB224B9845D8D19DF8021023
:102C7000304602F0B1FCD2E701AB4FF0000903AAE5
:102C800039463046CDE90439CDE90199CDF80C90AB
:102C900002F00CFB164B984285D114F4003315D08A
:102CA0009DF803308DF80E3084F48034C4F3004472
:102CB0004B4603AA394630468DF80C508DF80D402E
:102CC00002F0AEFB0A4B9842CDD06CE7CDE904335D
:102CD00003AA0DF1030339463046039302F0E6FAE6
:102CE000F0E703F5E07352F82330FFDE00030050F5
:102CF0000000AD0B02780B69012A08D0022A08D027
:102D00004AB9064A5A6203F1140004F055B9044A5C
:102D1000F8E7044AF6E7044AF4E700BF0000AD0B09
:102D20000100AE0B0200AE0B0100AD0B2DE9F04F20
:102D3000D0F81090D0F8048085B005460C461746B0
:102D4000029309F1040A4FF0FF324FF0FF3350466F
:102D500004F056F909F1140B00230022584604F040
:102D60004FF9404603F0B4FC7B1E00260393B742A4
:102D700001D8002322E0039B217AB34283BF237D45
:102D800083F00403C3F3800300230193029B0093A9
:102D9000D4E90023284600F08FF8034670B94FF4B9
:102DA00080420023584604F02BF998B1404603F0C6
:102DB0009FFC284600F06EF86FF004034046029333
:102DC00003F096FC504604F0F7F8029B184605B055
:102DD000BDE8F08FD9F82430034A934204F10C0483
:102DE000EAD10136C3E700BF0000AD0B98B5044639
:102DF00040682346826900AF00F1080103F024FC1B
:102E00000E4B984217D023686C4688B06A460C492E
:102E1000C2E905134FF4007393830A4B42F8103F45
:102E2000094800234FF4E251FEF7B2FA6FF00F00A9
:102E3000A546BD4698BD0020FBE700BF0000AD0BD6
:102E400070BE000003000001DCAF000008B5CA0737
:102E5000436800690AD4C1F34202012A09D0022A58
:102E60000FD00A4A0A48012106F092FD6FF01500C2
:102E700006E01B684FF0CC72C3F8242501600020E7
:102E800008BD1B684FF0CD62F6E700BF90BE0000A2
:102E9000DCAF000008B543681B68D3F80805D3F819
:102EA0000C1503F02BFD034B984214BF6FF00F007D
:102EB000002008BD0000AD0B2DE9F04186B00C46A6
:102EC00047689DF834801546002112220DF1060056
:102ED0001E4607F0E6FEBDF830208DF8052004F010
:102EE000010314F008028DF804300296049509D00D
:102EF000124A1348012106F04BFD6FF0850006B021
:102F0000BDE8F081A10705D4B8F1000F11D1002B65
:102F1000F3D1202201A9384603F006FC094B984260
:102F200009D00B3398420CBF6FF00F006FF0040014
:102F3000E5E74022EEE70020E1E700BFA2BE000087
:102F4000DCAF00000000AD0BB0B5034682B07F29B6
:102F500040681C6900AF154636D8CB081C443B714D
:102F600001F0070101238B40227CDBB22DB3134318
:102F70009A427B7126D00222391D06F0FDFEF8B17F
:102F8000134A144B6C4688B0002D18BF13466A468E
:102F90001149C2E905134FF4007393830F4B42F8B4
:102FA000103F0F4800234FF4E251FEF7F1F96FF0A4
:102FB0000400A5460837BD46B0BD22EA0303D7E7A3
:102FC0007B7923740020F5E76FF01500F2E700BF6E
:102FD0005EBC0000C8BE0000CCBE000003000001C3
:102FE000CCAF000008B5044A0448012106F0D0FC2B
:102FF0006FF0040008BD00BFEABE0000CCAF0000C7
:1030000013B501461A44096940684C68944222D8B5
:10301000896891421FD3D3B140F2DC539A4218D849
:1030200040F2EE239A4294BF832285228DF8072036
:103030000DF10701012206F09FFE30B10748084A52
:10304000012106F0A5FC6FF0040002B010BD812242
:10305000ECE78722EAE76FF01500F6E7CCAF000057
:103060000CBF000030B505694468286087B020684F
:1030700007F04AFB40B92748274A012106F088FC9F
:103080006FF0150007B030BD10220021A81807F01E
:1030900008FE00224FF4FA63C5E901234FF4C80388
:1030A000EB600122212301A920468DF8043006F0AF
:1030B00063FE034638B1194A1648012106F071FC37
:1030C0006FF00400DEE70146112201A807F0E9FDD8
:1030D000112201A9204606F04FFE034608B1104A0E
:1030E000EAE7EF23012201A920468DF8043006F01B
:1030F00043FE034608B10B4ADEE78123012201A902
:1031000020468DF8043006F037FE0028BAD0064A73
:103110000346D1E7CCAF000033BF00004CBF000036
:103120007FBF0000ACBF0000D7BF00002DE9F04713
:103130004668336800AF0546D3B96C4688B001686D
:103140006A463748C2E905014FF400719183354959
:1031500042F8101F34484FF4E251FEF719F9A54622
:103160006FF01204336813BB2046BD46BDE8F087FC
:103170000024F7E72D4A034601212B4806F011FCF5
:10318000F2E76C4688B029686A462948C2E9050119
:103190004FF400719183234942F8101F22484FF4E5
:1031A000E251FEF7F5F8A5466FF01204DCE7002CBB
:1031B000FAD1A1464FF00108746854F8390004EBC5
:1031C000C90A07F0A1FA03460028DAD054F83900FA
:1031D0009AF80410BAF80630D0F810C0D0F808A059
:1031E000DCF80040DA0754BF43F4B01383F4D01383
:1031F00023F4801208FA01FEDB074CBF44EA0E04F8
:1032000024EA0E04CCF80040DAF80030984704466F
:103210000028AFD1336809F101094B45CCD8A3E7A9
:1032200013C0000003000001E4AF00003EC0000036
:103230005DC00000036803F01F025B09026004D058
:10324000012B034818BF002070474FF0A040704783
:10325000000300502DE9F04FDFF8A891DFF8A8A196
:1032600085B01546834600EB810140F2FF185945B1
:1032700003D1002005B0BDE8F08FDBF800305E041C
:10328000C3F3C322C3F3080400F1B6805B0C19F842
:103290000270444508BF4FF0FF34222B00F2AF808C
:1032A000DFE803F012191F38222838ADADADAD3B71
:1032B00068ADADADADADADADADAD6B8184878A8D83
:1032C00090939B9EA1A4A700C5F80C45601C5ED1FD
:1032D0000BF1040BCBE7C5F81445631CF8D00026AE
:1032E0005FE0C5F80845F1E7621CC5F80845EFD076
:1032F000002604E0631CC5F80C45E9D0012603A8AC
:103300000394FFF797FF039B012202FA03F3C0F82F
:103310000C350BE0C5F81045DFE7C5F80845002F70
:10332000DBD1621CD4D0002632460627DBF8003001
:10333000019303F40040002818BF002203A8009264
:1033400018BF01260394FFF775FF039C019B009AA9
:1033500000EB8400C3F3412CD0F800473B0243EA62
:103360008C03134304EA0A04234343EA4603C0F8E8
:103370000037ADE7C5F80C45D1E7C5F86045661CD8
:10338000DBF80030A4D0C3F30043002BB6D003A871
:103390000394FFF74FFF039B012606FA03F3C0F8DF
:1033A00008353246C2E7C5F86445E8E7C5F8684520
:1033B000E5E7C5F86C45E2E7C5F820458DE7C5F8B7
:1033C00024458AE7C5F81C4587E7C5F82445601CF5
:1033D0003FF47EAF00220126A8E7C5F8284575E72F
:1033E000C5F83045F3E7C5F83445F0E7C5F838458A
:1033F000EDE7C5F83C4569E76FF015003AE76FF077
:10340000850037E785C00000F0F8FCFF014B012282
:103410001A60704700C000400C2903690BD15B6A39
:10342000064907484B4393FBF0F100FB1133116051
:103430005360002070476FF08500704790D0030004
:1034400040420F00044B00690022C3F80021D3F86A
:10345000003103F0B1BD00BF00C000407FB5056979
:10346000AB6A63B33C2901D00C292BD105F11006BE
:103470004FF0FF324FF0FF33304603F0E9FC134BBF
:103480000193A86A0323002469460394029306F07B
:103490004BF94FF0FF324FF0FF33284603F0B0FDF9
:1034A000A86A06F098F90A4BD3F808256A62012247
:1034B0005A60304603F044FD204604B070BD6FF002
:1034C0000A00FAE76FF08500F7E700BF0D3400004F
:1034D00000C0004010B504690020FFF7CDF9A062DC
:1034E0004FF0FF320021204607F057F904F1100099
:1034F00007F04CF9002201210C20FEF71DFE0C20E4
:10350000FEF7EAFD024B0122C3F80423002010BDA0
:1035100000C00040036803F01F025B09026004D092
:10352000012B034818BF002070474FF0A0407047A0
:103530000003005010B5EFF31184202383F31288A9
:10354000BFF36F8F0029036808DDC1F5B60202F5ED
:10355000B6629A4207DB0B44036004E0FBD0044AE6
:10356000521A9A42F7DD84F31188BFF36F8F10BDB2
:1035700050FAA4FF30B524290469406822D1EFF342
:103580001181202383F31288BFF36F8F00252368F6
:10359000256081F31188BFF36F8F4FF4B4714B43F3
:1035A000016B93FBF1F11160046B04FB113313B950
:1035B0005360002030BD05494B435360016B93FBC2
:1035C000F1F3F5E76FF08500F4E700BF40420F002C
:1035D0001FB504AC04E907001C46BDF8043020699F
:1035E000B3F5827F14D1FFF7A5FFEFF311822023FB
:1035F00083F31288BFF36F8FD0E9013182F3118812
:10360000BFF36F8F63B1204604B0BDE81040184788
:10361000044A0548012104B0BDE8104006F0C1B9D4
:1036200004B010BDA5C0000014B0000073B544681C
:10363000636A05469847A66A01AA0021304606F04B
:10364000F8FB002818DB019B326819791868FFF72E
:1036500001FE002810DB2B461F4A04F1080120461A
:1036600002F020F91D4B984208D11D481D4A012146
:1036700006F08EF96FF00F0002B070BD1A4B984241
:1036800007D01748194A012106F082F96FF00D00A2
:10369000F2E76968CB6A5A1C18D001A80193FFF7BA
:1036A00039FF019A01239340C0F80C35CB6A01938E
:1036B00001A8FFF72FFF019B00EB83000C4BD0F814
:1036C0000027134043F00303C0F80037204602F000
:1036D00009F90020D0E700BFD13500000500AD0B8F
:1036E00014B00000BCC000000000AD0BD0C0000052
:1036F000F0F8FCFF2DE9F7430646002201210220E5
:10370000FEF71AFD0220FEF7E7FC776835693C6892
:103710004FF00008C4F800852E60D7F80C9001AA7D
:103720004146484606F085FB002837DB019BD9F867
:10373000002019791868FFF78DFD00282EDB6B7AC1
:103740003169012B03D0032B26D14FF01008AB7A3F
:10375000032B21D195F80BC0BCF1000F02D0BCF1B6
:10376000010F19D12A7A12B1022A15D10E226B68E3
:103770007068B3F5164F00687BD02DD8B3F5165F8F
:103780007AD016D8B3F5966F78D00AD8B3F5967F6D
:1037900077D0B3F5167F77D06FF0850003B0BDE822
:1037A000F083B3F5166F72D0B3F5965FF4D15C4B2E
:1037B0003EE0B3F5E14F6DD007D8B3F5615F6BD054
:1037C000B3F5964FE8D1574B32E047F6122E7345CA
:1037D000E2D14FF400032BE0B3F5613F5ED013D884
:1037E000B3F5963F5DD009D84DF6C02E73455AD03B
:1037F000B3F5614FD0D14FF46B0319E0B3F5E13F5E
:10380000CAD14FF0EB7313E0B3F5612F4ED009D856
:10381000DFF814E173454CD0B3F5E12FBCD14FF084
:10382000E86305E0DFF804E17345B5D14FF080535C
:10383000C0F82435736848EA0C081B6842EA08029D
:10384000C3F86C250B1DD5E9010183E803007B68F3
:1038500099073DD505F1180002F000F8344B984265
:103860002AD03448344A012106F092F86FF004005F
:1038700094E74FF41D03DBE7304BD9E74FF49E2369
:10388000D6E74FF4A033D3E74FF41C33D0E74FF41F
:103890001D23CDE72A4BCBE72A4BC9E74FF06C73CA
:1038A000C6E7294BC4E74FF46503C1E74FF07063E7
:1038B000BEE74FF08063BBE7287E04F10C0204F5FD
:1038C000907106F076FC2B7E0120984001F0C4FA3E
:1038D0000823C4F800353B7A53B9C4F81031D4F842
:1038E00010316B69C4F834350123C4F838352360CE
:1038F0007B689A075CBF4FF48073C4F804337B681D
:10390000DB0644BF4FF48003C4F804332B69C4F8CA
:10391000443500200123C4F84805A360E3603DE777
:1039200000B0130000A04E0090D0030040420F00F2
:103930000000AD0B3CB0000002C1000000502700A9
:1039400000C0750000F03A0000903A012DE9F04106
:10395000044607690D4606F02CFF4FF02008B0B969
:103960002C4B1B789BB16426606806F0C7FAF0B94F
:10397000012006F01CFC013EF6D10021212003F0BD
:103980007DFEF0E786F31188BFF36F8FF5E7EFF365
:103990001186314688F31288BFF36F8F606806F096
:1039A000ADFA80B986F31188BFF36F8FEFE7EFF3BD
:1039B0001186314688F31288BFF36F8F606806F076
:1039C0009DFA0028DED03B691D7062683869136873
:1039D000C3F844050120C3F848050020C3F82001BE
:1039E000D3F82051C3F858015268D3F85801D206D1
:1039F00008D5626812680820C2F800054FF48002FA
:103A0000C3F8042301229A6081F31188BFF36F8FFA
:103A1000BDE8F081451000202DE9F04383B04568F2
:103A20000669D5F8208000AF3A1D0021404606F017
:103A300000FA041E1ADB7B68D8F800201979186890
:103A4000FFF708FC041E11DB696A481C1BD005F156
:103A5000280000F023FB10F1130F04460BD1314A6C
:103A60003148012106F091FA6FF0120420460C371C
:103A7000BD46BDE8F083411D05D12C4A2A480121ED
:103A800006F083FAF2E7EB699847B5684FF0010852
:103A9000D6E9023203EBC2039D4204D3304606F05E
:103AA000A2FA0024E2E7286806F02EFE0346B0B929
:103AB0002A68297910686C468AB06A461C4DD16123
:103AC0004FF4007111841B49C2E9055042F8101FE0
:103AD00015484FF41151FDF75BFCA546C4E7286873
:103AE0002979EB88D0F810C0D0F80890DCF80040B5
:103AF000DA0754BF43F4B01383F4D01323F48012D5
:103B000008FA01FEDB074CBF44EA0E0424EA0E0467
:103B1000CCF80040D9F800309847041EA6DB0835E1
:103B2000B6E700BF3FC1000024B000006AC100003A
:103B300087C10000040000017FB50546406829697F
:103B40008A6C0B6D0ABBABB14C6C8B6516461A4682
:103B5000C96C0291CDE9004611B3002B18BF134682
:103B600000226946039302F063F80E4B98420AD094
:103B70006FF004032C69236304F1200003F01CFAA6
:103B8000002384F85C3004B070BD4C6C13B19A42D1
:103B900028BF1A46002C8A6514BF16460026D7E7B0
:103BA0000B46DDE70000AD0B38B503780C4663B972
:103BB0008D6D5DB94B6D1C696FF07303236304F168
:103BC000200003F0F9F984F85C5038BD8B6C33B1F8
:103BD0009D4213D9224A2348012106F0D6F9236DCC
:103BE000A26D33B19A4221D91D4A1E48012106F027
:103BF000CCF9606DBDE83840FFF79EBF5B1B8B645E
:103C000073B94B6B08334B638B6B013B8B6301F1D7
:103C1000480204F13400383106F0BEF96064DEE792
:103C20004B6C002BDBD02B444B64D8E79B1A2365ED
:103C30007BB9E36B0833E363236C013B236404F13A
:103C4000500204F1400104F13C0006F0A5F9E064E3
:103C5000CFE7E36C002BCCD01344E364C9E700BF8B
:103C6000ABC1000024B000002DE9F04F8BB000AFD5
:103C7000C7E9023243687B608B8804699E048046F2
:103C8000894630D44FF0FF324FF0FF3304F110007B
:103C900003F0B6F9C4F80490D8F810A0D8F804B02E
:103CA0009AF85D3023B1DAF80030994500F0DD80F4
:103CB000B9F8046016F400631CD0B34AB34801217C
:103CC00006F063F96FF0850523689B8813F40053B1
:103CD00004D1636004F1100003F06EF928462C371C
:103CE000BD46BDE8F08FA369002BCBD16368994234
:103CF000C8D1D1E7F50716D56D4688B0D8F80010C1
:103D00006A46A348C2E905014FF400719183A149B5
:103D100042F8101F9D484FF4E251FDF739FBAD46C4
:103D20006FF01505D0E7300705D59B4A974801216C
:103D300006F02BF9F4E7C6F34513082B01D0974A98
:103D4000F4E7D9F80050964B9D4201D8954AEDE72B
:103D50000BF1080EBEE80F0007F1140CACE80F00E1
:103D6000DEF80030CCF800308F4B9D4254D98F4B99
:103D70009D4254D98E4B9D4254D98E4B9D4254D96D
:103D80008D4B9D4254D98D4B9D422CBF4FF0004529
:103D90004FF08045B107FD6106F004034BD5002BC1
:103DA00014BF0323022387F82030C6F3001387F8DB
:103DB0002130DBF80030D3F8083516F0020F4FEA57
:103DC0005312C6F3400103F01F033BD1BAB3012ADB
:103DD00040F03C817A49012202FA03F3C1F80C3524
:103DE0009AF85D302BB1584601F0EAFE00238AF8BC
:103DF0005D30744A534607F11401584601F0ACFE99
:103E0000714A904203462BD0704A6048012105F068
:103E1000C8FD6FF0040557E74FF00075BAE74FF0A3
:103E20008065B7E74FF00065B4E74FF08055B1E724
:103E30004FF00055AEE7003B18BF0123B3E74FF04A
:103E4000A041C8E74AB1012A40F003815C49012240
:103E500002FA03F3C1F80835C2E74FF0A041F6E7D4
:103E600001238AF85D30CAF80090012384F85C30A1
:103E70007B68596A4A1C0AD003F1280006F0DDF875
:103E8000743004D1524A4148022106F07EF8FB68A2
:103E9000002B40F0A18063630023A36304F1480278
:103EA00004F1380104F1340006F076F8BB68606470
:103EB000002B40F09A80E3630023236404F1500256
:103EC00004F1400104F13C0006F066F8E06420686B
:103ED0000023236348B183683BB10121083006F019
:103EE0006EF82368186906F00AFC4046FFF724FEC6
:103EF0000022A06B1346834240F080800023256C93
:103F00001946A94240F081809342264638BF1346A5
:103F10004FF4FA5202FB03F556F8203B4FF4004CE5
:103F20001B68B5FBF3F540F2E730C83500214FF4CC
:103F30007A720023E5FB0C01FCF7E2F802460B461F
:103F4000304603F05DF8002866D0224A0F48012170
:103F500006F01BF84FF000097868C4F8589001F09B
:103F60002FFE84F85D90D8F810506FF07308C5F8F4
:103F7000308005F1200003F01FF885F85C90304692
:103F800003F064F845464BE0C9C1000024B00000CE
:103F9000E3C100000300000105C2000024C20000CC
:103FA00047E8010053C200008FD003001FA10700A3
:103FB0003F420F007F841E00FF083D0000127A0080
:103FC00000030050A93B00000000AD0B84C20000BC
:103FD000ABC20000D5C20000FB681B686363002B06
:103FE0003FF45AAFFB685B6857E7BB681B68E36345
:103FF000002B3FF461AFBB685B685EE7616B01EB70
:10400000C301013349680A4475E7E06B00EBC10066
:1040100001314068034474E7256B15F1740F99D0A2
:104020002368002B3FF450AE9A68002A3FF44CAE50
:10403000998811F480567FF447AE186906F05FFB4B
:1040400020683146083005F0BAFF3DE6C1F80C158E
:10405000FFDE0023C3F80835FAE700BF00F01F02B7
:1040600040090DD001280ED10A4B03EB82030A4A06
:10407000D3F80007024042EA8102C3F800277047E4
:104080004FF0A043F1E702F5E072002353F822302D
:10409000FFDE00BF00030050F0F8FCFFF0B587B072
:1040A00001238DF8023002238DF804306B44039312
:1040B0000F4601AB0DF10301002404930546029164
:1040C000059401F08FFA0C4B984206460FD103AAD3
:1040D0003946284601F0EAF8B0420BD09DF80310AB
:1040E000284601F079FA6FF0040007B0F0BD6FF0D8
:1040F0001200FAE72046F8E70000AD0B2DE9F04387
:1041000083B045680669D5F83C8000AF3A1D0021B0
:10411000404605F08EFE041E1ADB7B68D8F80020AE
:1041200019791868FFF796F8041E11DB296C481CF2
:104130001BD005F14400FFF7B1FF10F1130F044647
:104140000BD1314A3148012105F09FFF6FF0120475
:1041500020460C37BD46BDE8F083411D05D12C4AF1
:104160002A48012105F091FFF2E76B6B9847B5688B
:104170004FF00108D6E9023203EBC2039D4204D39B
:10418000304605F0D0FF0024E2E7286806F0BCFACC
:104190000346B0B92A68297910686C468AB06A4625
:1041A0001C4DD1614FF4007111841B49C2E90550C7
:1041B00042F8101F15484FF41151FDF7E9F8A546D4
:1041C000C4E728682979EB88D0F810C0D0F80890A7
:1041D000DCF80040DA0754BF43F4B01383F4D01383
:1041E00023F4801208FA01FEDB074CBF44EA0E04F8
:1041F00024EA0E04CCF80040D9F800309847041E99
:10420000A6DB0835B6E700BF3FC100002CB00000B8
:104210006AC1000087C10000040000012DE9FF41D0
:104220000569D0F804802B6D0646A86C002835D1AE
:10423000002B53D0B8F838406A6CEF6C9C4228BF12
:104240001C46EB6C53B1296D41B107F06041B1F1EF
:10425000005F03D0082C6F6E28BF082400926A6CA0
:10426000AC651AB1AA6C002A18BF2246CDE9012715
:104270001BB12B6D002B18BF234600226946404618
:10428000039301F08FFF184B984229D06FF004017F
:10429000304604B0BDE8F04105F067BF696CEF6CD3
:1042A000B8F838400A46ABB1834228BF03469C4267
:1042B00028BF1C460029C4D001F06043B3F1005F61
:1042C000BFD0082C28BF08242246286E06F0DBFC4D
:1042D0002A6EB6E7844228BF0446EBE71946D7E7C3
:1042E00004B0BDE8F08100BF0000AD0B10B502784E
:1042F0000346002A5FD10C69A26D32B9606D6FF080
:104300007301BDE8104005F030BFE06C40B1216D95
:1043100031B1DB6823B1834202D0616E06F0B3FC99
:10432000A36CA26D33B19A4213D9234A23480121C9
:1043300005F0ABFE236DA26D33B19A4222D91E4A1D
:104340001E48012105F0A1FE606DBDE81040FFF799
:1043500065BF9B1AA3647BB9636B08336363A36B6C
:10436000013BA36304F1480204F1380104F1340075
:1043700005F092FE6064DDE7636C002BDAD0134435
:104380006364D7E79B1A23657BB9E36B0833E36368
:10439000236C013B236404F1500204F1400104F159
:1043A0003C0005F079FEE064CEE7E36C002BCBD057
:1043B0001344E364C8E710BDABC100002CB000009B
:1043C0002DE9F04F8FB000AF8846FB604368BB60BB
:1043D0008B88046999040646914633D44FF0FF3226
:1043E0004FF0FF3304F1100002F00AFEC4F804801D
:1043F000D6F804B0D6F810A0DBF808303B609AF885
:104400005D3023B1DAF80030984500F0E480B8F868
:1044100004E01EF400631CD0B34AB448012105F047
:1044200034FE6FF0850523689B8813F4005304D194
:10443000636004F1100002F0BFFD28463C37BD4622
:10444000BDE8F08FA369002BC8D163689845C5D13A
:10445000CEE71EF0010F15D06D4688B031686A4670
:10446000A348C2E905014FF400719183A14942F8C4
:10447000101F9E484FF4E251FCF78AFFAD466FF0E3
:104480001505D0E71EF0080F05D09B4A974801217B
:1044900005F0FBFDF3E7CEF34513082B01D0974A57
:1044A000F4E7D8F800307B607A68954B9A4201D8DF
:1044B000944AEBE70BF10C0CBCE80F0007F1100578
:1044C0000FC5BCE80F000FC5D7E900239A4228BFEB
:1044D0001A469CE803008C4B9A4285E8030017D2E9
:1044E0008A4B9A4214D28A4B9A4211D2894B9A42F1
:1044F00050D8894B9A424FD8884B9A424ED8884B15
:104500009A424DD88748884B8849824288BF0B46DB
:104510001EF0020F7B620EF0040343D0002B14BF89
:104520000323022387F82830CEF3001387F82930BD
:10453000DBF80030D3F808251EF0020F4FEA5213C3
:10454000CEF3400102F01F0233D17BB3012B40F0C8
:104550002681774901239340C1F80C359AF85D30E4
:104560002BB1584601F0D0FD00238AF85D30714A26
:10457000334607F11001584601F092FD6E4A904211
:10458000034623D06D4A5948012105F00AFA6FF01D
:10459000040548E76A4BBBE76A4BB9E76A4BB7E7E4
:1045A0006A4BB5E7003B18BF0123BBE74FF0A041C2
:1045B000D0E743B1012B40F0F5805D4901239340E2
:1045C000C1F80835CAE74FF0A041F7E701238AF8A0
:1045D0005D30CAF80080012384F85C30BB68196C38
:1045E0004A1C0AD003F1440005F027FD743004D1C1
:1045F000574A3E48022105F048FDB9F1000F6BD142
:10460000C4F834900023A36304F1480204F1380194
:1046100004F1340005F040FDFB686064002B40F0BD
:104620009B80E3630023236404F1500204F1400102
:1046300004F13C0005F030FD00252A46E06401212C
:104640002046256305F04FFD3046FFF7E7FDA06BE0
:104650002A462B46834240F088800023256C194669
:10466000A94240F089809342A04638BF13464FF4D8
:10467000FA5202FB03F558F8203B4FF4004C1B683C
:10468000B5FBF3F540F2E730C83500214FF47A72FC
:104690000023E5FB0C01FBF733FD02460B464046C9
:1046A00002F0AEFC024600286DD02A4A0F480121D4
:1046B00005F0EBFC0025B868A56501F025FD84F840
:1046C0005D506FF07301304605F04FFD404602F03B
:1046D000BDFC6FF07305A6E6D9F800306363002BCC
:1046E00090D0D9F804308EE7C9C100002CB000008A
:1046F000E3C100000300000105C2000024C2000065
:1047000047E8010053C200000048E8010024F4001B
:1047100000127A00FF083D007F841E003F420F0018
:104720001FA107008FD0030048E8010090D00300CC
:1047300000030050ED4200000000AD0B84C20000F9
:1047400000093D0080841E0040420F0020A10700A8
:10475000ABC20000D5C20000FB681B68E363002BFE
:104760003FF460AFFB685B685DE7616B01EBC30121
:10477000013349680A446DE7E06B00EBC100013189
:10478000406803446CE7256B15F1740F92D0002D3F
:104790003FF449AE0146306905F0A5FC43E6C1F897
:1047A0000C15FFDE0023C3F80835FAE770B50123C6
:1047B00083400E4ABFF35B8FDC4352E8001F01EADF
:1047C000040542E80056002EF7D1BFF35B8F4FF48B
:1047D000803282400648C0F80823BFF35F8FBFF3E2
:1047E0006F8F0B4214BF0120002070BD8C0A002087
:1047F0000010014070B40E49D1E90034D01AC3183A
:1048000044F1000422F07F46C1E90034A6F500130C
:10481000B3F5400F09D2074B1B681A0A1B069C19F7
:10482000054B42F10005C3E9004570BC03F0AAB88E
:1048300078070020900A00208007002011B3BFF302
:104840005B8F0123104A834052E800CF4CEA030CEF
:1048500042E800C10029F7D1BFF35B8F0B4A4FF448
:1048600080338340C2F80433094BBFF35B8F1B686E
:10487000BFF35B8FC340DB0742BF064B4FF40032F0
:10488000C3F80021704700BF8C0A002000100140CF
:10489000880A002000E100E00D4B1868010A0006BC
:1048A000BFF35F8F0B4BD3F80435181841F10001AB
:1048B000B3F5801F0AD2084BD3E90023904271EB75
:1048C000030303D210F1807041F10001704700BF73
:1048D000900A002000100140800700202DE9F04FD1
:1048E00085B016461F469DF840A00446FFF75EFFC0
:1048F0000190FFF7D1FFB04271EB070354D23E4B5A
:10490000301A67EB0101984271F100014FD23B4B25
:1049100003EB0413D3E902239F4208BF96425ED003
:1049200037494FF4803804F1500508FA04F8AD0017
:10493000C1F848832046ADB205F028FC26F07F4B35
:1049400005F1804504F5A87305F58835DC464FF080
:1049500003090293029A2CF07F4341F82230C1F8F8
:104960004483D1F80435274A6FF00200C01A60442E
:1049700020F07F40904232D9286868B1D1F80435E0
:104980000393A3EB0B0020F07F40B0F5000F26D976
:10499000204605F0FBFB039BBAF1000F07D109EBA2
:1049A000030C09F10109D5E7BAF1000F09D06FF046
:1049B000150520460199FFF741FF284605B0BDE8DF
:1049C000F08F0123104ABFF35B8FA34052E8000F22
:1049D000184342E800010029F8D1BFF35B8F074973
:1049E0000E98230101EB0412C8500F9B5360C2E9DB
:1049F00002670025DDE700BF010080006807002096
:104A000000100140FDFF7F00880A00207FB51C4C8C
:104A10001C4BC4F80833C4F848331B4B00254FF037
:104A2000FF304FF0FF31C4F80855C3E902014FF4DD
:104A30008033C4F80433154B02264FF400320121B1
:104A4000C4F804631120C3F880212A46FDF774FBE3
:104A50001120FDF741FB0E4A0123A3602360136080
:104A60000C4B0D4A0093CDE9015500232846FFF772
:104A700035FF3046FDF708FF284604B070BD00BF83
:104A80000010014003000F006807002000E100E073
:104A90008C0A0020F5470000FFFF7F002DE9F74357
:104AA0002F4CD4F8043399070BD5D4F8043143B113
:104AB0002C4A0023C4F80431D4F8043113680133BC
:104AC0001360D4F80433DA0329D5BFF35B8F264B88
:104AD00053E8002F22F0010143E800100028F7D12D
:104AE000BFF35B8FD30702D4D4F84031BBB10025AC
:104AF000C4F84051D4F84031FFF7CEFEEFF31182F5
:104B0000202383F31288BFF36F8F184BD3E902671A
:104B1000B042B94106D282F31188BFF36F8F03B060
:104B2000BDE8F0834FF0FF384FF0FF39C3E9028949
:104B3000D3E900101D604FF48033C4F84833C4F843
:104B40004051D4F8403182F31188BFF36F8F0029B0
:104B5000E5D0009032463B4628468847DFE700BF55
:104B600000100140900A0020880A002068070020F9
:104B700030B5431C124C85B005D08442A8BF044612
:104B8000012CB8BF0124FFF787FE0E4B0C4DD3E973
:104B90000013401AB0F5000F10D22218AA4228BF05
:104BA0002A4652184FF0000007490091CDE9010054
:104BB00043F10003FFF792FE05B030BD2A46F0E74F
:104BC000FFFF7F0078070020F547000008B5FFF7DA
:104BD00063FE024B1B68C01A08BD00BF78070020A7
:104BE0004FF08053D3F83021082A06D1D3F834315E
:104BF000052B02D8024AD05C70470020704700BFE6
:104C000036C30000024AD2F80034002BFBD07047B4
:104C100000E0014010B54FF08053D3F83021082A4E
:104C20004ED14FF080420021C2F80C11C2F8101191
:104C3000C2F8381502F54042D3F80414C2F8201522
:104C4000D3F80814C2F82415D3F80C14C2F82815A8
:104C5000D3F81014C2F82C15D3F81414C2F8301578
:104C6000D3F81814C2F83415D3F81C14C2F8401540
:104C7000D3F82014C2F84415D3F82414C2F8481508
:104C8000D3F82814C2F84C15D3F82C14C2F85015D8
:104C9000D3F83014C2F85415D3F83414C2F86015A0
:104CA000D3F83814C2F86415D3F83C14C2F8681568
:104CB000D3F84014C2F86C15D3F84434C2F87035F8
:104CC000FFF78EFF18B13A4B3A4AC3F88C26FFF72C
:104CD00087FF18B1384BFB22C3F81825FFF780FF78
:104CE00070B14FF080414FF08053D1F8E42ED3F8EB
:104CF000583222F00F0203F00F031343C1F8E43ED1
:104D0000FFF76EFF20B12D4B4FF40072C3F8402621
:104D10004FF08053D3F83031082B1AD14FF0804335
:104D2000D3F80024D20744BF6FF00102C3F8002477
:104D30004FF08053D3F83431052B02D8204AD35C8E
:104D40003BB14FF01023D3F808224FF08043C3F853
:104D500058254FF01023D3F80022002A03DBD3F8A4
:104D60000432002B22DA174901234FF01020C1F83A
:104D700004351224FFF746FFC0F80042FFF742FF58
:104D8000C0F80442FFF73EFF0023C1F80435FFF7E7
:104D900039FFBFF34F8F0C490C4BCA6802F4E06235
:104DA0001343CB60BFF34F8F00BFFDE710BD00BFC3
:104DB000005000404881030000F000400090024095
:104DC00030C3000000E0014000ED00E00400FA05FF
:104DD00030B50468CCB1BFF35B8FB4FA84F3C3F190
:104DE0001F03DBB201229A4024EA020250E8005F6E
:104DF000A54204D140E8002CBCF1000FF6D1BFF36E
:104E00005B8FE6D102480B7030BD0248FCE700BF63
:104E10000000AD0B0200AD0B10B50368CB40DB0703
:104E200014D401238B400268BFF35B8F43EA020175
:104E300050E8004F944204D140E8001CBCF1000F40
:104E4000F6D1BFF35B8FEED1014810BD0148FCE7FE
:104E50000000AD0B0400AD0B014BC3F80405704717
:104E600000F00140F7B5044618B1012823D003B083
:104E7000F0BD4FF080430222C3F808230122DA601C
:104E8000C3F80401D3F80431064601238DF8073036
:104E900042F210754FF08047D4B1012CE7D1D7F81A
:104EA0000C3403F48033AEBB83B3012005F07FF9EB
:104EB000013DF4D12AE04FF080430022C3F80803FB
:104EC0005860C3F80021D3F800310DF10706DCE784
:104ED000D7F8183403F480333EB9002BC7D0012033
:104EE00005F065F9013DF3D1C1E7D7F8182402F0C8
:104EF00003023260002BBAD09DF80700012803D1CD
:104F000005F055F9013DC7D1012CB0D1054B002268
:104F10005A71ACE7D7F80C2402F001023270002B72
:104F2000EAD1F3E7940A0020044B1A7922B901224E
:104F300018609A800248704702487047940A00201F
:104F40000000AD0B0C00AD0B08B5074B1B682BB177
:104F50000020FDF7E3F808B9FDF7BEF84FF08043F5
:104F60000022C3F8182508BD940A002010B510B11E
:104F7000012843D010BD4FF08043D3F81814D3F864
:104F80001824C80321D502F00303012B04D013B168
:104F90000020FFF767FF00234FF080420220C2F895
:104FA000183508224FF4827303F180430021196001
:104FB00002F180421C6801241460154A12680AB389
:104FC0004FF08043C3F80403D4E7D3F81424D10787
:104FD000E1D5D3F81C249207DAD40D4A12681AB12D
:104FE0000222C3F80423C5E7D3F80421002AFBD02A
:104FF0000022C3F80421D3F80431BBE700224FF4A8
:105000008073D1E71A68002AFCD019601B68B1E7E9
:10501000940A002010B54FF08043D3F800216AB104
:105020000022C3F80021D3F800210122C3F808238D
:10503000114B587910B95A711B6898474FF080434B
:10504000D3F8042172B10022C3F80421D3F804215B
:10505000D3F81824D3F81824920704D10122C3F8F6
:1050600018259A6010BD0222C3F80823024BBDE840
:1050700010401B6801201847940A0020036803F0C1
:105080001F025B09026004D0012B034818BF0020F7
:1050900070474FF0A040704700030050034A430997
:1050A00000F01F00D35C1844C0B270473CC300003E
:1050B00070B50546FFF7F2FF0C4C08300E4634F889
:1050C0001030DA0508D5C3F3432304EBC3022846A6
:1050D00054F8333052689847A3682BB1E2683146E0
:1050E0002846BDE87040184770BD00BF6001002031
:1050F00008B5FFF7D3FF034B083033F81000400B1F
:1051000008BD00BF6001002008B5FFF7C7FF034BD3
:10511000083033F81000C0F3400008BD60010020E3
:1051200008B5FFF7BBFF034B083033F81000C0F39E
:10513000401008BD60010020034611F0010010B5C9
:10514000CCB20DD1A207C4F3400012D5094AD2F85F
:1051500020055860C2F82005003818BF012008E07B
:105160004FF0A041D1F820251A60C1F82025002A6F
:10517000E8D010BD0003005010B5FFF78FFF124AB2
:10518000083032F81030D9051CD5C3F3432123F47D
:10519000F85322F8103002F10E04002034F8023FD8
:1051A00013F4807F03D0C3F3432399420AD0013024
:1051B0003028F3D1002342F831300448BDE81040D4
:1051C000FFF72ABE10BD00BF60010020D8010020FB
:1051D000F0B5054600200446012607468C420BD157
:1051E000114BD3F87C2132B10022C3F87C21D3F8D3
:1051F0007C3140F00040F0BDE3B29B0003F58072CB
:105200009B0806FA03F31D420BD002F1804202F51F
:10521000C042D2F800C0BCF1000F02D01760126883
:1052200018430134DAE700BF00600040F7B50646D6
:105230000846FFF733FF194F00F108050C4637F811
:105240001530DB0727D5304605F028F82046FFF754
:1052500067FF40B12046FFF74BFF316800F5A270B1
:10526000002341F820302046FFF786FF002301A8E5
:1052700027F815300194FFF701FF019B00EB830035
:10528000074BD0F80027134043F00203C0F8003763
:10529000044803B0F0BD0448FBE700BF60010020F4
:1052A000F0F8FCFF0000AD0B0400AD0B2DE9FF4151
:1052B000164680460846FFF7F1FE0D463168044663
:1052C00009B32846FFF720FF18B12846FFF728FF4B
:1052D00010BB0023CDE900338DF80E308DF80F3070
:1052E0000DF10F020B4628460DF10E0104F06DFF83
:1052F000474A04F1080132F8113023F0020343F069
:10530000010322F81130736863B328461F78596887
:10531000FFF7FAFE10B1D1B13E4826E03C4A04F155
:10532000080032F8103023F02003DB04DB0C22F8F5
:10533000103061B1032FEFD87168496891F800C04F
:10534000D8F80010A7B90CF5A27C41F82C70304AAF
:1053500004F1080132F8113023F01C0343EA8703FB
:1053600022F81130B3684BBB2B4804B0BDE8F08184
:1053700001EB8C0143EA4C33D1F810E52EF0030E1B
:10538000C1F810E5D8F8001001EB8C0E43F02003B3
:10539000DEF8101522F8103021F44F3121F440715D
:1053A000CEF810152902DEF8108501F47C5141EA8F
:1053B000074141EA0801CEF81015C8E7D3E90067B4
:1053C0002846FFF7D9FE002ECED0114DD5E9002397
:1053D000964203D19F4201D1002209E00F480DF10E
:1053E0000F01FFF7F5FC0C4B9842BED19DF80F2042
:1053F00045F8326005EBC20308345F6035F81430BD
:1054000043EA422343F4807325F81430ACE700BF2D
:10541000600100200400AD0B0000AD0BD80100209E
:105420002DE9F0430C4685B08046204611461E46C5
:10543000FFF734FE054629B32046FFF765FE18B98D
:105440002046FFF76DFE18BB314F05F1080937F80C
:10545000193013F01C0F02D04B78012B18D0012308
:105460008DF80F300023CDE900134A1C8B1C204619
:105470000DF10F0104F0A9FE37F8193043F00303D2
:1054800027F81930002E41D02046FFF73DFE18B90D
:10549000204805B0BDE8F08396F800C0D8F8003089
:1054A0001B4F0CF5A272002143F8221005F10802EF
:1054B00037F8121021F02001C904C90C27F8121086
:1054C00075781DB3D8F80000B67800EB8C002D0479
:1054D000D0F8103523F4991323F4F853C0F810359D
:1054E000230203F47C5305F440353605D0F810E56B
:1054F0002B4306F4801641EA4C31334341F020013E
:1055000043EA0E0327F81210C0F810350248C0E72E
:10551000600100200400AD0B0000AD0B014BC3E99E
:10552000021270476001002010B508461446FFF7CC
:10553000F7FD50B10846FFF7B1FD054B083033F8D1
:10554000103004485B0B237010BD0348FCE700BF1C
:10555000600100200000AD0B0400AD0B70B5164DCE
:1055600095F8804006462CBB2146602205F11000CC
:1055700005F097FB30682E6F21468E420ED1002336
:10558000C0F87C31D0F87C3140F30730FCF7A4FD43
:1055900001230A4885F88030AB6770BDCBB29B0011
:1055A00003F580727C2B08BF845001F1010108BF14
:1055B0008358E2E70248F0E7600100200000AD0BED
:1055C0000C00AD0B034B93F88000003818BF01208E
:1055D000704700BF600100200148FFF71DBC00BFFD
:1055E000D40100200148FFF7F3BB00BFD401002025
:1055F00073B503681646D3F80423002AA8BF4FF0FA
:1056000000420546A8BFC3F8042308460C46FFF72E
:1056100087FD00B30846FFF777FD0146D8B920465D
:10562000FFF766FD04B2A40004F580720346286803
:105630008150296882582144D1F8102542F0010296
:10564000C1F810252EB12968012202FA03F3C1F82E
:10565000043302B070BD2046FFF720FD0F4B083029
:1056600033F81030C3F38203042B12D0052B12D071
:1056700001A80194FFF702FD019AD0F81035D3403C
:1056800003F00103991C204602B0BDE8704004F00D
:10569000E5BD0321F7E70221F5E700BF6001002027
:1056A0002DE9F04F694BDFF8A881D3F80403D8F84F
:1056B0007010C0B289B040F00040FFF789FD051EB0
:1056C0002FDAC24600235AF87C1F06A8CDE906331C
:1056D000FFF732FD5F4B01930DF118094FF0000BFE
:1056E000019A12F8013B0192DA0803F007031AF855
:1056F000022022FA03F3DA071CD409F10409BBF1F2
:10570000000F14D0D8F870104FF00040FFF760FD84
:10571000D8F87C1006A8FFF70FFD0028DAD125F095
:1057200000450124002D79D109B0BDE8F08F4FF07C
:10573000010BD5E7484B5B440293D9F800100029D0
:10574000DBD0029B91FAA1F11C78B1FA81F141EA18
:1057500044142046FFF7A2FC0830059438F8107076
:10576000C808BB0819F80020039301F007010123C2
:1057700003FA01F122EA010209F8002005A8FFF767
:105780007DFC059A039B02F5E072C7F3820650F890
:1057900022205B073746C2F3014224D52046394612
:1057A000D6B2FFF785FC05A80594FFF767FC059BBB
:1057B00003F5E07350F82330C3F301439E4207D151
:1057C0000021204604F04AFD3146204604F046FD03
:1057D00005A80594FFF752FC059B012202FA03F38A
:1057E000C0F82035A9E7022A0CD10321204604F095
:1057F00035FD06F00503012BEAD139462046FFF7B7
:1058000057FCE5E702212046039204F027FD032E12
:10581000F3D0039A032ADBD1022EEDE795FAA5F324
:10582000B3FA83F304FA03F29B0003F1804303F518
:10583000C04325EA0205D3F81005D3F81015C0F3CC
:105840000520C1F30141FFF733FC6BE70060004026
:10585000600100204CC300004CC300000146014819
:10586000FFF7B6BAE401002000F01F0240090BD098
:1058700001280CD1094B03EB8203094AD3F8001726
:105880000A40C3F8002770474FF0A043F3E702F542
:10589000E072002353F82230FFDE00BF0003005007
:1058A000F0F8FCFFF8B504790B4F0C26664307EBC4
:1058B000060CBE5D6EB9CCE9012321B14B7E8CF89C
:1058C000013004F02BFD0C235C4301233B550348BE
:1058D000F8BD0348FCE700BF9C0A00200000AD0BA8
:1058E0000C00AD0B016803790122C1F800250168A5
:1058F0000A600C225343024A0221D154704700BF70
:105900009C0A0020F0B52C4ED6F8045385B005F063
:10591000070501AC0023224628464FF4807101930D
:1059200004F0E7FC28464FF4827104F0E2FC2846BC
:105930004FF4847104F0DDFC28464FF4867104F0C6
:10594000D8FC4FF48871284604F0D3FC019DE90788
:105950000DD54FF48073ADF80430D6F80C358DF8C2
:105960000830164B94E80700D3E90173B847AA073B
:105970000FD54FF48273ADF80430D6F81835029382
:10598000D6F8483503930D4B94E80700D3E901633B
:10599000B0476B070DD54FF48473ADF80430074B57
:1059A00094E80700D3E90153AC4605B0BDE8F040E8
:1059B000604705B0F0BD00BF002001409C0A0020F8
:1059C000036803F01F025B09026004D0012B034847
:1059D00018BF002070474FF0A040704700030050F0
:1059E00007B5019001A8FFF7EBFF019B00EB8300D7
:1059F000054BD0F80027134043F00303C0F80037ED
:105A000003B05DF804FB00BFF0F8FCFF73B5CB7B7F
:105A10000446002B38D10B7B0878012B77D804F093
:105A2000FFFC0B78019301A8FFF7CAFF019B00EB75
:105A300083003C4BD0F80027134043F00103C0F82B
:105A400000374878FF2804D004F0EAFC4878FFF7D4
:105A5000C7FF8B78FF2B0FD001A88D7B0193FFF739
:105A6000AFFF019B00EB83002E4BD0F800271340C3
:105A700043EA8503C0F80037C878FF2804D004F053
:105A8000C2FCC878FFF7ACFF23792748CA782825DD
:105A900005FB03039A770B7C9BB94B7825680E783E
:105AA000FF2B18BF1A468B78C5F8086508BF4FF062
:105AB000FF32FF2B08BF4FF0FF33C5F80C25C5F8A8
:105AC000103523688A68C3F824254B7B0A7B256838
:105AD000003B18BF0123022A1CD0032A1DD0012A33
